{
  "_format": "hh-sol-artifact-1",
  "contractName": "EstateVault",
  "sourceName": "contracts/EstateVault.sol",
  "abi": [
    {
      "anonymous": false,
      "inputs": [
        {
          "indexed": true,
          "internalType": "address",
          "name": "owner",
          "type": "address"
        },
        {
          "indexed": true,
          "internalType": "address",
          "name": "spender",
          "type": "address"
        },
        {
          "indexed": false,
          "internalType": "uint256",
          "name": "value",
          "type": "uint256"
        }
      ],
      "name": "Approval",
      "type": "event"
    },
    {
      "anonymous": false,
      "inputs": [
        {
          "indexed": false,
          "internalType": "uint8",
          "name": "version",
          "type": "uint8"
        }
      ],
      "name": "Initialized",
      "type": "event"
    },
    {
      "anonymous": false,
      "inputs": [
        {
          "indexed": false,
          "internalType": "address[]",
          "name": "invitees",
          "type": "address[]"
        },
        {
          "indexed": false,
          "internalType": "uint256",
          "name": "count",
          "type": "uint256"
        }
      ],
      "name": "InvitationSend",
      "type": "event"
    },
    {
      "anonymous": false,
      "inputs": [
        {
          "indexed": false,
          "internalType": "string",
          "name": "name",
          "type": "string"
        },
        {
          "indexed": false,
          "internalType": "string",
          "name": "symbol",
          "type": "string"
        }
      ],
      "name": "MetadataChanged",
      "type": "event"
    },
    {
      "anonymous": false,
      "inputs": [
        {
          "indexed": true,
          "internalType": "address",
          "name": "sendTo",
          "type": "address"
        },
        {
          "indexed": false,
          "internalType": "uint256",
          "name": "nftId",
          "type": "uint256"
        }
      ],
      "name": "NftUnwrapped",
      "type": "event"
    },
    {
      "anonymous": false,
      "inputs": [
        {
          "indexed": true,
          "internalType": "address",
          "name": "previousOwner",
          "type": "address"
        },
        {
          "indexed": true,
          "internalType": "address",
          "name": "newOwner",
          "type": "address"
        }
      ],
      "name": "OwnershipTransferred",
      "type": "event"
    },
    {
      "anonymous": false,
      "inputs": [
        {
          "indexed": false,
          "internalType": "uint256",
          "name": "syndicated",
          "type": "uint256"
        },
        {
          "indexed": false,
          "internalType": "uint256",
          "name": "minBuy",
          "type": "uint256"
        }
      ],
      "name": "SaleInit",
      "type": "event"
    },
    {
      "anonymous": false,
      "inputs": [
        {
          "indexed": true,
          "internalType": "address",
          "name": "buyer",
          "type": "address"
        },
        {
          "indexed": false,
          "internalType": "uint256",
          "name": "value",
          "type": "uint256"
        }
      ],
      "name": "SoldFractions",
      "type": "event"
    },
    {
      "anonymous": false,
      "inputs": [
        {
          "indexed": true,
          "internalType": "address",
          "name": "from",
          "type": "address"
        },
        {
          "indexed": true,
          "internalType": "address",
          "name": "to",
          "type": "address"
        },
        {
          "indexed": false,
          "internalType": "uint256",
          "name": "value",
          "type": "uint256"
        }
      ],
      "name": "Transfer",
      "type": "event"
    },
    {
      "inputs": [],
      "name": "TokenId",
      "outputs": [
        {
          "internalType": "uint256",
          "name": "",
          "type": "uint256"
        }
      ],
      "stateMutability": "view",
      "type": "function"
    },
    {
      "inputs": [
        {
          "internalType": "address",
          "name": "nftAddress",
          "type": "address"
        },
        {
          "internalType": "uint256",
          "name": "nftId",
          "type": "uint256"
        },
        {
          "internalType": "uint256",
          "name": "price",
          "type": "uint256"
        },
        {
          "internalType": "uint256",
          "name": "supply",
          "type": "uint256"
        },
        {
          "internalType": "string",
          "name": "name_",
          "type": "string"
        },
        {
          "internalType": "string",
          "name": "symbol_",
          "type": "string"
        },
        {
          "internalType": "address",
          "name": "safe",
          "type": "address"
        },
        {
          "internalType": "address",
          "name": "nftOwner",
          "type": "address"
        }
      ],
      "name": "__EstateVault_init",
      "outputs": [],
      "stateMutability": "nonpayable",
      "type": "function"
    },
    {
      "inputs": [],
      "name": "_supply",
      "outputs": [
        {
          "internalType": "uint256",
          "name": "",
          "type": "uint256"
        }
      ],
      "stateMutability": "view",
      "type": "function"
    },
    {
      "inputs": [],
      "name": "allBuyers",
      "outputs": [
        {
          "internalType": "address[]",
          "name": "",
          "type": "address[]"
        }
      ],
      "stateMutability": "view",
      "type": "function"
    },
    {
      "inputs": [
        {
          "internalType": "address",
          "name": "owner",
          "type": "address"
        },
        {
          "internalType": "address",
          "name": "spender",
          "type": "address"
        }
      ],
      "name": "allowance",
      "outputs": [
        {
          "internalType": "uint256",
          "name": "",
          "type": "uint256"
        }
      ],
      "stateMutability": "view",
      "type": "function"
    },
    {
      "inputs": [
        {
          "internalType": "address",
          "name": "spender",
          "type": "address"
        },
        {
          "internalType": "uint256",
          "name": "amount",
          "type": "uint256"
        }
      ],
      "name": "approve",
      "outputs": [
        {
          "internalType": "bool",
          "name": "",
          "type": "bool"
        }
      ],
      "stateMutability": "nonpayable",
      "type": "function"
    },
    {
      "inputs": [],
      "name": "assetAddress",
      "outputs": [
        {
          "internalType": "address",
          "name": "",
          "type": "address"
        }
      ],
      "stateMutability": "view",
      "type": "function"
    },
    {
      "inputs": [],
      "name": "availFractions",
      "outputs": [
        {
          "internalType": "uint256",
          "name": "",
          "type": "uint256"
        }
      ],
      "stateMutability": "view",
      "type": "function"
    },
    {
      "inputs": [
        {
          "internalType": "address",
          "name": "account",
          "type": "address"
        }
      ],
      "name": "balanceOf",
      "outputs": [
        {
          "internalType": "uint256",
          "name": "",
          "type": "uint256"
        }
      ],
      "stateMutability": "view",
      "type": "function"
    },
    {
      "inputs": [
        {
          "internalType": "address",
          "name": "safe",
          "type": "address"
        },
        {
          "internalType": "uint256",
          "name": "shares",
          "type": "uint256"
        }
      ],
      "name": "buyFractions",
      "outputs": [],
      "stateMutability": "nonpayable",
      "type": "function"
    },
    {
      "inputs": [
        {
          "internalType": "uint256",
          "name": "id",
          "type": "uint256"
        }
      ],
      "name": "buyerAddress",
      "outputs": [
        {
          "internalType": "address",
          "name": "",
          "type": "address"
        }
      ],
      "stateMutability": "view",
      "type": "function"
    },
    {
      "inputs": [
        {
          "internalType": "string",
          "name": "name",
          "type": "string"
        },
        {
          "internalType": "string",
          "name": "symbol",
          "type": "string"
        }
      ],
      "name": "changeMetadata",
      "outputs": [],
      "stateMutability": "nonpayable",
      "type": "function"
    },
    {
      "inputs": [],
      "name": "decimals",
      "outputs": [
        {
          "internalType": "uint8",
          "name": "",
          "type": "uint8"
        }
      ],
      "stateMutability": "view",
      "type": "function"
    },
    {
      "inputs": [
        {
          "internalType": "address",
          "name": "spender",
          "type": "address"
        },
        {
          "internalType": "uint256",
          "name": "subtractedValue",
          "type": "uint256"
        }
      ],
      "name": "decreaseAllowance",
      "outputs": [
        {
          "internalType": "bool",
          "name": "",
          "type": "bool"
        }
      ],
      "stateMutability": "nonpayable",
      "type": "function"
    },
    {
      "inputs": [
        {
          "internalType": "address",
          "name": "spender",
          "type": "address"
        },
        {
          "internalType": "uint256",
          "name": "addedValue",
          "type": "uint256"
        }
      ],
      "name": "increaseAllowance",
      "outputs": [
        {
          "internalType": "bool",
          "name": "",
          "type": "bool"
        }
      ],
      "stateMutability": "nonpayable",
      "type": "function"
    },
    {
      "inputs": [
        {
          "internalType": "address[]",
          "name": "_invitees",
          "type": "address[]"
        }
      ],
      "name": "invite",
      "outputs": [],
      "stateMutability": "nonpayable",
      "type": "function"
    },
    {
      "inputs": [],
      "name": "name",
      "outputs": [
        {
          "internalType": "string",
          "name": "",
          "type": "string"
        }
      ],
      "stateMutability": "view",
      "type": "function"
    },
    {
      "inputs": [
        {
          "internalType": "address",
          "name": "",
          "type": "address"
        },
        {
          "internalType": "address",
          "name": "",
          "type": "address"
        },
        {
          "internalType": "uint256",
          "name": "",
          "type": "uint256"
        },
        {
          "internalType": "bytes",
          "name": "",
          "type": "bytes"
        }
      ],
      "name": "onERC721Received",
      "outputs": [
        {
          "internalType": "bytes4",
          "name": "",
          "type": "bytes4"
        }
      ],
      "stateMutability": "nonpayable",
      "type": "function"
    },
    {
      "inputs": [
        {
          "internalType": "uint256",
          "name": "syndicate",
          "type": "uint256"
        },
        {
          "internalType": "uint256",
          "name": "minToBuy",
          "type": "uint256"
        }
      ],
      "name": "openSale",
      "outputs": [],
      "stateMutability": "nonpayable",
      "type": "function"
    },
    {
      "inputs": [],
      "name": "owner",
      "outputs": [
        {
          "internalType": "address",
          "name": "",
          "type": "address"
        }
      ],
      "stateMutability": "view",
      "type": "function"
    },
    {
      "inputs": [],
      "name": "pricePerShare",
      "outputs": [
        {
          "internalType": "uint256",
          "name": "",
          "type": "uint256"
        }
      ],
      "stateMutability": "view",
      "type": "function"
    },
    {
      "inputs": [],
      "name": "renounceOwnership",
      "outputs": [],
      "stateMutability": "nonpayable",
      "type": "function"
    },
    {
      "inputs": [],
      "name": "saleStatus",
      "outputs": [
        {
          "internalType": "enum EstateVault.Sale",
          "name": "",
          "type": "uint8"
        }
      ],
      "stateMutability": "view",
      "type": "function"
    },
    {
      "inputs": [],
      "name": "symbol",
      "outputs": [
        {
          "internalType": "string",
          "name": "",
          "type": "string"
        }
      ],
      "stateMutability": "view",
      "type": "function"
    },
    {
      "inputs": [],
      "name": "totalBuyers",
      "outputs": [
        {
          "internalType": "uint256",
          "name": "",
          "type": "uint256"
        }
      ],
      "stateMutability": "view",
      "type": "function"
    },
    {
      "inputs": [],
      "name": "totalSupply",
      "outputs": [
        {
          "internalType": "uint256",
          "name": "",
          "type": "uint256"
        }
      ],
      "stateMutability": "view",
      "type": "function"
    },
    {
      "inputs": [
        {
          "internalType": "address",
          "name": "to",
          "type": "address"
        },
        {
          "internalType": "uint256",
          "name": "amount",
          "type": "uint256"
        }
      ],
      "name": "transfer",
      "outputs": [
        {
          "internalType": "bool",
          "name": "",
          "type": "bool"
        }
      ],
      "stateMutability": "nonpayable",
      "type": "function"
    },
    {
      "inputs": [
        {
          "internalType": "address",
          "name": "from",
          "type": "address"
        },
        {
          "internalType": "address",
          "name": "to",
          "type": "address"
        },
        {
          "internalType": "uint256",
          "name": "amount",
          "type": "uint256"
        }
      ],
      "name": "transferFrom",
      "outputs": [
        {
          "internalType": "bool",
          "name": "",
          "type": "bool"
        }
      ],
      "stateMutability": "nonpayable",
      "type": "function"
    },
    {
      "inputs": [
        {
          "internalType": "address",
          "name": "newOwner",
          "type": "address"
        }
      ],
      "name": "transferOwnership",
      "outputs": [],
      "stateMutability": "nonpayable",
      "type": "function"
    },
    {
      "inputs": [
        {
          "internalType": "address",
          "name": "to",
          "type": "address"
        }
      ],
      "name": "unwrapNft",
      "outputs": [],
      "stateMutability": "nonpayable",
      "type": "function"
    }
  ],
  "bytecode": "0x608060405234801561001057600080fd5b50612b59806100206000396000f3fe608060405234801561001057600080fd5b50600436106101da5760003560e01c80637c027d0e11610104578063a457c2d7116100a2578063dd62ed3e11610071578063dd62ed3e146103e9578063e8c0b2c3146103fc578063f2fde38b14610411578063f9020e331461042457600080fd5b8063a457c2d71461039d578063a9059cbb146103b0578063bd9981b1146103c3578063bed9b952146103d657600080fd5b806395d89b41116100de57806395d89b411461037257806397d1e8a31461037a57806399530b061461038d5780639ffb8b491461039557600080fd5b80637c027d0e1461033b578063867713371461034e5780638da5cb5b1461036157600080fd5b806323b872dd1161017c578063526b347e1161014b578063526b347e146102e2578063595bddf9146102f757806370a082311461030a578063715018a61461033357600080fd5b806323b872dd146102a5578063313ce567146102b857806339509351146102c75780633abd0136146102da57600080fd5b8063150b7a02116101b8578063150b7a0214610235578063159457901461026157806318160ddd146102785780631ba46cfd1461028057600080fd5b806301db4ac6146101df57806306fdde03146101fd578063095ea7b314610212575b600080fd5b6101e761043e565b6040516101f49190612827565b60405180910390f35b6102056104a0565b6040516101f49190612884565b6102256102203660046124ba565b610529565b60405190151581526020016101f4565b61024861024336600461243a565b610541565b6040516001600160e01b031990911681526020016101f4565b61026a60cc5481565b6040519081526020016101f4565b60995461026a565b60c9546001600160a01b03165b6040516001600160a01b0390911681526020016101f4565b6102256102b33660046123f9565b610552565b604051600681526020016101f4565b6102256102d53660046124ba565b610578565b60d15461026a565b6102f56102f036600461273c565b61059a565b005b6102f56103053660046126a6565b61089b565b61026a610318366004612386565b6001600160a01b031660009081526097602052604090205490565b6102f5610966565b6102f56103493660046124e6565b61099c565b6102f561035c3660046124ba565b610c55565b6033546001600160a01b031661028d565b61020561112a565b6102f56103883660046125a1565b611139565b60cb5461026a565b60ca5461026a565b6102256103ab3660046124ba565b61133f565b6102256103be3660046124ba565b6113c5565b6102f56103d1366004612386565b6113d3565b61028d6103e436600461270a565b611591565b61026a6103f73660046123c0565b6115c1565b3060009081526097602052604090205461026a565b6102f561041f366004612386565b6115ec565b60ce54600160a01b900460ff166040516101f4919061285c565b606060d080548060200260200160405190810160405280929190818152602001828054801561049657602002820191906000526020600020905b81546001600160a01b03168152600190910190602001808311610478575b5050505050905090565b6060609a80546104af90612a60565b80601f01602080910402602001604051908101604052809291908181526020018280546104db90612a60565b80156104965780601f106104fd57610100808354040283529160200191610496565b820191906000526020600020905b81548152906001019060200180831161050b57509395945050505050565b600033610537818585611687565b5060019392505050565b630a85bd0160e11b5b949350505050565b6000336105608582856117ac565b61056b858585611826565b60019150505b9392505050565b60003361053781858561058b83836115c1565b61059591906129c4565b611687565b60cd546001600160a01b031633146105ee5760405162461bcd60e51b81526020600482015260126024820152712b30bab63a1d1037b7363c9039b2b63632b960711b60448201526064015b60405180910390fd5b600060ce54600160a01b900460ff16600281111561060e5761060e612acc565b1461065b5760405162461bcd60e51b815260206004820152601f60248201527f5661756c743a2073616c6520697320616374697665206f7220636c6f7365640060448201526064016105e5565b60c95460ca546040516331a9108f60e11b8152600481019190915230916001600160a01b031690636352211e9060240160206040518083038186803b1580156106a357600080fd5b505afa1580156106b7573d6000803e3d6000fd5b505050506040513d601f19601f820116820180604052508101906106db91906123a3565b6001600160a01b0316146107315760405162461bcd60e51b815260206004820152601960248201527f5661756c743a20746f6b656e206e6f742072656369657665640000000000000060448201526064016105e5565b60cc5482141561079d576107473060cc54611836565b60cc5481106107985760405162461bcd60e51b815260206004820181905260248201527f5661756c743a206d696e20746f20627579206578636565647320737570706c7960448201526064016105e5565b610845565b60008260cc546107ad91906129fe565b905060008160cc546107bf9190612a1d565b60ce549091506107d8906001600160a01b031682611836565b6107e23083611836565b8183106108425760405162461bcd60e51b815260206004820152602860248201527f5661756c743a206d696e20746f20627579206578636565647320736861726573604482015267081d1bc81cd95b1b60c21b60648201526084016105e5565b50505b60d281905560ce805460ff60a01b1916600160a01b17905560408051838152602081018390527ffb3347c797667e8152fea4ded6e0f5221c9a690fe34a086d5c24b82da2de339591015b60405180910390a15050565b6033546001600160a01b031633146108c55760405162461bcd60e51b81526004016105e590612913565b600160ce54600160a01b900460ff1660028111156108e5576108e5612acc565b141561092b5760405162461bcd60e51b81526020600482015260156024820152745661756c743a2073616c652069732061637469766560581b60448201526064016105e5565b6109358282611846565b7f6b2211ef1bc37c6d1ee5729ae98f9957c0ddd32615bc0e07052175d219ac147e828260405161088f929190612897565b6033546001600160a01b031633146109905760405162461bcd60e51b81526004016105e590612913565b61099a600061186d565b565b60006109a860016118bf565b905080156109c0576000805461ff0019166101001790555b6109ca8585611947565b6109d2611978565b6109da61199f565b60d380546001600160a01b03191633908117909155610a3b5760405162461bcd60e51b815260206004820152601e60248201527f5661756c743a20666163746f7279206973207a65726f2061646472657373000060448201526064016105e5565b610a4586886129dc565b60cb81905560d480546001600160a01b03191673d9145cce52d386f254917e481eb44e9943f3913890811790915560009163095ea7b3903090610a89908b906129fe565b6040516001600160e01b031960e085901b1681526001600160a01b0390921660048301526024820152604401602060405180830381600087803b158015610acf57600080fd5b505af1158015610ae3573d6000803e3d6000fd5b505050506040513d601f19601f82011682018060405250810190610b07919061265a565b905080610b565760405162461bcd60e51b815260206004820152601c60248201527f5661756c743a20756e7375636365737366756c20617070726f76616c0000000060448201526064016105e5565b8360ce60006101000a8154816001600160a01b0302191690836001600160a01b031602179055508260cd60006101000a8154816001600160a01b0302191690836001600160a01b031602179055508960c960006101000a8154816001600160a01b0302191690836001600160a01b031602179055508860ca819055508660cc81905550600060ce60146101000a81548160ff02191690836002811115610bfe57610bfe612acc565b0217905550508015610c4a576000805461ff0019169055604051600181527f7f26b83ff96e1f2b6a682f133852f6798a09c465da95921460cefb38474024989060200160405180910390a15b505050505050505050565b600160ce54600160a01b900460ff166002811115610c7557610c75612acc565b14610cc25760405162461bcd60e51b815260206004820152601960248201527f5661756c743a2073616c65206973206e6f74206163746976650000000000000060448201526064016105e5565b6001600160a01b0382163b15158015610ce357506001600160a01b03821615155b610d435760405162461bcd60e51b815260206004820152602b60248201527f5661756c743a2073616665206973206e6f7420636f6e7472616374206f72207a60448201526a65726f206164647265737360a81b60648201526084016105e5565b60405163b9209e3360e01b8152336004820152735e17b14add6c386305a32928f985b29bba34eff59063b9209e339060240160206040518083038186803b158015610d8d57600080fd5b505afa158015610da1573d6000803e3d6000fd5b505050506040513d601f19601f82011682018060405250810190610dc5919061265a565b610e1d5760405162461bcd60e51b8152602060048201526024808201527f457374617465466163746f72793a20766572696669656420686f6c64657273206044820152636f6e6c7960e01b60648201526084016105e5565b33600090815260cf602052604090205460ff16610e7c5760405162461bcd60e51b815260206004820152601960248201527f5661756c743a206d697373696e6720696e7669746174696f6e0000000000000060448201526064016105e5565b306000908152609760205260409020548111158015610e9d575060d2548110155b610f035760405162461bcd60e51b815260206004820152603160248201527f5661756c743a207a65726f20616d6f756e74206f72206578636565647320617660448201527061696c61626c65206672616374696f6e7360781b60648201526084016105e5565b600060cb5482610f1391906129fe565b60d454604051636eb1769f60e11b81526001600160a01b03868116600483015230602483015292935091169063dd62ed3e9060440160206040518083038186803b158015610f6057600080fd5b505afa158015610f74573d6000803e3d6000fd5b505050506040513d601f19601f82011682018060405250810190610f989190612723565b81116110185760d454610fb6906001600160a01b03168430846119ce565b60ce5460d454610fd3916001600160a01b03918216911683611a39565b610fde308484611826565b60405182815233907ff9ce0f0784d30244764f533370fd3386f4924799f9268c372412509a972f77169060200160405180910390a2611070565b60405162461bcd60e51b815260206004820152602760248201527f5661756c743a20696e73756666696369656e7420616d70657273616e6420616c6044820152666c6f77616e636560c81b60648201526084016105e5565b60d080546001810182557fe89d44c8fd6a9bac8af33ce47f56337617d449bf7ff3956b618c646de829cbcb0180546001600160a01b031916331790555460d155306000908152609760205260409020546110dc5760ce805460ff60a01b1916600160a11b1790556110f0565b60ce805460ff60a01b1916600160a01b1790555b60405182815233907ff9ce0f0784d30244764f533370fd3386f4924799f9268c372412509a972f77169060200160405180910390a2505050565b6060609b80546104af90612a60565b60cd546001600160a01b031633146111885760405162461bcd60e51b81526020600482015260126024820152712b30bab63a1d1037b7363c9039b2b63632b960711b60448201526064016105e5565b600260ce54600160a01b900460ff1660028111156111a8576111a8612acc565b14156111ea5760405162461bcd60e51b815260206004820152601160248201527015985d5b1d0e881cd85b1948195b991959607a1b60448201526064016105e5565b60005b815181101561130a57600082828151811061120a5761120a612ae2565b6020026020010151905060006001600160a01b0316816001600160a01b0316141561126d5760405162461bcd60e51b81526020600482015260136024820152725661756c743a207a65726f206164647265737360681b60448201526064016105e5565b6001600160a01b038116600090815260cf602052604090205460ff16156112d65760405162461bcd60e51b815260206004820152601860248201527f5661756c743a206475706c69636174652061646472657373000000000000000060448201526064016105e5565b6001600160a01b0316600090815260cf60205260409020805460ff191660011790558061130281612a9b565b9150506111ed565b5080516040517f2a0d56e318a96ca558c29c714a50cb03221e61eb0fcd4eb08718208a056257919061088f908490849061283a565b6000338161134d82866115c1565b9050838110156113ad5760405162461bcd60e51b815260206004820152602560248201527f45524332303a2064656372656173656420616c6c6f77616e63652062656c6f77604482015264207a65726f60d81b60648201526084016105e5565b6113ba8286868403611687565b506001949350505050565b600033610537818585611826565b6033546001600160a01b031633146113fd5760405162461bcd60e51b81526004016105e590612913565b6001600160a01b0381166114495760405162461bcd60e51b81526020600482015260136024820152725661756c743a2061646472657373207a65726f60681b60448201526064016105e5565b6099543060009081526097602052604090205410156114aa5760405162461bcd60e51b815260206004820152601860248201527f5661756c743a206672616374696f6e73206d697373696e67000000000000000060448201526064016105e5565b60c95460ca546040516323b872dd60e01b81523060048201526001600160a01b03848116602483015260448201929092529116906323b872dd90606401600060405180830381600087803b15801561150157600080fd5b505af1158015611515573d6000803e3d6000fd5b5050505061152b3061152660995490565b611a69565b611548308260ca5460405180602001604052806000815250611a75565b50806001600160a01b03167fa81e3e535869655af6a599b8dbe4fed71b31eca2c1cc63d391f573a33243559d60ca5460405161158691815260200190565b60405180910390a250565b600060d082815481106115a6576115a6612ae2565b6000918252602090912001546001600160a01b031692915050565b6001600160a01b03918216600090815260986020908152604080832093909416825291909152205490565b6033546001600160a01b031633146116165760405162461bcd60e51b81526004016105e590612913565b6001600160a01b03811661167b5760405162461bcd60e51b815260206004820152602660248201527f4f776e61626c653a206e6577206f776e657220697320746865207a65726f206160448201526564647265737360d01b60648201526084016105e5565b6116848161186d565b50565b6001600160a01b0383166116e95760405162461bcd60e51b8152602060048201526024808201527f45524332303a20617070726f76652066726f6d20746865207a65726f206164646044820152637265737360e01b60648201526084016105e5565b6001600160a01b03821661174a5760405162461bcd60e51b815260206004820152602260248201527f45524332303a20617070726f766520746f20746865207a65726f206164647265604482015261737360f01b60648201526084016105e5565b6001600160a01b0383811660008181526098602090815260408083209487168084529482529182902085905590518481527f8c5be1e5ebec7d5bd14f71427d1e84f3dd0314c0f7b2291e5b200ac8c7c3b92591015b60405180910390a3505050565b60006117b884846115c1565b9050600019811461182057818110156118135760405162461bcd60e51b815260206004820152601d60248201527f45524332303a20696e73756666696369656e7420616c6c6f77616e636500000060448201526064016105e5565b6118208484848403611687565b50505050565b611831838383611bca565b505050565b61184260008383611bca565b5050565b815161185990609a906020850190612275565b50805161183190609b906020840190612275565b603380546001600160a01b038381166001600160a01b0319831681179093556040519116919082907f8be0079c531659141344cd1fd0a4f28419497f9722a3daafe3b4186f6b6457e090600090a35050565b60008054610100900460ff1615611906578160ff1660011480156118e25750303b155b6118fe5760405162461bcd60e51b81526004016105e5906128c5565b506000919050565b60005460ff80841691161061192d5760405162461bcd60e51b81526004016105e5906128c5565b506000805460ff191660ff92909216919091179055600190565b600054610100900460ff1661196e5760405162461bcd60e51b81526004016105e590612948565b6118428282611ca8565b600054610100900460ff1661099a5760405162461bcd60e51b81526004016105e590612948565b600054610100900460ff166119c65760405162461bcd60e51b81526004016105e590612948565b61099a611ccf565b6040516001600160a01b03808516602483015283166044820152606481018290526118209085906323b872dd60e01b906084015b60408051601f198184030181529190526020810180516001600160e01b03166001600160e01b031990931692909217909152611cff565b6040516001600160a01b03831660248201526044810182905261183190849063a9059cbb60e01b90606401611a02565b61184282600083611bca565b60006001600160a01b0384163b15611bc257604051630a85bd0160e11b81526001600160a01b0385169063150b7a0290611ab99033908990889088906004016127ea565b602060405180830381600087803b158015611ad357600080fd5b505af1925050508015611b03575060408051601f3d908101601f19168201909252611b009181019061267c565b60015b611ba8573d808015611b31576040519150601f19603f3d011682016040523d82523d6000602084013e611b36565b606091505b508051611ba05760405162461bcd60e51b815260206004820152603260248201527f4552433732313a207472616e7366657220746f206e6f6e20455243373231526560448201527131b2b4bb32b91034b6b83632b6b2b73a32b960711b60648201526084016105e5565b805181602001fd5b6001600160e01b031916630a85bd0160e11b14905061054a565b50600161054a565b611bd5838383611dd1565b60d360009054906101000a90046001600160a01b03166001600160a01b03166326660bf46040518163ffffffff1660e01b815260040160206040518083038186803b158015611c2357600080fd5b505afa158015611c37573d6000803e3d6000fd5b505050506040513d601f19601f82011682018060405250810190611c5b919061265a565b156118315760405162461bcd60e51b815260206004820152601f60248201527f5661756c743a20746f6b656e207472616e73666572206973207061757365640060448201526064016105e5565b600054610100900460ff166118465760405162461bcd60e51b81526004016105e590612948565b600054610100900460ff16611cf65760405162461bcd60e51b81526004016105e590612948565b61099a3361186d565b6000611d54826040518060400160405280602081526020017f5361666545524332303a206c6f772d6c6576656c2063616c6c206661696c6564815250856001600160a01b03166121619092919063ffffffff16565b8051909150156118315780806020019051810190611d72919061265a565b6118315760405162461bcd60e51b815260206004820152602a60248201527f5361666545524332303a204552433230206f7065726174696f6e20646964206e6044820152691bdd081cdd58d8d9595960b21b60648201526084016105e5565b6001600160a01b038316611e99576001600160a01b038216611e355760405162461bcd60e51b815260206004820152601b60248201527f45524332303a206d696e7420746f207a65726f2061646472657373000000000060448201526064016105e5565b8060996000828254611e4791906129c4565b90915550506001600160a01b0382166000818152609760209081526040808320805486019055518481527fddf252ad1be2c89b69c2b068fc378daa952ba7f163c4a11628f55a4df523b3ef910161179f565b6001600160a01b038216611fd3576001600160a01b038316611efd5760405162461bcd60e51b815260206004820152601c60248201527f45524332303a206275726e2066726f6d207a657220616464726573730000000060448201526064016105e5565b6001600160a01b03831660009081526097602052604090205481811015611f715760405162461bcd60e51b815260206004820152602260248201527f45524332303a206275726e20616d6f756e7420657863656564732062616c616e604482015261636560f01b60648201526084016105e5565b6001600160a01b03841660008181526097602090815260408083208686039055609980548790039055518581529192917fddf252ad1be2c89b69c2b068fc378daa952ba7f163c4a11628f55a4df523b3ef91015b60405180910390a350505050565b6001600160a01b0383166120335760405162461bcd60e51b815260206004820152602160248201527f45524332303a207472616e736665722066726f6d207a65726f206164647265736044820152607360f81b60648201526084016105e5565b6001600160a01b0382166120895760405162461bcd60e51b815260206004820152601f60248201527f45524332303a207472616e7366657220746f207a65726f20616464726573730060448201526064016105e5565b6001600160a01b038316600090815260976020526040902054818110156121015760405162461bcd60e51b815260206004820152602660248201527f45524332303a207472616e7366657220616d6f756e7420657863656564732062604482015265616c616e636560d01b60648201526084016105e5565b6001600160a01b0380851660008181526097602052604080822086860390559286168082529083902080548601905591517fddf252ad1be2c89b69c2b068fc378daa952ba7f163c4a11628f55a4df523b3ef90611fc59086815260200190565b606061054a8484600085856001600160a01b0385163b6121c35760405162461bcd60e51b815260206004820152601d60248201527f416464726573733a2063616c6c20746f206e6f6e2d636f6e747261637400000060448201526064016105e5565b600080866001600160a01b031685876040516121df91906127ce565b60006040518083038185875af1925050503d806000811461221c576040519150601f19603f3d011682016040523d82523d6000602084013e612221565b606091505b509150915061223182828661223c565b979650505050505050565b6060831561224b575081610571565b82511561225b5782518084602001fd5b8160405162461bcd60e51b81526004016105e59190612884565b82805461228190612a60565b90600052602060002090601f0160209004810192826122a357600085556122e9565b82601f106122bc57805160ff19168380011785556122e9565b828001600101855582156122e9579182015b828111156122e95782518255916020019190600101906122ce565b506122f59291506122f9565b5090565b5b808211156122f557600081556001016122fa565b600067ffffffffffffffff83111561232857612328612af8565b61233b601f8401601f1916602001612993565b905082815283838301111561234f57600080fd5b828260208301376000602084830101529392505050565b600082601f83011261237757600080fd5b6105718383356020850161230e565b60006020828403121561239857600080fd5b813561057181612b0e565b6000602082840312156123b557600080fd5b815161057181612b0e565b600080604083850312156123d357600080fd5b82356123de81612b0e565b915060208301356123ee81612b0e565b809150509250929050565b60008060006060848603121561240e57600080fd5b833561241981612b0e565b9250602084013561242981612b0e565b929592945050506040919091013590565b6000806000806080858703121561245057600080fd5b843561245b81612b0e565b9350602085013561246b81612b0e565b925060408501359150606085013567ffffffffffffffff81111561248e57600080fd5b8501601f8101871361249f57600080fd5b6124ae8782356020840161230e565b91505092959194509250565b600080604083850312156124cd57600080fd5b82356124d881612b0e565b946020939093013593505050565b600080600080600080600080610100898b03121561250357600080fd5b883561250e81612b0e565b9750602089013596506040890135955060608901359450608089013567ffffffffffffffff8082111561254057600080fd5b61254c8c838d01612366565b955060a08b013591508082111561256257600080fd5b5061256f8b828c01612366565b93505060c089013561258081612b0e565b915060e089013561259081612b0e565b809150509295985092959890939650565b600060208083850312156125b457600080fd5b823567ffffffffffffffff808211156125cc57600080fd5b818501915085601f8301126125e057600080fd5b8135818111156125f2576125f2612af8565b8060051b9150612603848301612993565b8181528481019084860184860187018a101561261e57600080fd5b600095505b8386101561264d578035945061263885612b0e565b84835260019590950194918601918601612623565b5098975050505050505050565b60006020828403121561266c57600080fd5b8151801515811461057157600080fd5b60006020828403121561268e57600080fd5b81516001600160e01b03198116811461057157600080fd5b600080604083850312156126b957600080fd5b823567ffffffffffffffff808211156126d157600080fd5b6126dd86838701612366565b935060208501359150808211156126f357600080fd5b5061270085828601612366565b9150509250929050565b60006020828403121561271c57600080fd5b5035919050565b60006020828403121561273557600080fd5b5051919050565b6000806040838503121561274f57600080fd5b50508035926020909101359150565b600081518084526020808501945080840160005b838110156127975781516001600160a01b031687529582019590820190600101612772565b509495945050505050565b600081518084526127ba816020860160208601612a34565b601f01601f19169290920160200192915050565b600082516127e0818460208701612a34565b9190910192915050565b6001600160a01b038581168252841660208201526040810183905260806060820181905260009061281d908301846127a2565b9695505050505050565b602081526000610571602083018461275e565b60408152600061284d604083018561275e565b90508260208301529392505050565b602081016003831061287e57634e487b7160e01b600052602160045260246000fd5b91905290565b60208152600061057160208301846127a2565b6040815260006128aa60408301856127a2565b82810360208401526128bc81856127a2565b95945050505050565b6020808252602e908201527f496e697469616c697a61626c653a20636f6e747261637420697320616c72656160408201526d191e481a5b9a5d1a585b1a5e995960921b606082015260800190565b6020808252818101527f4f776e61626c653a2063616c6c6572206973206e6f7420746865206f776e6572604082015260600190565b6020808252602b908201527f496e697469616c697a61626c653a20636f6e7472616374206973206e6f74206960408201526a6e697469616c697a696e6760a81b606082015260800190565b604051601f8201601f1916810167ffffffffffffffff811182821017156129bc576129bc612af8565b604052919050565b600082198211156129d7576129d7612ab6565b500190565b6000826129f957634e487b7160e01b600052601260045260246000fd5b500490565b6000816000190483118215151615612a1857612a18612ab6565b500290565b600082821015612a2f57612a2f612ab6565b500390565b60005b83811015612a4f578181015183820152602001612a37565b838111156118205750506000910152565b600181811c90821680612a7457607f821691505b60208210811415612a9557634e487b7160e01b600052602260045260246000fd5b50919050565b6000600019821415612aaf57612aaf612ab6565b5060010190565b634e487b7160e01b600052601160045260246000fd5b634e487b7160e01b600052602160045260246000fd5b634e487b7160e01b600052603260045260246000fd5b634e487b7160e01b600052604160045260246000fd5b6001600160a01b038116811461168457600080fdfea2646970667358221220f8266d68ad8307c4f6069f47c5e0a90bbb5b0c77ac1285460053d86d63f68c4f64736f6c63430008070033",
  "linkReferences": {},
  "deployedLinkReferences": {}
}