{
  "_format": "hh-sol-artifact-1",
  "contractName": "Estates",
  "sourceName": "contracts/Estates.sol",
  "abi": [
    {
      "anonymous": false,
      "inputs": [
        {
          "indexed": false,
          "internalType": "address",
          "name": "previousAdmin",
          "type": "address"
        },
        {
          "indexed": false,
          "internalType": "address",
          "name": "newAdmin",
          "type": "address"
        }
      ],
      "name": "AdminChanged",
      "type": "event"
    },
    {
      "anonymous": false,
      "inputs": [
        {
          "indexed": true,
          "internalType": "address",
          "name": "owner",
          "type": "address"
        },
        {
          "indexed": true,
          "internalType": "address",
          "name": "approved",
          "type": "address"
        },
        {
          "indexed": true,
          "internalType": "uint256",
          "name": "tokenId",
          "type": "uint256"
        }
      ],
      "name": "Approval",
      "type": "event"
    },
    {
      "anonymous": false,
      "inputs": [
        {
          "indexed": true,
          "internalType": "address",
          "name": "owner",
          "type": "address"
        },
        {
          "indexed": true,
          "internalType": "address",
          "name": "operator",
          "type": "address"
        },
        {
          "indexed": false,
          "internalType": "bool",
          "name": "approved",
          "type": "bool"
        }
      ],
      "name": "ApprovalForAll",
      "type": "event"
    },
    {
      "anonymous": false,
      "inputs": [
        {
          "indexed": true,
          "internalType": "address",
          "name": "beacon",
          "type": "address"
        }
      ],
      "name": "BeaconUpgraded",
      "type": "event"
    },
    {
      "anonymous": false,
      "inputs": [
        {
          "indexed": false,
          "internalType": "uint256",
          "name": "tokenId",
          "type": "uint256"
        },
        {
          "indexed": false,
          "internalType": "address",
          "name": "callerAddress",
          "type": "address"
        }
      ],
      "name": "Burnedtoken",
      "type": "event"
    },
    {
      "anonymous": false,
      "inputs": [
        {
          "indexed": true,
          "internalType": "address",
          "name": "estateManager",
          "type": "address"
        },
        {
          "indexed": true,
          "internalType": "address",
          "name": "estateOwner",
          "type": "address"
        }
      ],
      "name": "EstateInit",
      "type": "event"
    },
    {
      "anonymous": false,
      "inputs": [
        {
          "indexed": false,
          "internalType": "uint8",
          "name": "version",
          "type": "uint8"
        }
      ],
      "name": "Initialized",
      "type": "event"
    },
    {
      "anonymous": false,
      "inputs": [
        {
          "indexed": true,
          "internalType": "address",
          "name": "OldContractManager",
          "type": "address"
        },
        {
          "indexed": true,
          "internalType": "address",
          "name": "newContractManager",
          "type": "address"
        }
      ],
      "name": "ManagementContractTransferred",
      "type": "event"
    },
    {
      "anonymous": false,
      "inputs": [
        {
          "indexed": true,
          "internalType": "uint256",
          "name": "tokenId",
          "type": "uint256"
        },
        {
          "indexed": false,
          "internalType": "string",
          "name": "newName",
          "type": "string"
        },
        {
          "indexed": false,
          "internalType": "string",
          "name": "newSymbol",
          "type": "string"
        }
      ],
      "name": "MetadataChanged",
      "type": "event"
    },
    {
      "anonymous": false,
      "inputs": [
        {
          "indexed": true,
          "internalType": "uint256",
          "name": "tokenId",
          "type": "uint256"
        },
        {
          "indexed": false,
          "internalType": "string",
          "name": "newURI",
          "type": "string"
        },
        {
          "indexed": false,
          "internalType": "address",
          "name": "callerAddress",
          "type": "address"
        }
      ],
      "name": "TokenURIModified",
      "type": "event"
    },
    {
      "anonymous": false,
      "inputs": [
        {
          "indexed": true,
          "internalType": "address",
          "name": "from",
          "type": "address"
        },
        {
          "indexed": true,
          "internalType": "address",
          "name": "to",
          "type": "address"
        },
        {
          "indexed": true,
          "internalType": "uint256",
          "name": "tokenId",
          "type": "uint256"
        }
      ],
      "name": "Transfer",
      "type": "event"
    },
    {
      "anonymous": false,
      "inputs": [
        {
          "indexed": true,
          "internalType": "address",
          "name": "implementation",
          "type": "address"
        }
      ],
      "name": "Upgraded",
      "type": "event"
    },
    {
      "inputs": [
        {
          "internalType": "address",
          "name": "estateManager",
          "type": "address"
        },
        {
          "internalType": "address",
          "name": "estateOwner",
          "type": "address"
        }
      ],
      "name": "__Estates_init",
      "outputs": [],
      "stateMutability": "nonpayable",
      "type": "function"
    },
    {
      "inputs": [
        {
          "internalType": "address",
          "name": "to",
          "type": "address"
        },
        {
          "internalType": "uint256",
          "name": "tokenId",
          "type": "uint256"
        }
      ],
      "name": "approve",
      "outputs": [],
      "stateMutability": "nonpayable",
      "type": "function"
    },
    {
      "inputs": [
        {
          "internalType": "address",
          "name": "owner",
          "type": "address"
        }
      ],
      "name": "balanceOf",
      "outputs": [
        {
          "internalType": "uint256",
          "name": "",
          "type": "uint256"
        }
      ],
      "stateMutability": "view",
      "type": "function"
    },
    {
      "inputs": [
        {
          "internalType": "uint256",
          "name": "tokenId",
          "type": "uint256"
        }
      ],
      "name": "burn",
      "outputs": [],
      "stateMutability": "nonpayable",
      "type": "function"
    },
    {
      "inputs": [
        {
          "internalType": "uint256",
          "name": "tokenId",
          "type": "uint256"
        },
        {
          "internalType": "string",
          "name": "name",
          "type": "string"
        },
        {
          "internalType": "string",
          "name": "symbol",
          "type": "string"
        }
      ],
      "name": "changeMetadata",
      "outputs": [],
      "stateMutability": "nonpayable",
      "type": "function"
    },
    {
      "inputs": [
        {
          "internalType": "uint256",
          "name": "tokenId",
          "type": "uint256"
        }
      ],
      "name": "estateLocation",
      "outputs": [
        {
          "internalType": "string",
          "name": "",
          "type": "string"
        },
        {
          "internalType": "string",
          "name": "",
          "type": "string"
        },
        {
          "internalType": "uint256",
          "name": "",
          "type": "uint256"
        }
      ],
      "stateMutability": "view",
      "type": "function"
    },
    {
      "inputs": [
        {
          "internalType": "uint256",
          "name": "tokenId",
          "type": "uint256"
        }
      ],
      "name": "estateTaxIdNum",
      "outputs": [
        {
          "internalType": "uint256",
          "name": "",
          "type": "uint256"
        }
      ],
      "stateMutability": "view",
      "type": "function"
    },
    {
      "inputs": [
        {
          "internalType": "uint256",
          "name": "tokenId",
          "type": "uint256"
        }
      ],
      "name": "getApproved",
      "outputs": [
        {
          "internalType": "address",
          "name": "",
          "type": "address"
        }
      ],
      "stateMutability": "view",
      "type": "function"
    },
    {
      "inputs": [
        {
          "internalType": "address",
          "name": "owner",
          "type": "address"
        },
        {
          "internalType": "address",
          "name": "operator",
          "type": "address"
        }
      ],
      "name": "isApprovedForAll",
      "outputs": [
        {
          "internalType": "bool",
          "name": "",
          "type": "bool"
        }
      ],
      "stateMutability": "view",
      "type": "function"
    },
    {
      "inputs": [],
      "name": "manager",
      "outputs": [
        {
          "internalType": "address",
          "name": "",
          "type": "address"
        }
      ],
      "stateMutability": "view",
      "type": "function"
    },
    {
      "inputs": [
        {
          "internalType": "string",
          "name": "tokenName",
          "type": "string"
        },
        {
          "internalType": "string",
          "name": "tokenSymbol",
          "type": "string"
        },
        {
          "internalType": "string",
          "name": "estateURI",
          "type": "string"
        },
        {
          "internalType": "uint256",
          "name": "taxIdNo",
          "type": "uint256"
        },
        {
          "internalType": "string",
          "name": "state",
          "type": "string"
        },
        {
          "internalType": "string",
          "name": "city",
          "type": "string"
        },
        {
          "internalType": "uint256",
          "name": "zipcode",
          "type": "uint256"
        },
        {
          "internalType": "address",
          "name": "to",
          "type": "address"
        }
      ],
      "name": "mintEstateToken",
      "outputs": [
        {
          "internalType": "uint256",
          "name": "",
          "type": "uint256"
        }
      ],
      "stateMutability": "nonpayable",
      "type": "function"
    },
    {
      "inputs": [
        {
          "internalType": "uint256",
          "name": "tokenId",
          "type": "uint256"
        },
        {
          "internalType": "string",
          "name": "uri",
          "type": "string"
        }
      ],
      "name": "modifyTokenURI",
      "outputs": [],
      "stateMutability": "nonpayable",
      "type": "function"
    },
    {
      "inputs": [
        {
          "internalType": "address",
          "name": "",
          "type": "address"
        },
        {
          "internalType": "address",
          "name": "",
          "type": "address"
        },
        {
          "internalType": "uint256",
          "name": "",
          "type": "uint256"
        },
        {
          "internalType": "bytes",
          "name": "",
          "type": "bytes"
        }
      ],
      "name": "onERC721Received",
      "outputs": [
        {
          "internalType": "bytes4",
          "name": "",
          "type": "bytes4"
        }
      ],
      "stateMutability": "nonpayable",
      "type": "function"
    },
    {
      "inputs": [
        {
          "internalType": "uint256",
          "name": "tokenId",
          "type": "uint256"
        }
      ],
      "name": "ownerOf",
      "outputs": [
        {
          "internalType": "address",
          "name": "",
          "type": "address"
        }
      ],
      "stateMutability": "view",
      "type": "function"
    },
    {
      "inputs": [],
      "name": "proxiableUUID",
      "outputs": [
        {
          "internalType": "bytes32",
          "name": "",
          "type": "bytes32"
        }
      ],
      "stateMutability": "view",
      "type": "function"
    },
    {
      "inputs": [
        {
          "internalType": "address",
          "name": "from",
          "type": "address"
        },
        {
          "internalType": "address",
          "name": "to",
          "type": "address"
        },
        {
          "internalType": "uint256",
          "name": "tokenId",
          "type": "uint256"
        }
      ],
      "name": "safeTransferFrom",
      "outputs": [],
      "stateMutability": "nonpayable",
      "type": "function"
    },
    {
      "inputs": [
        {
          "internalType": "address",
          "name": "from",
          "type": "address"
        },
        {
          "internalType": "address",
          "name": "to",
          "type": "address"
        },
        {
          "internalType": "uint256",
          "name": "tokenId",
          "type": "uint256"
        },
        {
          "internalType": "bytes",
          "name": "_data",
          "type": "bytes"
        }
      ],
      "name": "safeTransferFrom",
      "outputs": [],
      "stateMutability": "nonpayable",
      "type": "function"
    },
    {
      "inputs": [
        {
          "internalType": "address",
          "name": "operator",
          "type": "address"
        },
        {
          "internalType": "bool",
          "name": "approved",
          "type": "bool"
        }
      ],
      "name": "setApprovalForAll",
      "outputs": [],
      "stateMutability": "nonpayable",
      "type": "function"
    },
    {
      "inputs": [
        {
          "internalType": "bytes4",
          "name": "interfaceId",
          "type": "bytes4"
        }
      ],
      "name": "supportsInterface",
      "outputs": [
        {
          "internalType": "bool",
          "name": "",
          "type": "bool"
        }
      ],
      "stateMutability": "view",
      "type": "function"
    },
    {
      "inputs": [
        {
          "internalType": "uint256",
          "name": "tokenId",
          "type": "uint256"
        }
      ],
      "name": "tokenMetadata",
      "outputs": [
        {
          "internalType": "string",
          "name": "",
          "type": "string"
        },
        {
          "internalType": "string",
          "name": "",
          "type": "string"
        }
      ],
      "stateMutability": "view",
      "type": "function"
    },
    {
      "inputs": [
        {
          "internalType": "uint256",
          "name": "tokenId",
          "type": "uint256"
        }
      ],
      "name": "tokenURI",
      "outputs": [
        {
          "internalType": "string",
          "name": "",
          "type": "string"
        }
      ],
      "stateMutability": "view",
      "type": "function"
    },
    {
      "inputs": [
        {
          "internalType": "address",
          "name": "from",
          "type": "address"
        },
        {
          "internalType": "address",
          "name": "to",
          "type": "address"
        },
        {
          "internalType": "uint256",
          "name": "tokenId",
          "type": "uint256"
        }
      ],
      "name": "transferFrom",
      "outputs": [],
      "stateMutability": "nonpayable",
      "type": "function"
    },
    {
      "inputs": [
        {
          "internalType": "address",
          "name": "newContractManager",
          "type": "address"
        }
      ],
      "name": "transferManagementContract",
      "outputs": [],
      "stateMutability": "nonpayable",
      "type": "function"
    },
    {
      "inputs": [
        {
          "internalType": "address",
          "name": "from",
          "type": "address"
        },
        {
          "internalType": "uint256",
          "name": "tokenId",
          "type": "uint256"
        },
        {
          "internalType": "address",
          "name": "to",
          "type": "address"
        }
      ],
      "name": "transferToken",
      "outputs": [],
      "stateMutability": "nonpayable",
      "type": "function"
    },
    {
      "inputs": [
        {
          "internalType": "address",
          "name": "newImplementation",
          "type": "address"
        }
      ],
      "name": "upgradeTo",
      "outputs": [],
      "stateMutability": "nonpayable",
      "type": "function"
    },
    {
      "inputs": [
        {
          "internalType": "address",
          "name": "newImplementation",
          "type": "address"
        },
        {
          "internalType": "bytes",
          "name": "data",
          "type": "bytes"
        }
      ],
      "name": "upgradeToAndCall",
      "outputs": [],
      "stateMutability": "payable",
      "type": "function"
    },
    {
      "inputs": [],
      "name": "version",
      "outputs": [
        {
          "internalType": "string",
          "name": "",
          "type": "string"
        }
      ],
      "stateMutability": "pure",
      "type": "function"
    }
  ],
  "bytecode": "0x60a06040523060601b60805234801561001757600080fd5b5060805160601c612ec5610052600039600081816107a2015281816107e20152818161097a015281816109ba0152610a4d0152612ec56000f3fe60806040526004361061019c5760003560e01c80636914db60116100ec578063b89648501161008a578063d43cb3ab11610064578063d43cb3ab14610517578063e4484af214610537578063e985e9c514610557578063f640d508146105a157600080fd5b8063b8964850146104a8578063c87b56dd146104c8578063ceb346d5146104e857600080fd5b8063a22cb465116100c6578063a22cb46514610428578063a2cf7e1b14610448578063a7904a0e14610468578063b88d4fde1461048857600080fd5b80636914db60146103955780636ccf524d146103c357806370a082311461040857600080fd5b806342842e0e116101595780634f1ef286116101335780634f1ef2861461030757806352d1902d1461031a57806354fd4d501461033d5780636352211e1461037557600080fd5b806342842e0e146102a957806342966c68146102c9578063481c6a75146102e957600080fd5b806301ffc9a7146101a1578063081812fc146101d6578063095ea7b31461020e578063150b7a021461023057806323b872dd146102695780633659cfe614610289575b600080fd5b3480156101ad57600080fd5b506101c16101bc36600461281f565b6105c1565b60405190151581526020015b60405180910390f35b3480156101e257600080fd5b506101f66101f136600461294f565b61062e565b6040516001600160a01b0390911681526020016101cd565b34801561021a57600080fd5b5061022e6102293660046127a0565b610656565b005b34801561023c57600080fd5b5061025061024b3660046126ae565b610755565b6040516001600160e01b031990911681526020016101cd565b34801561027557600080fd5b5061022e610284366004612672565b610766565b34801561029557600080fd5b5061022e6102a4366004612624565b610797565b3480156102b557600080fd5b5061022e6102c4366004612672565b610877565b3480156102d557600080fd5b5061022e6102e436600461294f565b610892565b3480156102f557600080fd5b506097546001600160a01b03166101f6565b61022e610315366004612752565b61096f565b34801561032657600080fd5b5061032f610a40565b6040519081526020016101cd565b34801561034957600080fd5b50604080518082019091526006815265056312e302e360d41b60208201525b6040516101cd9190612a8b565b34801561038157600080fd5b506101f661039036600461294f565b610af3565b3480156103a157600080fd5b506103b56103b036600461294f565b610b59565b6040516101cd929190612ac8565b3480156103cf57600080fd5b5061032f6103de36600461294f565b60009081526101366020908152604080832061012f546001600160a01b0316845290915290205490565b34801561041457600080fd5b5061032f610423366004612624565b610cb1565b34801561043457600080fd5b5061022e610443366004612716565b610d35565b34801561045457600080fd5b5061022e610463366004612968565b610d40565b34801561047457600080fd5b5061022e61048336600461263f565b610db2565b34801561049457600080fd5b5061022e6104a33660046126ae565b610eb4565b3480156104b457600080fd5b5061022e6104c3366004612624565b610eec565b3480156104d457600080fd5b506103686104e336600461294f565b610f89565b3480156104f457600080fd5b5061050861050336600461294f565b611088565b6040516101cd93929190612aed565b34801561052357600080fd5b5061022e610532366004612999565b6111ea565b34801561054357600080fd5b5061032f610552366004612859565b6112a6565b34801561056357600080fd5b506101c161057236600461263f565b6001600160a01b0391821660009081526101346020908152604080832093909416825291909152205460ff1690565b3480156105ad57600080fd5b5061022e6105bc3660046127ca565b611580565b60006001600160e01b031982166303aff8a760e51b14806105f257506001600160e01b0319821663068cb43b60e31b145b8061060d57506001600160e01b03198216630a85bd0160e11b145b8061062857506301ffc9a760e01b6001600160e01b03198316145b92915050565b6000610639826115bd565b50600090815261013360205260409020546001600160a01b031690565b600061066182610af3565b9050806001600160a01b0316836001600160a01b031614156106ca5760405162461bcd60e51b815260206004820181905260248201527f457374617465733a20746f2063616e206e6f7420626520746865206f776e657260448201526064015b60405180910390fd5b336001600160a01b03821614806106e657506106e68133610572565b6107465760405162461bcd60e51b815260206004820152602b60248201527f457374617465733a2063616c6c65722073686f756c64206265206f776e65722060448201526a1bdc88185c1c1c9bdd995960aa1b60648201526084016106c1565b6107508383611612565b505050565b630a85bd0160e11b5b949350505050565b6107703382611681565b61078c5760405162461bcd60e51b81526004016106c190612b23565b610750838383611756565b306001600160a01b037f00000000000000000000000000000000000000000000000000000000000000001614156107e05760405162461bcd60e51b81526004016106c190612b66565b7f00000000000000000000000000000000000000000000000000000000000000006001600160a01b0316610829600080516020612e49833981519152546001600160a01b031690565b6001600160a01b03161461084f5760405162461bcd60e51b81526004016106c190612bb2565b6108588161195a565b6040805160008082526020820190925261087491839190611a44565b50565b61075083838360405180602001604052806000815250610eb4565b6097546001600160a01b031633146108bc5760405162461bcd60e51b81526004016106c190612c4c565b60008181526101366020908152604080832061012f546001600160a01b031684529091528120818155906108f360018301826124ad565b6109016002830160006124ad565b600382016000905560048201600061091991906124ad565b6109276005830160006124ad565b505061093281611bbe565b6040805182815233602082015281517ff4caa5ebd5fa9cd0a7b2db4cb109add72289e69639c067fba9d319931d16061d929181900390910190a150565b306001600160a01b037f00000000000000000000000000000000000000000000000000000000000000001614156109b85760405162461bcd60e51b81526004016106c190612b66565b7f00000000000000000000000000000000000000000000000000000000000000006001600160a01b0316610a01600080516020612e49833981519152546001600160a01b031690565b6001600160a01b031614610a275760405162461bcd60e51b81526004016106c190612bb2565b610a308261195a565b610a3c82826001611a44565b5050565b6000306001600160a01b037f00000000000000000000000000000000000000000000000000000000000000001614610ae05760405162461bcd60e51b815260206004820152603860248201527f555550535570677261646561626c653a206d757374206e6f742062652063616c60448201527f6c6564207468726f7567682064656c656761746563616c6c000000000000000060648201526084016106c1565b50600080516020612e4983398151915290565b600081815261013060205260408120546001600160a01b0316806106285760405162461bcd60e51b815260206004820152601860248201527f4552433732313a20696e76616c696420746f6b656e204944000000000000000060448201526064016106c1565b60008181526101366020908152604080832061012f546001600160a01b0316845290915290206004810180546060928392916005909101908290610b9c90612dcb565b80601f0160208091040260200160405190810160405280929190818152602001828054610bc890612dcb565b8015610c155780601f10610bea57610100808354040283529160200191610c15565b820191906000526020600020905b815481529060010190602001808311610bf857829003601f168201915b50505050509150808054610c2890612dcb565b80601f0160208091040260200160405190810160405280929190818152602001828054610c5490612dcb565b8015610ca15780601f10610c7657610100808354040283529160200191610ca1565b820191906000526020600020905b815481529060010190602001808311610c8457829003601f168201915b5050505050905091509150915091565b60006001600160a01b038216610d185760405162461bcd60e51b815260206004820152602660248201527f457374617465733a206f776e65722063616e206e6f742062652061646472657360448201526573207a65726f60d01b60648201526084016106c1565b506001600160a01b03166000908152610131602052604090205490565b610a3c338383611c93565b6097546001600160a01b03163314610d6a5760405162461bcd60e51b81526004016106c190612c4c565b610d748282611d63565b817fd3804647d8ed05e254cca17c9a140f2a93f199e1d931e79de2f6930778b83d718233604051610da6929190612a9e565b60405180910390a25050565b6000610dbe6001611dd8565b90508015610dd6576000805461ff0019166101001790555b600260fc541415610df95760405162461bcd60e51b81526004016106c190612d39565b600260fc55610e06611e65565b610e0e611e97565b610e1783611ec6565b61012f80546001600160a01b0319166001600160a01b0384811691821790925560405190918516907fccfee02cf37303f2b6d1631c2b6cda454c28cac0c144967c2d1ae4ba11ccb0be90600090a3600160fc558015610750576000805461ff0019169055604051600181527f7f26b83ff96e1f2b6a682f133852f6798a09c465da95921460cefb38474024989060200160405180910390a1505050565b610ebe3383611681565b610eda5760405162461bcd60e51b81526004016106c190612b23565b610ee684848484611f18565b50505050565b6097546001600160a01b03163314610f165760405162461bcd60e51b81526004016106c190612c4c565b6001600160a01b038116610f805760405162461bcd60e51b815260206004820152602b60248201527f4d616e6167656d656e743a206e6577206d616e6167657220697320746865207a60448201526a65726f206164647265737360a81b60648201526084016106c1565b61087481611ec6565b6060610f94826115bd565b610f9d82611f4b565b610fe95760405162461bcd60e51b815260206004820152601a60248201527f457374617465733a20746f6b656e20646f6e6f7420657869737400000000000060448201526064016106c1565b600082815261013260205260409020805461100390612dcb565b80601f016020809104026020016040519081016040528092919081815260200182805461102f90612dcb565b801561107c5780601f106110515761010080835404028352916020019161107c565b820191906000526020600020905b81548152906001019060200180831161105f57829003601f168201915b50505050509050919050565b60008181526101366020908152604080832061012f546001600160a01b03168452909152812060038101546001820180546060948594909360029091019183906110d190612dcb565b80601f01602080910402602001604051908101604052809291908181526020018280546110fd90612dcb565b801561114a5780601f1061111f5761010080835404028352916020019161114a565b820191906000526020600020905b81548152906001019060200180831161112d57829003601f168201915b5050505050925081805461115d90612dcb565b80601f016020809104026020016040519081016040528092919081815260200182805461118990612dcb565b80156111d65780601f106111ab576101008083540402835291602001916111d6565b820191906000526020600020905b8154815290600101906020018083116111b957829003601f168201915b505050505091509250925092509193909250565b6097546001600160a01b031633146112145760405162461bcd60e51b81526004016106c190612c4c565b60008381526101366020908152604080832061012f546001600160a01b0316845282529091208351909161124f9160048401918601906124e7565b50815161126590600583019060208501906124e7565b50837f601d4b2f0f06545c0f60d4f70e3bc5d78db246f7b66aaeb1ea23a56aa854c6708484604051611298929190612ac8565b60405180910390a250505050565b6000600260fc5414156112cb5760405162461bcd60e51b81526004016106c190612d39565b600260fc5561012f546001600160a01b031633146113205760405162461bcd60e51b815260206004820152601260248201527122b9ba30ba32b99d103737ba1037bbb732b960711b60448201526064016106c1565b6000868152610135602052604090205460ff16156113805760405162461bcd60e51b815260206004820152601c60248201527f457374617465733a206475706c696361746520746178206964206e6f0000000060448201526064016106c1565b600086815261013560205260409020805460ff1916600117905561012e546113a9908390611f69565b6113b661012e5488611d63565b600161012e60008282546113ca9190612d70565b909155505061012e5460009081526101366020908152604080832061012f546001600160a01b0316845282529091208a5161140d926004909201918c01906124e7565b5061012e5460009081526101366020908152604080832061012f546001600160a01b031684528252909120895161144c926005909201918b01906124e7565b5061012e5460009081526101366020908152604080832061012f546001600160a01b031684528252909120865161148b926001909201918801906124e7565b5061012e5460009081526101366020908152604080832061012f546001600160a01b03168452825290912085516114ca926002909201918701906124e7565b5061012e805460009081526101366020818152604080842061012f80546001600160a01b0390811687529184528286206003018a9055955485529282528084209454909216835292835290208a5161152a926004909201918c01906124e7565b5061012e5460009081526101366020908152604080832061012f546001600160a01b0316845282529091208951611569926005909201918b01906124e7565b505061012e54600160fc5598975050505050505050565b600260fc5414156115a35760405162461bcd60e51b81526004016106c190612d39565b600260fc556115b3838284611756565b5050600160fc5550565b6115c681611f4b565b6108745760405162461bcd60e51b815260206004820152601960248201527f457374617465733a206d696e7420746f6b656e2066697273740000000000000060448201526064016106c1565b60008181526101336020526040902080546001600160a01b0319166001600160a01b038416908117909155819061164882610af3565b6001600160a01b03167f8c5be1e5ebec7d5bd14f71427d1e84f3dd0314c0f7b2291e5b200ac8c7c3b92560405160405180910390a45050565b600061168c82611f4b565b6116d85760405162461bcd60e51b815260206004820152601d60248201527f457374617465733a20746f6b656e20646f6573206e6f7420657869737400000060448201526064016106c1565b60006116e383610af3565b9050806001600160a01b0316846001600160a01b0316148061172b57506001600160a01b038082166000908152610134602090815260408083209388168352929052205460ff165b8061075e5750836001600160a01b03166117448461062e565b6001600160a01b031614949350505050565b826001600160a01b031661176982610af3565b6001600160a01b0316146117ce5760405162461bcd60e51b815260206004820152602660248201527f457374617465733a207472616e736665722066726f6d20696e636f72726563746044820152651037bbb732b960d11b60648201526084016106c1565b6001600160a01b0382166118325760405162461bcd60e51b815260206004820152602560248201527f457374617465733a207472616e7366657220746f20746865207a65726f206164604482015264647265737360d81b60648201526084016106c1565b816001600160a01b0316836001600160a01b031614156118945760405162461bcd60e51b815260206004820152601960248201527f457374617465733a207472616e7366657220746f2073656c660000000000000060448201526064016106c1565b61189f600082611612565b6001600160a01b0383166000908152610131602052604081208054600192906118c9908490612d88565b90915550506001600160a01b0382166000908152610131602052604081208054600192906118f8908490612d70565b90915550506000818152610130602052604080822080546001600160a01b0319166001600160a01b0386811691821790925591518493918716917fddf252ad1be2c89b69c2b068fc378daa952ba7f163c4a11628f55a4df523b3ef91a4505050565b6097546001600160a01b031633146119845760405162461bcd60e51b81526004016106c190612c4c565b6001600160a01b0381163b6119ee5760405162461bcd60e51b815260206004820152602a60248201527f4e46543a206e657720496d706c656d656e746174696f6e206d75737420626520604482015269184818dbdb9d1c9858dd60b21b60648201526084016106c1565b6001600160a01b0381166108745760405162461bcd60e51b815260206004820152601860248201527f4e46543a2073657420746f207a65726f2061646472657373000000000000000060448201526064016106c1565b7f4910fdfa16fed3260ed0e7147f7cc6da11a60208b5b9406d12a635614ffd91435460ff1615611a775761075083611f83565b826001600160a01b03166352d1902d6040518163ffffffff1660e01b815260040160206040518083038186803b158015611ab057600080fd5b505afa925050508015611ae0575060408051601f3d908101601f19168201909252611add91810190612806565b60015b611b435760405162461bcd60e51b815260206004820152602e60248201527f45524331393637557067726164653a206e657720696d706c656d656e7461746960448201526d6f6e206973206e6f74205555505360901b60648201526084016106c1565b600080516020612e498339815191528114611bb25760405162461bcd60e51b815260206004820152602960248201527f45524331393637557067726164653a20756e737570706f727465642070726f786044820152681a58589b195555525160ba1b60648201526084016106c1565b5061075083838361201f565b6000611bc982610af3565b9050611bd6600083611612565b6001600160a01b038116600090815261013160205260408120805460019290611c00908490612d88565b909155505060008281526101306020908152604080832080546001600160a01b031916905561013290915290208054611c3890612dcb565b159050611c5757600082815261013260205260408120611c57916124ad565b60405182906000906001600160a01b038416907fddf252ad1be2c89b69c2b068fc378daa952ba7f163c4a11628f55a4df523b3ef908390a45050565b816001600160a01b0316836001600160a01b03161415611cf55760405162461bcd60e51b815260206004820152601a60248201527f457374617465733a20617070726f766520746f2063616c6c657200000000000060448201526064016106c1565b6001600160a01b0383811660008181526101346020908152604080832094871680845294825291829020805460ff191686151590811790915591519182527f17307eab39ab6107e8899845ad3d59bd9653f200f220920489ca2b5937696c31910160405180910390a3505050565b611d6c82611f4b565b611db85760405162461bcd60e51b815260206004820152601a60248201527f457374617465733a20746f6b656e20646f6e6f7420657869737400000000000060448201526064016106c1565b6000828152610132602090815260409091208251610750928401906124e7565b60008054610100900460ff1615611e1f578160ff166001148015611dfb5750303b155b611e175760405162461bcd60e51b81526004016106c190612bfe565b506000919050565b60005460ff808416911610611e465760405162461bcd60e51b81526004016106c190612bfe565b506000805460ff191660ff92909216919091179055600190565b919050565b600054610100900460ff16611e8c5760405162461bcd60e51b81526004016106c190612c9b565b611e9533611ec6565b565b600054610100900460ff16611ebe5760405162461bcd60e51b81526004016106c190612c9b565b611e95612044565b609780546001600160a01b038381166001600160a01b0319831681179093556040519116919082907fa33c82badadf88ec57583655324e2e69e30a73e2dab95577c25c774cec67829e90600090a35050565b611f23848484611756565b611f2f84848484612072565b610ee65760405162461bcd60e51b81526004016106c190612ce6565b600090815261013060205260409020546001600160a01b0316151590565b610a3c8282604051806020016040528060008152506121c7565b6001600160a01b0381163b611ff05760405162461bcd60e51b815260206004820152602d60248201527f455243313936373a206e657720696d706c656d656e746174696f6e206973206e60448201526c1bdd08184818dbdb9d1c9858dd609a1b60648201526084016106c1565b600080516020612e4983398151915280546001600160a01b0319166001600160a01b0392909216919091179055565b612028836121fa565b6000825111806120355750805b1561075057610ee6838361223a565b600054610100900460ff1661206b5760405162461bcd60e51b81526004016106c190612c9b565b600160fc55565b60006001600160a01b0384163b156121bf57604051630a85bd0160e11b81526001600160a01b0385169063150b7a02906120b6903390899088908890600401612a4e565b602060405180830381600087803b1580156120d057600080fd5b505af1925050508015612100575060408051601f3d908101601f191682019092526120fd9181019061283c565b60015b6121a5573d80801561212e576040519150601f19603f3d011682016040523d82523d6000602084013e612133565b606091505b50805161219d5760405162461bcd60e51b815260206004820152603260248201527f4552433732313a207472616e7366657220746f206e6f6e20455243373231526560448201527131b2b4bb32b91034b6b83632b6b2b73a32b960711b60648201526084016106c1565b805181602001fd5b6001600160e01b031916630a85bd0160e11b14905061075e565b50600161075e565b6121d1838361232e565b6121de6000848484612072565b6107505760405162461bcd60e51b81526004016106c190612ce6565b61220381611f83565b6040516001600160a01b038216907fbc7cd75a20ee27fd9adebab32041f755214dbc6bffa90cc0225b39da2e5c2d3b90600090a250565b60606001600160a01b0383163b6122a25760405162461bcd60e51b815260206004820152602660248201527f416464726573733a2064656c65676174652063616c6c20746f206e6f6e2d636f6044820152651b9d1c9858dd60d21b60648201526084016106c1565b600080846001600160a01b0316846040516122bd9190612a32565b600060405180830381855af49150503d80600081146122f8576040519150601f19603f3d011682016040523d82523d6000602084013e6122fd565b606091505b50915091506123258282604051806060016040528060278152602001612e696027913961246d565b95945050505050565b6001600160a01b03821661238e5760405162461bcd60e51b815260206004820152602160248201527f457374617465733a206d696e7420746f20746865207a65726f206164647265736044820152607360f81b60648201526084016106c1565b61239781611f4b565b156123e45760405162461bcd60e51b815260206004820152601d60248201527f457374617465733a20746f6b656e20616c7265616479206d696e74656400000060448201526064016106c1565b6001600160a01b03821660009081526101316020526040812080546001929061240e908490612d70565b90915550506000818152610130602052604080822080546001600160a01b0319166001600160a01b03861690811790915590518392907fddf252ad1be2c89b69c2b068fc378daa952ba7f163c4a11628f55a4df523b3ef908290a45050565b6060831561247c5750816124a6565b82511561248c5782518084602001fd5b8160405162461bcd60e51b81526004016106c19190612a8b565b9392505050565b5080546124b990612dcb565b6000825580601f106124c9575050565b601f016020900490600052602060002090810190610874919061256b565b8280546124f390612dcb565b90600052602060002090601f016020900481019282612515576000855561255b565b82601f1061252e57805160ff191683800117855561255b565b8280016001018555821561255b579182015b8281111561255b578251825591602001919060010190612540565b5061256792915061256b565b5090565b5b80821115612567576000815560010161256c565b80356001600160a01b0381168114611e6057600080fd5b600082601f8301126125a857600080fd5b813567ffffffffffffffff808211156125c3576125c3612e1c565b604051601f8301601f19908116603f011681019082821181831017156125eb576125eb612e1c565b8160405283815286602085880101111561260457600080fd5b836020870160208301376000602085830101528094505050505092915050565b60006020828403121561263657600080fd5b6124a682612580565b6000806040838503121561265257600080fd5b61265b83612580565b915061266960208401612580565b90509250929050565b60008060006060848603121561268757600080fd5b61269084612580565b925061269e60208501612580565b9150604084013590509250925092565b600080600080608085870312156126c457600080fd5b6126cd85612580565b93506126db60208601612580565b925060408501359150606085013567ffffffffffffffff8111156126fe57600080fd5b61270a87828801612597565b91505092959194509250565b6000806040838503121561272957600080fd5b61273283612580565b91506020830135801515811461274757600080fd5b809150509250929050565b6000806040838503121561276557600080fd5b61276e83612580565b9150602083013567ffffffffffffffff81111561278a57600080fd5b61279685828601612597565b9150509250929050565b600080604083850312156127b357600080fd5b6127bc83612580565b946020939093013593505050565b6000806000606084860312156127df57600080fd5b6127e884612580565b9250602084013591506127fd60408501612580565b90509250925092565b60006020828403121561281857600080fd5b5051919050565b60006020828403121561283157600080fd5b81356124a681612e32565b60006020828403121561284e57600080fd5b81516124a681612e32565b600080600080600080600080610100898b03121561287657600080fd5b883567ffffffffffffffff8082111561288e57600080fd5b61289a8c838d01612597565b995060208b01359150808211156128b057600080fd5b6128bc8c838d01612597565b985060408b01359150808211156128d257600080fd5b6128de8c838d01612597565b975060608b0135965060808b01359150808211156128fb57600080fd5b6129078c838d01612597565b955060a08b013591508082111561291d57600080fd5b5061292a8b828c01612597565b93505060c0890135915061294060e08a01612580565b90509295985092959890939650565b60006020828403121561296157600080fd5b5035919050565b6000806040838503121561297b57600080fd5b82359150602083013567ffffffffffffffff81111561278a57600080fd5b6000806000606084860312156129ae57600080fd5b83359250602084013567ffffffffffffffff808211156129cd57600080fd5b6129d987838801612597565b935060408601359150808211156129ef57600080fd5b506129fc86828701612597565b9150509250925092565b60008151808452612a1e816020860160208601612d9f565b601f01601f19169290920160200192915050565b60008251612a44818460208701612d9f565b9190910192915050565b6001600160a01b0385811682528416602082015260408101839052608060608201819052600090612a8190830184612a06565b9695505050505050565b6020815260006124a66020830184612a06565b604081526000612ab16040830185612a06565b905060018060a01b03831660208301529392505050565b604081526000612adb6040830185612a06565b82810360208401526123258185612a06565b606081526000612b006060830186612a06565b8281036020840152612b128186612a06565b915050826040830152949350505050565b60208082526023908201527f457374617465733a206e656974686572206f776e6572206e6f7220617070726f6040820152621d995960ea1b606082015260800190565b6020808252602c908201527f46756e6374696f6e206d7573742062652063616c6c6564207468726f7567682060408201526b19195b1959d85d1958d85b1b60a21b606082015260800190565b6020808252602c908201527f46756e6374696f6e206d7573742062652063616c6c6564207468726f7567682060408201526b6163746976652070726f787960a01b606082015260800190565b6020808252602e908201527f496e697469616c697a61626c653a20636f6e747261637420697320616c72656160408201526d191e481a5b9a5d1a585b1a5e995960921b606082015260800190565b6020808252602f908201527f4d616e6167656d656e743a2063616c6c65722068617320746f2062652074686560408201526e1032b9ba30ba329036b0b730b3b2b960891b606082015260800190565b6020808252602b908201527f496e697469616c697a61626c653a20636f6e7472616374206973206e6f74206960408201526a6e697469616c697a696e6760a81b606082015260800190565b60208082526033908201527f457374617465733a207472616e7366657220746f206e6f6e204552433732315260408201527232b1b2b4bb32b91034b6b83632b6b2b73a32b960691b606082015260800190565b6020808252601f908201527f5265656e7472616e637947756172643a207265656e7472616e742063616c6c00604082015260600190565b60008219821115612d8357612d83612e06565b500190565b600082821015612d9a57612d9a612e06565b500390565b60005b83811015612dba578181015183820152602001612da2565b83811115610ee65750506000910152565b600181811c90821680612ddf57607f821691505b60208210811415612e0057634e487b7160e01b600052602260045260246000fd5b50919050565b634e487b7160e01b600052601160045260246000fd5b634e487b7160e01b600052604160045260246000fd5b6001600160e01b03198116811461087457600080fdfe360894a13ba1a3210667c828492db98dca3e2076cc3735a920a3ca505d382bbc416464726573733a206c6f772d6c6576656c2064656c65676174652063616c6c206661696c6564a2646970667358221220a1905685a6eaa88f261325a4f36dc7cbf3e09f8518804619cf4dda409aee987964736f6c63430008070033",
  "linkReferences": {},
  "deployedLinkReferences": {}
}