{
  "_format": "hh-sol-artifact-1",
  "contractName": "EstateFactory",
  "sourceName": "contracts/EstateFactory.sol",
  "abi": [
    {
      "anonymous": false,
      "inputs": [
        {
          "indexed": true,
          "internalType": "address",
          "name": "upgrader",
          "type": "address"
        },
        {
          "indexed": false,
          "internalType": "address",
          "name": "estateBeacon",
          "type": "address"
        }
      ],
      "name": "FactoryInit",
      "type": "event"
    },
    {
      "anonymous": false,
      "inputs": [
        {
          "indexed": false,
          "internalType": "uint8",
          "name": "version",
          "type": "uint8"
        }
      ],
      "name": "Initialized",
      "type": "event"
    },
    {
      "anonymous": false,
      "inputs": [
        {
          "indexed": false,
          "internalType": "address",
          "name": "account",
          "type": "address"
        }
      ],
      "name": "Paused",
      "type": "event"
    },
    {
      "anonymous": false,
      "inputs": [
        {
          "indexed": false,
          "internalType": "uint256",
          "name": "proxyId",
          "type": "uint256"
        },
        {
          "indexed": false,
          "internalType": "address",
          "name": "proxyAddress",
          "type": "address"
        },
        {
          "indexed": true,
          "internalType": "address",
          "name": "safeAddress",
          "type": "address"
        },
        {
          "indexed": true,
          "internalType": "address",
          "name": "initiator",
          "type": "address"
        }
      ],
      "name": "ProxyDeployed",
      "type": "event"
    },
    {
      "anonymous": false,
      "inputs": [
        {
          "indexed": true,
          "internalType": "bytes32",
          "name": "role",
          "type": "bytes32"
        },
        {
          "indexed": true,
          "internalType": "bytes32",
          "name": "previousAdminRole",
          "type": "bytes32"
        },
        {
          "indexed": true,
          "internalType": "bytes32",
          "name": "newAdminRole",
          "type": "bytes32"
        }
      ],
      "name": "RoleAdminChanged",
      "type": "event"
    },
    {
      "anonymous": false,
      "inputs": [
        {
          "indexed": true,
          "internalType": "bytes32",
          "name": "role",
          "type": "bytes32"
        },
        {
          "indexed": true,
          "internalType": "address",
          "name": "account",
          "type": "address"
        },
        {
          "indexed": true,
          "internalType": "address",
          "name": "sender",
          "type": "address"
        }
      ],
      "name": "RoleGranted",
      "type": "event"
    },
    {
      "anonymous": false,
      "inputs": [
        {
          "indexed": true,
          "internalType": "bytes32",
          "name": "role",
          "type": "bytes32"
        },
        {
          "indexed": true,
          "internalType": "address",
          "name": "account",
          "type": "address"
        },
        {
          "indexed": true,
          "internalType": "address",
          "name": "sender",
          "type": "address"
        }
      ],
      "name": "RoleRevoked",
      "type": "event"
    },
    {
      "anonymous": false,
      "inputs": [
        {
          "indexed": false,
          "internalType": "address",
          "name": "account",
          "type": "address"
        }
      ],
      "name": "Unpaused",
      "type": "event"
    },
    {
      "inputs": [],
      "name": "ADMIN_ROLE",
      "outputs": [
        {
          "internalType": "bytes32",
          "name": "",
          "type": "bytes32"
        }
      ],
      "stateMutability": "view",
      "type": "function"
    },
    {
      "inputs": [],
      "name": "DEFAULT_ADMIN_ROLE",
      "outputs": [
        {
          "internalType": "bytes32",
          "name": "",
          "type": "bytes32"
        }
      ],
      "stateMutability": "view",
      "type": "function"
    },
    {
      "inputs": [],
      "name": "MANAGER_ROLE",
      "outputs": [
        {
          "internalType": "bytes32",
          "name": "",
          "type": "bytes32"
        }
      ],
      "stateMutability": "view",
      "type": "function"
    },
    {
      "inputs": [],
      "name": "UPGRADER_ROLE",
      "outputs": [
        {
          "internalType": "bytes32",
          "name": "",
          "type": "bytes32"
        }
      ],
      "stateMutability": "view",
      "type": "function"
    },
    {
      "inputs": [
        {
          "internalType": "address",
          "name": "upgrader",
          "type": "address"
        }
      ],
      "name": "__EstateFactory_init",
      "outputs": [],
      "stateMutability": "nonpayable",
      "type": "function"
    },
    {
      "inputs": [
        {
          "internalType": "address",
          "name": "owner",
          "type": "address"
        }
      ],
      "name": "allOwnerEstates",
      "outputs": [
        {
          "internalType": "address[]",
          "name": "",
          "type": "address[]"
        }
      ],
      "stateMutability": "view",
      "type": "function"
    },
    {
      "inputs": [],
      "name": "allProxies",
      "outputs": [
        {
          "internalType": "address[]",
          "name": "",
          "type": "address[]"
        }
      ],
      "stateMutability": "view",
      "type": "function"
    },
    {
      "inputs": [
        {
          "internalType": "uint256",
          "name": "taxId",
          "type": "uint256"
        }
      ],
      "name": "contractAddr",
      "outputs": [
        {
          "internalType": "address",
          "name": "",
          "type": "address"
        }
      ],
      "stateMutability": "view",
      "type": "function"
    },
    {
      "inputs": [],
      "name": "emergencyPause",
      "outputs": [],
      "stateMutability": "nonpayable",
      "type": "function"
    },
    {
      "inputs": [],
      "name": "emergencyUnpause",
      "outputs": [],
      "stateMutability": "nonpayable",
      "type": "function"
    },
    {
      "inputs": [],
      "name": "getEstateBeacon",
      "outputs": [
        {
          "internalType": "address",
          "name": "",
          "type": "address"
        }
      ],
      "stateMutability": "view",
      "type": "function"
    },
    {
      "inputs": [
        {
          "internalType": "bytes32",
          "name": "role",
          "type": "bytes32"
        }
      ],
      "name": "getRoleAdmin",
      "outputs": [
        {
          "internalType": "bytes32",
          "name": "",
          "type": "bytes32"
        }
      ],
      "stateMutability": "view",
      "type": "function"
    },
    {
      "inputs": [
        {
          "internalType": "bytes32",
          "name": "role",
          "type": "bytes32"
        },
        {
          "internalType": "address",
          "name": "account",
          "type": "address"
        }
      ],
      "name": "grantRole",
      "outputs": [],
      "stateMutability": "nonpayable",
      "type": "function"
    },
    {
      "inputs": [
        {
          "internalType": "bytes32",
          "name": "role",
          "type": "bytes32"
        },
        {
          "internalType": "address",
          "name": "account",
          "type": "address"
        }
      ],
      "name": "hasRole",
      "outputs": [
        {
          "internalType": "bool",
          "name": "",
          "type": "bool"
        }
      ],
      "stateMutability": "view",
      "type": "function"
    },
    {
      "inputs": [],
      "name": "isPaused",
      "outputs": [
        {
          "internalType": "bool",
          "name": "",
          "type": "bool"
        }
      ],
      "stateMutability": "view",
      "type": "function"
    },
    {
      "inputs": [
        {
          "internalType": "address",
          "name": "estateContract",
          "type": "address"
        },
        {
          "internalType": "uint256",
          "name": "tokenId",
          "type": "uint256"
        },
        {
          "internalType": "string",
          "name": "newName",
          "type": "string"
        },
        {
          "internalType": "string",
          "name": "newSymbol",
          "type": "string"
        }
      ],
      "name": "modifyProxyMetadata",
      "outputs": [
        {
          "internalType": "bool",
          "name": "",
          "type": "bool"
        }
      ],
      "stateMutability": "nonpayable",
      "type": "function"
    },
    {
      "inputs": [
        {
          "internalType": "address",
          "name": "estateContract",
          "type": "address"
        },
        {
          "internalType": "uint256",
          "name": "tokenId",
          "type": "uint256"
        },
        {
          "internalType": "string",
          "name": "newURI",
          "type": "string"
        }
      ],
      "name": "modifyProxyURI",
      "outputs": [
        {
          "internalType": "bool",
          "name": "",
          "type": "bool"
        }
      ],
      "stateMutability": "nonpayable",
      "type": "function"
    },
    {
      "inputs": [
        {
          "internalType": "address",
          "name": "owner",
          "type": "address"
        },
        {
          "internalType": "uint256",
          "name": "id",
          "type": "uint256"
        }
      ],
      "name": "ownerEstateAddr",
      "outputs": [
        {
          "internalType": "address",
          "name": "",
          "type": "address"
        }
      ],
      "stateMutability": "view",
      "type": "function"
    },
    {
      "inputs": [],
      "name": "proxiesCount",
      "outputs": [
        {
          "internalType": "uint256",
          "name": "",
          "type": "uint256"
        }
      ],
      "stateMutability": "view",
      "type": "function"
    },
    {
      "inputs": [
        {
          "internalType": "uint256",
          "name": "num",
          "type": "uint256"
        }
      ],
      "name": "proxyAddrById",
      "outputs": [
        {
          "internalType": "address",
          "name": "",
          "type": "address"
        }
      ],
      "stateMutability": "view",
      "type": "function"
    },
    {
      "inputs": [
        {
          "internalType": "bytes32",
          "name": "role",
          "type": "bytes32"
        },
        {
          "internalType": "address",
          "name": "account",
          "type": "address"
        }
      ],
      "name": "renounceRole",
      "outputs": [],
      "stateMutability": "nonpayable",
      "type": "function"
    },
    {
      "inputs": [
        {
          "internalType": "bytes32",
          "name": "role",
          "type": "bytes32"
        },
        {
          "internalType": "address",
          "name": "account",
          "type": "address"
        }
      ],
      "name": "revokeRole",
      "outputs": [],
      "stateMutability": "nonpayable",
      "type": "function"
    },
    {
      "inputs": [
        {
          "internalType": "address",
          "name": "manager",
          "type": "address"
        }
      ],
      "name": "setManager",
      "outputs": [
        {
          "internalType": "bool",
          "name": "",
          "type": "bool"
        }
      ],
      "stateMutability": "nonpayable",
      "type": "function"
    },
    {
      "inputs": [
        {
          "internalType": "bytes4",
          "name": "interfaceId",
          "type": "bytes4"
        }
      ],
      "name": "supportsInterface",
      "outputs": [
        {
          "internalType": "bool",
          "name": "",
          "type": "bool"
        }
      ],
      "stateMutability": "view",
      "type": "function"
    },
    {
      "inputs": [
        {
          "internalType": "uint256",
          "name": "taxId",
          "type": "uint256"
        }
      ],
      "name": "taxIdExists",
      "outputs": [
        {
          "internalType": "bool",
          "name": "",
          "type": "bool"
        }
      ],
      "stateMutability": "view",
      "type": "function"
    },
    {
      "inputs": [
        {
          "internalType": "address",
          "name": "safeAddress",
          "type": "address"
        },
        {
          "internalType": "uint256",
          "name": "taxId",
          "type": "uint256"
        }
      ],
      "name": "tokenizeEstate",
      "outputs": [
        {
          "internalType": "address",
          "name": "",
          "type": "address"
        }
      ],
      "stateMutability": "nonpayable",
      "type": "function"
    },
    {
      "inputs": [
        {
          "internalType": "address",
          "name": "owner",
          "type": "address"
        }
      ],
      "name": "totalOwnerEstates",
      "outputs": [
        {
          "internalType": "uint256",
          "name": "",
          "type": "uint256"
        }
      ],
      "stateMutability": "view",
      "type": "function"
    }
  ],
  "bytecode": "0x608060405234801561001057600080fd5b50615a12806100206000396000f3fe60806040523480156200001157600080fd5b5060043610620001dc5760003560e01c80638be84846116200010d578063d547741f11620000a3578063ec87621c116200007a578063ec87621c1462000443578063f72c0d8b146200044d578063facdef111462000457578063ffcc44dd146200046157600080fd5b8063d547741f146200040c578063dbb65cf71462000423578063ec0764f8146200042c57600080fd5b8063b187bd2611620000e4578063b187bd2614620003bd578063b498272614620003c7578063c4aae42f14620003de578063d0ebdbe714620003f557600080fd5b80638be84846146200036157806391d148541462000378578063a217fddf14620003b457600080fd5b806336568abe116200018357806351858e27116200015a57806351858e27146200031557806375b238fc146200031f5780637819521814620003295780637ad0d64e146200033b57600080fd5b806336568abe14620002ce5780634a4e3bd514620002e55780634f68a4cf14620002ef57600080fd5b8063248a9ca311620001b8578063248a9ca314620002545780632f2ff15d14620002895780633041b83114620002a257600080fd5b8062ba34ce14620001e157806301ffc9a7146200020d5780630dac9c2e1462000224575b600080fd5b620001f8620001f236600462001c6d565b6200048d565b60405190151581526020015b60405180910390f35b620001f86200021e36600462001d61565b6200064a565b6200023b6200023536600462001be3565b620006b4565b6040516001600160a01b03909116815260200162000204565b6200027a6200026536600462001d18565b60009081526065602052604090206001015490565b60405190815260200162000204565b620002a06200029a36600462001d32565b620006fd565b005b6200027a620002b336600462001bc5565b6001600160a01b0316600090815260cb602052604090205490565b620002a0620002df36600462001d32565b6200072b565b620002a0620007bb565b620001f86200030036600462001d18565b600090815260cd602052604090205460ff1690565b620002a062000805565b6200027a6200084c565b60c9546001600160a01b03166200023b565b620003526200034c36600462001bc5565b6200087f565b60405162000204919062001e72565b620001f86200037236600462001c10565b620008f7565b620001f86200038936600462001d32565b60009182526065602090815260408084206001600160a01b0393909316845291905290205460ff1690565b6200027a600081565b620001f862000a87565b620002a0620003d836600462001bc5565b62000a9b565b6200023b620003ef36600462001be3565b62000d66565b620001f86200040636600462001bc5565b62001158565b620002a06200041d36600462001d32565b62001235565b60ca546200027a565b6200023b6200043d36600462001d18565b6200125e565b6200027a62001291565b6200027a620012b2565b62000352620012d4565b6200023b6200047236600462001d18565b600090815260cc60205260409020546001600160a01b031690565b6040516b4d414e414745525f524f4c4560a01b6020820152600090602c0160405160208183030381529060405280519060200120620004cc8162001338565b60975460ff1615620005185760405162461bcd60e51b815260206004820152601060248201526f14185d5cd8589b194e881c185d5cd95960821b60448201526064015b60405180910390fd5b6000866001600160a01b0316633d867e8060e01b878787604051602401620005439392919062001ef1565b60408051601f198184030181529181526020820180516001600160e01b03166001600160e01b031990941693909317909252905162000583919062001dbb565b6000604051808303816000865af19150503d8060008114620005c2576040519150601f19603f3d011682016040523d82523d6000602084013e620005c7565b606091505b5050905080620006405760405162461bcd60e51b815260206004820152602560248201527f457374617465466163746f72793a206d6f64696679206d65746164617461206660448201527f61696c656400000000000000000000000000000000000000000000000000000060648201526084016200050f565b9695505050505050565b60006001600160e01b031982167f7965db0b000000000000000000000000000000000000000000000000000000001480620006ae57507f01ffc9a7000000000000000000000000000000000000000000000000000000006001600160e01b03198316145b92915050565b6001600160a01b038216600090815260cb60205260408120805483908110620006e157620006e162001fc0565b6000918252602090912001546001600160a01b03169392505050565b6000828152606560205260409020600101546200071a8162001338565b62000726838362001344565b505050565b6001600160a01b0381163314620007ab5760405162461bcd60e51b815260206004820152602f60248201527f416363657373436f6e74726f6c3a2063616e206f6e6c792072656e6f756e636560448201527f20726f6c657320666f722073656c66000000000000000000000000000000000060648201526084016200050f565b620007b78282620013e8565b5050565b6040516c55504752414445525f524f4c4560981b6020820152602d0160405160208183030381529060405280519060200120620007f88162001338565b620008026200146c565b50565b6040516c55504752414445525f524f4c4560981b6020820152602d0160405160208183030381529060405280519060200120620008428162001338565b620008026200150a565b6040516941444d494e5f524f4c4560b01b6020820152602a015b6040516020818303038152906040528051906020012081565b6001600160a01b038116600090815260cb6020908152604091829020805483518184028101840190945280845260609392830182828015620008eb57602002820191906000526020600020905b81546001600160a01b03168152600190910190602001808311620008cc575b50505050509050919050565b6040516b4d414e414745525f524f4c4560a01b6020820152600090602c0160405160208183030381529060405280519060200120620009368162001338565b60975460ff16156200097e5760405162461bcd60e51b815260206004820152601060248201526f14185d5cd8589b194e881c185d5cd95960821b60448201526064016200050f565b6000856001600160a01b031663a2cf7e1b60e01b8686604051602401620009a792919062001ed6565b60408051601f198184030181529181526020820180516001600160e01b03166001600160e01b0319909416939093179092529051620009e7919062001dbb565b6000604051808303816000865af19150503d806000811462000a26576040519150601f19603f3d011682016040523d82523d6000602084013e62000a2b565b606091505b505090508062000a7e5760405162461bcd60e51b815260206004820181905260248201527f457374617465466163746f72793a206d6f6469667920555249206661696c656460448201526064016200050f565b95945050505050565b600062000a9660975460ff1690565b905090565b600062000aa9600162001588565b9050801562000ac2576000805461ff0019166101001790555b62000acc620016c7565b62000ad662001736565b6040516941444d494e5f524f4c4560b01b602082015262000b4890602a015b6040516020818303038152906040528051906020012060405160200162000b2c906941444d494e5f524f4c4560b01b8152600a0190565b60405160208183030381529060405280519060200120620017ad565b6040516c55504752414445525f524f4c4560981b602082015262000b6f90602d0162000af5565b6040516941444d494e5f524f4c4560b01b602082015262000bb190602a016040516020818303038152906040528051906020012062000bab3390565b620017f8565b6040516c55504752414445525f524f4c4560981b602082015262000bef90602d016040516020818303038152906040528051906020012083620017f8565b600060405162000bff9062001aee565b604051809103906000f08015801562000c1c573d6000803e3d6000fd5b5060405162000c2b9062001afc565b6001600160a01b039091168152602001604051809103906000f08015801562000c58573d6000803e3d6000fd5b5060405163f2fde38b60e01b81526001600160a01b0385811660048301529192509082169063f2fde38b90602401600060405180830381600087803b15801562000ca157600080fd5b505af115801562000cb6573d6000803e3d6000fd5b505060c980546001600160a01b03851673ffffffffffffffffffffffffffffffffffffffff19909116811790915560408051918252513393507fcb03dfd8c0374fe2246b0a7d3ed8a07dbbef2c07c428612c20563f297546115e92509081900360200190a2508015620007b7576000805461ff0019169055604051600181527f7f26b83ff96e1f2b6a682f133852f6798a09c465da95921460cefb38474024989060200160405180910390a15050565b600062000d7560975460ff1690565b1562000db75760405162461bcd60e51b815260206004820152601060248201526f14185d5cd8589b194e881c185d5cd95960821b60448201526064016200050f565b6040517fb9209e3300000000000000000000000000000000000000000000000000000000815233600482015273f8e81d47203a594245e36c48e151709f0c19fbe89063b9209e339060240160206040518083038186803b15801562000e1b57600080fd5b505afa15801562000e30573d6000803e3d6000fd5b505050506040513d601f19601f8201168201806040525081019062000e56919062001cf4565b62000ec95760405162461bcd60e51b8152602060048201526024808201527f457374617465466163746f72793a20766572696669656420686f6c646572732060448201527f6f6e6c790000000000000000000000000000000000000000000000000000000060648201526084016200050f565b600082815260cd602052604090205460ff161562000f2a5760405162461bcd60e51b815260206004820152601c60248201527f457374617465466163746f72793a20746178204944206578697374730000000060448201526064016200050f565b600082815260cd602090815260408083208054600160ff1990911617905560c95481516001600160a01b0388811660248301523360448301526064808301899052845180840390910181526084909201845293810180516001600160e01b03167fb5b160e100000000000000000000000000000000000000000000000000000000179052915192169162000fbe9062001b0a565b62000fcb92919062001e46565b604051809103906000f08015801562000fe8573d6000803e3d6000fd5b5060ca805460018101825560008290527f42d72674974f694b5f5159593243114d38a5c39c89d6b62fee061ff523240ee101805473ffffffffffffffffffffffffffffffffffffffff19166001600160a01b038416908117909155905460405163f2fde38b60e01b8152336004820152929350839290919063f2fde38b90602401600060405180830381600087803b1580156200108457600080fd5b505af115801562001099573d6000803e3d6000fd5b505050600086815260cc6020908152604080832080546001600160a01b03881673ffffffffffffffffffffffffffffffffffffffff19918216811790925533855260cb84529184208054600181018255908552929093209091018054909116909117905550620011063390565b604080518381526001600160a01b038581166020830152928316928916917fc3fa539a2bdd801698d1dabed814fa952b1f3ffb3944fc99140fb23a30529aec910160405180910390a350949350505050565b6040516941444d494e5f524f4c4560b01b6020820152600090602a0160405160208183030381529060405280519060200120620011958162001338565b6040516b4d414e414745525f524f4c4560a01b6020820152620011d290602c01604051602081830303815290604052805190602001208462001344565b6040516b4d414e414745525f524f4c4560a01b60208201526200122e90602c0160408051601f1981840301815291815281516020928301206000908152606583528181206001600160a01b038816825290925290205460ff1690565b9392505050565b600082815260656020526040902060010154620012528162001338565b620007268383620013e8565b600060ca828154811062001276576200127662001fc0565b6000918252602090912001546001600160a01b031692915050565b6040516b4d414e414745525f524f4c4560a01b6020820152602c0162000866565b6040516c55504752414445525f524f4c4560981b6020820152602d0162000866565b606060ca8054806020026020016040519081016040528092919081815260200182805480156200132e57602002820191906000526020600020905b81546001600160a01b031681526001909101906020018083116200130f575b5050505050905090565b62000802813362001804565b60008281526065602090815260408083206001600160a01b038516845290915290205460ff16620007b75760008281526065602090815260408083206001600160a01b03851684529091529020805460ff19166001179055620013a43390565b6001600160a01b0316816001600160a01b0316837f2f8788117e7eff1d82e926ec794901d17c78024a50270940304540a733656f0d60405160405180910390a45050565b60008281526065602090815260408083206001600160a01b038516845290915290205460ff1615620007b75760008281526065602090815260408083206001600160a01b0385168085529252808320805460ff1916905551339285917ff6391f5c32d9c69d2a47ea670b442974b53935d1edc7fd64eb21e047a839171b9190a45050565b60975460ff16620014c05760405162461bcd60e51b815260206004820152601460248201527f5061757361626c653a206e6f742070617573656400000000000000000000000060448201526064016200050f565b6097805460ff191690557f5db9ee0a495bf2e6ff9c91a7834c1ba4fdd244a5e8aa4e537bd38aeae4b073aa335b6040516001600160a01b03909116815260200160405180910390a1565b60975460ff1615620015525760405162461bcd60e51b815260206004820152601060248201526f14185d5cd8589b194e881c185d5cd95960821b60448201526064016200050f565b6097805460ff191660011790557f62e78cea01bee320cd4e420270b5ea74000d11b0c9f74754ebdbfc544b05a258620014ed3390565b60008054610100900460ff161562001629578160ff166001148015620015ad5750303b155b620016215760405162461bcd60e51b815260206004820152602e60248201527f496e697469616c697a61626c653a20636f6e747261637420697320616c72656160448201527f647920696e697469616c697a656400000000000000000000000000000000000060648201526084016200050f565b506000919050565b60005460ff808416911610620016a85760405162461bcd60e51b815260206004820152602e60248201527f496e697469616c697a61626c653a20636f6e747261637420697320616c72656160448201527f647920696e697469616c697a656400000000000000000000000000000000000060648201526084016200050f565b506000805460ff191660ff92909216919091179055600190565b919050565b600054610100900460ff16620017345760405162461bcd60e51b815260206004820152602b60248201527f496e697469616c697a61626c653a20636f6e7472616374206973206e6f74206960448201526a6e697469616c697a696e6760a81b60648201526084016200050f565b565b600054610100900460ff16620017a35760405162461bcd60e51b815260206004820152602b60248201527f496e697469616c697a61626c653a20636f6e7472616374206973206e6f74206960448201526a6e697469616c697a696e6760a81b60648201526084016200050f565b6200173462001876565b600082815260656020526040808220600101805490849055905190918391839186917fbd79b86ffe0ab8e8776151514217cd7cacd52c909f66475c3af44e129f0b00ff9190a4505050565b620007b7828262001344565b60008281526065602090815260408083206001600160a01b038516845290915290205460ff16620007b7576200183c826020620018ef565b6040516020016200184e919062001dd9565b60408051601f198184030181529082905262461bcd60e51b82526200050f9160040162001ec1565b600054610100900460ff16620018e35760405162461bcd60e51b815260206004820152602b60248201527f496e697469616c697a61626c653a20636f6e7472616374206973206e6f74206960448201526a6e697469616c697a696e6760a81b60648201526084016200050f565b6097805460ff19169055565b606060006200190083600262001f3b565b6200190d90600262001f20565b67ffffffffffffffff81111562001928576200192862001fd6565b6040519080825280601f01601f19166020018201604052801562001953576020820181803683370190505b5090507f3000000000000000000000000000000000000000000000000000000000000000816000815181106200198d576200198d62001fc0565b60200101906001600160f81b031916908160001a9053507f780000000000000000000000000000000000000000000000000000000000000081600181518110620019db57620019db62001fc0565b60200101906001600160f81b031916908160001a905350600062001a0184600262001f3b565b62001a0e90600162001f20565b90505b600181111562001a9d577f303132333435363738396162636465660000000000000000000000000000000085600f166010811062001a535762001a5362001fc0565b1a60f81b82828151811062001a6c5762001a6c62001fc0565b60200101906001600160f81b031916908160001a90535060049490941c9362001a958162001f90565b905062001a11565b5083156200122e5760405162461bcd60e51b815260206004820181905260248201527f537472696e67733a20686578206c656e67746820696e73756666696369656e7460448201526064016200050f565b612a518062001fed83390190565b6105cb8062004a3e83390190565b6109d4806200500983390190565b80356001600160a01b0381168114620016c257600080fd5b600082601f83011262001b4257600080fd5b813567ffffffffffffffff8082111562001b605762001b6062001fd6565b604051601f8301601f19908116603f0116810190828211818310171562001b8b5762001b8b62001fd6565b8160405283815286602085880101111562001ba557600080fd5b836020870160208301376000602085830101528094505050505092915050565b60006020828403121562001bd857600080fd5b6200122e8262001b18565b6000806040838503121562001bf757600080fd5b62001c028362001b18565b946020939093013593505050565b60008060006060848603121562001c2657600080fd5b62001c318462001b18565b925060208401359150604084013567ffffffffffffffff81111562001c5557600080fd5b62001c638682870162001b30565b9150509250925092565b6000806000806080858703121562001c8457600080fd5b62001c8f8562001b18565b935060208501359250604085013567ffffffffffffffff8082111562001cb457600080fd5b62001cc28883890162001b30565b9350606087013591508082111562001cd957600080fd5b5062001ce88782880162001b30565b91505092959194509250565b60006020828403121562001d0757600080fd5b815180151581146200122e57600080fd5b60006020828403121562001d2b57600080fd5b5035919050565b6000806040838503121562001d4657600080fd5b8235915062001d586020840162001b18565b90509250929050565b60006020828403121562001d7457600080fd5b81356001600160e01b0319811681146200122e57600080fd5b6000815180845262001da781602086016020860162001f5d565b601f01601f19169290920160200192915050565b6000825162001dcf81846020870162001f5d565b9190910192915050565b7f416363657373436f6e74726f6c3a206163636f756e742000000000000000000081527f206973206d697373696e6720726f6c652000000000000000000000000000000060178201526000825162001e3981602885016020870162001f5d565b9190910160280192915050565b6001600160a01b038316815260406020820152600062001e6a604083018462001d8d565b949350505050565b6020808252825182820181905260009190848201906040850190845b8181101562001eb55783516001600160a01b03168352928401929184019160010162001e8e565b50909695505050505050565b6020815260006200122e602083018462001d8d565b82815260406020820152600062001e6a604083018462001d8d565b83815260606020820152600062001f0c606083018562001d8d565b828103604084015262000640818562001d8d565b6000821982111562001f365762001f3662001faa565b500190565b600081600019048311821515161562001f585762001f5862001faa565b500290565b60005b8381101562001f7a57818101518382015260200162001f60565b8381111562001f8a576000848401525b50505050565b60008162001fa25762001fa262001faa565b506000190190565b634e487b7160e01b600052601160045260246000fd5b634e487b7160e01b600052603260045260246000fd5b634e487b7160e01b600052604160045260246000fdfe608060405260ce805460ff1916905534801561001a57600080fd5b50612a278061002a6000396000f3fe6080604052600436106101a05760003560e01c806368cdafe6116100e1578063a7a1c5451161008a578063b88d4fde11610064578063b88d4fde146104a5578063ceb346d5146104c5578063e985e9c5146104f4578063f2fde38b1461053d57600080fd5b8063a7a1c5451461045d578063b187bd261461047d578063b5b160e11461049257600080fd5b80638da5cb5b116100bb5780638da5cb5b146103ff578063a22cb4651461041d578063a2cf7e1b1461043d57600080fd5b806368cdafe6146103aa57806370a08231146103ca578063715018a6146103ea57600080fd5b806323b872dd1161014e57806342966c681161012857806342966c68146103045780634e41a1fb1461032457806354fd4d50146103445780636352211e1461038a57600080fd5b806323b872dd146102a45780633d867e80146102c457806342842e0e146102e457600080fd5b8063095ea7b31161017f578063095ea7b3146102435780631675f4551461026557806318160ddd1461028557600080fd5b8062ad800c146101a557806301ffc9a7146101db578063081812fc1461020b575b600080fd5b3480156101b157600080fd5b506101c56101c036600461276b565b61055d565b6040516101d291906128da565b60405180910390f35b3480156101e757600080fd5b506101fb6101f6366004612657565b610688565b60405190151581526020016101d2565b34801561021757600080fd5b5061022b61022636600461276b565b610740565b6040516001600160a01b0390911681526020016101d2565b34801561024f57600080fd5b5061026361025e366004612610565b610767565b005b34801561027157600080fd5b506101c561028036600461276b565b61087b565b34801561029157600080fd5b5060ca545b6040519081526020016101d2565b3480156102b057600080fd5b506102636102bf366004612521565b610903565b3480156102d057600080fd5b506102636102df3660046127e4565b61096f565b3480156102f057600080fd5b506102636102ff366004612521565b610a6a565b34801561031057600080fd5b5061026361031f36600461276b565b610a85565b34801561033057600080fd5b506101c561033f36600461276b565b610af6565b34801561035057600080fd5b5060408051808201909152600681527f56312e302e30000000000000000000000000000000000000000000000000000060208201526101c5565b34801561039657600080fd5b5061022b6103a536600461276b565b610b97565b3480156103b657600080fd5b506102636103c5366004612610565b610bfc565b3480156103d657600080fd5b506102966103e53660046124d3565b610c71565b3480156103f657600080fd5b50610263610d0b565b34801561040b57600080fd5b506033546001600160a01b031661022b565b34801561042957600080fd5b506102636104383660046125d9565b610d71565b34801561044957600080fd5b5061026361045836600461279d565b610d7c565b34801561046957600080fd5b50610296610478366004612691565b610e2f565b34801561048957600080fd5b506101fb6110dd565b6102636104a0366004612521565b611178565b3480156104b157600080fd5b506102636104c036600461255d565b6112e3565b3480156104d157600080fd5b506104e56104e036600461276b565b611350565b6040516101d293929190612946565b34801561050057600080fd5b506101fb61050f3660046124ee565b6001600160a01b03918216600090815260d36020908152604080832093909416825291909152205460ff1690565b34801561054957600080fd5b506102636105583660046124d3565b6114ae565b606061056882611590565b600082815260cf60205260409020546001600160a01b03166105d15760405162461bcd60e51b815260206004820152601960248201527f4573746174653a20746f6b656e20646f6e6f742065786973740000000000000060448201526064015b60405180910390fd5b600082815260d46020908152604080832060cc546001600160a01b03168452909152902060030180546106039061297c565b80601f016020809104026020016040519081016040528092919081815260200182805461062f9061297c565b801561067c5780601f106106515761010080835404028352916020019161067c565b820191906000526020600020905b81548152906001019060200180831161065f57829003601f168201915b50505050509050919050565b60006001600160e01b031982167f0aeb42fb0000000000000000000000000000000000000000000000000000000014806106d257506001600160e01b03198216630a85bd0160e11b145b8061070657506001600160e01b031982167f9f49009b00000000000000000000000000000000000000000000000000000000145b8061073a57507f01ffc9a7000000000000000000000000000000000000000000000000000000006001600160e01b03198316145b92915050565b600061074b82611590565b50600090815260d260205260409020546001600160a01b031690565b61076f6115f4565b600061077a82610b97565b9050806001600160a01b0316836001600160a01b031614156107de5760405162461bcd60e51b815260206004820152601f60248201527f4573746174653a20746f2063616e206e6f7420626520746865206f776e65720060448201526064016105c8565b336001600160a01b03821614806107fa57506107fa813361050f565b61086c5760405162461bcd60e51b815260206004820152602a60248201527f4573746174653a2063616c6c65722073686f756c64206265206f776e6572206f60448201527f7220617070726f7665640000000000000000000000000000000000000000000060648201526084016105c8565b61087683836116c7565b505050565b606061088682611590565b600082815260cf60205260409020546001600160a01b03166108ea5760405162461bcd60e51b815260206004820152601960248201527f4573746174653a20746f6b656e20646f6e6f742065786973740000000000000060448201526064016105c8565b600082815260d16020526040902080546106039061297c565b61090d338261173d565b6109645760405162461bcd60e51b815260206004820152602260248201527f4573746174653a206e656974686572206f776e6572206e6f7220617070726f76604482015261195960f21b60648201526084016105c8565b61087683838361181f565b6109776115f4565b60c9546001600160a01b0316336001600160a01b0316146109da5760405162461bcd60e51b815260206004820152601960248201527f4573746174653a20756e617574686f72697a65642063616c6c0000000000000060448201526064016105c8565b600083815260d46020908152604080832060cc546001600160a01b03168452825290912083519091610a13916003840191860190612350565b508151610a299060048301906020850190612350565b50837f601d4b2f0f06545c0f60d4f70e3bc5d78db246f7b66aaeb1ea23a56aa854c6708484604051610a5c929190612918565b60405180910390a250505050565b610876838383604051806020016040528060008152506112e3565b6033546001600160a01b03163314610adf5760405162461bcd60e51b815260206004820181905260248201527f4f776e61626c653a2063616c6c6572206973206e6f7420746865206f776e657260448201526064016105c8565b610ae88161182a565b60cc546001600160a01b0316ff5b6060610b0182611590565b600082815260cf60205260409020546001600160a01b0316610b655760405162461bcd60e51b815260206004820152601960248201527f4573746174653a20746f6b656e20646f6e6f742065786973740000000000000060448201526064016105c8565b600082815260d46020908152604080832060cc546001600160a01b03168452909152902060040180546106039061297c565b600081815260cf60205260408120546001600160a01b03168061073a5760405162461bcd60e51b815260206004820152601860248201527f4573746174653a20696e76616c696420746f6b656e204944000000000000000060448201526064016105c8565b6033546001600160a01b03163314610c565760405162461bcd60e51b815260206004820181905260248201527f4f776e61626c653a2063616c6c6572206973206e6f7420746865206f776e657260448201526064016105c8565b60cb54610c6d906001600160a01b0316838361181f565b5050565b60006001600160a01b038216610cef5760405162461bcd60e51b815260206004820152602560248201527f4573746174653a206f776e65722063616e206e6f74206265206164647265737360448201527f207a65726f00000000000000000000000000000000000000000000000000000060648201526084016105c8565b506001600160a01b0316600090815260d0602052604090205490565b6033546001600160a01b03163314610d655760405162461bcd60e51b815260206004820181905260248201527f4f776e61626c653a2063616c6c6572206973206e6f7420746865206f776e657260448201526064016105c8565b610d6f600061183e565b565b610c6d338383611890565b610d846115f4565b60c9546001600160a01b0316336001600160a01b031614610de75760405162461bcd60e51b815260206004820152601960248201527f4573746174653a20756e617574686f72697a65642063616c6c0000000000000060448201526064016105c8565b610df18282611967565b817fd3804647d8ed05e254cca17c9a140f2a93f199e1d931e79de2f6930778b83d718233604051610e239291906128ed565b60405180910390a25050565b6033546000906001600160a01b03163314610e8c5760405162461bcd60e51b815260206004820181905260248201527f4f776e61626c653a2063616c6c6572206973206e6f7420746865206f776e657260448201526064016105c8565b60026097541415610edf5760405162461bcd60e51b815260206004820152601f60248201527f5265656e7472616e637947756172643a207265656e7472616e742063616c6c0060448201526064016105c8565b600260975560ce5460ff1615610f375760405162461bcd60e51b815260206004820152601b60248201527f4573746174653a2065737461746520746f6b656e206d696e746564000000000060448201526064016105c8565b60c960009054906101000a90046001600160a01b03166001600160a01b031663dbb65cf76040518163ffffffff1660e01b815260040160206040518083038186803b158015610f8557600080fd5b505afa158015610f99573d6000803e3d6000fd5b505050506040513d601f19601f82011682018060405250810190610fbd9190612784565b60ca81905560cb54610fda916001600160a01b03909116906119ea565b610fe660ca5483611967565b60ce805460ff191660011790556040805160c0810182528881526020808201899052818301889052606082018790526080820186905260a0820185905260ca54600090815260d4825283812033825282529290922081518051929391926110509284920190612350565b5060208281015180516110699260018501920190612350565b50604082015160028201556060820151805161108f916003840191602090910190612350565b50608082015180516110ab916004840191602090910190612350565b5060a082015180516110c7916005840191602090910190612350565b505060ca54600160975598975050505050505050565b60c954604080517fb187bd2600000000000000000000000000000000000000000000000000000000815290516000926001600160a01b03169163b187bd26916004808301926020929190829003018186803b15801561113b57600080fd5b505afa15801561114f573d6000803e3d6000fd5b505050506040513d601f19601f82011682018060405250810190611173919061263a565b905090565b60006111846001611a04565b9050801561119c576000805461ff0019166101001790555b600260975414156111ef5760405162461bcd60e51b815260206004820152601f60248201527f5265656e7472616e637947756172643a207265656e7472616e742063616c6c0060448201526064016105c8565b60026097556111fc611b3d565b611204611bb0565b60cb80546001600160a01b03199081166001600160a01b038781169190911790925560cd84905560cc805482169286169290921790915560c98054339216821790556112925760405162461bcd60e51b815260206004820152601f60248201527f4573746174653a20466163746f72792069732061646472657373207a65726f0060448201526064016105c8565b600160975580156112dd576000805461ff0019169055604051600181527f7f26b83ff96e1f2b6a682f133852f6798a09c465da95921460cefb38474024989060200160405180910390a15b50505050565b6112ed338361173d565b6113445760405162461bcd60e51b815260206004820152602260248201527f4573746174653a206e656974686572206f776e6572206e6f7220617070726f76604482015261195960f21b60648201526084016105c8565b6112dd84848484611c23565b600081815260d46020908152604080832060cc546001600160a01b0316845290915281206002810154815460609384939092909160018301919083906113959061297c565b80601f01602080910402602001604051908101604052809291908181526020018280546113c19061297c565b801561140e5780601f106113e35761010080835404028352916020019161140e565b820191906000526020600020905b8154815290600101906020018083116113f157829003601f168201915b505050505092508180546114219061297c565b80601f016020809104026020016040519081016040528092919081815260200182805461144d9061297c565b801561149a5780601f1061146f5761010080835404028352916020019161149a565b820191906000526020600020905b81548152906001019060200180831161147d57829003601f168201915b505050505091509250925092509193909250565b6033546001600160a01b031633146115085760405162461bcd60e51b815260206004820181905260248201527f4f776e61626c653a2063616c6c6572206973206e6f7420746865206f776e657260448201526064016105c8565b6001600160a01b0381166115845760405162461bcd60e51b815260206004820152602660248201527f4f776e61626c653a206e6577206f776e657220697320746865207a65726f206160448201527f646472657373000000000000000000000000000000000000000000000000000060648201526084016105c8565b61158d8161183e565b50565b600081815260cf60205260409020546001600160a01b031661158d5760405162461bcd60e51b815260206004820152601860248201527f4573746174653a206d696e7420746f6b656e206669727374000000000000000060448201526064016105c8565b60c960009054906101000a90046001600160a01b03166001600160a01b031663b187bd266040518163ffffffff1660e01b815260040160206040518083038186803b15801561164257600080fd5b505afa158015611656573d6000803e3d6000fd5b505050506040513d601f19601f8201168201806040525081019061167a919061263a565b15610d6f5760405162461bcd60e51b815260206004820152601960248201527f4573746174653a206f7065726174696f6e73207061757365640000000000000060448201526064016105c8565b6116cf6115f4565b600081815260d26020526040902080546001600160a01b0319166001600160a01b038416908117909155819061170482610b97565b6001600160a01b03167f8c5be1e5ebec7d5bd14f71427d1e84f3dd0314c0f7b2291e5b200ac8c7c3b92560405160405180910390a45050565b600081815260cf60205260408120546001600160a01b03166117a15760405162461bcd60e51b815260206004820152601c60248201527f4573746174653a20746f6b656e20646f6573206e6f742065786973740000000060448201526064016105c8565b60006117ac83610b97565b9050806001600160a01b0316846001600160a01b031614806117f357506001600160a01b03808216600090815260d3602090815260408083209388168352929052205460ff165b806118175750836001600160a01b031661180c84610740565b6001600160a01b0316145b949350505050565b610876838383611ca1565b61158d61183682610b97565b600083611ca1565b603380546001600160a01b038381166001600160a01b0319831681179093556040519116919082907f8be0079c531659141344cd1fd0a4f28419497f9722a3daafe3b4186f6b6457e090600090a35050565b6118986115f4565b816001600160a01b0316836001600160a01b031614156118fa5760405162461bcd60e51b815260206004820152601960248201527f4573746174653a20617070726f766520746f2063616c6c65720000000000000060448201526064016105c8565b6001600160a01b03838116600081815260d36020908152604080832094871680845294825291829020805460ff191686151590811790915591519182527f17307eab39ab6107e8899845ad3d59bd9653f200f220920489ca2b5937696c31910160405180910390a3505050565b600082815260cf60205260409020546001600160a01b03166119cb5760405162461bcd60e51b815260206004820152601960248201527f4573746174653a20746f6b656e20646f6e6f742065786973740000000000000060448201526064016105c8565b600082815260d160209081526040909120825161087692840190612350565b610c6d828260405180602001604052806000815250612088565b60008054610100900460ff1615611aa1578160ff166001148015611a275750303b155b611a995760405162461bcd60e51b815260206004820152602e60248201527f496e697469616c697a61626c653a20636f6e747261637420697320616c72656160448201527f647920696e697469616c697a656400000000000000000000000000000000000060648201526084016105c8565b506000919050565b60005460ff808416911610611b1e5760405162461bcd60e51b815260206004820152602e60248201527f496e697469616c697a61626c653a20636f6e747261637420697320616c72656160448201527f647920696e697469616c697a656400000000000000000000000000000000000060648201526084016105c8565b506000805460ff191660ff92909216919091179055600190565b919050565b600054610100900460ff16611ba85760405162461bcd60e51b815260206004820152602b60248201527f496e697469616c697a61626c653a20636f6e7472616374206973206e6f74206960448201526a6e697469616c697a696e6760a81b60648201526084016105c8565b610d6f612106565b600054610100900460ff16611c1b5760405162461bcd60e51b815260206004820152602b60248201527f496e697469616c697a61626c653a20636f6e7472616374206973206e6f74206960448201526a6e697469616c697a696e6760a81b60648201526084016105c8565b610d6f61217a565b611c2e84848461181f565b611c3a848484846121ec565b6112dd5760405162461bcd60e51b815260206004820152603260248201527f4573746174653a207472616e7366657220746f206e6f6e20455243373231526560448201527131b2b4bb32b91034b6b83632b6b2b73a32b960711b60648201526084016105c8565b611ca96115f4565b6001600160a01b038316158015611cc857506001600160a01b03821615155b15611d9e57600081815260cf60205260409020546001600160a01b031615611d325760405162461bcd60e51b815260206004820152601c60248201527f4573746174653a20746f6b656e20616c7265616479206d696e7465640000000060448201526064016105c8565b6001600160a01b038216600081815260d0602090815260408083208054600101905584835260cf90915280822080546001600160a01b0319168417905551839291907fddf252ad1be2c89b69c2b068fc378daa952ba7f163c4a11628f55a4df523b3ef908290a4505050565b6001600160a01b03831615801590611dbd57506001600160a01b038216155b15611e8d576000611dcd82610b97565b600083815260d26020908152604080832080546001600160a01b03199081169091556001600160a01b038516845260d08352818420805460001901905586845260cf83528184208054909116905560d19091529020805491925090611e319061297c565b159050611e4f57600082815260d160205260408120611e4f916123d4565b60405182906000906001600160a01b038416907fddf252ad1be2c89b69c2b068fc378daa952ba7f163c4a11628f55a4df523b3ef908390a450505050565b816001600160a01b0316836001600160a01b03161461204057826001600160a01b0316611eb982610b97565b6001600160a01b031614611f355760405162461bcd60e51b815260206004820152602560248201527f4573746174653a207472616e736665722066726f6d20696e636f72726563742060448201527f6f776e657200000000000000000000000000000000000000000000000000000060648201526084016105c8565b6001600160a01b038216611fb05760405162461bcd60e51b8152602060048201526024808201527f4573746174653a207472616e7366657220746f20746865207a65726f2061646460448201527f726573730000000000000000000000000000000000000000000000000000000060648201526084016105c8565b600081815260d26020908152604080832080546001600160a01b03199081169091556001600160a01b0387811680865260d0855283862080546000190190559087168086528386208054600101905586865260cf90945282852080549092168417909155905184937fddf252ad1be2c89b69c2b068fc378daa952ba7f163c4a11628f55a4df523b3ef91a4505050565b60405162461bcd60e51b815260206004820152601760248201527f4573746174653a207472616e73666572206661696c656400000000000000000060448201526064016105c8565b6120928383612344565b61209f60008484846121ec565b6108765760405162461bcd60e51b815260206004820152603260248201527f4573746174653a207472616e7366657220746f206e6f6e20455243373231526560448201527131b2b4bb32b91034b6b83632b6b2b73a32b960711b60648201526084016105c8565b600054610100900460ff166121715760405162461bcd60e51b815260206004820152602b60248201527f496e697469616c697a61626c653a20636f6e7472616374206973206e6f74206960448201526a6e697469616c697a696e6760a81b60648201526084016105c8565b610d6f3361183e565b600054610100900460ff166121e55760405162461bcd60e51b815260206004820152602b60248201527f496e697469616c697a61626c653a20636f6e7472616374206973206e6f74206960448201526a6e697469616c697a696e6760a81b60648201526084016105c8565b6001609755565b60006001600160a01b0384163b1561233957604051630a85bd0160e11b81526001600160a01b0385169063150b7a029061223090339089908890889060040161289e565b602060405180830381600087803b15801561224a57600080fd5b505af192505050801561227a575060408051601f3d908101601f1916820190925261227791810190612674565b60015b61231f573d8080156122a8576040519150601f19603f3d011682016040523d82523d6000602084013e6122ad565b606091505b5080516123175760405162461bcd60e51b815260206004820152603260248201527f4552433732313a207472616e7366657220746f206e6f6e20455243373231526560448201527131b2b4bb32b91034b6b83632b6b2b73a32b960711b60648201526084016105c8565b805181602001fd5b6001600160e01b031916630a85bd0160e11b149050611817565b506001949350505050565b610c6d60008383611ca1565b82805461235c9061297c565b90600052602060002090601f01602090048101928261237e57600085556123c4565b82601f1061239757805160ff19168380011785556123c4565b828001600101855582156123c4579182015b828111156123c45782518255916020019190600101906123a9565b506123d092915061240a565b5090565b5080546123e09061297c565b6000825580601f106123f0575050565b601f01602090049060005260206000209081019061158d91905b5b808211156123d0576000815560010161240b565b600067ffffffffffffffff8084111561243a5761243a6129b7565b604051601f8501601f19908116603f01168101908282118183101715612462576124626129b7565b8160405280935085815286868601111561247b57600080fd5b858560208301376000602087830101525050509392505050565b80356001600160a01b0381168114611b3857600080fd5b600082601f8301126124bd57600080fd5b6124cc8383356020850161241f565b9392505050565b6000602082840312156124e557600080fd5b6124cc82612495565b6000806040838503121561250157600080fd5b61250a83612495565b915061251860208401612495565b90509250929050565b60008060006060848603121561253657600080fd5b61253f84612495565b925061254d60208501612495565b9150604084013590509250925092565b6000806000806080858703121561257357600080fd5b61257c85612495565b935061258a60208601612495565b925060408501359150606085013567ffffffffffffffff8111156125ad57600080fd5b8501601f810187136125be57600080fd5b6125cd8782356020840161241f565b91505092959194509250565b600080604083850312156125ec57600080fd5b6125f583612495565b91506020830135612605816129cd565b809150509250929050565b6000806040838503121561262357600080fd5b61262c83612495565b946020939093013593505050565b60006020828403121561264c57600080fd5b81516124cc816129cd565b60006020828403121561266957600080fd5b81356124cc816129db565b60006020828403121561268657600080fd5b81516124cc816129db565b60008060008060008060c087890312156126aa57600080fd5b863567ffffffffffffffff808211156126c257600080fd5b6126ce8a838b016124ac565b975060208901359150808211156126e457600080fd5b6126f08a838b016124ac565b965060408901359550606089013591508082111561270d57600080fd5b6127198a838b016124ac565b9450608089013591508082111561272f57600080fd5b61273b8a838b016124ac565b935060a089013591508082111561275157600080fd5b5061275e89828a016124ac565b9150509295509295509295565b60006020828403121561277d57600080fd5b5035919050565b60006020828403121561279657600080fd5b5051919050565b600080604083850312156127b057600080fd5b82359150602083013567ffffffffffffffff8111156127ce57600080fd5b6127da858286016124ac565b9150509250929050565b6000806000606084860312156127f957600080fd5b83359250602084013567ffffffffffffffff8082111561281857600080fd5b612824878388016124ac565b9350604086013591508082111561283a57600080fd5b50612847868287016124ac565b9150509250925092565b6000815180845260005b818110156128775760208185018101518683018201520161285b565b81811115612889576000602083870101525b50601f01601f19169290920160200192915050565b60006001600160a01b038087168352808616602084015250836040830152608060608301526128d06080830184612851565b9695505050505050565b6020815260006124cc6020830184612851565b6040815260006129006040830185612851565b90506001600160a01b03831660208301529392505050565b60408152600061292b6040830185612851565b828103602084015261293d8185612851565b95945050505050565b6060815260006129596060830186612851565b828103602084015261296b8186612851565b915050826040830152949350505050565b600181811c9082168061299057607f821691505b602082108114156129b157634e487b7160e01b600052602260045260246000fd5b50919050565b634e487b7160e01b600052604160045260246000fd5b801515811461158d57600080fd5b6001600160e01b03198116811461158d57600080fdfea2646970667358221220dd37b0f79a44c8551de0c4a5f3fad3ae8af197e6090cc359f141b5aee8f3acfa64736f6c63430008070033608060405234801561001057600080fd5b506040516105cb3803806105cb83398101604081905261002f91610151565b61003833610047565b61004181610097565b50610181565b600080546001600160a01b038381166001600160a01b0319831681178455604051919092169283917f8be0079c531659141344cd1fd0a4f28419497f9722a3daafe3b4186f6b6457e09190a35050565b6100aa8161014260201b6102bd1760201c565b6101205760405162461bcd60e51b815260206004820152603360248201527f5570677261646561626c65426561636f6e3a20696d706c656d656e746174696f60448201527f6e206973206e6f74206120636f6e747261637400000000000000000000000000606482015260840160405180910390fd5b600180546001600160a01b0319166001600160a01b0392909216919091179055565b6001600160a01b03163b151590565b60006020828403121561016357600080fd5b81516001600160a01b038116811461017a57600080fd5b9392505050565b61043b806101906000396000f3fe608060405234801561001057600080fd5b50600436106100675760003560e01c8063715018a611610050578063715018a6146100aa5780638da5cb5b146100b2578063f2fde38b146100c357600080fd5b80633659cfe61461006c5780635c60da1b14610081575b600080fd5b61007f61007a3660046103d5565b6100d6565b005b6001546001600160a01b03165b6040516001600160a01b03909116815260200160405180910390f35b61007f610175565b6000546001600160a01b031661008e565b61007f6100d13660046103d5565b6101db565b6000546001600160a01b031633146101355760405162461bcd60e51b815260206004820181905260248201527f4f776e61626c653a2063616c6c6572206973206e6f7420746865206f776e657260448201526064015b60405180910390fd5b61013e816102cc565b6040516001600160a01b038216907fbc7cd75a20ee27fd9adebab32041f755214dbc6bffa90cc0225b39da2e5c2d3b90600090a250565b6000546001600160a01b031633146101cf5760405162461bcd60e51b815260206004820181905260248201527f4f776e61626c653a2063616c6c6572206973206e6f7420746865206f776e6572604482015260640161012c565b6101d96000610378565b565b6000546001600160a01b031633146102355760405162461bcd60e51b815260206004820181905260248201527f4f776e61626c653a2063616c6c6572206973206e6f7420746865206f776e6572604482015260640161012c565b6001600160a01b0381166102b15760405162461bcd60e51b815260206004820152602660248201527f4f776e61626c653a206e6577206f776e657220697320746865207a65726f206160448201527f6464726573730000000000000000000000000000000000000000000000000000606482015260840161012c565b6102ba81610378565b50565b6001600160a01b03163b151590565b6001600160a01b0381163b6103495760405162461bcd60e51b815260206004820152603360248201527f5570677261646561626c65426561636f6e3a20696d706c656d656e746174696f60448201527f6e206973206e6f74206120636f6e747261637400000000000000000000000000606482015260840161012c565b6001805473ffffffffffffffffffffffffffffffffffffffff19166001600160a01b0392909216919091179055565b600080546001600160a01b0383811673ffffffffffffffffffffffffffffffffffffffff19831681178455604051919092169283917f8be0079c531659141344cd1fd0a4f28419497f9722a3daafe3b4186f6b6457e09190a35050565b6000602082840312156103e757600080fd5b81356001600160a01b03811681146103fe57600080fd5b939250505056fea2646970667358221220fd948c1f7b0e9cbacdcf03f5ff4ee4028c3961be6dbd728131212d12fc2aca3264736f6c634300080700336080604052604051620009d4380380620009d483398101604081905261002491610487565b61004f60017fa3f0ad74e5423aebfd80d3ef4346578335a9a72aeaee59ff6cb3582b35133d51610596565b6000805160206200098d8339815191521461006c5761006c6105e7565b6100788282600061007f565b5050610613565b61008883610159565b6040516001600160a01b038416907f1cf3b03a6cf19fa2baba4df148e9dcabedea7f8a5c07840e207e5c089be95d3e90600090a26000825111806100c95750805b1561015457610152836001600160a01b0316635c60da1b6040518163ffffffff1660e01b815260040160206040518083038186803b15801561010a57600080fd5b505afa15801561011e573d6000803e3d6000fd5b505050506040513d601f19601f82011682018060405250810190610142919061046c565b836102fa60201b6100291760201c565b505b505050565b61016c8161032760201b6100551760201c565b6101cb5760405162461bcd60e51b815260206004820152602560248201527f455243313936373a206e657720626561636f6e206973206e6f74206120636f6e6044820152641d1c9858dd60da1b60648201526084015b60405180910390fd5b61024e816001600160a01b0316635c60da1b6040518163ffffffff1660e01b815260040160206040518083038186803b15801561020757600080fd5b505afa15801561021b573d6000803e3d6000fd5b505050506040513d601f19601f8201168201806040525081019061023f919061046c565b61032760201b6100551760201c565b6102b35760405162461bcd60e51b815260206004820152603060248201527f455243313936373a20626561636f6e20696d706c656d656e746174696f6e206960448201526f1cc81b9bdd08184818dbdb9d1c9858dd60821b60648201526084016101c2565b806102d96000805160206200098d83398151915260001b61033660201b6100641760201c565b80546001600160a01b0319166001600160a01b039290921691909117905550565b60606103208383604051806060016040528060278152602001620009ad60279139610339565b9392505050565b6001600160a01b03163b151590565b90565b60606001600160a01b0384163b6103a15760405162461bcd60e51b815260206004820152602660248201527f416464726573733a2064656c65676174652063616c6c20746f206e6f6e2d636f6044820152651b9d1c9858dd60d21b60648201526084016101c2565b600080856001600160a01b0316856040516103bc9190610547565b600060405180830381855af49150503d80600081146103f7576040519150601f19603f3d011682016040523d82523d6000602084013e6103fc565b606091505b50909250905061040d828286610417565b9695505050505050565b60608315610426575081610320565b8251156104365782518084602001fd5b8160405162461bcd60e51b81526004016101c29190610563565b80516001600160a01b038116811461046757600080fd5b919050565b60006020828403121561047e57600080fd5b61032082610450565b6000806040838503121561049a57600080fd5b6104a383610450565b60208401519092506001600160401b03808211156104c057600080fd5b818501915085601f8301126104d457600080fd5b8151818111156104e6576104e66105fd565b604051601f8201601f19908116603f0116810190838211818310171561050e5761050e6105fd565b8160405282815288602084870101111561052757600080fd5b6105388360208301602088016105bb565b80955050505050509250929050565b600082516105598184602087016105bb565b9190910192915050565b60208152600082518060208401526105828160408501602087016105bb565b601f01601f19169190910160400192915050565b6000828210156105b657634e487b7160e01b600052601160045260246000fd5b500390565b60005b838110156105d65781810151838201526020016105be565b838111156101525750506000910152565b634e487b7160e01b600052600160045260246000fd5b634e487b7160e01b600052604160045260246000fd5b61036a80620006236000396000f3fe60806040523661001357610011610017565b005b6100115b610027610022610067565b61010f565b565b606061004e838360405180606001604052806027815260200161030e60279139610133565b9392505050565b6001600160a01b03163b151590565b90565b600061009a7fa3f0ad74e5423aebfd80d3ef4346578335a9a72aeaee59ff6cb3582b35133d50546001600160a01b031690565b6001600160a01b0316635c60da1b6040518163ffffffff1660e01b815260040160206040518083038186803b1580156100d257600080fd5b505afa1580156100e6573d6000803e3d6000fd5b505050506040513d601f19601f8201168201806040525081019061010a9190610265565b905090565b3660008037600080366000845af43d6000803e80801561012e573d6000f35b3d6000fd5b60606001600160a01b0384163b6101b75760405162461bcd60e51b815260206004820152602660248201527f416464726573733a2064656c65676174652063616c6c20746f206e6f6e2d636f60448201527f6e7472616374000000000000000000000000000000000000000000000000000060648201526084015b60405180910390fd5b600080856001600160a01b0316856040516101d2919061028e565b600060405180830381855af49150503d806000811461020d576040519150601f19603f3d011682016040523d82523d6000602084013e610212565b606091505b509150915061022282828661022c565b9695505050505050565b6060831561023b57508161004e565b82511561024b5782518084602001fd5b8160405162461bcd60e51b81526004016101ae91906102aa565b60006020828403121561027757600080fd5b81516001600160a01b038116811461004e57600080fd5b600082516102a08184602087016102dd565b9190910192915050565b60208152600082518060208401526102c98160408501602087016102dd565b601f01601f19169190910160400192915050565b60005b838110156102f85781810151838201526020016102e0565b83811115610307576000848401525b5050505056fe416464726573733a206c6f772d6c6576656c2064656c65676174652063616c6c206661696c6564a2646970667358221220c94e9a8ad692436d2b6fc9bd3a871868f5db6752f899772fdef24a2ab161d9c264736f6c63430008070033a3f0ad74e5423aebfd80d3ef4346578335a9a72aeaee59ff6cb3582b35133d50416464726573733a206c6f772d6c6576656c2064656c65676174652063616c6c206661696c6564a2646970667358221220fa698c5d25de8a774b360b5135e83d6a99786dba9620d1077e300964d6daf5c964736f6c63430008070033",
  "linkReferences": {},
  "deployedLinkReferences": {}
}