{
  "_format": "hh-sol-artifact-1",
  "contractName": "EstateFactory",
  "sourceName": "contracts/EstateFactory.sol",
  "abi": [
    {
      "anonymous": false,
      "inputs": [
        {
          "indexed": true,
          "internalType": "address",
          "name": "upgrader",
          "type": "address"
        },
        {
          "indexed": false,
          "internalType": "address",
          "name": "estateBeacon",
          "type": "address"
        }
      ],
      "name": "FactoryInit",
      "type": "event"
    },
    {
      "anonymous": false,
      "inputs": [
        {
          "indexed": false,
          "internalType": "uint8",
          "name": "version",
          "type": "uint8"
        }
      ],
      "name": "Initialized",
      "type": "event"
    },
    {
      "anonymous": false,
      "inputs": [
        {
          "indexed": false,
          "internalType": "address",
          "name": "account",
          "type": "address"
        }
      ],
      "name": "Paused",
      "type": "event"
    },
    {
      "anonymous": false,
      "inputs": [
        {
          "indexed": false,
          "internalType": "uint256",
          "name": "proxyId",
          "type": "uint256"
        },
        {
          "indexed": false,
          "internalType": "address",
          "name": "proxyAddress",
          "type": "address"
        },
        {
          "indexed": true,
          "internalType": "address",
          "name": "safeAddress",
          "type": "address"
        },
        {
          "indexed": true,
          "internalType": "address",
          "name": "initiator",
          "type": "address"
        }
      ],
      "name": "ProxyDeployed",
      "type": "event"
    },
    {
      "anonymous": false,
      "inputs": [
        {
          "indexed": true,
          "internalType": "bytes32",
          "name": "role",
          "type": "bytes32"
        },
        {
          "indexed": true,
          "internalType": "bytes32",
          "name": "previousAdminRole",
          "type": "bytes32"
        },
        {
          "indexed": true,
          "internalType": "bytes32",
          "name": "newAdminRole",
          "type": "bytes32"
        }
      ],
      "name": "RoleAdminChanged",
      "type": "event"
    },
    {
      "anonymous": false,
      "inputs": [
        {
          "indexed": true,
          "internalType": "bytes32",
          "name": "role",
          "type": "bytes32"
        },
        {
          "indexed": true,
          "internalType": "address",
          "name": "account",
          "type": "address"
        },
        {
          "indexed": true,
          "internalType": "address",
          "name": "sender",
          "type": "address"
        }
      ],
      "name": "RoleGranted",
      "type": "event"
    },
    {
      "anonymous": false,
      "inputs": [
        {
          "indexed": true,
          "internalType": "bytes32",
          "name": "role",
          "type": "bytes32"
        },
        {
          "indexed": true,
          "internalType": "address",
          "name": "account",
          "type": "address"
        },
        {
          "indexed": true,
          "internalType": "address",
          "name": "sender",
          "type": "address"
        }
      ],
      "name": "RoleRevoked",
      "type": "event"
    },
    {
      "anonymous": false,
      "inputs": [
        {
          "indexed": false,
          "internalType": "address",
          "name": "account",
          "type": "address"
        }
      ],
      "name": "Unpaused",
      "type": "event"
    },
    {
      "inputs": [],
      "name": "ADMIN_ROLE",
      "outputs": [
        {
          "internalType": "bytes32",
          "name": "",
          "type": "bytes32"
        }
      ],
      "stateMutability": "view",
      "type": "function"
    },
    {
      "inputs": [],
      "name": "DEFAULT_ADMIN_ROLE",
      "outputs": [
        {
          "internalType": "bytes32",
          "name": "",
          "type": "bytes32"
        }
      ],
      "stateMutability": "view",
      "type": "function"
    },
    {
      "inputs": [],
      "name": "MANAGER_ROLE",
      "outputs": [
        {
          "internalType": "bytes32",
          "name": "",
          "type": "bytes32"
        }
      ],
      "stateMutability": "view",
      "type": "function"
    },
    {
      "inputs": [],
      "name": "UPGRADER_ROLE",
      "outputs": [
        {
          "internalType": "bytes32",
          "name": "",
          "type": "bytes32"
        }
      ],
      "stateMutability": "view",
      "type": "function"
    },
    {
      "inputs": [
        {
          "internalType": "address",
          "name": "upgrader",
          "type": "address"
        }
      ],
      "name": "__EstateFactory_init",
      "outputs": [],
      "stateMutability": "nonpayable",
      "type": "function"
    },
    {
      "inputs": [
        {
          "internalType": "address",
          "name": "owner",
          "type": "address"
        }
      ],
      "name": "allOwnerEstates",
      "outputs": [
        {
          "internalType": "address[]",
          "name": "",
          "type": "address[]"
        }
      ],
      "stateMutability": "view",
      "type": "function"
    },
    {
      "inputs": [],
      "name": "allProxies",
      "outputs": [
        {
          "internalType": "address[]",
          "name": "",
          "type": "address[]"
        }
      ],
      "stateMutability": "view",
      "type": "function"
    },
    {
      "inputs": [
        {
          "internalType": "uint256",
          "name": "taxId",
          "type": "uint256"
        }
      ],
      "name": "contractAddr",
      "outputs": [
        {
          "internalType": "address",
          "name": "",
          "type": "address"
        }
      ],
      "stateMutability": "view",
      "type": "function"
    },
    {
      "inputs": [],
      "name": "emergencyPause",
      "outputs": [],
      "stateMutability": "nonpayable",
      "type": "function"
    },
    {
      "inputs": [],
      "name": "emergencyUnpause",
      "outputs": [],
      "stateMutability": "nonpayable",
      "type": "function"
    },
    {
      "inputs": [],
      "name": "getEstateBeacon",
      "outputs": [
        {
          "internalType": "address",
          "name": "",
          "type": "address"
        }
      ],
      "stateMutability": "view",
      "type": "function"
    },
    {
      "inputs": [
        {
          "internalType": "bytes32",
          "name": "role",
          "type": "bytes32"
        }
      ],
      "name": "getRoleAdmin",
      "outputs": [
        {
          "internalType": "bytes32",
          "name": "",
          "type": "bytes32"
        }
      ],
      "stateMutability": "view",
      "type": "function"
    },
    {
      "inputs": [
        {
          "internalType": "bytes32",
          "name": "role",
          "type": "bytes32"
        },
        {
          "internalType": "address",
          "name": "account",
          "type": "address"
        }
      ],
      "name": "grantRole",
      "outputs": [],
      "stateMutability": "nonpayable",
      "type": "function"
    },
    {
      "inputs": [
        {
          "internalType": "bytes32",
          "name": "role",
          "type": "bytes32"
        },
        {
          "internalType": "address",
          "name": "account",
          "type": "address"
        }
      ],
      "name": "hasRole",
      "outputs": [
        {
          "internalType": "bool",
          "name": "",
          "type": "bool"
        }
      ],
      "stateMutability": "view",
      "type": "function"
    },
    {
      "inputs": [],
      "name": "isPaused",
      "outputs": [
        {
          "internalType": "bool",
          "name": "",
          "type": "bool"
        }
      ],
      "stateMutability": "view",
      "type": "function"
    },
    {
      "inputs": [
        {
          "internalType": "address",
          "name": "estateContract",
          "type": "address"
        },
        {
          "internalType": "uint256",
          "name": "tokenId",
          "type": "uint256"
        },
        {
          "internalType": "string",
          "name": "newName",
          "type": "string"
        },
        {
          "internalType": "string",
          "name": "newSymbol",
          "type": "string"
        }
      ],
      "name": "modifyProxyMetadata",
      "outputs": [
        {
          "internalType": "bool",
          "name": "",
          "type": "bool"
        }
      ],
      "stateMutability": "nonpayable",
      "type": "function"
    },
    {
      "inputs": [
        {
          "internalType": "address",
          "name": "estateContract",
          "type": "address"
        },
        {
          "internalType": "uint256",
          "name": "tokenId",
          "type": "uint256"
        },
        {
          "internalType": "string",
          "name": "newURI",
          "type": "string"
        }
      ],
      "name": "modifyProxyURI",
      "outputs": [
        {
          "internalType": "bool",
          "name": "",
          "type": "bool"
        }
      ],
      "stateMutability": "nonpayable",
      "type": "function"
    },
    {
      "inputs": [
        {
          "internalType": "address",
          "name": "owner",
          "type": "address"
        },
        {
          "internalType": "uint256",
          "name": "id",
          "type": "uint256"
        }
      ],
      "name": "ownerEstateAddr",
      "outputs": [
        {
          "internalType": "address",
          "name": "",
          "type": "address"
        }
      ],
      "stateMutability": "view",
      "type": "function"
    },
    {
      "inputs": [],
      "name": "proxiesCount",
      "outputs": [
        {
          "internalType": "uint256",
          "name": "",
          "type": "uint256"
        }
      ],
      "stateMutability": "view",
      "type": "function"
    },
    {
      "inputs": [
        {
          "internalType": "uint256",
          "name": "num",
          "type": "uint256"
        }
      ],
      "name": "proxyAddrById",
      "outputs": [
        {
          "internalType": "address",
          "name": "",
          "type": "address"
        }
      ],
      "stateMutability": "view",
      "type": "function"
    },
    {
      "inputs": [
        {
          "internalType": "bytes32",
          "name": "role",
          "type": "bytes32"
        },
        {
          "internalType": "address",
          "name": "account",
          "type": "address"
        }
      ],
      "name": "renounceRole",
      "outputs": [],
      "stateMutability": "nonpayable",
      "type": "function"
    },
    {
      "inputs": [
        {
          "internalType": "bytes32",
          "name": "role",
          "type": "bytes32"
        },
        {
          "internalType": "address",
          "name": "account",
          "type": "address"
        }
      ],
      "name": "revokeRole",
      "outputs": [],
      "stateMutability": "nonpayable",
      "type": "function"
    },
    {
      "inputs": [
        {
          "internalType": "address",
          "name": "manager",
          "type": "address"
        }
      ],
      "name": "setManager",
      "outputs": [
        {
          "internalType": "bool",
          "name": "",
          "type": "bool"
        }
      ],
      "stateMutability": "nonpayable",
      "type": "function"
    },
    {
      "inputs": [
        {
          "internalType": "bytes4",
          "name": "interfaceId",
          "type": "bytes4"
        }
      ],
      "name": "supportsInterface",
      "outputs": [
        {
          "internalType": "bool",
          "name": "",
          "type": "bool"
        }
      ],
      "stateMutability": "view",
      "type": "function"
    },
    {
      "inputs": [
        {
          "internalType": "uint256",
          "name": "taxId",
          "type": "uint256"
        }
      ],
      "name": "taxIdExists",
      "outputs": [
        {
          "internalType": "bool",
          "name": "",
          "type": "bool"
        }
      ],
      "stateMutability": "view",
      "type": "function"
    },
    {
      "inputs": [
        {
          "internalType": "address",
          "name": "safeAddress",
          "type": "address"
        },
        {
          "internalType": "uint256",
          "name": "taxId",
          "type": "uint256"
        }
      ],
      "name": "tokenizeEstate",
      "outputs": [
        {
          "internalType": "address",
          "name": "",
          "type": "address"
        }
      ],
      "stateMutability": "nonpayable",
      "type": "function"
    },
    {
      "inputs": [
        {
          "internalType": "address",
          "name": "owner",
          "type": "address"
        }
      ],
      "name": "totalOwnerEstates",
      "outputs": [
        {
          "internalType": "uint256",
          "name": "",
          "type": "uint256"
        }
      ],
      "stateMutability": "view",
      "type": "function"
    }
  ],
  "bytecode": "0x608060405234801561001057600080fd5b5061524b806100206000396000f3fe60806040523480156200001157600080fd5b5060043610620001cb5760003560e01c80638be84846116200010d578063d547741f11620000a3578063ec87621c116200007a578063ec87621c146200040d578063f72c0d8b1462000417578063facdef111462000421578063ffcc44dd146200042b57600080fd5b8063d547741f14620003d6578063dbb65cf714620003ed578063ec0764f814620003f657600080fd5b8063b187bd2611620000e4578063b187bd261462000387578063b49827261462000391578063c4aae42f14620003a8578063d0ebdbe714620003bf57600080fd5b80638be84846146200035057806391d148541462000367578063a217fddf146200037e57600080fd5b806336568abe116200018357806351858e27116200015a57806351858e27146200030457806375b238fc146200030e5780637819521814620003185780637ad0d64e146200032a57600080fd5b806336568abe14620002bd5780634a4e3bd514620002d45780634f68a4cf14620002de57600080fd5b8062ba34ce14620001d057806301ffc9a714620001fc5780630dac9c2e1462000213578063248a9ca314620002435780632f2ff15d14620002785780633041b8311462000291575b600080fd5b620001e7620001e1366004620018e7565b62000457565b60405190151581526020015b60405180910390f35b620001e76200020d366004620019db565b620005df565b6200022a620002243660046200185d565b62000617565b6040516001600160a01b039091168152602001620001f3565b620002696200025436600462001992565b60009081526065602052604090206001015490565b604051908152602001620001f3565b6200028f62000289366004620019ac565b62000660565b005b62000269620002a23660046200183f565b6001600160a01b0316600090815260cb602052604090205490565b6200028f620002ce366004620019ac565b6200068e565b6200028f62000710565b620001e7620002ef36600462001992565b600090815260cd602052604090205460ff1690565b6200028f6200075a565b62000269620007a1565b60c9546001600160a01b03166200022a565b620003416200033b3660046200183f565b620007d4565b604051620001f3919062001ae2565b620001e7620003613660046200188a565b6200084c565b620001e762000378366004620019ac565b620009ba565b62000269600081565b620001e7620009e5565b6200028f620003a23660046200183f565b620009f9565b6200022a620003b93660046200185d565b62000cb7565b620001e7620003d03660046200183f565b62001022565b6200028f620003e7366004620019ac565b620010e0565b60ca5462000269565b6200022a6200040736600462001992565b62001109565b620002696200113c565b620002696200115d565b620003416200117f565b6200022a6200043c36600462001992565b600090815260cc60205260409020546001600160a01b031690565b6040516b4d414e414745525f524f4c4560a01b6020820152600090602c01604051602081830303815290604052805190602001206200049681620011e3565b60975460ff1615620004c55760405162461bcd60e51b8152600401620004bc9062001b46565b60405180910390fd5b6000866001600160a01b0316633d867e8060e01b878787604051602401620004f09392919062001c24565b60408051601f198184030181529181526020820180516001600160e01b03166001600160e01b031990941693909317909252905162000530919062001a35565b6000604051808303816000865af19150503d80600081146200056f576040519150601f19603f3d011682016040523d82523d6000602084013e62000574565b606091505b5050905080620005d55760405162461bcd60e51b815260206004820152602560248201527f457374617465466163746f72793a206d6f64696679206d657461646174612066604482015264185a5b195960da1b6064820152608401620004bc565b9695505050505050565b60006001600160e01b03198216637965db0b60e01b14806200061157506301ffc9a760e01b6001600160e01b03198316145b92915050565b6001600160a01b038216600090815260cb6020526040812080548390811062000644576200064462001cf3565b6000918252602090912001546001600160a01b03169392505050565b6000828152606560205260409020600101546200067d81620011e3565b620006898383620011ef565b505050565b6001600160a01b0381163314620007005760405162461bcd60e51b815260206004820152602f60248201527f416363657373436f6e74726f6c3a2063616e206f6e6c792072656e6f756e636560448201526e103937b632b9903337b91039b2b63360891b6064820152608401620004bc565b6200070c828262001279565b5050565b6040516c55504752414445525f524f4c4560981b6020820152602d01604051602081830303815290604052805190602001206200074d81620011e3565b62000757620012e3565b50565b6040516c55504752414445525f524f4c4560981b6020820152602d01604051602081830303815290604052805190602001206200079781620011e3565b6200075762001378565b6040516941444d494e5f524f4c4560b01b6020820152602a015b6040516020818303038152906040528051906020012081565b6001600160a01b038116600090815260cb60209081526040918290208054835181840281018401909452808452606093928301828280156200084057602002820191906000526020600020905b81546001600160a01b0316815260019091019060200180831162000821575b50505050509050919050565b6040516b4d414e414745525f524f4c4560a01b6020820152600090602c01604051602081830303815290604052805190602001206200088b81620011e3565b60975460ff1615620008b15760405162461bcd60e51b8152600401620004bc9062001b46565b6000856001600160a01b031663a2cf7e1b60e01b8686604051602401620008da92919062001c09565b60408051601f198184030181529181526020820180516001600160e01b03166001600160e01b03199094169390931790925290516200091a919062001a35565b6000604051808303816000865af19150503d806000811462000959576040519150601f19603f3d011682016040523d82523d6000602084013e6200095e565b606091505b5050905080620009b15760405162461bcd60e51b815260206004820181905260248201527f457374617465466163746f72793a206d6f6469667920555249206661696c65646044820152606401620004bc565b95945050505050565b60009182526065602090815260408084206001600160a01b0393909316845291905290205460ff1690565b6000620009f460975460ff1690565b905090565b600062000a076001620013d4565b9050801562000a20576000805461ff0019166101001790555b62000a2a62001469565b62000a3462001495565b6040516941444d494e5f524f4c4560b01b602082015262000aa690602a015b6040516020818303038152906040528051906020012060405160200162000a8a906941444d494e5f524f4c4560b01b8152600a0190565b60405160208183030381529060405280519060200120620014c9565b6040516c55504752414445525f524f4c4560981b602082015262000acd90602d0162000a53565b6040516941444d494e5f524f4c4560b01b602082015262000b0f90602a016040516020818303038152906040528051906020012062000b093390565b62001514565b6040516c55504752414445525f524f4c4560981b602082015262000b4d90602d01604051602081830303815290604052805190602001208362001514565b600060405162000b5d9062001768565b604051809103906000f08015801562000b7a573d6000803e3d6000fd5b5060405162000b899062001776565b6001600160a01b039091168152602001604051809103906000f08015801562000bb6573d6000803e3d6000fd5b5060405163f2fde38b60e01b81526001600160a01b0385811660048301529192509082169063f2fde38b90602401600060405180830381600087803b15801562000bff57600080fd5b505af115801562000c14573d6000803e3d6000fd5b505060c980546001600160a01b0385166001600160a01b0319909116811790915560408051918252513393507fcb03dfd8c0374fe2246b0a7d3ed8a07dbbef2c07c428612c20563f297546115e92509081900360200190a25080156200070c576000805461ff0019169055604051600181527f7f26b83ff96e1f2b6a682f133852f6798a09c465da95921460cefb38474024989060200160405180910390a15050565b600062000cc660975460ff1690565b1562000ce65760405162461bcd60e51b8152600401620004bc9062001b46565b60405163b9209e3360e01b815233600482015273f8e81d47203a594245e36c48e151709f0c19fbe89063b9209e339060240160206040518083038186803b15801562000d3157600080fd5b505afa15801562000d46573d6000803e3d6000fd5b505050506040513d601f19601f8201168201806040525081019062000d6c91906200196e565b62000dc65760405162461bcd60e51b8152602060048201526024808201527f457374617465466163746f72793a20766572696669656420686f6c64657273206044820152636f6e6c7960e01b6064820152608401620004bc565b600082815260cd602052604090205460ff161562000e275760405162461bcd60e51b815260206004820152601c60248201527f457374617465466163746f72793a2074617820494420657869737473000000006044820152606401620004bc565b600082815260cd602090815260408083208054600160ff1990911617905560c95481516001600160a01b0388811660248301523360448301526064808301899052845180840390910181526084909201845293810180516001600160e01b031663b5b160e160e01b179052915192169162000ea29062001784565b62000eaf92919062001ab4565b604051809103906000f08015801562000ecc573d6000803e3d6000fd5b5060ca805460018101825560008290527f42d72674974f694b5f5159593243114d38a5c39c89d6b62fee061ff523240ee10180546001600160a01b0319166001600160a01b038416908117909155905460405163f2fde38b60e01b8152336004820152929350839290919063f2fde38b90602401600060405180830381600087803b15801562000f5b57600080fd5b505af115801562000f70573d6000803e3d6000fd5b505050600086815260cc6020908152604080832080546001600160a01b0388166001600160a01b0319918216811790925533855260cb8452918420805460018101825590855292909320909101805490911690911790555062000fd03390565b604080518381526001600160a01b038581166020830152928316928916917fc3fa539a2bdd801698d1dabed814fa952b1f3ffb3944fc99140fb23a30529aec910160405180910390a350949350505050565b6040516941444d494e5f524f4c4560b01b6020820152600090602a01604051602081830303815290604052805190602001206200105f81620011e3565b6040516b4d414e414745525f524f4c4560a01b60208201526200109c90602c016040516020818303038152906040528051906020012084620011ef565b6040516b4d414e414745525f524f4c4560a01b6020820152620010d990602c016040516020818303038152906040528051906020012084620009ba565b9392505050565b600082815260656020526040902060010154620010fd81620011e3565b62000689838362001279565b600060ca828154811062001121576200112162001cf3565b6000918252602090912001546001600160a01b031692915050565b6040516b4d414e414745525f524f4c4560a01b6020820152602c01620007bb565b6040516c55504752414445525f524f4c4560981b6020820152602d01620007bb565b606060ca805480602002602001604051908101604052809291908181526020018280548015620011d957602002820191906000526020600020905b81546001600160a01b03168152600190910190602001808311620011ba575b5050505050905090565b62000757813362001520565b620011fb8282620009ba565b6200070c5760008281526065602090815260408083206001600160a01b03851684529091529020805460ff19166001179055620012353390565b6001600160a01b0316816001600160a01b0316837f2f8788117e7eff1d82e926ec794901d17c78024a50270940304540a733656f0d60405160405180910390a45050565b620012858282620009ba565b156200070c5760008281526065602090815260408083206001600160a01b0385168085529252808320805460ff1916905551339285917ff6391f5c32d9c69d2a47ea670b442974b53935d1edc7fd64eb21e047a839171b9190a45050565b60975460ff166200132e5760405162461bcd60e51b815260206004820152601460248201527314185d5cd8589b194e881b9bdd081c185d5cd95960621b6044820152606401620004bc565b6097805460ff191690557f5db9ee0a495bf2e6ff9c91a7834c1ba4fdd244a5e8aa4e537bd38aeae4b073aa335b6040516001600160a01b03909116815260200160405180910390a1565b60975460ff16156200139e5760405162461bcd60e51b8152600401620004bc9062001b46565b6097805460ff191660011790557f62e78cea01bee320cd4e420270b5ea74000d11b0c9f74754ebdbfc544b05a2586200135b3390565b60008054610100900460ff161562001420578160ff166001148015620013f95750303b155b620014185760405162461bcd60e51b8152600401620004bc9062001b70565b506000919050565b60005460ff8084169116106200144a5760405162461bcd60e51b8152600401620004bc9062001b70565b506000805460ff191660ff92909216919091179055600190565b919050565b600054610100900460ff16620014935760405162461bcd60e51b8152600401620004bc9062001bbe565b565b600054610100900460ff16620014bf5760405162461bcd60e51b8152600401620004bc9062001bbe565b6200149362001578565b600082815260656020526040808220600101805490849055905190918391839186917fbd79b86ffe0ab8e8776151514217cd7cacd52c909f66475c3af44e129f0b00ff9190a4505050565b6200070c8282620011ef565b6200152c8282620009ba565b6200070c576200153e826020620015ae565b60405160200162001550919062001a53565b60408051601f198184030181529082905262461bcd60e51b8252620004bc9160040162001b31565b600054610100900460ff16620015a25760405162461bcd60e51b8152600401620004bc9062001bbe565b6097805460ff19169055565b60606000620015bf83600262001c6e565b620015cc90600262001c53565b67ffffffffffffffff811115620015e757620015e762001d09565b6040519080825280601f01601f19166020018201604052801562001612576020820181803683370190505b509050600360fc1b8160008151811062001630576200163062001cf3565b60200101906001600160f81b031916908160001a905350600f60fb1b8160018151811062001662576200166262001cf3565b60200101906001600160f81b031916908160001a90535060006200168884600262001c6e565b6200169590600162001c53565b90505b600181111562001717576f181899199a1a9b1b9c1cb0b131b232b360811b85600f1660108110620016cd57620016cd62001cf3565b1a60f81b828281518110620016e657620016e662001cf3565b60200101906001600160f81b031916908160001a90535060049490941c936200170f8162001cc3565b905062001698565b508315620010d95760405162461bcd60e51b815260206004820181905260248201527f537472696e67733a20686578206c656e67746820696e73756666696369656e746044820152606401620004bc565b6126168062001d2083390190565b610529806200433683390190565b6109b7806200485f83390190565b80356001600160a01b03811681146200146457600080fd5b600082601f830112620017bc57600080fd5b813567ffffffffffffffff80821115620017da57620017da62001d09565b604051601f8301601f19908116603f0116810190828211818310171562001805576200180562001d09565b816040528381528660208588010111156200181f57600080fd5b836020870160208301376000602085830101528094505050505092915050565b6000602082840312156200185257600080fd5b620010d98262001792565b600080604083850312156200187157600080fd5b6200187c8362001792565b946020939093013593505050565b600080600060608486031215620018a057600080fd5b620018ab8462001792565b925060208401359150604084013567ffffffffffffffff811115620018cf57600080fd5b620018dd86828701620017aa565b9150509250925092565b60008060008060808587031215620018fe57600080fd5b620019098562001792565b935060208501359250604085013567ffffffffffffffff808211156200192e57600080fd5b6200193c88838901620017aa565b935060608701359150808211156200195357600080fd5b506200196287828801620017aa565b91505092959194509250565b6000602082840312156200198157600080fd5b81518015158114620010d957600080fd5b600060208284031215620019a557600080fd5b5035919050565b60008060408385031215620019c057600080fd5b82359150620019d26020840162001792565b90509250929050565b600060208284031215620019ee57600080fd5b81356001600160e01b031981168114620010d957600080fd5b6000815180845262001a2181602086016020860162001c90565b601f01601f19169290920160200192915050565b6000825162001a4981846020870162001c90565b9190910192915050565b7f416363657373436f6e74726f6c3a206163636f756e742000000000000000000081527001034b99036b4b9b9b4b733903937b6329607d1b60178201526000825162001aa781602885016020870162001c90565b9190910160280192915050565b6001600160a01b038316815260406020820181905260009062001ada9083018462001a07565b949350505050565b6020808252825182820181905260009190848201906040850190845b8181101562001b255783516001600160a01b03168352928401929184019160010162001afe565b50909695505050505050565b602081526000620010d9602083018462001a07565b60208082526010908201526f14185d5cd8589b194e881c185d5cd95960821b604082015260600190565b6020808252602e908201527f496e697469616c697a61626c653a20636f6e747261637420697320616c72656160408201526d191e481a5b9a5d1a585b1a5e995960921b606082015260800190565b6020808252602b908201527f496e697469616c697a61626c653a20636f6e7472616374206973206e6f74206960408201526a6e697469616c697a696e6760a81b606082015260800190565b82815260406020820152600062001ada604083018462001a07565b83815260606020820152600062001c3f606083018562001a07565b8281036040840152620005d5818562001a07565b6000821982111562001c695762001c6962001cdd565b500190565b600081600019048311821515161562001c8b5762001c8b62001cdd565b500290565b60005b8381101562001cad57818101518382015260200162001c93565b8381111562001cbd576000848401525b50505050565b60008162001cd55762001cd562001cdd565b506000190190565b634e487b7160e01b600052601160045260246000fd5b634e487b7160e01b600052603260045260246000fd5b634e487b7160e01b600052604160045260246000fdfe608060405260ce805460ff1916905534801561001a57600080fd5b506125ec8061002a6000396000f3fe6080604052600436106101805760003560e01c806368cdafe6116100d1578063a7a1c5451161008a578063b88d4fde11610064578063b88d4fde1461046e578063ceb346d51461048e578063e985e9c5146104bd578063f2fde38b1461050657600080fd5b8063a7a1c54514610426578063b187bd2614610446578063b5b160e11461045b57600080fd5b806368cdafe61461037357806370a0823114610393578063715018a6146103b35780638da5cb5b146103c8578063a22cb465146103e6578063a2cf7e1b1461040657600080fd5b806323b872dd1161013e57806342966c681161011857806342966c68146102e45780634e41a1fb1461030457806354fd4d50146103245780636352211e1461035357600080fd5b806323b872dd146102845780633d867e80146102a457806342842e0e146102c457600080fd5b8062ad800c1461018557806301ffc9a7146101bb578063081812fc146101eb578063095ea7b3146102235780631675f4551461024557806318160ddd14610265575b600080fd5b34801561019157600080fd5b506101a56101a0366004612197565b610526565b6040516101b29190612307565b60405180910390f35b3480156101c757600080fd5b506101db6101d6366004612083565b610616565b60405190151581526020016101b2565b3480156101f757600080fd5b5061020b610206366004612197565b610683565b6040516001600160a01b0390911681526020016101b2565b34801561022f57600080fd5b5061024361023e36600461203c565b6106aa565b005b34801561025157600080fd5b506101a5610260366004612197565b6107ab565b34801561027157600080fd5b5060ca545b6040519081526020016101b2565b34801561029057600080fd5b5061024361029f366004611f4d565b6107f4565b3480156102b057600080fd5b506102436102bf366004612210565b610825565b3480156102d057600080fd5b506102436102df366004611f4d565b61091c565b3480156102f057600080fd5b506102436102ff366004612197565b610937565b34801561031057600080fd5b506101a561031f366004612197565b610978565b34801561033057600080fd5b50604080518082019091526006815265056312e302e360d41b60208201526101a5565b34801561035f57600080fd5b5061020b61036e366004612197565b6109da565b34801561037f57600080fd5b5061024361038e36600461203c565b610a3f565b34801561039f57600080fd5b506102766103ae366004611eff565b610a84565b3480156103bf57600080fd5b50610243610b06565b3480156103d457600080fd5b506033546001600160a01b031661020b565b3480156103f257600080fd5b50610243610401366004612005565b610b3c565b34801561041257600080fd5b506102436104213660046121c9565b610b47565b34801561043257600080fd5b506102766104413660046120bd565b610bf6565b34801561045257600080fd5b506101db610e74565b610243610469366004611f4d565b610ef6565b34801561047a57600080fd5b50610243610489366004611f89565b611061565b34801561049a57600080fd5b506104ae6104a9366004612197565b611093565b6040516101b293929190612372565b3480156104c957600080fd5b506101db6104d8366004611f1a565b6001600160a01b03918216600090815260d36020908152604080832093909416825291909152205460ff1690565b34801561051257600080fd5b50610243610521366004611eff565b6111f1565b60606105318261128c565b61053a826112e1565b61055f5760405162461bcd60e51b8152600401610556906124bf565b60405180910390fd5b600082815260d46020908152604080832060cc546001600160a01b031684529091529020600301805461059190612541565b80601f01602080910402602001604051908101604052809291908181526020018280546105bd90612541565b801561060a5780601f106105df5761010080835404028352916020019161060a565b820191906000526020600020905b8154815290600101906020018083116105ed57829003601f168201915b50505050509050919050565b60006001600160e01b03198216630aeb42fb60e01b148061064757506001600160e01b03198216630a85bd0160e11b145b8061066257506001600160e01b03198216639f49009b60e01b145b8061067d57506301ffc9a760e01b6001600160e01b03198316145b92915050565b600061068e8261128c565b50600090815260d260205260409020546001600160a01b031690565b6106b26112fe565b60006106bd826109da565b9050806001600160a01b0316836001600160a01b031614156107215760405162461bcd60e51b815260206004820152601f60248201527f4573746174653a20746f2063616e206e6f7420626520746865206f776e6572006044820152606401610556565b336001600160a01b038216148061073d575061073d81336104d8565b61079c5760405162461bcd60e51b815260206004820152602a60248201527f4573746174653a2063616c6c65722073686f756c64206265206f776e6572206f6044820152691c88185c1c1c9bdd995960b21b6064820152608401610556565b6107a683836113d1565b505050565b60606107b68261128c565b6107bf826112e1565b6107db5760405162461bcd60e51b8152600401610556906124bf565b600082815260d160205260409020805461059190612541565b6107fe3382611447565b61081a5760405162461bcd60e51b8152600401610556906123fa565b6107a683838361151c565b61082d6112fe565b60c9546001600160a01b0316336001600160a01b03161461088c5760405162461bcd60e51b8152602060048201526019602482015278115cdd185d194e881d5b985d5d1a1bdc9a5e99590818d85b1b603a1b6044820152606401610556565b600083815260d46020908152604080832060cc546001600160a01b031684528252909120835190916108c5916003840191860190611d7c565b5081516108db9060048301906020850190611d7c565b50837f601d4b2f0f06545c0f60d4f70e3bc5d78db246f7b66aaeb1ea23a56aa854c670848460405161090e929190612344565b60405180910390a250505050565b6107a683838360405180602001604052806000815250611061565b6033546001600160a01b031633146109615760405162461bcd60e51b81526004016105569061248a565b61096a81611527565b60cc546001600160a01b0316ff5b60606109838261128c565b61098c826112e1565b6109a85760405162461bcd60e51b8152600401610556906124bf565b600082815260d46020908152604080832060cc546001600160a01b031684529091529020600401805461059190612541565b600081815260cf60205260408120546001600160a01b03168061067d5760405162461bcd60e51b815260206004820152601860248201527f4573746174653a20696e76616c696420746f6b656e20494400000000000000006044820152606401610556565b6033546001600160a01b03163314610a695760405162461bcd60e51b81526004016105569061248a565b60cb54610a80906001600160a01b0316838361151c565b5050565b60006001600160a01b038216610aea5760405162461bcd60e51b815260206004820152602560248201527f4573746174653a206f776e65722063616e206e6f742062652061646472657373604482015264207a65726f60d81b6064820152608401610556565b506001600160a01b0316600090815260d0602052604090205490565b6033546001600160a01b03163314610b305760405162461bcd60e51b81526004016105569061248a565b610b3a600061153b565b565b610a8033838361158d565b610b4f6112fe565b60c9546001600160a01b0316336001600160a01b031614610bae5760405162461bcd60e51b8152602060048201526019602482015278115cdd185d194e881d5b985d5d1a1bdc9a5e99590818d85b1b603a1b6044820152606401610556565b610bb88282611664565b817fd3804647d8ed05e254cca17c9a140f2a93f199e1d931e79de2f6930778b83d718233604051610bea92919061231a565b60405180910390a25050565b6033546000906001600160a01b03163314610c235760405162461bcd60e51b81526004016105569061248a565b60026097541415610c765760405162461bcd60e51b815260206004820152601f60248201527f5265656e7472616e637947756172643a207265656e7472616e742063616c6c006044820152606401610556565b600260975560ce5460ff1615610cce5760405162461bcd60e51b815260206004820152601b60248201527f4573746174653a2065737461746520746f6b656e206d696e74656400000000006044820152606401610556565b60c960009054906101000a90046001600160a01b03166001600160a01b031663dbb65cf76040518163ffffffff1660e01b815260040160206040518083038186803b158015610d1c57600080fd5b505afa158015610d30573d6000803e3d6000fd5b505050506040513d601f19601f82011682018060405250810190610d5491906121b0565b60ca81905560cb54610d71916001600160a01b03909116906116a8565b610d7d60ca5483611664565b60ce805460ff191660011790556040805160c0810182528881526020808201899052818301889052606082018790526080820186905260a0820185905260ca54600090815260d482528381203382528252929092208151805192939192610de79284920190611d7c565b506020828101518051610e009260018501920190611d7c565b506040820151600282015560608201518051610e26916003840191602090910190611d7c565b5060808201518051610e42916004840191602090910190611d7c565b5060a08201518051610e5e916005840191602090910190611d7c565b505060ca54600160975598975050505050505050565b60c954604080516358c3de9360e11b815290516000926001600160a01b03169163b187bd26916004808301926020929190829003018186803b158015610eb957600080fd5b505afa158015610ecd573d6000803e3d6000fd5b505050506040513d601f19601f82011682018060405250810190610ef19190612066565b905090565b6000610f0260016116c2565b90508015610f1a576000805461ff0019166101001790555b60026097541415610f6d5760405162461bcd60e51b815260206004820152601f60248201527f5265656e7472616e637947756172643a207265656e7472616e742063616c6c006044820152606401610556565b6002609755610f7a61174f565b610f8261177e565b60cb80546001600160a01b03199081166001600160a01b038781169190911790925560cd84905560cc805482169286169290921790915560c98054339216821790556110105760405162461bcd60e51b815260206004820152601f60248201527f4573746174653a20466163746f72792069732061646472657373207a65726f006044820152606401610556565b6001609755801561105b576000805461ff0019169055604051600181527f7f26b83ff96e1f2b6a682f133852f6798a09c465da95921460cefb38474024989060200160405180910390a15b50505050565b61106b3383611447565b6110875760405162461bcd60e51b8152600401610556906123fa565b61105b848484846117ad565b600081815260d46020908152604080832060cc546001600160a01b0316845290915281206002810154815460609384939092909160018301919083906110d890612541565b80601f016020809104026020016040519081016040528092919081815260200182805461110490612541565b80156111515780601f1061112657610100808354040283529160200191611151565b820191906000526020600020905b81548152906001019060200180831161113457829003601f168201915b5050505050925081805461116490612541565b80601f016020809104026020016040519081016040528092919081815260200182805461119090612541565b80156111dd5780601f106111b2576101008083540402835291602001916111dd565b820191906000526020600020905b8154815290600101906020018083116111c057829003601f168201915b505050505091509250925092509193909250565b6033546001600160a01b0316331461121b5760405162461bcd60e51b81526004016105569061248a565b6001600160a01b0381166112805760405162461bcd60e51b815260206004820152602660248201527f4f776e61626c653a206e6577206f776e657220697320746865207a65726f206160448201526564647265737360d01b6064820152608401610556565b6112898161153b565b50565b611295816112e1565b6112895760405162461bcd60e51b815260206004820152601860248201527f4573746174653a206d696e7420746f6b656e20666972737400000000000000006044820152606401610556565b600090815260cf60205260409020546001600160a01b0316151590565b60c960009054906101000a90046001600160a01b03166001600160a01b031663b187bd266040518163ffffffff1660e01b815260040160206040518083038186803b15801561134c57600080fd5b505afa158015611360573d6000803e3d6000fd5b505050506040513d601f19601f820116820180604052508101906113849190612066565b15610b3a5760405162461bcd60e51b815260206004820152601960248201527f4573746174653a206f7065726174696f6e7320706175736564000000000000006044820152606401610556565b6113d96112fe565b600081815260d26020526040902080546001600160a01b0319166001600160a01b038416908117909155819061140e826109da565b6001600160a01b03167f8c5be1e5ebec7d5bd14f71427d1e84f3dd0314c0f7b2291e5b200ac8c7c3b92560405160405180910390a45050565b6000611452826112e1565b61149e5760405162461bcd60e51b815260206004820152601c60248201527f4573746174653a20746f6b656e20646f6573206e6f74206578697374000000006044820152606401610556565b60006114a9836109da565b9050806001600160a01b0316846001600160a01b031614806114f057506001600160a01b03808216600090815260d3602090815260408083209388168352929052205460ff165b806115145750836001600160a01b031661150984610683565b6001600160a01b0316145b949350505050565b6107a68383836117e0565b611289611533826109da565b6000836117e0565b603380546001600160a01b038381166001600160a01b0319831681179093556040519116919082907f8be0079c531659141344cd1fd0a4f28419497f9722a3daafe3b4186f6b6457e090600090a35050565b6115956112fe565b816001600160a01b0316836001600160a01b031614156115f75760405162461bcd60e51b815260206004820152601960248201527f4573746174653a20617070726f766520746f2063616c6c6572000000000000006044820152606401610556565b6001600160a01b03838116600081815260d36020908152604080832094871680845294825291829020805460ff191686151590811790915591519182527f17307eab39ab6107e8899845ad3d59bd9653f200f220920489ca2b5937696c31910160405180910390a3505050565b61166d826112e1565b6116895760405162461bcd60e51b8152600401610556906124bf565b600082815260d16020908152604090912082516107a692840190611d7c565b610a80828260405180602001604052806000815250611b87565b60008054610100900460ff1615611709578160ff1660011480156116e55750303b155b6117015760405162461bcd60e51b81526004016105569061243c565b506000919050565b60005460ff8084169116106117305760405162461bcd60e51b81526004016105569061243c565b506000805460ff191660ff92909216919091179055600190565b919050565b600054610100900460ff166117765760405162461bcd60e51b8152600401610556906124f6565b610b3a611bba565b600054610100900460ff166117a55760405162461bcd60e51b8152600401610556906124f6565b610b3a611bea565b6117b884848461151c565b6117c484848484611c18565b61105b5760405162461bcd60e51b8152600401610556906123a8565b6117e86112fe565b6001600160a01b03831615801561180757506001600160a01b03821615155b156118ce57611815816112e1565b156118625760405162461bcd60e51b815260206004820152601c60248201527f4573746174653a20746f6b656e20616c7265616479206d696e746564000000006044820152606401610556565b6001600160a01b038216600081815260d0602090815260408083208054600101905584835260cf90915280822080546001600160a01b0319168417905551839291907fddf252ad1be2c89b69c2b068fc378daa952ba7f163c4a11628f55a4df523b3ef908290a4505050565b6001600160a01b038316158015906118ed57506001600160a01b038216155b156119bd5760006118fd826109da565b600083815260d26020908152604080832080546001600160a01b03199081169091556001600160a01b038516845260d08352818420805460001901905586845260cf83528184208054909116905560d1909152902080549192509061196190612541565b15905061197f57600082815260d16020526040812061197f91611e00565b60405182906000906001600160a01b038416907fddf252ad1be2c89b69c2b068fc378daa952ba7f163c4a11628f55a4df523b3ef908390a450505050565b816001600160a01b0316836001600160a01b031614611b3f57826001600160a01b03166119e9826109da565b6001600160a01b031614611a4d5760405162461bcd60e51b815260206004820152602560248201527f4573746174653a207472616e736665722066726f6d20696e636f72726563742060448201526437bbb732b960d91b6064820152608401610556565b6001600160a01b038216611aaf5760405162461bcd60e51b8152602060048201526024808201527f4573746174653a207472616e7366657220746f20746865207a65726f206164646044820152637265737360e01b6064820152608401610556565b600081815260d26020908152604080832080546001600160a01b03199081169091556001600160a01b0387811680865260d0855283862080546000190190559087168086528386208054600101905586865260cf90945282852080549092168417909155905184937fddf252ad1be2c89b69c2b068fc378daa952ba7f163c4a11628f55a4df523b3ef91a4505050565b60405162461bcd60e51b815260206004820152601760248201527f4573746174653a207472616e73666572206661696c65640000000000000000006044820152606401610556565b611b918383611d70565b611b9e6000848484611c18565b6107a65760405162461bcd60e51b8152600401610556906123a8565b600054610100900460ff16611be15760405162461bcd60e51b8152600401610556906124f6565b610b3a3361153b565b600054610100900460ff16611c115760405162461bcd60e51b8152600401610556906124f6565b6001609755565b60006001600160a01b0384163b15611d6557604051630a85bd0160e11b81526001600160a01b0385169063150b7a0290611c5c9033908990889088906004016122ca565b602060405180830381600087803b158015611c7657600080fd5b505af1925050508015611ca6575060408051601f3d908101601f19168201909252611ca3918101906120a0565b60015b611d4b573d808015611cd4576040519150601f19603f3d011682016040523d82523d6000602084013e611cd9565b606091505b508051611d435760405162461bcd60e51b815260206004820152603260248201527f4552433732313a207472616e7366657220746f206e6f6e20455243373231526560448201527131b2b4bb32b91034b6b83632b6b2b73a32b960711b6064820152608401610556565b805181602001fd5b6001600160e01b031916630a85bd0160e11b149050611514565b506001949350505050565b610a80600083836117e0565b828054611d8890612541565b90600052602060002090601f016020900481019282611daa5760008555611df0565b82601f10611dc357805160ff1916838001178555611df0565b82800160010185558215611df0579182015b82811115611df0578251825591602001919060010190611dd5565b50611dfc929150611e36565b5090565b508054611e0c90612541565b6000825580601f10611e1c575050565b601f01602090049060005260206000209081019061128991905b5b80821115611dfc5760008155600101611e37565b600067ffffffffffffffff80841115611e6657611e6661257c565b604051601f8501601f19908116603f01168101908282118183101715611e8e57611e8e61257c565b81604052809350858152868686011115611ea757600080fd5b858560208301376000602087830101525050509392505050565b80356001600160a01b038116811461174a57600080fd5b600082601f830112611ee957600080fd5b611ef883833560208501611e4b565b9392505050565b600060208284031215611f1157600080fd5b611ef882611ec1565b60008060408385031215611f2d57600080fd5b611f3683611ec1565b9150611f4460208401611ec1565b90509250929050565b600080600060608486031215611f6257600080fd5b611f6b84611ec1565b9250611f7960208501611ec1565b9150604084013590509250925092565b60008060008060808587031215611f9f57600080fd5b611fa885611ec1565b9350611fb660208601611ec1565b925060408501359150606085013567ffffffffffffffff811115611fd957600080fd5b8501601f81018713611fea57600080fd5b611ff987823560208401611e4b565b91505092959194509250565b6000806040838503121561201857600080fd5b61202183611ec1565b9150602083013561203181612592565b809150509250929050565b6000806040838503121561204f57600080fd5b61205883611ec1565b946020939093013593505050565b60006020828403121561207857600080fd5b8151611ef881612592565b60006020828403121561209557600080fd5b8135611ef8816125a0565b6000602082840312156120b257600080fd5b8151611ef8816125a0565b60008060008060008060c087890312156120d657600080fd5b863567ffffffffffffffff808211156120ee57600080fd5b6120fa8a838b01611ed8565b9750602089013591508082111561211057600080fd5b61211c8a838b01611ed8565b965060408901359550606089013591508082111561213957600080fd5b6121458a838b01611ed8565b9450608089013591508082111561215b57600080fd5b6121678a838b01611ed8565b935060a089013591508082111561217d57600080fd5b5061218a89828a01611ed8565b9150509295509295509295565b6000602082840312156121a957600080fd5b5035919050565b6000602082840312156121c257600080fd5b5051919050565b600080604083850312156121dc57600080fd5b82359150602083013567ffffffffffffffff8111156121fa57600080fd5b61220685828601611ed8565b9150509250929050565b60008060006060848603121561222557600080fd5b83359250602084013567ffffffffffffffff8082111561224457600080fd5b61225087838801611ed8565b9350604086013591508082111561226657600080fd5b5061227386828701611ed8565b9150509250925092565b6000815180845260005b818110156122a357602081850181015186830182015201612287565b818111156122b5576000602083870101525b50601f01601f19169290920160200192915050565b6001600160a01b03858116825284166020820152604081018390526080606082018190526000906122fd9083018461227d565b9695505050505050565b602081526000611ef8602083018461227d565b60408152600061232d604083018561227d565b905060018060a01b03831660208301529392505050565b604081526000612357604083018561227d565b8281036020840152612369818561227d565b95945050505050565b606081526000612385606083018661227d565b8281036020840152612397818661227d565b915050826040830152949350505050565b60208082526032908201527f4573746174653a207472616e7366657220746f206e6f6e20455243373231526560408201527131b2b4bb32b91034b6b83632b6b2b73a32b960711b606082015260800190565b60208082526022908201527f4573746174653a206e656974686572206f776e6572206e6f7220617070726f76604082015261195960f21b606082015260800190565b6020808252602e908201527f496e697469616c697a61626c653a20636f6e747261637420697320616c72656160408201526d191e481a5b9a5d1a585b1a5e995960921b606082015260800190565b6020808252818101527f4f776e61626c653a2063616c6c6572206973206e6f7420746865206f776e6572604082015260600190565b60208082526019908201527f4573746174653a20746f6b656e20646f6e6f7420657869737400000000000000604082015260600190565b6020808252602b908201527f496e697469616c697a61626c653a20636f6e7472616374206973206e6f74206960408201526a6e697469616c697a696e6760a81b606082015260800190565b600181811c9082168061255557607f821691505b6020821081141561257657634e487b7160e01b600052602260045260246000fd5b50919050565b634e487b7160e01b600052604160045260246000fd5b801515811461128957600080fd5b6001600160e01b03198116811461128957600080fdfea26469706673582212204056727e5b1224761858f3775ff2758f5995a0dd37fac7b39e6ceb80464a580c64736f6c63430008070033608060405234801561001057600080fd5b5060405161052938038061052983398101604081905261002f91610151565b61003833610047565b61004181610097565b50610181565b600080546001600160a01b038381166001600160a01b0319831681178455604051919092169283917f8be0079c531659141344cd1fd0a4f28419497f9722a3daafe3b4186f6b6457e09190a35050565b6100aa8161014260201b61020a1760201c565b6101205760405162461bcd60e51b815260206004820152603360248201527f5570677261646561626c65426561636f6e3a20696d706c656d656e746174696f60448201527f6e206973206e6f74206120636f6e747261637400000000000000000000000000606482015260840160405180910390fd5b600180546001600160a01b0319166001600160a01b0392909216919091179055565b6001600160a01b03163b151590565b60006020828403121561016357600080fd5b81516001600160a01b038116811461017a57600080fd5b9392505050565b610399806101906000396000f3fe608060405234801561001057600080fd5b50600436106100575760003560e01c80633659cfe61461005c5780635c60da1b14610071578063715018a61461009a5780638da5cb5b146100a2578063f2fde38b146100b3575b600080fd5b61006f61006a3660046102fe565b6100c6565b005b6001546001600160a01b03165b6040516001600160a01b03909116815260200160405180910390f35b61006f610139565b6000546001600160a01b031661007e565b61006f6100c13660046102fe565b61016f565b6000546001600160a01b031633146100f95760405162461bcd60e51b81526004016100f09061032e565b60405180910390fd5b61010281610219565b6040516001600160a01b038216907fbc7cd75a20ee27fd9adebab32041f755214dbc6bffa90cc0225b39da2e5c2d3b90600090a250565b6000546001600160a01b031633146101635760405162461bcd60e51b81526004016100f09061032e565b61016d60006102ae565b565b6000546001600160a01b031633146101995760405162461bcd60e51b81526004016100f09061032e565b6001600160a01b0381166101fe5760405162461bcd60e51b815260206004820152602660248201527f4f776e61626c653a206e6577206f776e657220697320746865207a65726f206160448201526564647265737360d01b60648201526084016100f0565b610207816102ae565b50565b6001600160a01b03163b151590565b6001600160a01b0381163b61028c5760405162461bcd60e51b815260206004820152603360248201527f5570677261646561626c65426561636f6e3a20696d706c656d656e746174696f6044820152721b881a5cc81b9bdd08184818dbdb9d1c9858dd606a1b60648201526084016100f0565b600180546001600160a01b0319166001600160a01b0392909216919091179055565b600080546001600160a01b038381166001600160a01b0319831681178455604051919092169283917f8be0079c531659141344cd1fd0a4f28419497f9722a3daafe3b4186f6b6457e09190a35050565b60006020828403121561031057600080fd5b81356001600160a01b038116811461032757600080fd5b9392505050565b6020808252818101527f4f776e61626c653a2063616c6c6572206973206e6f7420746865206f776e657260408201526060019056fea2646970667358221220238729e89de1c085d8bfe98c233e82406107413978b93653c829e8af6531dfb964736f6c6343000807003360806040526040516109b73803806109b783398101604081905261002291610482565b61004d60017fa3f0ad74e5423aebfd80d3ef4346578335a9a72aeaee59ff6cb3582b35133d51610591565b60008051602061097083398151915214610069576100696105e2565b6100758282600061007c565b505061060e565b61008583610156565b6040516001600160a01b038416907f1cf3b03a6cf19fa2baba4df148e9dcabedea7f8a5c07840e207e5c089be95d3e90600090a26000825111806100c65750805b156101515761014f836001600160a01b0316635c60da1b6040518163ffffffff1660e01b815260040160206040518083038186803b15801561010757600080fd5b505afa15801561011b573d6000803e3d6000fd5b505050506040513d601f19601f8201168201806040525081019061013f9190610467565b836102f660201b6100291760201c565b505b505050565b6101698161032260201b6100551760201c565b6101c85760405162461bcd60e51b815260206004820152602560248201527f455243313936373a206e657720626561636f6e206973206e6f74206120636f6e6044820152641d1c9858dd60da1b60648201526084015b60405180910390fd5b61024b816001600160a01b0316635c60da1b6040518163ffffffff1660e01b815260040160206040518083038186803b15801561020457600080fd5b505afa158015610218573d6000803e3d6000fd5b505050506040513d601f19601f8201168201806040525081019061023c9190610467565b61032260201b6100551760201c565b6102b05760405162461bcd60e51b815260206004820152603060248201527f455243313936373a20626561636f6e20696d706c656d656e746174696f6e206960448201526f1cc81b9bdd08184818dbdb9d1c9858dd60821b60648201526084016101bf565b806102d560008051602061097083398151915260001b61033160201b6100641760201c565b80546001600160a01b0319166001600160a01b039290921691909117905550565b606061031b838360405180606001604052806027815260200161099060279139610334565b9392505050565b6001600160a01b03163b151590565b90565b60606001600160a01b0384163b61039c5760405162461bcd60e51b815260206004820152602660248201527f416464726573733a2064656c65676174652063616c6c20746f206e6f6e2d636f6044820152651b9d1c9858dd60d21b60648201526084016101bf565b600080856001600160a01b0316856040516103b79190610542565b600060405180830381855af49150503d80600081146103f2576040519150601f19603f3d011682016040523d82523d6000602084013e6103f7565b606091505b509092509050610408828286610412565b9695505050505050565b6060831561042157508161031b565b8251156104315782518084602001fd5b8160405162461bcd60e51b81526004016101bf919061055e565b80516001600160a01b038116811461046257600080fd5b919050565b60006020828403121561047957600080fd5b61031b8261044b565b6000806040838503121561049557600080fd5b61049e8361044b565b60208401519092506001600160401b03808211156104bb57600080fd5b818501915085601f8301126104cf57600080fd5b8151818111156104e1576104e16105f8565b604051601f8201601f19908116603f01168101908382118183101715610509576105096105f8565b8160405282815288602084870101111561052257600080fd5b6105338360208301602088016105b6565b80955050505050509250929050565b600082516105548184602087016105b6565b9190910192915050565b602081526000825180602084015261057d8160408501602087016105b6565b601f01601f19169190910160400192915050565b6000828210156105b157634e487b7160e01b600052601160045260246000fd5b500390565b60005b838110156105d15781810151838201526020016105b9565b8381111561014f5750506000910152565b634e487b7160e01b600052600160045260246000fd5b634e487b7160e01b600052604160045260246000fd5b6103538061061d6000396000f3fe60806040523661001357610011610017565b005b6100115b610027610022610067565b61010f565b565b606061004e83836040518060600160405280602781526020016102f760279139610133565b9392505050565b6001600160a01b03163b151590565b90565b600061009a7fa3f0ad74e5423aebfd80d3ef4346578335a9a72aeaee59ff6cb3582b35133d50546001600160a01b031690565b6001600160a01b0316635c60da1b6040518163ffffffff1660e01b815260040160206040518083038186803b1580156100d257600080fd5b505afa1580156100e6573d6000803e3d6000fd5b505050506040513d601f19601f8201168201806040525081019061010a919061024e565b905090565b3660008037600080366000845af43d6000803e80801561012e573d6000f35b3d6000fd5b60606001600160a01b0384163b6101a05760405162461bcd60e51b815260206004820152602660248201527f416464726573733a2064656c65676174652063616c6c20746f206e6f6e2d636f6044820152651b9d1c9858dd60d21b60648201526084015b60405180910390fd5b600080856001600160a01b0316856040516101bb9190610277565b600060405180830381855af49150503d80600081146101f6576040519150601f19603f3d011682016040523d82523d6000602084013e6101fb565b606091505b509150915061020b828286610215565b9695505050505050565b6060831561022457508161004e565b8251156102345782518084602001fd5b8160405162461bcd60e51b81526004016101979190610293565b60006020828403121561026057600080fd5b81516001600160a01b038116811461004e57600080fd5b600082516102898184602087016102c6565b9190910192915050565b60208152600082518060208401526102b28160408501602087016102c6565b601f01601f19169190910160400192915050565b60005b838110156102e15781810151838201526020016102c9565b838111156102f0576000848401525b5050505056fe416464726573733a206c6f772d6c6576656c2064656c65676174652063616c6c206661696c6564a26469706673582212203b10290aa15b794e35c382cad115d32fb204ae375daa72b92b62b8a04a57930664736f6c63430008070033a3f0ad74e5423aebfd80d3ef4346578335a9a72aeaee59ff6cb3582b35133d50416464726573733a206c6f772d6c6576656c2064656c65676174652063616c6c206661696c6564a2646970667358221220df2c223560ecd4abcc0c1faa673bcb6e2a7773e24ebc69646041962acf9c6a6d64736f6c63430008070033",
  "linkReferences": {},
  "deployedLinkReferences": {}
}