{
  "_format": "hh-sol-artifact-1",
  "contractName": "VCToken",
  "sourceName": "contracts/VCToken.sol",
  "abi": [
    {
      "anonymous": false,
      "inputs": [
        {
          "indexed": false,
          "internalType": "address",
          "name": "previousAdmin",
          "type": "address"
        },
        {
          "indexed": false,
          "internalType": "address",
          "name": "newAdmin",
          "type": "address"
        }
      ],
      "name": "AdminChanged",
      "type": "event"
    },
    {
      "anonymous": false,
      "inputs": [
        {
          "indexed": true,
          "internalType": "address",
          "name": "account",
          "type": "address"
        },
        {
          "indexed": true,
          "internalType": "address",
          "name": "operator",
          "type": "address"
        },
        {
          "indexed": false,
          "internalType": "bool",
          "name": "approved",
          "type": "bool"
        }
      ],
      "name": "ApprovalForAll",
      "type": "event"
    },
    {
      "anonymous": false,
      "inputs": [
        {
          "indexed": true,
          "internalType": "address",
          "name": "beacon",
          "type": "address"
        }
      ],
      "name": "BeaconUpgraded",
      "type": "event"
    },
    {
      "anonymous": false,
      "inputs": [
        {
          "indexed": false,
          "internalType": "address",
          "name": "operator",
          "type": "address"
        },
        {
          "indexed": false,
          "internalType": "address",
          "name": "from",
          "type": "address"
        },
        {
          "indexed": false,
          "internalType": "address",
          "name": "to",
          "type": "address"
        },
        {
          "indexed": false,
          "internalType": "uint256",
          "name": "id",
          "type": "uint256"
        }
      ],
      "name": "FailedTransfer",
      "type": "event"
    },
    {
      "anonymous": false,
      "inputs": [
        {
          "indexed": false,
          "internalType": "uint8",
          "name": "version",
          "type": "uint8"
        }
      ],
      "name": "Initialized",
      "type": "event"
    },
    {
      "anonymous": false,
      "inputs": [
        {
          "indexed": false,
          "internalType": "address",
          "name": "account",
          "type": "address"
        }
      ],
      "name": "Paused",
      "type": "event"
    },
    {
      "anonymous": false,
      "inputs": [
        {
          "indexed": true,
          "internalType": "bytes32",
          "name": "role",
          "type": "bytes32"
        },
        {
          "indexed": true,
          "internalType": "bytes32",
          "name": "previousAdminRole",
          "type": "bytes32"
        },
        {
          "indexed": true,
          "internalType": "bytes32",
          "name": "newAdminRole",
          "type": "bytes32"
        }
      ],
      "name": "RoleAdminChanged",
      "type": "event"
    },
    {
      "anonymous": false,
      "inputs": [
        {
          "indexed": true,
          "internalType": "bytes32",
          "name": "role",
          "type": "bytes32"
        },
        {
          "indexed": true,
          "internalType": "address",
          "name": "account",
          "type": "address"
        },
        {
          "indexed": true,
          "internalType": "address",
          "name": "sender",
          "type": "address"
        }
      ],
      "name": "RoleGranted",
      "type": "event"
    },
    {
      "anonymous": false,
      "inputs": [
        {
          "indexed": true,
          "internalType": "bytes32",
          "name": "role",
          "type": "bytes32"
        },
        {
          "indexed": true,
          "internalType": "address",
          "name": "account",
          "type": "address"
        },
        {
          "indexed": true,
          "internalType": "address",
          "name": "sender",
          "type": "address"
        }
      ],
      "name": "RoleRevoked",
      "type": "event"
    },
    {
      "anonymous": false,
      "inputs": [
        {
          "indexed": true,
          "internalType": "address",
          "name": "operator",
          "type": "address"
        },
        {
          "indexed": true,
          "internalType": "address",
          "name": "from",
          "type": "address"
        },
        {
          "indexed": true,
          "internalType": "address",
          "name": "to",
          "type": "address"
        },
        {
          "indexed": false,
          "internalType": "uint256",
          "name": "id",
          "type": "uint256"
        },
        {
          "indexed": false,
          "internalType": "uint256",
          "name": "value",
          "type": "uint256"
        }
      ],
      "name": "Transfer",
      "type": "event"
    },
    {
      "anonymous": false,
      "inputs": [
        {
          "indexed": false,
          "internalType": "string",
          "name": "value",
          "type": "string"
        },
        {
          "indexed": true,
          "internalType": "uint256",
          "name": "id",
          "type": "uint256"
        }
      ],
      "name": "URI",
      "type": "event"
    },
    {
      "anonymous": false,
      "inputs": [
        {
          "indexed": false,
          "internalType": "address",
          "name": "account",
          "type": "address"
        }
      ],
      "name": "Unpaused",
      "type": "event"
    },
    {
      "anonymous": false,
      "inputs": [
        {
          "indexed": true,
          "internalType": "address",
          "name": "implementation",
          "type": "address"
        }
      ],
      "name": "Upgraded",
      "type": "event"
    },
    {
      "anonymous": false,
      "inputs": [
        {
          "indexed": true,
          "internalType": "address",
          "name": "verifiable",
          "type": "address"
        },
        {
          "indexed": false,
          "internalType": "uint256",
          "name": "tokenId",
          "type": "uint256"
        }
      ],
      "name": "VerifiableSet",
      "type": "event"
    },
    {
      "inputs": [],
      "name": "ADMIN_ROLE",
      "outputs": [
        {
          "internalType": "bytes32",
          "name": "",
          "type": "bytes32"
        }
      ],
      "stateMutability": "view",
      "type": "function"
    },
    {
      "inputs": [],
      "name": "BUSINESS",
      "outputs": [
        {
          "internalType": "uint256",
          "name": "",
          "type": "uint256"
        }
      ],
      "stateMutability": "view",
      "type": "function"
    },
    {
      "inputs": [],
      "name": "DEFAULT_ADMIN_ROLE",
      "outputs": [
        {
          "internalType": "bytes32",
          "name": "",
          "type": "bytes32"
        }
      ],
      "stateMutability": "view",
      "type": "function"
    },
    {
      "inputs": [],
      "name": "INT_ACCREDITED_INVESTOR",
      "outputs": [
        {
          "internalType": "uint256",
          "name": "",
          "type": "uint256"
        }
      ],
      "stateMutability": "view",
      "type": "function"
    },
    {
      "inputs": [],
      "name": "INT_PERSON",
      "outputs": [
        {
          "internalType": "uint256",
          "name": "",
          "type": "uint256"
        }
      ],
      "stateMutability": "view",
      "type": "function"
    },
    {
      "inputs": [],
      "name": "MINTER_ROLE",
      "outputs": [
        {
          "internalType": "bytes32",
          "name": "",
          "type": "bytes32"
        }
      ],
      "stateMutability": "view",
      "type": "function"
    },
    {
      "inputs": [],
      "name": "UPGRADER_ROLE",
      "outputs": [
        {
          "internalType": "bytes32",
          "name": "",
          "type": "bytes32"
        }
      ],
      "stateMutability": "view",
      "type": "function"
    },
    {
      "inputs": [],
      "name": "US_ACCREDITED_INVESTOR",
      "outputs": [
        {
          "internalType": "uint256",
          "name": "",
          "type": "uint256"
        }
      ],
      "stateMutability": "view",
      "type": "function"
    },
    {
      "inputs": [],
      "name": "US_PERSON",
      "outputs": [
        {
          "internalType": "uint256",
          "name": "",
          "type": "uint256"
        }
      ],
      "stateMutability": "view",
      "type": "function"
    },
    {
      "inputs": [
        {
          "internalType": "address",
          "name": "upgrader",
          "type": "address"
        }
      ],
      "name": "__VCToken_init",
      "outputs": [],
      "stateMutability": "nonpayable",
      "type": "function"
    },
    {
      "inputs": [
        {
          "internalType": "address",
          "name": "account",
          "type": "address"
        }
      ],
      "name": "authToken",
      "outputs": [
        {
          "internalType": "uint256",
          "name": "",
          "type": "uint256"
        }
      ],
      "stateMutability": "view",
      "type": "function"
    },
    {
      "inputs": [
        {
          "internalType": "address",
          "name": "account",
          "type": "address"
        },
        {
          "internalType": "uint256",
          "name": "id",
          "type": "uint256"
        }
      ],
      "name": "balanceOf",
      "outputs": [
        {
          "internalType": "uint256",
          "name": "",
          "type": "uint256"
        }
      ],
      "stateMutability": "view",
      "type": "function"
    },
    {
      "inputs": [
        {
          "internalType": "address",
          "name": "from",
          "type": "address"
        },
        {
          "internalType": "uint256",
          "name": "id",
          "type": "uint256"
        },
        {
          "internalType": "bytes",
          "name": "signature",
          "type": "bytes"
        }
      ],
      "name": "burn",
      "outputs": [],
      "stateMutability": "nonpayable",
      "type": "function"
    },
    {
      "inputs": [],
      "name": "chainId",
      "outputs": [
        {
          "internalType": "uint256",
          "name": "",
          "type": "uint256"
        }
      ],
      "stateMutability": "view",
      "type": "function"
    },
    {
      "inputs": [],
      "name": "domainSeparator",
      "outputs": [
        {
          "internalType": "bytes32",
          "name": "",
          "type": "bytes32"
        }
      ],
      "stateMutability": "view",
      "type": "function"
    },
    {
      "inputs": [
        {
          "internalType": "uint256",
          "name": "id",
          "type": "uint256"
        }
      ],
      "name": "exists",
      "outputs": [
        {
          "internalType": "bool",
          "name": "",
          "type": "bool"
        }
      ],
      "stateMutability": "view",
      "type": "function"
    },
    {
      "inputs": [
        {
          "internalType": "address",
          "name": "from",
          "type": "address"
        },
        {
          "internalType": "uint256",
          "name": "id",
          "type": "uint256"
        },
        {
          "internalType": "uint256",
          "name": "_nonce",
          "type": "uint256"
        }
      ],
      "name": "getBurnHash",
      "outputs": [
        {
          "internalType": "bytes32",
          "name": "",
          "type": "bytes32"
        }
      ],
      "stateMutability": "view",
      "type": "function"
    },
    {
      "inputs": [
        {
          "internalType": "address",
          "name": "safeAddr",
          "type": "address"
        },
        {
          "internalType": "uint256",
          "name": "id",
          "type": "uint256"
        },
        {
          "internalType": "uint256",
          "name": "_nonce",
          "type": "uint256"
        }
      ],
      "name": "getMintHash",
      "outputs": [
        {
          "internalType": "bytes32",
          "name": "",
          "type": "bytes32"
        }
      ],
      "stateMutability": "view",
      "type": "function"
    },
    {
      "inputs": [
        {
          "internalType": "address",
          "name": "signer",
          "type": "address"
        }
      ],
      "name": "getNonce",
      "outputs": [
        {
          "internalType": "uint256",
          "name": "",
          "type": "uint256"
        }
      ],
      "stateMutability": "view",
      "type": "function"
    },
    {
      "inputs": [
        {
          "internalType": "bytes32",
          "name": "role",
          "type": "bytes32"
        }
      ],
      "name": "getRoleAdmin",
      "outputs": [
        {
          "internalType": "bytes32",
          "name": "",
          "type": "bytes32"
        }
      ],
      "stateMutability": "view",
      "type": "function"
    },
    {
      "inputs": [
        {
          "internalType": "bytes32",
          "name": "role",
          "type": "bytes32"
        },
        {
          "internalType": "address",
          "name": "account",
          "type": "address"
        }
      ],
      "name": "grantRole",
      "outputs": [],
      "stateMutability": "nonpayable",
      "type": "function"
    },
    {
      "inputs": [
        {
          "internalType": "bytes32",
          "name": "role",
          "type": "bytes32"
        },
        {
          "internalType": "address",
          "name": "account",
          "type": "address"
        }
      ],
      "name": "hasRole",
      "outputs": [
        {
          "internalType": "bool",
          "name": "",
          "type": "bool"
        }
      ],
      "stateMutability": "view",
      "type": "function"
    },
    {
      "inputs": [
        {
          "internalType": "address",
          "name": "account",
          "type": "address"
        },
        {
          "internalType": "address",
          "name": "operator",
          "type": "address"
        }
      ],
      "name": "isApprovedForAll",
      "outputs": [
        {
          "internalType": "bool",
          "name": "",
          "type": "bool"
        }
      ],
      "stateMutability": "view",
      "type": "function"
    },
    {
      "inputs": [],
      "name": "isPaused",
      "outputs": [
        {
          "internalType": "bool",
          "name": "",
          "type": "bool"
        }
      ],
      "stateMutability": "view",
      "type": "function"
    },
    {
      "inputs": [
        {
          "internalType": "address",
          "name": "holder",
          "type": "address"
        }
      ],
      "name": "isVerified",
      "outputs": [
        {
          "internalType": "bool",
          "name": "",
          "type": "bool"
        }
      ],
      "stateMutability": "view",
      "type": "function"
    },
    {
      "inputs": [
        {
          "internalType": "address",
          "name": "to",
          "type": "address"
        },
        {
          "internalType": "uint256",
          "name": "id",
          "type": "uint256"
        },
        {
          "internalType": "bytes",
          "name": "signature",
          "type": "bytes"
        }
      ],
      "name": "mint",
      "outputs": [
        {
          "internalType": "bool",
          "name": "",
          "type": "bool"
        }
      ],
      "stateMutability": "nonpayable",
      "type": "function"
    },
    {
      "inputs": [],
      "name": "name",
      "outputs": [
        {
          "internalType": "string",
          "name": "",
          "type": "string"
        }
      ],
      "stateMutability": "pure",
      "type": "function"
    },
    {
      "inputs": [],
      "name": "pause",
      "outputs": [],
      "stateMutability": "nonpayable",
      "type": "function"
    },
    {
      "inputs": [],
      "name": "proxiableUUID",
      "outputs": [
        {
          "internalType": "bytes32",
          "name": "",
          "type": "bytes32"
        }
      ],
      "stateMutability": "view",
      "type": "function"
    },
    {
      "inputs": [
        {
          "internalType": "bytes32",
          "name": "role",
          "type": "bytes32"
        },
        {
          "internalType": "address",
          "name": "account",
          "type": "address"
        }
      ],
      "name": "renounceRole",
      "outputs": [],
      "stateMutability": "nonpayable",
      "type": "function"
    },
    {
      "inputs": [
        {
          "internalType": "bytes32",
          "name": "role",
          "type": "bytes32"
        },
        {
          "internalType": "address",
          "name": "account",
          "type": "address"
        }
      ],
      "name": "revokeRole",
      "outputs": [],
      "stateMutability": "nonpayable",
      "type": "function"
    },
    {
      "inputs": [
        {
          "internalType": "address",
          "name": "from",
          "type": "address"
        },
        {
          "internalType": "address",
          "name": "to",
          "type": "address"
        },
        {
          "internalType": "uint256",
          "name": "id",
          "type": "uint256"
        },
        {
          "internalType": "uint256",
          "name": "amount",
          "type": "uint256"
        },
        {
          "internalType": "bytes",
          "name": "data",
          "type": "bytes"
        }
      ],
      "name": "safeTransferFrom",
      "outputs": [],
      "stateMutability": "nonpayable",
      "type": "function"
    },
    {
      "inputs": [
        {
          "internalType": "address",
          "name": "operator",
          "type": "address"
        },
        {
          "internalType": "bool",
          "name": "approved",
          "type": "bool"
        }
      ],
      "name": "setApprovalForAll",
      "outputs": [],
      "stateMutability": "nonpayable",
      "type": "function"
    },
    {
      "inputs": [
        {
          "internalType": "address",
          "name": "verifiable",
          "type": "address"
        },
        {
          "internalType": "uint256",
          "name": "tokenId",
          "type": "uint256"
        }
      ],
      "name": "setMinter",
      "outputs": [
        {
          "internalType": "uint256",
          "name": "",
          "type": "uint256"
        }
      ],
      "stateMutability": "nonpayable",
      "type": "function"
    },
    {
      "inputs": [
        {
          "internalType": "bytes4",
          "name": "interfaceId",
          "type": "bytes4"
        }
      ],
      "name": "supportsInterface",
      "outputs": [
        {
          "internalType": "bool",
          "name": "",
          "type": "bool"
        }
      ],
      "stateMutability": "view",
      "type": "function"
    },
    {
      "inputs": [],
      "name": "symbol",
      "outputs": [
        {
          "internalType": "string",
          "name": "",
          "type": "string"
        }
      ],
      "stateMutability": "pure",
      "type": "function"
    },
    {
      "inputs": [
        {
          "internalType": "uint256",
          "name": "id",
          "type": "uint256"
        }
      ],
      "name": "totalSupply",
      "outputs": [
        {
          "internalType": "uint256",
          "name": "",
          "type": "uint256"
        }
      ],
      "stateMutability": "view",
      "type": "function"
    },
    {
      "inputs": [],
      "name": "unpause",
      "outputs": [],
      "stateMutability": "nonpayable",
      "type": "function"
    },
    {
      "inputs": [
        {
          "internalType": "address",
          "name": "newImplementation",
          "type": "address"
        }
      ],
      "name": "upgradeTo",
      "outputs": [],
      "stateMutability": "nonpayable",
      "type": "function"
    },
    {
      "inputs": [
        {
          "internalType": "address",
          "name": "newImplementation",
          "type": "address"
        },
        {
          "internalType": "bytes",
          "name": "data",
          "type": "bytes"
        }
      ],
      "name": "upgradeToAndCall",
      "outputs": [],
      "stateMutability": "payable",
      "type": "function"
    },
    {
      "inputs": [
        {
          "internalType": "uint256",
          "name": "",
          "type": "uint256"
        }
      ],
      "name": "uri",
      "outputs": [
        {
          "internalType": "string",
          "name": "",
          "type": "string"
        }
      ],
      "stateMutability": "view",
      "type": "function"
    },
    {
      "inputs": [
        {
          "internalType": "address",
          "name": "signer",
          "type": "address"
        },
        {
          "internalType": "bytes32",
          "name": "txHash",
          "type": "bytes32"
        },
        {
          "internalType": "bytes",
          "name": "signature",
          "type": "bytes"
        }
      ],
      "name": "verifySignature",
      "outputs": [
        {
          "internalType": "bool",
          "name": "",
          "type": "bool"
        }
      ],
      "stateMutability": "view",
      "type": "function"
    },
    {
      "inputs": [],
      "name": "version",
      "outputs": [
        {
          "internalType": "string",
          "name": "",
          "type": "string"
        }
      ],
      "stateMutability": "pure",
      "type": "function"
    }
  ],
  "bytecode": "0x60a06040523060601b60805234801561001757600080fd5b5060805160601c613cad61005260003960008181610b5001528181610bd501528181610ea201528181610f2701526110650152613cad6000f3fe6080604052600436106102db5760003560e01c806391d1485411610184578063c0b86b3c116100d6578063e985e9c51161008a578063f698da2511610064578063f698da251461086e578063f72c0d8b14610883578063ff26d4381461089857600080fd5b8063e985e9c5146107ef578063ec34d31414610839578063f242432a1461084e57600080fd5b8063d547741f116100bb578063d547741f146107a5578063dc1a1880146107c5578063e36c8450146107da57600080fd5b8063c0b86b3c1461077b578063d53913931461079057600080fd5b8063a217fddf11610138578063b187bd2611610112578063b187bd26146106fe578063b9209e3314610713578063bd85b0391461074d57600080fd5b8063a217fddf14610692578063a22cb465146106a7578063af653636146106c757600080fd5b806395d89b411161016957806395d89b41146106195780639a8a05921461065f5780639ce389981461067257600080fd5b806391d14854146105b357806394d008ef146105f957600080fd5b806339330b3c1161023d5780634ffd7d54116101f1578063645b7e1e116101cb578063645b7e1e1461056957806375b238fc146105895780638456cb591461059e57600080fd5b80634ffd7d541461050657806352d1902d1461052657806354fd4d501461053b57600080fd5b806344d171871161022257806344d17187146104a35780634f1ef286146104c35780634f558e79146104d657600080fd5b806339330b3c1461046e5780633f4ba83a1461048e57600080fd5b8063248a9ca3116102945780632f2ff15d116102795780632f2ff15d1461040c57806336568abe1461042e5780633659cfe61461044e57600080fd5b8063248a9ca3146103bc5780632d0335ab146103ec57600080fd5b806301ffc9a7116102c557806301ffc9a71461034357806306fdde03146103635780630e89341c1461039c57600080fd5b8062fdd58e146102e05780630175199814610313575b600080fd5b3480156102ec57600080fd5b506103006102fb36600461378a565b6108ad565b6040519081526020015b60405180910390f35b34801561031f57600080fd5b5061033361032e3660046136e5565b610959565b604051901515815260200161030a565b34801561034f57600080fd5b5061033361035e3660046138c3565b6109d7565b34801561036f57600080fd5b506040805180820190915260078152662b21aa37b5b2b760c91b60208201525b60405161030a9190613a0c565b3480156103a857600080fd5b5061038f6103b736600461386e565b610a4f565b3480156103c857600080fd5b506103006103d736600461386e565b60009081526065602052604090206001015490565b3480156103f857600080fd5b506103006104073660046135e9565b610a70565b34801561041857600080fd5b5061042c6104273660046138a0565b610a8f565b005b34801561043a57600080fd5b5061042c6104493660046138a0565b610ab9565b34801561045a57600080fd5b5061042c6104693660046135e9565b610b45565b34801561047a57600080fd5b5061030061048936600461383b565b610cc1565b34801561049a57600080fd5b5061042c610d30565b3480156104af57600080fd5b5061042c6104be3660046137b4565b610d73565b61042c6104d136600461373c565b610e97565b3480156104e257600080fd5b506103336104f136600461386e565b600090815261016a6020526040902054151590565b34801561051257600080fd5b5061030061052136600461383b565b611000565b34801561053257600080fd5b50610300611058565b34801561054757600080fd5b506040805180820190915260058152640312e302e360dc1b602082015261038f565b34801561057557600080fd5b5061042c6105843660046135e9565b61111e565b34801561059557600080fd5b506103006112d5565b3480156105aa57600080fd5b5061042c611308565b3480156105bf57600080fd5b506103336105ce3660046138a0565b60009182526065602090815260408084206001600160a01b0393909316845291905290205460ff1690565b34801561060557600080fd5b506103336106143660046137b4565b61134b565b34801561062557600080fd5b5060408051808201909152600381527f5643540000000000000000000000000000000000000000000000000000000000602082015261038f565b34801561066b57600080fd5b5046610300565b34801561067e57600080fd5b5061030061068d36600461378a565b6115c1565b34801561069e57600080fd5b50610300600081565b3480156106b357600080fd5b5061042c6106c23660046136a9565b6117a1565b3480156106d357600080fd5b506103006106e23660046135e9565b6001600160a01b03166000908152610169602052604090205490565b34801561070a57600080fd5b506103336117f2565b34801561071f57600080fd5b5061033361072e3660046135e9565b6001600160a01b03166000908152610168602052604090205460ff1690565b34801561075957600080fd5b5061030061076836600461386e565b600090815261016a602052604090205490565b34801561078757600080fd5b50610300600581565b34801561079c57600080fd5b50610300611805565b3480156107b157600080fd5b5061042c6107c03660046138a0565b611824565b3480156107d157600080fd5b50610300600381565b3480156107e657600080fd5b50610300600181565b3480156107fb57600080fd5b5061033361080a366004613604565b6001600160a01b03918216600090815261016c6020908152604080832093909416825291909152205460ff1690565b34801561084557600080fd5b50610300600281565b34801561085a57600080fd5b5061042c610869366004613637565b611849565b34801561087a57600080fd5b506103006118eb565b34801561088f57600080fd5b506103006118f5565b3480156108a457600080fd5b50610300600481565b60006001600160a01b0383166109305760405162461bcd60e51b815260206004820152602a60248201527f5643546f6b656e3a2061646472657373207a65726f206973206e6f742061207660448201527f616c6964206f776e65720000000000000000000000000000000000000000000060648201526084015b60405180910390fd5b50600090815261016b602090815260408083206001600160a01b03949094168352929052205490565b60006109bb60405160200161097f906a4d494e5445525f524f4c4560a81b8152600b0190565b60408051601f1981840301815291815281516020928301206000908152606583528181206001600160a01b038916825290925290205460ff1690565b80156109cd57506109cd848484611916565b90505b9392505050565b60006001600160e01b031982167fc595975a000000000000000000000000000000000000000000000000000000001480610a3a57506001600160e01b031982167fda8def7300000000000000000000000000000000000000000000000000000000145b80610a495750610a4982611a90565b92915050565b6060604051806080016040528060608152602001613bf16060913992915050565b6001600160a01b03811660009081526101676020526040812054610a49565b600082815260656020526040902060010154610aaa81611af7565b610ab48383611b01565b505050565b6001600160a01b0381163314610b375760405162461bcd60e51b815260206004820152602f60248201527f416363657373436f6e74726f6c3a2063616e206f6e6c792072656e6f756e636560448201527f20726f6c657320666f722073656c6600000000000000000000000000000000006064820152608401610927565b610b418282611ba3565b5050565b306001600160a01b037f0000000000000000000000000000000000000000000000000000000000000000161415610bd35760405162461bcd60e51b815260206004820152602c60248201527f46756e6374696f6e206d7573742062652063616c6c6564207468726f7567682060448201526b19195b1959d85d1958d85b1b60a21b6064820152608401610927565b7f00000000000000000000000000000000000000000000000000000000000000006001600160a01b0316610c2e7f360894a13ba1a3210667c828492db98dca3e2076cc3735a920a3ca505d382bbc546001600160a01b031690565b6001600160a01b031614610c995760405162461bcd60e51b815260206004820152602c60248201527f46756e6374696f6e206d7573742062652063616c6c6564207468726f7567682060448201526b6163746976652070726f787960a01b6064820152608401610927565b610ca281611c26565b60408051600080825260208201909252610cbe91839190611d34565b50565b604080517f65ec0a3d9b23902e2fe999689a69e8e5ad5bcaab57b8635aec70eaae30d3d87f60208201526001600160a01b0385169181019190915260608101839052608081018290526000906109cd9060a0015b60405160208183030381529060405280519060200120611ee3565b6040516c55504752414445525f524f4c4560981b6020820152602d0160405160208183030381529060405280519060200120610d6b81611af7565b610cbe611f4c565b33600081815261016760205260408120805460018101909155610d999087908790610cc1565b9050610ddc828286868080601f01602080910402602001604051908101604052809392919081815260200183838082843760009201919091525061095992505050565b610e285760405162461bcd60e51b815260206004820152601a60248201527f5643546f6b656e3a20696e76616c6964207369676e61747572650000000000006044820152606401610927565b610e3486866001611fe8565b6040516a4d494e5445525f524f4c4560a81b6020820152610e6e90602b016040516020818303038152906040528051906020012033611ba3565b5050506001600160a01b03909216600090815261016860205260409020805460ff191690555050565b306001600160a01b037f0000000000000000000000000000000000000000000000000000000000000000161415610f255760405162461bcd60e51b815260206004820152602c60248201527f46756e6374696f6e206d7573742062652063616c6c6564207468726f7567682060448201526b19195b1959d85d1958d85b1b60a21b6064820152608401610927565b7f00000000000000000000000000000000000000000000000000000000000000006001600160a01b0316610f807f360894a13ba1a3210667c828492db98dca3e2076cc3735a920a3ca505d382bbc546001600160a01b031690565b6001600160a01b031614610feb5760405162461bcd60e51b815260206004820152602c60248201527f46756e6374696f6e206d7573742062652063616c6c6564207468726f7567682060448201526b6163746976652070726f787960a01b6064820152608401610927565b610ff482611c26565b610b4182826001611d34565b604080517fa53b9b633e60c98d0ba266e3e9f0b79181e74b680a5998368333c1f15f06484a60208201526001600160a01b0385169181019190915260608101839052608081018290526000906109cd9060a001610d15565b6000306001600160a01b037f000000000000000000000000000000000000000000000000000000000000000016146110f85760405162461bcd60e51b815260206004820152603860248201527f555550535570677261646561626c653a206d757374206e6f742062652063616c60448201527f6c6564207468726f7567682064656c656761746563616c6c00000000000000006064820152608401610927565b507f360894a13ba1a3210667c828492db98dca3e2076cc3735a920a3ca505d382bbc5b90565b600061112a600161206d565b90508015611142576000805461ff0019166101001790555b61114a6121a6565b611152612213565b611198604051806040016040528060078152602001662b21aa37b5b2b760c91b815250604051806040016040528060058152602001640312e302e360dc1b815250612286565b6111a06121a6565b6040516c55504752414445525f524f4c4560981b602082015261121190602d01604051602081830303815290604052805190602001206040516020016111f6906941444d494e5f524f4c4560b01b8152600a0190565b604051602081830303815290604052805190602001206122fb565b6040516941444d494e5f524f4c4560b01b602082015261125090602a016040516020818303038152906040528051906020012061124b3390565b612346565b6040516c55504752414445525f524f4c4560981b602082015261128c90602d016040516020818303038152906040528051906020012083612346565b8015610b41576000805461ff0019169055604051600181527f7f26b83ff96e1f2b6a682f133852f6798a09c465da95921460cefb38474024989060200160405180910390a15050565b6040516941444d494e5f524f4c4560b01b6020820152602a015b6040516020818303038152906040528051906020012081565b6040516c55504752414445525f524f4c4560981b6020820152602d016040516020818303038152906040528051906020012061134381611af7565b610cbe612350565b60008062093a80610166546113609190613a1f565b90508042106113b15760405162461bcd60e51b815260206004820152601960248201527f5643546f6b656e3a206578706972656420646561646c696e65000000000000006044820152606401610927565b6113bb86866108ad565b1561142e5760405162461bcd60e51b815260206004820152602b60248201527f5643546f6b656e3a2062616c616e63652073686f756c6420626520302062656660448201527f6f7265206d696e74696e670000000000000000000000000000000000000000006064820152608401610927565b6001600160a01b0386166000908152610169602052604090205485146114bc5760405162461bcd60e51b815260206004820152602260248201527f5643546f6b656e3a2077726f6e6720746f6b656e206964206f7220616464726560448201527f73730000000000000000000000000000000000000000000000000000000000006064820152608401610927565b336000818152610167602052604081208054600181019091556114e29089908990611000565b9050611525828288888080601f01602080910402602001604051908101604052809392919081815260200183838082843760009201919091525061095992505050565b6115715760405162461bcd60e51b815260206004820152601a60248201527f5643546f6b656e3a20696e76616c6964207369676e61747572650000000000006044820152606401610927565b61158d88886001604051806020016040528060008152506123cb565b5050506001600160a01b038516600090815261016860205260409020805460ff191660019081179091559050949350505050565b6040516941444d494e5f524f4c4560b01b6020820152600090602a01604051602081830303815290604052805190602001206115fc81611af7565b60cb5460ff16156116425760405162461bcd60e51b815260206004820152601060248201526f14185d5cd8589b194e881c185d5cd95960821b6044820152606401610927565b6001600160a01b0384166116985760405162461bcd60e51b815260206004820152601e60248201527f5643546f6b656e3a206e6f6e207a65726f2061646472657373206f6e6c7900006044820152606401610927565b60058311156116f35760405162461bcd60e51b815260206004820152602160248201527f5643546f6b656e3a2072657175657374656420696420756e617661696c61626c6044820152606560f81b6064820152608401610927565b6001600160a01b03841660009081526101696020908152604091829020859055426101665590516117569161173a91016a4d494e5445525f524f4c4560a81b8152600b0190565b6040516020818303038152906040528051906020012085611b01565b836001600160a01b03167f86496a8e9d83848723c5c31443ede7ef0eb11ec07a0d5fa45e0b8df9fc7274868460405161179191815260200190565b60405180910390a2509092915050565b60cb5460ff16156117e75760405162461bcd60e51b815260206004820152601060248201526f14185d5cd8589b194e881c185d5cd95960821b6044820152606401610927565b610b41338383612588565b600061180060cb5460ff1690565b905090565b6040516a4d494e5445525f524f4c4560a81b6020820152602b016112ef565b60008281526065602052604090206001015461183f81611af7565b610ab48383611ba3565b6001600160a01b0385163314806118655750611865853361080a565b6118d75760405162461bcd60e51b815260206004820152602e60248201527f5643546f6b656e3a2063616c6c6572206973206e6f7420746f6b656e206f776e60448201527f6572206f7220617070726f7665640000000000000000000000000000000000006064820152608401610927565b6118e4858585858561267e565b5050505050565b60006118006126a3565b6040516c55504752414445525f524f4c4560981b6020820152602d016112ef565b6000806000611925858561271e565b9092509050600081600481111561193e5761193e613af3565b14801561195c5750856001600160a01b0316826001600160a01b0316145b1561196c576001925050506109d0565b600080876001600160a01b0316631626ba7e60e01b88886040516024016119949291906139f3565b60408051601f198184030181529181526020820180517bffffffffffffffffffffffffffffffffffffffffffffffffffffffff166001600160e01b03199094169390931790925290516119e79190613929565b600060405180830381855afa9150503d8060008114611a22576040519150601f19603f3d011682016040523d82523d6000602084013e611a27565b606091505b5091509150818015611a3a575080516020145b8015611a84575080517f1626ba7e0000000000000000000000000000000000000000000000000000000090611a7890830160209081019084016138e0565b6001600160e01b031916145b98975050505050505050565b60006001600160e01b031982167f7965db0b000000000000000000000000000000000000000000000000000000001480610a4957507f01ffc9a7000000000000000000000000000000000000000000000000000000006001600160e01b0319831614610a49565b610cbe813361278e565b60008281526065602090815260408083206001600160a01b038516845290915290205460ff16610b415760008281526065602090815260408083206001600160a01b03851684529091529020805460ff19166001179055611b5f3390565b6001600160a01b0316816001600160a01b0316837f2f8788117e7eff1d82e926ec794901d17c78024a50270940304540a733656f0d60405160405180910390a45050565b60008281526065602090815260408083206001600160a01b038516845290915290205460ff1615610b415760008281526065602090815260408083206001600160a01b0385168085529252808320805460ff1916905551339285917ff6391f5c32d9c69d2a47ea670b442974b53935d1edc7fd64eb21e047a839171b9190a45050565b6040516c55504752414445525f524f4c4560981b6020820152602d0160405160208183030381529060405280519060200120611c6181611af7565b6001600160a01b0382163b611cde5760405162461bcd60e51b815260206004820152602e60248201527f5643546f6b656e3a206e657720496d706c656d656e746174696f6e206d75737460448201527f206265206120636f6e74726163740000000000000000000000000000000000006064820152608401610927565b6001600160a01b038216610b415760405162461bcd60e51b815260206004820152601c60248201527f5643546f6b656e3a2073657420746f207a65726f2061646472657373000000006044820152606401610927565b7f4910fdfa16fed3260ed0e7147f7cc6da11a60208b5b9406d12a635614ffd91435460ff1615611d6757610ab4836127f9565b826001600160a01b03166352d1902d6040518163ffffffff1660e01b815260040160206040518083038186803b158015611da057600080fd5b505afa925050508015611dd0575060408051601f3d908101601f19168201909252611dcd91810190613887565b60015b611e425760405162461bcd60e51b815260206004820152602e60248201527f45524331393637557067726164653a206e657720696d706c656d656e7461746960448201527f6f6e206973206e6f7420555550530000000000000000000000000000000000006064820152608401610927565b7f360894a13ba1a3210667c828492db98dca3e2076cc3735a920a3ca505d382bbc8114611ed75760405162461bcd60e51b815260206004820152602960248201527f45524331393637557067726164653a20756e737570706f727465642070726f7860448201527f6961626c655555494400000000000000000000000000000000000000000000006064820152608401610927565b50610ab48383836128cf565b6000610a49611ef06126a3565b836040517f19010000000000000000000000000000000000000000000000000000000000006020820152602281018390526042810182905260009060620160405160208183030381529060405280519060200120905092915050565b60cb5460ff16611f9e5760405162461bcd60e51b815260206004820152601460248201527f5061757361626c653a206e6f74207061757365640000000000000000000000006044820152606401610927565b60cb805460ff191690557f5db9ee0a495bf2e6ff9c91a7834c1ba4fdd244a5e8aa4e537bd38aeae4b073aa335b6040516001600160a01b03909116815260200160405180910390a1565b600082815261016a60205260409020546120445760405162461bcd60e51b815260206004820152601360248201527f5643546f6b656e3a206e6f74206d696e746564000000000000000000000000006044820152606401610927565b6000339050612067818560008686604051806020016040528060008152506128f4565b50505050565b60008054610100900460ff161561210a578160ff1660011480156120905750303b155b6121025760405162461bcd60e51b815260206004820152602e60248201527f496e697469616c697a61626c653a20636f6e747261637420697320616c72656160448201527f647920696e697469616c697a65640000000000000000000000000000000000006064820152608401610927565b506000919050565b60005460ff8084169116106121875760405162461bcd60e51b815260206004820152602e60248201527f496e697469616c697a61626c653a20636f6e747261637420697320616c72656160448201527f647920696e697469616c697a65640000000000000000000000000000000000006064820152608401610927565b506000805460ff191660ff92909216919091179055600190565b919050565b600054610100900460ff166122115760405162461bcd60e51b815260206004820152602b60248201527f496e697469616c697a61626c653a20636f6e7472616374206973206e6f74206960448201526a6e697469616c697a696e6760a81b6064820152608401610927565b565b600054610100900460ff1661227e5760405162461bcd60e51b815260206004820152602b60248201527f496e697469616c697a61626c653a20636f6e7472616374206973206e6f74206960448201526a6e697469616c697a696e6760a81b6064820152608401610927565b612211612deb565b600054610100900460ff166122f15760405162461bcd60e51b815260206004820152602b60248201527f496e697469616c697a61626c653a20636f6e7472616374206973206e6f74206960448201526a6e697469616c697a696e6760a81b6064820152608401610927565b610b418282612e62565b600082815260656020526040808220600101805490849055905190918391839186917fbd79b86ffe0ab8e8776151514217cd7cacd52c909f66475c3af44e129f0b00ff9190a4505050565b610b418282611b01565b60cb5460ff16156123965760405162461bcd60e51b815260206004820152601060248201526f14185d5cd8589b194e881c185d5cd95960821b6044820152606401610927565b60cb805460ff191660011790557f62e78cea01bee320cd4e420270b5ea74000d11b0c9f74754ebdbfc544b05a258611fcb3390565b3360058411156124275760405162461bcd60e51b815260206004820152602160248201527f5643546f6b656e3a2072657175657374656420696420756e617661696c61626c6044820152606560f81b6064820152608401610927565b8360011415612512576001600160a01b0385163b6124875760405162461bcd60e51b815260206004820152601e60248201527f5643546f6b656e3a206d696e7420627573696e65737320746f207361666500006044820152606401610927565b336000908152610168602052604090205460ff1661250d5760405162461bcd60e51b815260206004820152603060248201527f5643546f6b656e3a206d696e746572206f6620627573696e65737320746f6b6560448201527f6e2069736e6f74207665726966696564000000000000000000000000000000006064820152608401610927565b61256a565b6001600160a01b038516331461256a5760405162461bcd60e51b815260206004820152601960248201527f5643543a206d696e7420746f2061646472657373206f6e6c79000000000000006044820152606401610927565b612579816000878787876128f4565b6118e481600087878787612ee7565b816001600160a01b0316836001600160a01b031614156126105760405162461bcd60e51b815260206004820152602960248201527f5643546f6b656e3a2073657474696e6720617070726f76616c2073746174757360448201527f20666f722073656c6600000000000000000000000000000000000000000000006064820152608401610927565b6001600160a01b03838116600081815261016c6020908152604080832094871680845294825291829020805460ff191686151590811790915591519182527f17307eab39ab6107e8899845ad3d59bd9653f200f220920489ca2b5937696c31910160405180910390a3505050565b3361268d8187878787876128f4565b61269b818787878787612ee7565b505050505050565b60006118007f8b73c3c69bb8fe3d512ecc4cf759cc79239f7b179b0ffacaa9a75d522b39400f6126d260975490565b6098546040805160208101859052908101839052606081018290524660808201523060a082015260009060c0016040516020818303038152906040528051906020012090509392505050565b6000808251604114156127555760208301516040840151606085015160001a612749878285856130ba565b94509450505050612787565b82516040141561277f57602083015160408401516127748683836131a7565b935093505050612787565b506000905060025b9250929050565b60008281526065602090815260408083206001600160a01b038516845290915290205460ff16610b41576127c38260206131f9565b6040516020016127d39190613945565b60408051601f198184030181529082905262461bcd60e51b825261092791600401613a0c565b6001600160a01b0381163b6128765760405162461bcd60e51b815260206004820152602d60248201527f455243313936373a206e657720696d706c656d656e746174696f6e206973206e60448201527f6f74206120636f6e7472616374000000000000000000000000000000000000006064820152608401610927565b7f360894a13ba1a3210667c828492db98dca3e2076cc3735a920a3ca505d382bbc80547fffffffffffffffffffffffff0000000000000000000000000000000000000000166001600160a01b0392909216919091179055565b6128d8836133da565b6000825111806128e55750805b15610ab457612067838361341a565b60cb5460ff16156129475760405162461bcd60e51b815260206004820152601a60248201527f5643546f6b656e3a206f7065726174696f6e73207061757365640000000000006044820152606401610927565b6001600160a01b03851615801561296657506001600160a01b03841615155b15612a1457600083815261016b602090815260408083206001600160a01b03881684529091528120805484929061299e908490613a1f565b9091555050600083815261016a6020526040812080548492906129c2908490613a1f565b909155505060408051848152602081018490526001600160a01b0380871692600092918a16917f1b3d7edb2e9c0b0e7c525b20aaaef0f5940d2ed71663c7d39266ecafac728859910160405180910390a45b6001600160a01b03851615801590612a3357506001600160a01b038416155b15612be857600083815261016a602052604090205482811015612abe5760405162461bcd60e51b815260206004820152602960248201527f5643546f6b656e3a206275726e20616d6f756e74206578636565647320746f7460448201527f616c20737570706c7900000000000000000000000000000000000000000000006064820152608401610927565b612ac88382613a56565b600085815261016a602090815260408083209390935561016b81528282206001600160a01b038a1683529052205483811015612b6b5760405162461bcd60e51b8152602060048201526024808201527f5643546f6b656e3a206275726e20616d6f756e7420657863656564732062616c60448201527f616e6365000000000000000000000000000000000000000000000000000000006064820152608401610927565b612b758482613a56565b600086815261016b602090815260408083206001600160a01b038c811680865291845282852095909555610169835281842084905581518a815292830189905292938c16917f1b3d7edb2e9c0b0e7c525b20aaaef0f5940d2ed71663c7d39266ecafac728859910160405180910390a450505b6001600160a01b03851615801590612c0857506001600160a01b03841615155b1561269b578260011415612d5157600083815261016b602090815260408083206001600160a01b038916845290915290205482811015612cb05760405162461bcd60e51b815260206004820152602860248201527f5643546f6b656e3a207472616e7366657220616d6f756e74206578636565647360448201527f2062616c616e63650000000000000000000000000000000000000000000000006064820152608401610927565b612cba8382613a56565b600085815261016b602090815260408083206001600160a01b038b81168552925280832093909355871681529081208054859290612cf9908490613a1f565b909155505060408051858152602081018590526001600160a01b038088169289821692918b16917f1b3d7edb2e9c0b0e7c525b20aaaef0f5940d2ed71663c7d39266ecafac728859910160405180910390a45061269b565b604080516001600160a01b03888116825287811660208301528616818301526060810185905290517f736fc97885d39c64c223b149d0a1e217c3b6f1580cdb6d91be94d41b8d6439799181900360800190a160405162461bcd60e51b815260206004820152601f60248201527f5643546f6b656e3a206f6e6c7920627573696e657373207472616e73666572006044820152606401610927565b600054610100900460ff16612e565760405162461bcd60e51b815260206004820152602b60248201527f496e697469616c697a61626c653a20636f6e7472616374206973206e6f74206960448201526a6e697469616c697a696e6760a81b6064820152608401610927565b60cb805460ff19169055565b600054610100900460ff16612ecd5760405162461bcd60e51b815260206004820152602b60248201527f496e697469616c697a61626c653a20636f6e7472616374206973206e6f74206960448201526a6e697469616c697a696e6760a81b6064820152608401610927565b815160209283012081519190920120609791909155609855565b6001600160a01b0384163b1561269b5760405163f23a6e6160e01b81526001600160a01b0385169063f23a6e6190612f2b90899089908890889088906004016139b0565b602060405180830381600087803b158015612f4557600080fd5b505af1925050508015612f75575060408051601f3d908101601f19168201909252612f72918101906138e0565b60015b61302b57612f81613b35565b806308c379a01415612fbb5750612f96613b50565b80612fa15750612fbd565b8060405162461bcd60e51b81526004016109279190613a0c565b505b60405162461bcd60e51b815260206004820152603460248201527f455243313135353a207472616e7366657220746f206e6f6e2d4552433131353560448201527f526563656976657220696d706c656d656e7465720000000000000000000000006064820152608401610927565b6001600160e01b0319811663f23a6e6160e01b146130b15760405162461bcd60e51b815260206004820152602860248201527f455243313135353a204552433131353552656365697665722072656a6563746560448201527f6420746f6b656e730000000000000000000000000000000000000000000000006064820152608401610927565b50505050505050565b6000807f7fffffffffffffffffffffffffffffff5d576e7357a4501ddfe92f46681b20a08311156130f1575060009050600361319e565b8460ff16601b1415801561310957508460ff16601c14155b1561311a575060009050600461319e565b6040805160008082526020820180845289905260ff881692820192909252606081018690526080810185905260019060a0016020604051602081039080840390855afa15801561316e573d6000803e3d6000fd5b5050604051601f1901519150506001600160a01b0381166131975760006001925092505061319e565b9150600090505b94509492505050565b6000807f7fffffffffffffffffffffffffffffffffffffffffffffffffffffffffffffff8316816131dd60ff86901c601b613a1f565b90506131eb878288856130ba565b935093505050935093915050565b60606000613208836002613a37565b613213906002613a1f565b67ffffffffffffffff81111561322b5761322b613b1f565b6040519080825280601f01601f191660200182016040528015613255576020820181803683370190505b5090507f30000000000000000000000000000000000000000000000000000000000000008160008151811061328c5761328c613b09565b60200101906001600160f81b031916908160001a9053507f7800000000000000000000000000000000000000000000000000000000000000816001815181106132d7576132d7613b09565b60200101906001600160f81b031916908160001a90535060006132fb846002613a37565b613306906001613a1f565b90505b600181111561338b577f303132333435363738396162636465660000000000000000000000000000000085600f166010811061334757613347613b09565b1a60f81b82828151811061335d5761335d613b09565b60200101906001600160f81b031916908160001a90535060049490941c9361338481613a99565b9050613309565b5083156109d05760405162461bcd60e51b815260206004820181905260248201527f537472696e67733a20686578206c656e67746820696e73756666696369656e746044820152606401610927565b6133e3816127f9565b6040516001600160a01b038216907fbc7cd75a20ee27fd9adebab32041f755214dbc6bffa90cc0225b39da2e5c2d3b90600090a250565b60606001600160a01b0383163b6134995760405162461bcd60e51b815260206004820152602660248201527f416464726573733a2064656c65676174652063616c6c20746f206e6f6e2d636f60448201527f6e747261637400000000000000000000000000000000000000000000000000006064820152608401610927565b600080846001600160a01b0316846040516134b49190613929565b600060405180830381855af49150503d80600081146134ef576040519150601f19603f3d011682016040523d82523d6000602084013e6134f4565b606091505b509150915061351c8282604051806060016040528060278152602001613c5160279139613525565b95945050505050565b606083156135345750816109d0565b8251156135445782518084602001fd5b8160405162461bcd60e51b81526004016109279190613a0c565b80356001600160a01b03811681146121a157600080fd5b600082601f83011261358657600080fd5b813567ffffffffffffffff8111156135a0576135a0613b1f565b6040516135b7601f8301601f191660200182613ab0565b8181528460208386010111156135cc57600080fd5b816020850160208301376000918101602001919091529392505050565b6000602082840312156135fb57600080fd5b6109d08261355e565b6000806040838503121561361757600080fd5b6136208361355e565b915061362e6020840161355e565b90509250929050565b600080600080600060a0868803121561364f57600080fd5b6136588661355e565b94506136666020870161355e565b93506040860135925060608601359150608086013567ffffffffffffffff81111561369057600080fd5b61369c88828901613575565b9150509295509295909350565b600080604083850312156136bc57600080fd5b6136c58361355e565b9150602083013580151581146136da57600080fd5b809150509250929050565b6000806000606084860312156136fa57600080fd5b6137038461355e565b925060208401359150604084013567ffffffffffffffff81111561372657600080fd5b61373286828701613575565b9150509250925092565b6000806040838503121561374f57600080fd5b6137588361355e565b9150602083013567ffffffffffffffff81111561377457600080fd5b61378085828601613575565b9150509250929050565b6000806040838503121561379d57600080fd5b6137a68361355e565b946020939093013593505050565b600080600080606085870312156137ca57600080fd5b6137d38561355e565b935060208501359250604085013567ffffffffffffffff808211156137f757600080fd5b818701915087601f83011261380b57600080fd5b81358181111561381a57600080fd5b88602082850101111561382c57600080fd5b95989497505060200194505050565b60008060006060848603121561385057600080fd5b6138598461355e565b95602085013595506040909401359392505050565b60006020828403121561388057600080fd5b5035919050565b60006020828403121561389957600080fd5b5051919050565b600080604083850312156138b357600080fd5b8235915061362e6020840161355e565b6000602082840312156138d557600080fd5b81356109d081613bda565b6000602082840312156138f257600080fd5b81516109d081613bda565b60008151808452613915816020860160208601613a6d565b601f01601f19169290920160200192915050565b6000825161393b818460208701613a6d565b9190910192915050565b7f416363657373436f6e74726f6c3a206163636f756e742000000000000000000081527f206973206d697373696e6720726f6c65200000000000000000000000000000006017820152600082516139a3816028850160208701613a6d565b9190910160280192915050565b60006001600160a01b03808816835280871660208401525084604083015283606083015260a060808301526139e860a08301846138fd565b979650505050505050565b8281526040602082015260006109cd60408301846138fd565b6020815260006109d060208301846138fd565b60008219821115613a3257613a32613add565b500190565b6000816000190483118215151615613a5157613a51613add565b500290565b600082821015613a6857613a68613add565b500390565b60005b83811015613a88578181015183820152602001613a70565b838111156120675750506000910152565b600081613aa857613aa8613add565b506000190190565b601f8201601f1916810167ffffffffffffffff81118282101715613ad657613ad6613b1f565b6040525050565b634e487b7160e01b600052601160045260246000fd5b634e487b7160e01b600052602160045260246000fd5b634e487b7160e01b600052603260045260246000fd5b634e487b7160e01b600052604160045260246000fd5b600060033d111561111b5760046000803e5060005160e01c90565b600060443d1015613b5e5790565b6040516003193d81016004833e81513d67ffffffffffffffff8160248401118184111715613b8e57505050505090565b8285019150815181811115613ba65750505050505090565b843d8701016020828501011115613bc05750505050505090565b613bcf60208286010187613ab0565b509095945050505050565b6001600160e01b031981168114610cbe57600080fdfe687474703a2f2f626166796265696871703564636e686e73707768733366716834746d7a776575366e77333369756b7836693473716e763476776564337a757763342e697066732e6c6f63616c686f73743a383038302f7b69647d2e6a736f6e416464726573733a206c6f772d6c6576656c2064656c65676174652063616c6c206661696c6564a264697066735822122052b34498ed18540492cb96304fbb42a6987afa33aa5421bb9517313a2c008ec864736f6c63430008070033",
  "linkReferences": {},
  "deployedLinkReferences": {}
}