{
  "_format": "hh-sol-artifact-1",
  "contractName": "VCToken",
  "sourceName": "contracts/VCToken.sol",
  "abi": [
    {
      "anonymous": false,
      "inputs": [
        {
          "indexed": false,
          "internalType": "address",
          "name": "previousAdmin",
          "type": "address"
        },
        {
          "indexed": false,
          "internalType": "address",
          "name": "newAdmin",
          "type": "address"
        }
      ],
      "name": "AdminChanged",
      "type": "event"
    },
    {
      "anonymous": false,
      "inputs": [
        {
          "indexed": true,
          "internalType": "address",
          "name": "account",
          "type": "address"
        },
        {
          "indexed": true,
          "internalType": "address",
          "name": "operator",
          "type": "address"
        },
        {
          "indexed": false,
          "internalType": "bool",
          "name": "approved",
          "type": "bool"
        }
      ],
      "name": "ApprovalForAll",
      "type": "event"
    },
    {
      "anonymous": false,
      "inputs": [
        {
          "indexed": true,
          "internalType": "address",
          "name": "beacon",
          "type": "address"
        }
      ],
      "name": "BeaconUpgraded",
      "type": "event"
    },
    {
      "anonymous": false,
      "inputs": [
        {
          "indexed": false,
          "internalType": "address",
          "name": "operator",
          "type": "address"
        },
        {
          "indexed": false,
          "internalType": "address",
          "name": "from",
          "type": "address"
        },
        {
          "indexed": false,
          "internalType": "address",
          "name": "to",
          "type": "address"
        },
        {
          "indexed": false,
          "internalType": "uint256",
          "name": "id",
          "type": "uint256"
        }
      ],
      "name": "FailedTransfer",
      "type": "event"
    },
    {
      "anonymous": false,
      "inputs": [
        {
          "indexed": false,
          "internalType": "uint8",
          "name": "version",
          "type": "uint8"
        }
      ],
      "name": "Initialized",
      "type": "event"
    },
    {
      "anonymous": false,
      "inputs": [
        {
          "indexed": true,
          "internalType": "bytes32",
          "name": "role",
          "type": "bytes32"
        },
        {
          "indexed": true,
          "internalType": "bytes32",
          "name": "previousAdminRole",
          "type": "bytes32"
        },
        {
          "indexed": true,
          "internalType": "bytes32",
          "name": "newAdminRole",
          "type": "bytes32"
        }
      ],
      "name": "RoleAdminChanged",
      "type": "event"
    },
    {
      "anonymous": false,
      "inputs": [
        {
          "indexed": true,
          "internalType": "bytes32",
          "name": "role",
          "type": "bytes32"
        },
        {
          "indexed": true,
          "internalType": "address",
          "name": "account",
          "type": "address"
        },
        {
          "indexed": true,
          "internalType": "address",
          "name": "sender",
          "type": "address"
        }
      ],
      "name": "RoleGranted",
      "type": "event"
    },
    {
      "anonymous": false,
      "inputs": [
        {
          "indexed": true,
          "internalType": "bytes32",
          "name": "role",
          "type": "bytes32"
        },
        {
          "indexed": true,
          "internalType": "address",
          "name": "account",
          "type": "address"
        },
        {
          "indexed": true,
          "internalType": "address",
          "name": "sender",
          "type": "address"
        }
      ],
      "name": "RoleRevoked",
      "type": "event"
    },
    {
      "anonymous": false,
      "inputs": [
        {
          "indexed": true,
          "internalType": "address",
          "name": "operator",
          "type": "address"
        },
        {
          "indexed": true,
          "internalType": "address",
          "name": "from",
          "type": "address"
        },
        {
          "indexed": true,
          "internalType": "address",
          "name": "to",
          "type": "address"
        },
        {
          "indexed": false,
          "internalType": "uint256",
          "name": "id",
          "type": "uint256"
        },
        {
          "indexed": false,
          "internalType": "uint256",
          "name": "value",
          "type": "uint256"
        }
      ],
      "name": "Transfer",
      "type": "event"
    },
    {
      "anonymous": false,
      "inputs": [
        {
          "indexed": false,
          "internalType": "string",
          "name": "value",
          "type": "string"
        },
        {
          "indexed": true,
          "internalType": "uint256",
          "name": "id",
          "type": "uint256"
        }
      ],
      "name": "URI",
      "type": "event"
    },
    {
      "anonymous": false,
      "inputs": [
        {
          "indexed": true,
          "internalType": "address",
          "name": "implementation",
          "type": "address"
        }
      ],
      "name": "Upgraded",
      "type": "event"
    },
    {
      "inputs": [],
      "name": "ADMIN_ROLE",
      "outputs": [
        {
          "internalType": "bytes32",
          "name": "",
          "type": "bytes32"
        }
      ],
      "stateMutability": "view",
      "type": "function"
    },
    {
      "inputs": [],
      "name": "BUSINESS",
      "outputs": [
        {
          "internalType": "uint256",
          "name": "",
          "type": "uint256"
        }
      ],
      "stateMutability": "view",
      "type": "function"
    },
    {
      "inputs": [],
      "name": "DEFAULT_ADMIN_ROLE",
      "outputs": [
        {
          "internalType": "bytes32",
          "name": "",
          "type": "bytes32"
        }
      ],
      "stateMutability": "view",
      "type": "function"
    },
    {
      "inputs": [],
      "name": "INT_ACCREDITED_INVESTOR",
      "outputs": [
        {
          "internalType": "uint256",
          "name": "",
          "type": "uint256"
        }
      ],
      "stateMutability": "view",
      "type": "function"
    },
    {
      "inputs": [],
      "name": "INT_PERSON",
      "outputs": [
        {
          "internalType": "uint256",
          "name": "",
          "type": "uint256"
        }
      ],
      "stateMutability": "view",
      "type": "function"
    },
    {
      "inputs": [],
      "name": "MINTER_ROLE",
      "outputs": [
        {
          "internalType": "bytes32",
          "name": "",
          "type": "bytes32"
        }
      ],
      "stateMutability": "view",
      "type": "function"
    },
    {
      "inputs": [],
      "name": "US_ACCREDITED_INVESTOR",
      "outputs": [
        {
          "internalType": "uint256",
          "name": "",
          "type": "uint256"
        }
      ],
      "stateMutability": "view",
      "type": "function"
    },
    {
      "inputs": [],
      "name": "US_PERSON",
      "outputs": [
        {
          "internalType": "uint256",
          "name": "",
          "type": "uint256"
        }
      ],
      "stateMutability": "view",
      "type": "function"
    },
    {
      "inputs": [],
      "name": "__VCToken_init",
      "outputs": [],
      "stateMutability": "nonpayable",
      "type": "function"
    },
    {
      "inputs": [
        {
          "internalType": "address",
          "name": "account",
          "type": "address"
        },
        {
          "internalType": "uint256",
          "name": "id",
          "type": "uint256"
        }
      ],
      "name": "balanceOf",
      "outputs": [
        {
          "internalType": "uint256",
          "name": "",
          "type": "uint256"
        }
      ],
      "stateMutability": "view",
      "type": "function"
    },
    {
      "inputs": [
        {
          "internalType": "address",
          "name": "from",
          "type": "address"
        },
        {
          "internalType": "uint256",
          "name": "id",
          "type": "uint256"
        },
        {
          "internalType": "bytes",
          "name": "signature",
          "type": "bytes"
        }
      ],
      "name": "burn",
      "outputs": [],
      "stateMutability": "nonpayable",
      "type": "function"
    },
    {
      "inputs": [],
      "name": "chainId",
      "outputs": [
        {
          "internalType": "uint256",
          "name": "",
          "type": "uint256"
        }
      ],
      "stateMutability": "view",
      "type": "function"
    },
    {
      "inputs": [],
      "name": "domainSeparator",
      "outputs": [
        {
          "internalType": "bytes32",
          "name": "",
          "type": "bytes32"
        }
      ],
      "stateMutability": "view",
      "type": "function"
    },
    {
      "inputs": [
        {
          "internalType": "address",
          "name": "from",
          "type": "address"
        },
        {
          "internalType": "uint256",
          "name": "id",
          "type": "uint256"
        },
        {
          "internalType": "uint256",
          "name": "_nonce",
          "type": "uint256"
        }
      ],
      "name": "getBurnHash",
      "outputs": [
        {
          "internalType": "bytes32",
          "name": "",
          "type": "bytes32"
        }
      ],
      "stateMutability": "view",
      "type": "function"
    },
    {
      "inputs": [
        {
          "internalType": "uint256",
          "name": "clientId",
          "type": "uint256"
        }
      ],
      "name": "getClientAddress",
      "outputs": [
        {
          "internalType": "address",
          "name": "",
          "type": "address"
        }
      ],
      "stateMutability": "view",
      "type": "function"
    },
    {
      "inputs": [
        {
          "internalType": "address",
          "name": "safeAddr",
          "type": "address"
        },
        {
          "internalType": "uint256",
          "name": "id",
          "type": "uint256"
        },
        {
          "internalType": "uint256",
          "name": "_nonce",
          "type": "uint256"
        }
      ],
      "name": "getMintHash",
      "outputs": [
        {
          "internalType": "bytes32",
          "name": "",
          "type": "bytes32"
        }
      ],
      "stateMutability": "view",
      "type": "function"
    },
    {
      "inputs": [
        {
          "internalType": "address",
          "name": "account",
          "type": "address"
        }
      ],
      "name": "getNonce",
      "outputs": [
        {
          "internalType": "uint256",
          "name": "",
          "type": "uint256"
        }
      ],
      "stateMutability": "view",
      "type": "function"
    },
    {
      "inputs": [
        {
          "internalType": "bytes32",
          "name": "role",
          "type": "bytes32"
        }
      ],
      "name": "getRoleAdmin",
      "outputs": [
        {
          "internalType": "bytes32",
          "name": "",
          "type": "bytes32"
        }
      ],
      "stateMutability": "view",
      "type": "function"
    },
    {
      "inputs": [
        {
          "internalType": "bytes32",
          "name": "role",
          "type": "bytes32"
        },
        {
          "internalType": "address",
          "name": "account",
          "type": "address"
        }
      ],
      "name": "grantRole",
      "outputs": [],
      "stateMutability": "nonpayable",
      "type": "function"
    },
    {
      "inputs": [
        {
          "internalType": "bytes32",
          "name": "role",
          "type": "bytes32"
        },
        {
          "internalType": "address",
          "name": "account",
          "type": "address"
        }
      ],
      "name": "hasRole",
      "outputs": [
        {
          "internalType": "bool",
          "name": "",
          "type": "bool"
        }
      ],
      "stateMutability": "view",
      "type": "function"
    },
    {
      "inputs": [
        {
          "internalType": "address",
          "name": "account",
          "type": "address"
        },
        {
          "internalType": "address",
          "name": "operator",
          "type": "address"
        }
      ],
      "name": "isApprovedForAll",
      "outputs": [
        {
          "internalType": "bool",
          "name": "",
          "type": "bool"
        }
      ],
      "stateMutability": "view",
      "type": "function"
    },
    {
      "inputs": [
        {
          "internalType": "address",
          "name": "safeAddr",
          "type": "address"
        },
        {
          "internalType": "uint256",
          "name": "id",
          "type": "uint256"
        },
        {
          "internalType": "bytes",
          "name": "signature",
          "type": "bytes"
        }
      ],
      "name": "mint",
      "outputs": [],
      "stateMutability": "nonpayable",
      "type": "function"
    },
    {
      "inputs": [
        {
          "internalType": "uint256",
          "name": "id",
          "type": "uint256"
        }
      ],
      "name": "minted",
      "outputs": [
        {
          "internalType": "bool",
          "name": "",
          "type": "bool"
        }
      ],
      "stateMutability": "view",
      "type": "function"
    },
    {
      "inputs": [],
      "name": "name",
      "outputs": [
        {
          "internalType": "string",
          "name": "",
          "type": "string"
        }
      ],
      "stateMutability": "pure",
      "type": "function"
    },
    {
      "inputs": [],
      "name": "proxiableUUID",
      "outputs": [
        {
          "internalType": "bytes32",
          "name": "",
          "type": "bytes32"
        }
      ],
      "stateMutability": "view",
      "type": "function"
    },
    {
      "inputs": [
        {
          "internalType": "bytes32",
          "name": "role",
          "type": "bytes32"
        },
        {
          "internalType": "address",
          "name": "account",
          "type": "address"
        }
      ],
      "name": "renounceRole",
      "outputs": [],
      "stateMutability": "nonpayable",
      "type": "function"
    },
    {
      "inputs": [
        {
          "internalType": "bytes32",
          "name": "role",
          "type": "bytes32"
        },
        {
          "internalType": "address",
          "name": "account",
          "type": "address"
        }
      ],
      "name": "revokeRole",
      "outputs": [],
      "stateMutability": "nonpayable",
      "type": "function"
    },
    {
      "inputs": [
        {
          "internalType": "address",
          "name": "from",
          "type": "address"
        },
        {
          "internalType": "address",
          "name": "to",
          "type": "address"
        },
        {
          "internalType": "uint256",
          "name": "id",
          "type": "uint256"
        },
        {
          "internalType": "uint256",
          "name": "amount",
          "type": "uint256"
        },
        {
          "internalType": "bytes",
          "name": "data",
          "type": "bytes"
        }
      ],
      "name": "safeTransferFrom",
      "outputs": [],
      "stateMutability": "nonpayable",
      "type": "function"
    },
    {
      "inputs": [
        {
          "internalType": "address",
          "name": "operator",
          "type": "address"
        },
        {
          "internalType": "bool",
          "name": "approved",
          "type": "bool"
        }
      ],
      "name": "setApprovalForAll",
      "outputs": [],
      "stateMutability": "nonpayable",
      "type": "function"
    },
    {
      "inputs": [
        {
          "internalType": "address",
          "name": "signer",
          "type": "address"
        }
      ],
      "name": "setMinter",
      "outputs": [
        {
          "internalType": "uint256",
          "name": "",
          "type": "uint256"
        }
      ],
      "stateMutability": "nonpayable",
      "type": "function"
    },
    {
      "inputs": [
        {
          "internalType": "bytes4",
          "name": "interfaceId",
          "type": "bytes4"
        }
      ],
      "name": "supportsInterface",
      "outputs": [
        {
          "internalType": "bool",
          "name": "",
          "type": "bool"
        }
      ],
      "stateMutability": "view",
      "type": "function"
    },
    {
      "inputs": [],
      "name": "symbol",
      "outputs": [
        {
          "internalType": "string",
          "name": "",
          "type": "string"
        }
      ],
      "stateMutability": "pure",
      "type": "function"
    },
    {
      "inputs": [
        {
          "internalType": "uint256",
          "name": "id",
          "type": "uint256"
        }
      ],
      "name": "totalSupply",
      "outputs": [
        {
          "internalType": "uint256",
          "name": "",
          "type": "uint256"
        }
      ],
      "stateMutability": "view",
      "type": "function"
    },
    {
      "inputs": [
        {
          "internalType": "address",
          "name": "from",
          "type": "address"
        },
        {
          "internalType": "address",
          "name": "to",
          "type": "address"
        },
        {
          "internalType": "uint256",
          "name": "id",
          "type": "uint256"
        }
      ],
      "name": "transfer",
      "outputs": [],
      "stateMutability": "nonpayable",
      "type": "function"
    },
    {
      "inputs": [
        {
          "internalType": "address",
          "name": "newImplementation",
          "type": "address"
        }
      ],
      "name": "upgradeTo",
      "outputs": [],
      "stateMutability": "nonpayable",
      "type": "function"
    },
    {
      "inputs": [
        {
          "internalType": "address",
          "name": "newImplementation",
          "type": "address"
        },
        {
          "internalType": "bytes",
          "name": "data",
          "type": "bytes"
        }
      ],
      "name": "upgradeToAndCall",
      "outputs": [],
      "stateMutability": "payable",
      "type": "function"
    },
    {
      "inputs": [
        {
          "internalType": "uint256",
          "name": "",
          "type": "uint256"
        }
      ],
      "name": "uri",
      "outputs": [
        {
          "internalType": "string",
          "name": "",
          "type": "string"
        }
      ],
      "stateMutability": "view",
      "type": "function"
    },
    {
      "inputs": [
        {
          "internalType": "address",
          "name": "signer",
          "type": "address"
        },
        {
          "internalType": "bytes32",
          "name": "txHash",
          "type": "bytes32"
        },
        {
          "internalType": "bytes",
          "name": "signature",
          "type": "bytes"
        }
      ],
      "name": "verifySignature",
      "outputs": [
        {
          "internalType": "bool",
          "name": "",
          "type": "bool"
        }
      ],
      "stateMutability": "view",
      "type": "function"
    }
  ],
  "bytecode": "0x60a06040523060601b60805234801561001757600080fd5b5060805160601c612edc6100526000396000818161094a0152818161098a01528181610b0a01528181610b4a0152610c310152612edc6000f3fe6080604052600436106102245760003560e01c806394d008ef11610123578063d5391393116100ab578063ec34d3141161006f578063ec34d314146106e4578063f242432a146106f9578063f698da2514610719578063fca3b5aa1461072e578063ff26d4381461074e57600080fd5b8063d53913931461062e578063d547741f14610650578063dc1a188014610670578063e36c845014610685578063e985e9c51461069a57600080fd5b8063a22cb465116100f2578063a22cb46514610596578063bd85b039146105b6578063beabacc8146105e4578063c0b86b3c14610604578063cc10b4261461061957600080fd5b806394d008ef1461052257806395d89b41146105425780639a8a05921461056e578063a217fddf1461058157600080fd5b80633659cfe6116101b15780634ffd7d54116101755780634ffd7d541461047b57806352d1902d1461049b57806375b238fc146104b05780637dc0bf3f146104d257806391d148541461050257600080fd5b80633659cfe6146103b957806339330b3c146103d957806344d17187146103f95780634f1ef286146104195780634f4beaac1461042c57600080fd5b80630e89341c116101f85780630e89341c146102e5578063248a9ca3146103275780632d0335ab146103575780632f2ff15d1461037757806336568abe1461039957600080fd5b8062fdd58e14610229578063017519981461025c57806301ffc9a71461028c57806306fdde03146102ac575b600080fd5b34801561023557600080fd5b5061024961024436600461287c565b610763565b6040519081526020015b60405180910390f35b34801561026857600080fd5b5061027c6102773660046127d7565b6107fc565b6040519015158152602001610253565b34801561029857600080fd5b5061027c6102a73660046129b5565b610832565b3480156102b857600080fd5b506040805180820190915260078152662b21aa37b5b2b760c91b60208201525b6040516102539190612b0a565b3480156102f157600080fd5b506102d8610300366004612960565b5060408051808201909152600c81526b7777772e736168652e636f6d60a01b602082015290565b34801561033357600080fd5b50610249610342366004612960565b60009081526065602052604090206001015490565b34801561036357600080fd5b5061024961037236600461269f565b610878565b34801561038357600080fd5b50610397610392366004612992565b610897565b005b3480156103a557600080fd5b506103976103b4366004612992565b6108c1565b3480156103c557600080fd5b506103976103d436600461269f565b61093f565b3480156103e557600080fd5b506102496103f436600461292d565b610a1f565b34801561040557600080fd5b506103976104143660046128a6565b610a8e565b61039761042736600461282e565b610aff565b34801561043857600080fd5b50610463610447366004612960565b600090815261013760205260409020546001600160a01b031690565b6040516001600160a01b039091168152602001610253565b34801561048757600080fd5b5061024961049636600461292d565b610bcc565b3480156104a757600080fd5b50610249610c24565b3480156104bc57600080fd5b50610249600080516020612e8783398151915281565b3480156104de57600080fd5b5061027c6104ed366004612960565b60009081526101386020526040902054151590565b34801561050e57600080fd5b5061027c61051d366004612992565b610cd8565b34801561052e57600080fd5b5061039761053d3660046128a6565b610d03565b34801561054e57600080fd5b506040805180820190915260038152621590d560ea1b60208201526102d8565b34801561057a57600080fd5b5046610249565b34801561058d57600080fd5b50610249600081565b3480156105a257600080fd5b506103976105b136600461279b565b610e5f565b3480156105c257600080fd5b506102496105d1366004612960565b6000908152610138602052604090205490565b3480156105f057600080fd5b506103976105ff3660046126ed565b610e6a565b34801561061057600080fd5b50610249600581565b34801561062557600080fd5b50610397610e87565b34801561063a57600080fd5b50610249600080516020612e6783398151915281565b34801561065c57600080fd5b5061039761066b366004612992565b610f8f565b34801561067c57600080fd5b50610249600381565b34801561069157600080fd5b50610249600181565b3480156106a657600080fd5b5061027c6106b53660046126ba565b6001600160a01b03918216600090815261013a6020908152604080832093909416825291909152205460ff1690565b3480156106f057600080fd5b50610249600281565b34801561070557600080fd5b50610397610714366004612729565b610fb4565b34801561072557600080fd5b50610249611047565b34801561073a57600080fd5b5061024961074936600461269f565b611056565b34801561075a57600080fd5b50610249600481565b60006001600160a01b0383166107d35760405162461bcd60e51b815260206004820152602a60248201527f5643546f6b656e3a2061646472657373207a65726f206973206e6f742061207660448201526930b634b21037bbb732b960b11b60648201526084015b60405180910390fd5b506000908152610139602090815260408083206001600160a01b03949094168352929052205490565b6000610816600080516020612e6783398151915285610cd8565b80156108285750610828848484611129565b90505b9392505050565b60006001600160e01b0319821663125d5d2d60e11b148061086357506001600160e01b0319821663da8def7360e01b145b80610872575061087282611275565b92915050565b6001600160a01b03811660009081526101366020526040812054610872565b6000828152606560205260409020600101546108b2816112aa565b6108bc83836112b4565b505050565b6001600160a01b03811633146109315760405162461bcd60e51b815260206004820152602f60248201527f416363657373436f6e74726f6c3a2063616e206f6e6c792072656e6f756e636560448201526e103937b632b9903337b91039b2b63360891b60648201526084016107ca565b61093b828261133a565b5050565b306001600160a01b037f00000000000000000000000000000000000000000000000000000000000000001614156109885760405162461bcd60e51b81526004016107ca90612b1d565b7f00000000000000000000000000000000000000000000000000000000000000006001600160a01b03166109d1600080516020612e20833981519152546001600160a01b031690565b6001600160a01b0316146109f75760405162461bcd60e51b81526004016107ca90612b69565b610a00816113a1565b60408051600080825260208201909252610a1c91839190611479565b50565b604080517f65ec0a3d9b23902e2fe999689a69e8e5ad5bcaab57b8635aec70eaae30d3d87f60208201526001600160a01b0385169181019190915260608101839052608081018290526000906108289060a0015b604051602081830303815290604052805190602001206115f3565b336000610a9f86866103f485611641565b9050610ae2828286868080601f0160208091040260200160405190810160405280939291908181526020018383808284376000920191909152506107fc92505050565b610aeb57600080fd5b610af786866001611668565b505050505050565b306001600160a01b037f0000000000000000000000000000000000000000000000000000000000000000161415610b485760405162461bcd60e51b81526004016107ca90612b1d565b7f00000000000000000000000000000000000000000000000000000000000000006001600160a01b0316610b91600080516020612e20833981519152546001600160a01b031690565b6001600160a01b031614610bb75760405162461bcd60e51b81526004016107ca90612b69565b610bc0826113a1565b61093b82826001611479565b604080517f279388c14884869d3e0da2f2cfb5b39b078ff26698c43946808e11962eb61cad60208201526001600160a01b0385169181019190915260608101839052608081018290526000906108289060a001610a73565b6000306001600160a01b037f00000000000000000000000000000000000000000000000000000000000000001614610cc45760405162461bcd60e51b815260206004820152603860248201527f555550535570677261646561626c653a206d757374206e6f742062652063616c60448201527f6c6564207468726f7567682064656c656761746563616c6c000000000000000060648201526084016107ca565b50600080516020612e208339815191525b90565b60009182526065602090815260408084206001600160a01b0393909316845291905290205460ff1690565b600062093a8061013554610d179190612c4e565b9050804210610d5b5760405162461bcd60e51b815260206004820152601060248201526f6578706972656420646561646c696e6560801b60448201526064016107ca565b6001600160a01b0385163b610da65760405162461bcd60e51b81526020600482015260116024820152706d696e742069732073616665206f6e6c7960781b60448201526064016107ca565b336000610db7878761049685611641565b9050610dfa828287878080601f0160208091040260200160405190810160405280939291908181526020018383808284376000920191909152506107fc92505050565b610e3a5760405162461bcd60e51b8152602060048201526011602482015270696e76616c6964207369676e617475726560781b60448201526064016107ca565b610e5687876001604051806020016040528060008152506116e3565b50505050505050565b61093b33838361175d565b6108bc83838360016040518060200160405280600081525061183f565b6000610e93600161185c565b90508015610eab576000805461ff0019166101001790555b610eb36118e9565b610ebb6118e9565b610f01604051806040016040528060078152602001662b21aa37b5b2b760c91b815250604051806040016040528060058152602001640312e302e360dc1b815250611912565b610f096118e9565b610f2f600080516020612e67833981519152600080516020612e87833981519152611943565b610f47600080516020612e878339815191523361198e565b8015610a1c576000805461ff0019169055604051600181527f7f26b83ff96e1f2b6a682f133852f6798a09c465da95921460cefb38474024989060200160405180910390a150565b600082815260656020526040902060010154610faa816112aa565b6108bc838361133a565b6001600160a01b038516331480610fd05750610fd085336106b5565b6110335760405162461bcd60e51b815260206004820152602e60248201527f5643546f6b656e3a2063616c6c6572206973206e6f7420746f6b656e206f776e60448201526d195c881bdc88185c1c1c9bdd995960921b60648201526084016107ca565b611040858585858561183f565b5050505050565b6000611051611998565b905090565b6000600080516020612e87833981519152611070816112aa565b6001600160a01b0383166110be5760405162461bcd60e51b81526020600482015260156024820152746e6f6e207a65726f2061646472657373206f6e6c7960581b60448201526064016107ca565b6110cd61012f80546001019055565b60006110d961012f5490565b60008181526101376020526040902080546001600160a01b0319166001600160a01b03871617905542610135559050611120600080516020612e67833981519152856112b4565b91505b50919050565b60008060006111388585611a13565b9092509050600081600481111561115157611151612d22565b14801561116f5750856001600160a01b0316826001600160a01b0316145b1561117f5760019250505061082b565b600080876001600160a01b0316631626ba7e60e01b88886040516024016111a7929190612af1565b60408051601f198184030181529181526020820180516001600160e01b03166001600160e01b03199094169390931790925290516111e59190612a1b565b600060405180830381855afa9150503d8060008114611220576040519150601f19603f3d011682016040523d82523d6000602084013e611225565b606091505b5091509150818015611238575080516020145b801561126957508051630b135d3f60e11b9061125d90830160209081019084016129d2565b6001600160e01b031916145b98975050505050505050565b60006001600160e01b03198216637965db0b60e01b148061087257506301ffc9a760e01b6001600160e01b0319831614610872565b610a1c8133611a83565b6112be8282610cd8565b61093b5760008281526065602090815260408083206001600160a01b03851684529091529020805460ff191660011790556112f63390565b6001600160a01b0316816001600160a01b0316837f2f8788117e7eff1d82e926ec794901d17c78024a50270940304540a733656f0d60405160405180910390a45050565b6113448282610cd8565b1561093b5760008281526065602090815260408083206001600160a01b0385168085529252808320805460ff1916905551339285917ff6391f5c32d9c69d2a47ea670b442974b53935d1edc7fd64eb21e047a839171b9190a45050565b600080516020612e878339815191526113b9816112aa565b6001600160a01b0382163b6114235760405162461bcd60e51b815260206004820152602a60248201527f4e46543a206e657720496d706c656d656e746174696f6e206d75737420626520604482015269184818dbdb9d1c9858dd60b21b60648201526084016107ca565b6001600160a01b03821661093b5760405162461bcd60e51b815260206004820152601860248201527f4e46543a2073657420746f207a65726f2061646472657373000000000000000060448201526064016107ca565b7f4910fdfa16fed3260ed0e7147f7cc6da11a60208b5b9406d12a635614ffd91435460ff16156114ac576108bc83611ae7565b826001600160a01b03166352d1902d6040518163ffffffff1660e01b815260040160206040518083038186803b1580156114e557600080fd5b505afa925050508015611515575060408051601f3d908101601f1916820190925261151291810190612979565b60015b6115785760405162461bcd60e51b815260206004820152602e60248201527f45524331393637557067726164653a206e657720696d706c656d656e7461746960448201526d6f6e206973206e6f74205555505360901b60648201526084016107ca565b600080516020612e2083398151915281146115e75760405162461bcd60e51b815260206004820152602960248201527f45524331393637557067726164653a20756e737570706f727465642070726f786044820152681a58589b195555525160ba1b60648201526084016107ca565b506108bc838383611b83565b6000610872611600611998565b8360405161190160f01b6020820152602281018390526042810182905260009060620160405160208183030381529060405280519060200120905092915050565b6001600160a01b038116600090815261013660205260409020805460018101825590611123565b600082815261013860205260409020546116ba5760405162461bcd60e51b81526020600482015260136024820152721590d51bdad95b8e881b9bdd081b5a5b9d1959606a1b60448201526064016107ca565b60003390506116dd81856000868660405180602001604052806000815250611ba8565b50505050565b600583111561173e5760405162461bcd60e51b815260206004820152602160248201527f5643546f6b656e3a2072657175657374656420696420756e617661696c61626c6044820152606560f81b60648201526084016107ca565b3361174e81600087878787611ba8565b61104081600087878787611ff8565b816001600160a01b0316836001600160a01b031614156117d15760405162461bcd60e51b815260206004820152602960248201527f5643546f6b656e3a2073657474696e6720617070726f76616c20737461747573604482015268103337b91039b2b63360b91b60648201526084016107ca565b6001600160a01b03838116600081815261013a6020908152604080832094871680845294825291829020805460ff191686151590811790915591519182527f17307eab39ab6107e8899845ad3d59bd9653f200f220920489ca2b5937696c31910160405180910390a3505050565b3361184e818787878787611ba8565b610af7818787878787611ff8565b60008054610100900460ff16156118a3578160ff16600114801561187f5750303b155b61189b5760405162461bcd60e51b81526004016107ca90612bb5565b506000919050565b60005460ff8084169116106118ca5760405162461bcd60e51b81526004016107ca90612bb5565b506000805460ff191660ff92909216919091179055600190565b919050565b600054610100900460ff166119105760405162461bcd60e51b81526004016107ca90612c03565b565b600054610100900460ff166119395760405162461bcd60e51b81526004016107ca90612c03565b61093b82826121a4565b600082815260656020526040808220600101805490849055905190918391839186917fbd79b86ffe0ab8e8776151514217cd7cacd52c909f66475c3af44e129f0b00ff9190a4505050565b61093b82826112b4565b60006110517f8b73c3c69bb8fe3d512ecc4cf759cc79239f7b179b0ffacaa9a75d522b39400f6119c760975490565b6098546040805160208101859052908101839052606081018290524660808201523060a082015260009060c0016040516020818303038152906040528051906020012090509392505050565b600080825160411415611a4a5760208301516040840151606085015160001a611a3e878285856121e5565b94509450505050611a7c565b825160401415611a745760208301516040840151611a698683836122d2565b935093505050611a7c565b506000905060025b9250929050565b611a8d8282610cd8565b61093b57611aa5816001600160a01b0316601461230b565b611ab083602061230b565b604051602001611ac1929190612a37565b60408051601f198184030181529082905262461bcd60e51b82526107ca91600401612b0a565b6001600160a01b0381163b611b545760405162461bcd60e51b815260206004820152602d60248201527f455243313936373a206e657720696d706c656d656e746174696f6e206973206e60448201526c1bdd08184818dbdb9d1c9858dd609a1b60648201526084016107ca565b600080516020612e2083398151915280546001600160a01b0319166001600160a01b0392909216919091179055565b611b8c836124a7565b600082511180611b995750805b156108bc576116dd83836124e7565b6001600160a01b038516158015611bc757506001600160a01b03841615155b15611c75576000838152610139602090815260408083206001600160a01b038816845290915281208054849290611bff908490612c4e565b90915550506000838152610138602052604081208054849290611c23908490612c4e565b909155505060408051848152602081018490526001600160a01b0380871692600092918a16917f1b3d7edb2e9c0b0e7c525b20aaaef0f5940d2ed71663c7d39266ecafac728859910160405180910390a45b6001600160a01b03851615801590611c9457506001600160a01b038416155b15611e11576000838152610138602052604090205482811015611d0b5760405162461bcd60e51b815260206004820152602960248201527f5643546f6b656e3a206275726e20616d6f756e74206578636565647320746f74604482015268616c20737570706c7960b81b60648201526084016107ca565b611d158382612c85565b6000858152610138602090815260408083209390935561013981528282206001600160a01b038a1683529052205483811015611d9f5760405162461bcd60e51b8152602060048201526024808201527f5643546f6b656e3a206275726e20616d6f756e7420657863656564732062616c604482015263616e636560e01b60648201526084016107ca565b611da98482612c85565b6000868152610139602090815260408083206001600160a01b038c81168086529184528285209590955581518a815292830189905292938c16917f1b3d7edb2e9c0b0e7c525b20aaaef0f5940d2ed71663c7d39266ecafac728859910160405180910390a450505b6001600160a01b03851615801590611e3157506001600160a01b03841615155b15610af7578260011415611f65576000838152610139602090815260408083206001600160a01b038916845290915290205482811015611ec45760405162461bcd60e51b815260206004820152602860248201527f5643546f6b656e3a207472616e7366657220616d6f756e7420657863656564736044820152672062616c616e636560c01b60648201526084016107ca565b611ece8382612c85565b6000858152610139602090815260408083206001600160a01b038b81168552925280832093909355871681529081208054859290611f0d908490612c4e565b909155505060408051858152602081018590526001600160a01b038088169289821692918b16917f1b3d7edb2e9c0b0e7c525b20aaaef0f5940d2ed71663c7d39266ecafac728859910160405180910390a450610af7565b604080516001600160a01b03888116825287811660208301528616818301526060810185905290517f736fc97885d39c64c223b149d0a1e217c3b6f1580cdb6d91be94d41b8d6439799181900360800190a160405162461bcd60e51b815260206004820152601660248201527537b7363c90313ab9b4b732b9b9903a3930b739b332b960511b60448201526064016107ca565b6001600160a01b0384163b15610af75760405163f23a6e6160e01b81526001600160a01b0385169063f23a6e619061203c9089908990889088908890600401612aac565b602060405180830381600087803b15801561205657600080fd5b505af1925050508015612086575060408051601f3d908101601f19168201909252612083918101906129d2565b60015b61213357612092612d64565b806308c379a014156120cc57506120a7612d7f565b806120b257506120ce565b8060405162461bcd60e51b81526004016107ca9190612b0a565b505b60405162461bcd60e51b815260206004820152603460248201527f455243313135353a207472616e7366657220746f206e6f6e2d455243313135356044820152732932b1b2b4bb32b91034b6b83632b6b2b73a32b960611b60648201526084016107ca565b6001600160e01b0319811663f23a6e6160e01b14610e565760405162461bcd60e51b815260206004820152602860248201527f455243313135353a204552433131353552656365697665722072656a656374656044820152676420746f6b656e7360c01b60648201526084016107ca565b600054610100900460ff166121cb5760405162461bcd60e51b81526004016107ca90612c03565b815160209283012081519190920120609791909155609855565b6000807f7fffffffffffffffffffffffffffffff5d576e7357a4501ddfe92f46681b20a083111561221c57506000905060036122c9565b8460ff16601b1415801561223457508460ff16601c14155b1561224557506000905060046122c9565b6040805160008082526020820180845289905260ff881692820192909252606081018690526080810185905260019060a0016020604051602081039080840390855afa158015612299573d6000803e3d6000fd5b5050604051601f1901519150506001600160a01b0381166122c2576000600192509250506122c9565b9150600090505b94509492505050565b6000806001600160ff1b038316816122ef60ff86901c601b612c4e565b90506122fd878288856121e5565b935093505050935093915050565b6060600061231a836002612c66565b612325906002612c4e565b67ffffffffffffffff81111561233d5761233d612d4e565b6040519080825280601f01601f191660200182016040528015612367576020820181803683370190505b509050600360fc1b8160008151811061238257612382612d38565b60200101906001600160f81b031916908160001a905350600f60fb1b816001815181106123b1576123b1612d38565b60200101906001600160f81b031916908160001a90535060006123d5846002612c66565b6123e0906001612c4e565b90505b6001811115612458576f181899199a1a9b1b9c1cb0b131b232b360811b85600f166010811061241457612414612d38565b1a60f81b82828151811061242a5761242a612d38565b60200101906001600160f81b031916908160001a90535060049490941c9361245181612cc8565b90506123e3565b50831561082b5760405162461bcd60e51b815260206004820181905260248201527f537472696e67733a20686578206c656e67746820696e73756666696369656e7460448201526064016107ca565b6124b081611ae7565b6040516001600160a01b038216907fbc7cd75a20ee27fd9adebab32041f755214dbc6bffa90cc0225b39da2e5c2d3b90600090a250565b60606001600160a01b0383163b61254f5760405162461bcd60e51b815260206004820152602660248201527f416464726573733a2064656c65676174652063616c6c20746f206e6f6e2d636f6044820152651b9d1c9858dd60d21b60648201526084016107ca565b600080846001600160a01b03168460405161256a9190612a1b565b600060405180830381855af49150503d80600081146125a5576040519150601f19603f3d011682016040523d82523d6000602084013e6125aa565b606091505b50915091506125d28282604051806060016040528060278152602001612e40602791396125db565b95945050505050565b606083156125ea57508161082b565b8251156125fa5782518084602001fd5b8160405162461bcd60e51b81526004016107ca9190612b0a565b80356001600160a01b03811681146118e457600080fd5b600082601f83011261263c57600080fd5b813567ffffffffffffffff81111561265657612656612d4e565b60405161266d601f8301601f191660200182612cdf565b81815284602083860101111561268257600080fd5b816020850160208301376000918101602001919091529392505050565b6000602082840312156126b157600080fd5b61082b82612614565b600080604083850312156126cd57600080fd5b6126d683612614565b91506126e460208401612614565b90509250929050565b60008060006060848603121561270257600080fd5b61270b84612614565b925061271960208501612614565b9150604084013590509250925092565b600080600080600060a0868803121561274157600080fd5b61274a86612614565b945061275860208701612614565b93506040860135925060608601359150608086013567ffffffffffffffff81111561278257600080fd5b61278e8882890161262b565b9150509295509295909350565b600080604083850312156127ae57600080fd5b6127b783612614565b9150602083013580151581146127cc57600080fd5b809150509250929050565b6000806000606084860312156127ec57600080fd5b6127f584612614565b925060208401359150604084013567ffffffffffffffff81111561281857600080fd5b6128248682870161262b565b9150509250925092565b6000806040838503121561284157600080fd5b61284a83612614565b9150602083013567ffffffffffffffff81111561286657600080fd5b6128728582860161262b565b9150509250929050565b6000806040838503121561288f57600080fd5b61289883612614565b946020939093013593505050565b600080600080606085870312156128bc57600080fd5b6128c585612614565b935060208501359250604085013567ffffffffffffffff808211156128e957600080fd5b818701915087601f8301126128fd57600080fd5b81358181111561290c57600080fd5b88602082850101111561291e57600080fd5b95989497505060200194505050565b60008060006060848603121561294257600080fd5b61294b84612614565b95602085013595506040909401359392505050565b60006020828403121561297257600080fd5b5035919050565b60006020828403121561298b57600080fd5b5051919050565b600080604083850312156129a557600080fd5b823591506126e460208401612614565b6000602082840312156129c757600080fd5b813561082b81612e09565b6000602082840312156129e457600080fd5b815161082b81612e09565b60008151808452612a07816020860160208601612c9c565b601f01601f19169290920160200192915050565b60008251612a2d818460208701612c9c565b9190910192915050565b7f416363657373436f6e74726f6c3a206163636f756e7420000000000000000000815260008351612a6f816017850160208801612c9c565b7001034b99036b4b9b9b4b733903937b6329607d1b6017918401918201528351612aa0816028840160208801612c9c565b01602801949350505050565b6001600160a01b03868116825285166020820152604081018490526060810183905260a060808201819052600090612ae6908301846129ef565b979650505050505050565b82815260406020820152600061082860408301846129ef565b60208152600061082b60208301846129ef565b6020808252602c908201527f46756e6374696f6e206d7573742062652063616c6c6564207468726f7567682060408201526b19195b1959d85d1958d85b1b60a21b606082015260800190565b6020808252602c908201527f46756e6374696f6e206d7573742062652063616c6c6564207468726f7567682060408201526b6163746976652070726f787960a01b606082015260800190565b6020808252602e908201527f496e697469616c697a61626c653a20636f6e747261637420697320616c72656160408201526d191e481a5b9a5d1a585b1a5e995960921b606082015260800190565b6020808252602b908201527f496e697469616c697a61626c653a20636f6e7472616374206973206e6f74206960408201526a6e697469616c697a696e6760a81b606082015260800190565b60008219821115612c6157612c61612d0c565b500190565b6000816000190483118215151615612c8057612c80612d0c565b500290565b600082821015612c9757612c97612d0c565b500390565b60005b83811015612cb7578181015183820152602001612c9f565b838111156116dd5750506000910152565b600081612cd757612cd7612d0c565b506000190190565b601f8201601f1916810167ffffffffffffffff81118282101715612d0557612d05612d4e565b6040525050565b634e487b7160e01b600052601160045260246000fd5b634e487b7160e01b600052602160045260246000fd5b634e487b7160e01b600052603260045260246000fd5b634e487b7160e01b600052604160045260246000fd5b600060033d1115610cd55760046000803e5060005160e01c90565b600060443d1015612d8d5790565b6040516003193d81016004833e81513d67ffffffffffffffff8160248401118184111715612dbd57505050505090565b8285019150815181811115612dd55750505050505090565b843d8701016020828501011115612def5750505050505090565b612dfe60208286010187612cdf565b509095945050505050565b6001600160e01b031981168114610a1c57600080fdfe360894a13ba1a3210667c828492db98dca3e2076cc3735a920a3ca505d382bbc416464726573733a206c6f772d6c6576656c2064656c65676174652063616c6c206661696c65649f2df0fed2c77648de5860a4cc508cd0818c85b8b8a1ab4ceeef8d981c8956a6a49807205ce4d355092ef5a8a18f56e8913cf4a201fbe287825b095693c21775a2646970667358221220bdb02bed907841b577107097f8d8c177532347838b1805f23636067325d5d55a64736f6c63430008070033",
  "linkReferences": {},
  "deployedLinkReferences": {}
}