{
  "_format": "hh-sol-artifact-1",
  "contractName": "VaultFactory",
  "sourceName": "contracts/EstateVaultFactory.sol",
  "abi": [
    {
      "anonymous": false,
      "inputs": [
        {
          "indexed": true,
          "internalType": "address",
          "name": "nftAddress",
          "type": "address"
        },
        {
          "indexed": false,
          "internalType": "uint256",
          "name": "tokenId",
          "type": "uint256"
        },
        {
          "indexed": false,
          "internalType": "address",
          "name": "sellerSafe",
          "type": "address"
        },
        {
          "indexed": true,
          "internalType": "address",
          "name": "seller",
          "type": "address"
        },
        {
          "indexed": false,
          "internalType": "uint256",
          "name": "price",
          "type": "uint256"
        }
      ],
      "name": "AssetListed",
      "type": "event"
    },
    {
      "anonymous": false,
      "inputs": [
        {
          "indexed": false,
          "internalType": "uint8",
          "name": "version",
          "type": "uint8"
        }
      ],
      "name": "Initialized",
      "type": "event"
    },
    {
      "anonymous": false,
      "inputs": [
        {
          "indexed": true,
          "internalType": "address",
          "name": "previousOwner",
          "type": "address"
        },
        {
          "indexed": true,
          "internalType": "address",
          "name": "newOwner",
          "type": "address"
        }
      ],
      "name": "OwnershipTransferred",
      "type": "event"
    },
    {
      "anonymous": false,
      "inputs": [
        {
          "indexed": false,
          "internalType": "address",
          "name": "account",
          "type": "address"
        }
      ],
      "name": "Paused",
      "type": "event"
    },
    {
      "anonymous": false,
      "inputs": [
        {
          "indexed": true,
          "internalType": "address",
          "name": "vaultProxy",
          "type": "address"
        },
        {
          "indexed": false,
          "internalType": "uint256",
          "name": "vaultId",
          "type": "uint256"
        }
      ],
      "name": "ProxyDeployed",
      "type": "event"
    },
    {
      "anonymous": false,
      "inputs": [
        {
          "indexed": false,
          "internalType": "address",
          "name": "account",
          "type": "address"
        }
      ],
      "name": "Unpaused",
      "type": "event"
    },
    {
      "anonymous": false,
      "inputs": [
        {
          "indexed": true,
          "internalType": "address",
          "name": "vaultBeacon",
          "type": "address"
        }
      ],
      "name": "UpgradeableProxy",
      "type": "event"
    },
    {
      "inputs": [],
      "name": "__EstateVaultFactory_init",
      "outputs": [],
      "stateMutability": "nonpayable",
      "type": "function"
    },
    {
      "inputs": [
        {
          "internalType": "address",
          "name": "nftAddress",
          "type": "address"
        },
        {
          "internalType": "uint256",
          "name": "nftId",
          "type": "uint256"
        },
        {
          "internalType": "uint256",
          "name": "price",
          "type": "uint256"
        },
        {
          "internalType": "uint256",
          "name": "supply",
          "type": "uint256"
        },
        {
          "internalType": "string",
          "name": "name_",
          "type": "string"
        },
        {
          "internalType": "string",
          "name": "symbol_",
          "type": "string"
        },
        {
          "internalType": "address",
          "name": "safe",
          "type": "address"
        }
      ],
      "name": "initiateVault",
      "outputs": [
        {
          "internalType": "address",
          "name": "",
          "type": "address"
        },
        {
          "internalType": "uint256",
          "name": "",
          "type": "uint256"
        }
      ],
      "stateMutability": "nonpayable",
      "type": "function"
    },
    {
      "inputs": [],
      "name": "isOpsPaused",
      "outputs": [
        {
          "internalType": "bool",
          "name": "",
          "type": "bool"
        }
      ],
      "stateMutability": "view",
      "type": "function"
    },
    {
      "inputs": [],
      "name": "owner",
      "outputs": [
        {
          "internalType": "address",
          "name": "",
          "type": "address"
        }
      ],
      "stateMutability": "view",
      "type": "function"
    },
    {
      "inputs": [],
      "name": "pauseOps",
      "outputs": [],
      "stateMutability": "nonpayable",
      "type": "function"
    },
    {
      "inputs": [],
      "name": "renounceOwnership",
      "outputs": [],
      "stateMutability": "nonpayable",
      "type": "function"
    },
    {
      "inputs": [
        {
          "internalType": "address",
          "name": "newOwner",
          "type": "address"
        }
      ],
      "name": "transferOwnership",
      "outputs": [],
      "stateMutability": "nonpayable",
      "type": "function"
    },
    {
      "inputs": [],
      "name": "unpauseOps",
      "outputs": [],
      "stateMutability": "nonpayable",
      "type": "function"
    },
    {
      "inputs": [],
      "name": "upgradeBeaconAddress",
      "outputs": [
        {
          "internalType": "address",
          "name": "",
          "type": "address"
        }
      ],
      "stateMutability": "view",
      "type": "function"
    },
    {
      "inputs": [
        {
          "internalType": "uint256",
          "name": "id",
          "type": "uint256"
        }
      ],
      "name": "vaultAddress",
      "outputs": [
        {
          "internalType": "address",
          "name": "",
          "type": "address"
        }
      ],
      "stateMutability": "view",
      "type": "function"
    },
    {
      "inputs": [
        {
          "internalType": "address",
          "name": "nftAddress",
          "type": "address"
        }
      ],
      "name": "vaultOfNft",
      "outputs": [
        {
          "internalType": "address",
          "name": "",
          "type": "address"
        }
      ],
      "stateMutability": "view",
      "type": "function"
    }
  ],
  "bytecode": "0x608060405234801561001057600080fd5b506152c2806100206000396000f3fe60806040523480156200001157600080fd5b5060043610620000d95760003560e01c8063a702e5fe116200008b578063dc017c7f1162000062578063dc017c7f14620001b8578063e502779114620001c2578063f2fde38b14620001f157600080fd5b8063a702e5fe146200016d578063b8510f461462000177578063c9889a9e14620001ae57600080fd5b80634be4e91f11620000c05780634be4e91f1462000123578063715018a6146200014f5780638da5cb5b146200015b57600080fd5b806326660bf414620000de57806348bbea3914620000fd575b600080fd5b620000e862000208565b60405190151581526020015b60405180910390f35b6097546001600160a01b03165b6040516001600160a01b039091168152602001620000f4565b6200010a62000134366004620011a6565b6000908152609960205260409020546001600160a01b031690565b620001596200021c565b005b6033546001600160a01b03166200010a565b620001596200028a565b6200018e62000188366004620010d5565b62000447565b604080516001600160a01b039093168352602083019190915201620000f4565b6200015962000987565b62000159620009ed565b6200010a620001d3366004620010b0565b6001600160a01b039081166000908152609a60205260409020541690565b6200015962000202366004620010b0565b62000a53565b60006200021760655460ff1690565b905090565b6033546001600160a01b031633146200027c5760405162461bcd60e51b815260206004820181905260248201527f4f776e61626c653a2063616c6c6572206973206e6f7420746865206f776e657260448201526064015b60405180910390fd5b62000288600062000b33565b565b600062000298600162000b92565b90508015620002b1576000805461ff0019166101001790555b620002bb62000cd1565b620002c562000d48565b6000604051620002d59062000fd9565b604051809103906000f080158015620002f2573d6000803e3d6000fd5b50604051620003019062000fe7565b6001600160a01b039091168152602001604051809103906000f0801580156200032e573d6000803e3d6000fd5b506040517ff2fde38b0000000000000000000000000000000000000000000000000000000081523360048201529091506001600160a01b0382169063f2fde38b90602401600060405180830381600087803b1580156200038d57600080fd5b505af1158015620003a2573d6000803e3d6000fd5b50506097805473ffffffffffffffffffffffffffffffffffffffff19166001600160a01b0385169081179091556040519092507fda23efb8915ceb297a6235faf9a9530e472e3819c6596ff616d62df417079b389150600090a250801562000444576000805461ff0019169055604051600181527f7f26b83ff96e1f2b6a682f133852f6798a09c465da95921460cefb38474024989060200160405180910390a15b50565b6000806200045760655460ff1690565b15620004a65760405162461bcd60e51b815260206004820152601060248201527f5061757361626c653a2070617573656400000000000000000000000000000000604482015260640162000273565b600087118015620004b75750600086115b6200052b5760405162461bcd60e51b815260206004820152602560248201527f5661756c74466163746f72793a207072696365206f7220737570706c7920697360448201527f207a65726f000000000000000000000000000000000000000000000000000000606482015260840162000273565b6001600160a01b0383163b151580156200054d57506001600160a01b03831615155b620005c15760405162461bcd60e51b815260206004820152603260248201527f5661756c74466163746f72793a2073616665206973206e6f7420636f6e74726160448201527f6374206f72207a65726f20616464726573730000000000000000000000000000606482015260840162000273565b6040517fb9209e33000000000000000000000000000000000000000000000000000000008152336004820152735e17b14add6c386305a32928f985b29bba34eff59063b9209e339060240160206040518083038186803b1580156200062557600080fd5b505afa1580156200063a573d6000803e3d6000fd5b505050506040513d601f19601f8201168201806040525081019062000660919062001182565b620006d45760405162461bcd60e51b815260206004820152602360248201527f5661756c74466163746f72793a20766572696669656420686f6c64657273206f60448201527f6e6c790000000000000000000000000000000000000000000000000000000000606482015260840162000273565b6097546040516000916001600160a01b0316907f7c027d0e000000000000000000000000000000000000000000000000000000009062000727908d908d908d908d908d908d908d9033906024016200123c565b60408051601f198184030181529181526020820180517bffffffffffffffffffffffffffffffffffffffffffffffffffffffff167fffffffff00000000000000000000000000000000000000000000000000000000909416939093179092529051620007939062000ff5565b620007a092919062001210565b604051809103906000f080158015620007bd573d6000803e3d6000fd5b509050806001600160a01b03811663f2fde38b620007e36033546001600160a01b031690565b6040517fffffffff0000000000000000000000000000000000000000000000000000000060e084901b1681526001600160a01b039091166004820152602401600060405180830381600087803b1580156200083d57600080fd5b505af115801562000852573d6000803e3d6000fd5b5050609880546000908152609960205260408120805473ffffffffffffffffffffffffffffffffffffffff19166001600160a01b038716179055815493509091506200089e83620012c5565b90915550506001600160a01b038b81166000908152609a6020908152604091829020805473ffffffffffffffffffffffffffffffffffffffff1916938516938417905560985491519182527f63ba13e1272ed358e7de868cdda239ae197d3b2c38cf2034db1b0619eabef475910160405180910390a2604080518b81526001600160a01b0387811660208301529181018b905233918d16907fb99eb0146cccceb71c39c5690b9cfecc7b9ddda8d6fcb462954ca4d6c7436f999060600160405180910390a3806001609854620009759190620012ab565b93509350505097509795505050505050565b6033546001600160a01b03163314620009e35760405162461bcd60e51b815260206004820181905260248201527f4f776e61626c653a2063616c6c6572206973206e6f7420746865206f776e6572604482015260640162000273565b6200028862000dbf565b6033546001600160a01b0316331462000a495760405162461bcd60e51b815260206004820181905260248201527f4f776e61626c653a2063616c6c6572206973206e6f7420746865206f776e6572604482015260640162000273565b6200028862000e5d565b6033546001600160a01b0316331462000aaf5760405162461bcd60e51b815260206004820181905260248201527f4f776e61626c653a2063616c6c6572206973206e6f7420746865206f776e6572604482015260640162000273565b6001600160a01b03811662000b2d5760405162461bcd60e51b815260206004820152602660248201527f4f776e61626c653a206e6577206f776e657220697320746865207a65726f206160448201527f6464726573730000000000000000000000000000000000000000000000000000606482015260840162000273565b62000444815b603380546001600160a01b0383811673ffffffffffffffffffffffffffffffffffffffff19831681179093556040519116919082907f8be0079c531659141344cd1fd0a4f28419497f9722a3daafe3b4186f6b6457e090600090a35050565b60008054610100900460ff161562000c33578160ff16600114801562000bb75750303b155b62000c2b5760405162461bcd60e51b815260206004820152602e60248201527f496e697469616c697a61626c653a20636f6e747261637420697320616c72656160448201527f647920696e697469616c697a6564000000000000000000000000000000000000606482015260840162000273565b506000919050565b60005460ff80841691161062000cb25760405162461bcd60e51b815260206004820152602e60248201527f496e697469616c697a61626c653a20636f6e747261637420697320616c72656160448201527f647920696e697469616c697a6564000000000000000000000000000000000000606482015260840162000273565b506000805460ff191660ff92909216919091179055600190565b919050565b600054610100900460ff1662000d3e5760405162461bcd60e51b815260206004820152602b60248201527f496e697469616c697a61626c653a20636f6e7472616374206973206e6f74206960448201526a6e697469616c697a696e6760a81b606482015260840162000273565b6200028862000ee8565b600054610100900460ff1662000db55760405162461bcd60e51b815260206004820152602b60248201527f496e697469616c697a61626c653a20636f6e7472616374206973206e6f74206960448201526a6e697469616c697a696e6760a81b606482015260840162000273565b6200028862000f60565b60655460ff1662000e135760405162461bcd60e51b815260206004820152601460248201527f5061757361626c653a206e6f7420706175736564000000000000000000000000604482015260640162000273565b6065805460ff191690557f5db9ee0a495bf2e6ff9c91a7834c1ba4fdd244a5e8aa4e537bd38aeae4b073aa335b6040516001600160a01b03909116815260200160405180910390a1565b60655460ff161562000eb25760405162461bcd60e51b815260206004820152601060248201527f5061757361626c653a2070617573656400000000000000000000000000000000604482015260640162000273565b6065805460ff191660011790557f62e78cea01bee320cd4e420270b5ea74000d11b0c9f74754ebdbfc544b05a25862000e403390565b600054610100900460ff1662000f555760405162461bcd60e51b815260206004820152602b60248201527f496e697469616c697a61626c653a20636f6e7472616374206973206e6f74206960448201526a6e697469616c697a696e6760a81b606482015260840162000273565b620002883362000b33565b600054610100900460ff1662000fcd5760405162461bcd60e51b815260206004820152602b60248201527f496e697469616c697a61626c653a20636f6e7472616374206973206e6f74206960448201526a6e697469616c697a696e6760a81b606482015260840162000273565b6065805460ff19169055565b612fde806200131083390190565b6105cb80620042ee83390190565b6109d480620048b983390190565b80356001600160a01b038116811462000ccc57600080fd5b600082601f8301126200102d57600080fd5b813567ffffffffffffffff808211156200104b576200104b620012f9565b604051601f8301601f19908116603f01168101908282118183101715620010765762001076620012f9565b816040528381528660208588010111156200109057600080fd5b836020870160208301376000602085830101528094505050505092915050565b600060208284031215620010c357600080fd5b620010ce8262001003565b9392505050565b600080600080600080600060e0888a031215620010f157600080fd5b620010fc8862001003565b9650602088013595506040880135945060608801359350608088013567ffffffffffffffff808211156200112f57600080fd5b6200113d8b838c016200101b565b945060a08a01359150808211156200115457600080fd5b50620011638a828b016200101b565b9250506200117460c0890162001003565b905092959891949750929550565b6000602082840312156200119557600080fd5b81518015158114620010ce57600080fd5b600060208284031215620011b957600080fd5b5035919050565b6000815180845260005b81811015620011e857602081850181015186830182015201620011ca565b81811115620011fb576000602083870101525b50601f01601f19169290920160200192915050565b6001600160a01b0383168152604060208201526000620012346040830184620011c0565b949350505050565b60006101006001600160a01b03808c1684528a60208501528960408501528860608501528160808501526200127482850189620011c0565b915083820360a08501526200128a8288620011c0565b925080861660c085015280851660e085015250509998505050505050505050565b600082821015620012c057620012c0620012e3565b500390565b6000600019821415620012dc57620012dc620012e3565b5060010190565b634e487b7160e01b600052601160045260246000fd5b634e487b7160e01b600052604160045260246000fdfe608060405234801561001057600080fd5b50612fbe806100206000396000f3fe608060405234801561001057600080fd5b50600436106101da5760003560e01c80637c027d0e11610104578063a457c2d7116100a2578063dd62ed3e11610071578063dd62ed3e146103e9578063e8c0b2c314610422578063f2fde38b14610437578063f9020e331461044a57600080fd5b8063a457c2d71461039d578063a9059cbb146103b0578063bd9981b1146103c3578063bed9b952146103d657600080fd5b806395d89b41116100de57806395d89b411461037257806397d1e8a31461037a57806399530b061461038d5780639ffb8b491461039557600080fd5b80637c027d0e1461033b578063867713371461034e5780638da5cb5b1461036157600080fd5b806323b872dd1161017c578063526b347e1161014b578063526b347e146102e2578063595bddf9146102f757806370a082311461030a578063715018a61461033357600080fd5b806323b872dd146102a5578063313ce567146102b857806339509351146102c75780633abd0136146102da57600080fd5b8063150b7a02116101b8578063150b7a0214610235578063159457901461026157806318160ddd146102785780631ba46cfd1461028057600080fd5b806301db4ac6146101df57806306fdde03146101fd578063095ea7b314610212575b600080fd5b6101e7610464565b6040516101f49190612d5a565b60405180910390f35b6102056104c6565b6040516101f49190612db7565b6102256102203660046129ee565b61054f565b60405190151581526020016101f4565b61024861024336600461296e565b610567565b6040516001600160e01b031990911681526020016101f4565b61026a60cc5481565b6040519081526020016101f4565b60995461026a565b60c9546001600160a01b03165b6040516001600160a01b0390911681526020016101f4565b6102256102b336600461292d565b610578565b604051600681526020016101f4565b6102256102d53660046129ee565b61059e565b60d15461026a565b6102f56102f0366004612c70565b6105dd565b005b6102f5610305366004612bda565b610917565b61026a6103183660046128ba565b6001600160a01b031660009081526097602052604090205490565b6102f5610a1a565b6102f5610349366004612a1a565b610a80565b6102f561035c3660046129ee565b610d53565b6033546001600160a01b031661028d565b6102056112c5565b6102f5610388366004612ad5565b6112d4565b60cb5461026a565b60ca5461026a565b6102256103ab3660046129ee565b6114fb565b6102256103be3660046129ee565b6115b0565b6102f56103d13660046128ba565b6115be565b61028d6103e4366004612c3e565b6117b6565b61026a6103f73660046128f4565b6001600160a01b03918216600090815260986020908152604080832093909416825291909152205490565b3060009081526097602052604090205461026a565b6102f56104453660046128ba565b6117e6565b60ce54600160a01b900460ff166040516101f49190612d8f565b606060d08054806020026020016040519081016040528092919081815260200182805480156104bc57602002820191906000526020600020905b81546001600160a01b0316815260019091019060200180831161049e575b5050505050905090565b6060609a80546104d590612ec5565b80601f016020809104026020016040519081016040528092919081815260200182805461050190612ec5565b80156104bc5780601f10610523576101008083540402835291602001916104bc565b820191906000526020600020905b81548152906001019060200180831161053157509395945050505050565b60003361055d8185856118c8565b5060019392505050565b630a85bd0160e11b5b949350505050565b600033610586858285611a21565b610591858585611ab3565b60019150505b9392505050565b3360008181526098602090815260408083206001600160a01b038716845290915281205490919061055d90829086906105d8908790612e29565b6118c8565b60cd546001600160a01b0316331461063c5760405162461bcd60e51b815260206004820152601260248201527f5661756c743a206f6e6c792073656c6c6572000000000000000000000000000060448201526064015b60405180910390fd5b600060ce54600160a01b900460ff16600281111561065c5761065c612f31565b146106a95760405162461bcd60e51b815260206004820152601f60248201527f5661756c743a2073616c6520697320616374697665206f7220636c6f736564006044820152606401610633565b60c95460ca546040517f6352211e000000000000000000000000000000000000000000000000000000008152600481019190915230916001600160a01b031690636352211e9060240160206040518083038186803b15801561070a57600080fd5b505afa15801561071e573d6000803e3d6000fd5b505050506040513d601f19601f8201168201806040525081019061074291906128d7565b6001600160a01b0316146107985760405162461bcd60e51b815260206004820152601960248201527f5661756c743a20746f6b656e206e6f74207265636965766564000000000000006044820152606401610633565b60cc54821415610804576107ae3060cc54611ac3565b60cc5481106107ff5760405162461bcd60e51b815260206004820181905260248201527f5661756c743a206d696e20746f20627579206578636565647320737570706c796044820152606401610633565b6108c1565b60008260cc546108149190612e63565b905060008160cc546108269190612e82565b60ce5490915061083f906001600160a01b031682611ac3565b6108493083611ac3565b8183106108be5760405162461bcd60e51b815260206004820152602860248201527f5661756c743a206d696e20746f2062757920657863656564732073686172657360448201527f20746f2073656c6c0000000000000000000000000000000000000000000000006064820152608401610633565b50505b60d281905560ce805460ff60a01b1916600160a01b17905560408051838152602081018390527ffb3347c797667e8152fea4ded6e0f5221c9a690fe34a086d5c24b82da2de339591015b60405180910390a15050565b6033546001600160a01b031633146109715760405162461bcd60e51b815260206004820181905260248201527f4f776e61626c653a2063616c6c6572206973206e6f7420746865206f776e65726044820152606401610633565b600160ce54600160a01b900460ff16600281111561099157610991612f31565b14156109df5760405162461bcd60e51b815260206004820152601560248201527f5661756c743a2073616c652069732061637469766500000000000000000000006044820152606401610633565b6109e98282611ad3565b7f6b2211ef1bc37c6d1ee5729ae98f9957c0ddd32615bc0e07052175d219ac147e828260405161090b929190612dca565b6033546001600160a01b03163314610a745760405162461bcd60e51b815260206004820181905260248201527f4f776e61626c653a2063616c6c6572206973206e6f7420746865206f776e65726044820152606401610633565b610a7e6000611afa565b565b6000610a8c6001611b59565b90508015610aa4576000805461ff0019166101001790555b610aae8585611c8d565b610ab6611d02565b610abe611d6d565b60d3805473ffffffffffffffffffffffffffffffffffffffff191633908117909155610b2c5760405162461bcd60e51b815260206004820152601e60248201527f5661756c743a20666163746f7279206973207a65726f206164647265737300006044820152606401610633565b610b368688612e41565b60cb81905560d4805473ffffffffffffffffffffffffffffffffffffffff191673d9145cce52d386f254917e481eb44e9943f3913890811790915560009163095ea7b3903090610b87908b90612e63565b6040516001600160e01b031960e085901b1681526001600160a01b0390921660048301526024820152604401602060405180830381600087803b158015610bcd57600080fd5b505af1158015610be1573d6000803e3d6000fd5b505050506040513d601f19601f82011682018060405250810190610c059190612b8e565b905080610c545760405162461bcd60e51b815260206004820152601c60248201527f5661756c743a20756e7375636365737366756c20617070726f76616c000000006044820152606401610633565b8360ce60006101000a8154816001600160a01b0302191690836001600160a01b031602179055508260cd60006101000a8154816001600160a01b0302191690836001600160a01b031602179055508960c960006101000a8154816001600160a01b0302191690836001600160a01b031602179055508860ca819055508660cc81905550600060ce60146101000a81548160ff02191690836002811115610cfc57610cfc612f31565b0217905550508015610d48576000805461ff0019169055604051600181527f7f26b83ff96e1f2b6a682f133852f6798a09c465da95921460cefb38474024989060200160405180910390a15b505050505050505050565b600160ce54600160a01b900460ff166002811115610d7357610d73612f31565b14610dc05760405162461bcd60e51b815260206004820152601960248201527f5661756c743a2073616c65206973206e6f7420616374697665000000000000006044820152606401610633565b6001600160a01b0382163b15158015610de157506001600160a01b03821615155b610e535760405162461bcd60e51b815260206004820152602b60248201527f5661756c743a2073616665206973206e6f7420636f6e7472616374206f72207a60448201527f65726f20616464726573730000000000000000000000000000000000000000006064820152608401610633565b6040517fb9209e33000000000000000000000000000000000000000000000000000000008152336004820152735e17b14add6c386305a32928f985b29bba34eff59063b9209e339060240160206040518083038186803b158015610eb657600080fd5b505afa158015610eca573d6000803e3d6000fd5b505050506040513d601f19601f82011682018060405250810190610eee9190612b8e565b610f5f5760405162461bcd60e51b8152602060048201526024808201527f457374617465466163746f72793a20766572696669656420686f6c646572732060448201527f6f6e6c79000000000000000000000000000000000000000000000000000000006064820152608401610633565b33600090815260cf602052604090205460ff16610fbe5760405162461bcd60e51b815260206004820152601960248201527f5661756c743a206d697373696e6720696e7669746174696f6e000000000000006044820152606401610633565b306000908152609760205260409020548111158015610fdf575060d2548110155b6110515760405162461bcd60e51b815260206004820152603160248201527f5661756c743a207a65726f20616d6f756e74206f72206578636565647320617660448201527f61696c61626c65206672616374696f6e730000000000000000000000000000006064820152608401610633565b600060cb54826110619190612e63565b60d4546040517fdd62ed3e0000000000000000000000000000000000000000000000000000000081526001600160a01b03868116600483015230602483015292935091169063dd62ed3e9060440160206040518083038186803b1580156110c757600080fd5b505afa1580156110db573d6000803e3d6000fd5b505050506040513d601f19601f820116820180604052508101906110ff9190612c57565b811161117f5760d45461111d906001600160a01b0316843084611de0565b60ce5460d45461113a916001600160a01b03918216911683611e60565b611145308484611ab3565b60405182815233907ff9ce0f0784d30244764f533370fd3386f4924799f9268c372412509a972f77169060200160405180910390a26111ed565b60405162461bcd60e51b815260206004820152602760248201527f5661756c743a20696e73756666696369656e7420616d70657273616e6420616c60448201527f6c6f77616e6365000000000000000000000000000000000000000000000000006064820152608401610633565b60d080546001810182557fe89d44c8fd6a9bac8af33ce47f56337617d449bf7ff3956b618c646de829cbcb01805473ffffffffffffffffffffffffffffffffffffffff1916331790555460d155306000908152609760205260409020546112775760ce805460ff60a01b19167402000000000000000000000000000000000000000017905561128b565b60ce805460ff60a01b1916600160a01b1790555b60405182815233907ff9ce0f0784d30244764f533370fd3386f4924799f9268c372412509a972f77169060200160405180910390a2505050565b6060609b80546104d590612ec5565b60cd546001600160a01b0316331461132e5760405162461bcd60e51b815260206004820152601260248201527f5661756c743a206f6e6c792073656c6c657200000000000000000000000000006044820152606401610633565b600260ce54600160a01b900460ff16600281111561134e5761134e612f31565b141561139c5760405162461bcd60e51b815260206004820152601160248201527f5661756c743a2073616c6520656e6465640000000000000000000000000000006044820152606401610633565b60005b81518110156114c65760008282815181106113bc576113bc612f47565b6020026020010151905060006001600160a01b0316816001600160a01b031614156114295760405162461bcd60e51b815260206004820152601360248201527f5661756c743a207a65726f2061646472657373000000000000000000000000006044820152606401610633565b6001600160a01b038116600090815260cf602052604090205460ff16156114925760405162461bcd60e51b815260206004820152601860248201527f5661756c743a206475706c6963617465206164647265737300000000000000006044820152606401610633565b6001600160a01b0316600090815260cf60205260409020805460ff19166001179055806114be81612f00565b91505061139f565b5080516040517f2a0d56e318a96ca558c29c714a50cb03221e61eb0fcd4eb08718208a056257919061090b9084908490612d6d565b3360008181526098602090815260408083206001600160a01b0387168452909152812054909190838110156115985760405162461bcd60e51b815260206004820152602560248201527f45524332303a2064656372656173656420616c6c6f77616e63652062656c6f7760448201527f207a65726f0000000000000000000000000000000000000000000000000000006064820152608401610633565b6115a582868684036118c8565b506001949350505050565b60003361055d818585611ab3565b6033546001600160a01b031633146116185760405162461bcd60e51b815260206004820181905260248201527f4f776e61626c653a2063616c6c6572206973206e6f7420746865206f776e65726044820152606401610633565b6001600160a01b03811661166e5760405162461bcd60e51b815260206004820152601360248201527f5661756c743a2061646472657373207a65726f000000000000000000000000006044820152606401610633565b6099543060009081526097602052604090205410156116cf5760405162461bcd60e51b815260206004820152601860248201527f5661756c743a206672616374696f6e73206d697373696e6700000000000000006044820152606401610633565b60c95460ca546040516323b872dd60e01b81523060048201526001600160a01b03848116602483015260448201929092529116906323b872dd90606401600060405180830381600087803b15801561172657600080fd5b505af115801561173a573d6000803e3d6000fd5b505050506117503061174b60995490565b611ea9565b61176d308260ca5460405180602001604052806000815250611eb5565b50806001600160a01b03167fa81e3e535869655af6a599b8dbe4fed71b31eca2c1cc63d391f573a33243559d60ca546040516117ab91815260200190565b60405180910390a250565b600060d082815481106117cb576117cb612f47565b6000918252602090912001546001600160a01b031692915050565b6033546001600160a01b031633146118405760405162461bcd60e51b815260206004820181905260248201527f4f776e61626c653a2063616c6c6572206973206e6f7420746865206f776e65726044820152606401610633565b6001600160a01b0381166118bc5760405162461bcd60e51b815260206004820152602660248201527f4f776e61626c653a206e6577206f776e657220697320746865207a65726f206160448201527f64647265737300000000000000000000000000000000000000000000000000006064820152608401610633565b6118c581611afa565b50565b6001600160a01b0383166119435760405162461bcd60e51b8152602060048201526024808201527f45524332303a20617070726f76652066726f6d20746865207a65726f2061646460448201527f72657373000000000000000000000000000000000000000000000000000000006064820152608401610633565b6001600160a01b0382166119bf5760405162461bcd60e51b815260206004820152602260248201527f45524332303a20617070726f766520746f20746865207a65726f20616464726560448201527f73730000000000000000000000000000000000000000000000000000000000006064820152608401610633565b6001600160a01b0383811660008181526098602090815260408083209487168084529482529182902085905590518481527f8c5be1e5ebec7d5bd14f71427d1e84f3dd0314c0f7b2291e5b200ac8c7c3b92591015b60405180910390a3505050565b6001600160a01b038381166000908152609860209081526040808320938616835292905220546000198114611aad5781811015611aa05760405162461bcd60e51b815260206004820152601d60248201527f45524332303a20696e73756666696369656e7420616c6c6f77616e63650000006044820152606401610633565b611aad84848484036118c8565b50505050565b611abe838383612015565b505050565b611acf60008383612015565b5050565b8151611ae690609a9060208501906127a9565b508051611abe90609b9060208401906127a9565b603380546001600160a01b0383811673ffffffffffffffffffffffffffffffffffffffff19831681179093556040519116919082907f8be0079c531659141344cd1fd0a4f28419497f9722a3daafe3b4186f6b6457e090600090a35050565b60008054610100900460ff1615611bf6578160ff166001148015611b7c5750303b155b611bee5760405162461bcd60e51b815260206004820152602e60248201527f496e697469616c697a61626c653a20636f6e747261637420697320616c72656160448201527f647920696e697469616c697a65640000000000000000000000000000000000006064820152608401610633565b506000919050565b60005460ff808416911610611c735760405162461bcd60e51b815260206004820152602e60248201527f496e697469616c697a61626c653a20636f6e747261637420697320616c72656160448201527f647920696e697469616c697a65640000000000000000000000000000000000006064820152608401610633565b506000805460ff191660ff92909216919091179055600190565b600054610100900460ff16611cf85760405162461bcd60e51b815260206004820152602b60248201527f496e697469616c697a61626c653a20636f6e7472616374206973206e6f74206960448201526a6e697469616c697a696e6760a81b6064820152608401610633565b611acf82826120f3565b600054610100900460ff16610a7e5760405162461bcd60e51b815260206004820152602b60248201527f496e697469616c697a61626c653a20636f6e7472616374206973206e6f74206960448201526a6e697469616c697a696e6760a81b6064820152608401610633565b600054610100900460ff16611dd85760405162461bcd60e51b815260206004820152602b60248201527f496e697469616c697a61626c653a20636f6e7472616374206973206e6f74206960448201526a6e697469616c697a696e6760a81b6064820152608401610633565b610a7e61215e565b6040516001600160a01b0380851660248301528316604482015260648101829052611aad9085906323b872dd60e01b906084015b60408051601f198184030181529190526020810180517bffffffffffffffffffffffffffffffffffffffffffffffffffffffff166001600160e01b0319909316929092179091526121d2565b6040516001600160a01b038316602482015260448101829052611abe9084907fa9059cbb0000000000000000000000000000000000000000000000000000000090606401611e14565b611acf82600083612015565b60006001600160a01b0384163b1561200d57604051630a85bd0160e11b81526001600160a01b0385169063150b7a0290611ef9903390899088908890600401612d1e565b602060405180830381600087803b158015611f1357600080fd5b505af1925050508015611f43575060408051601f3d908101601f19168201909252611f4091810190612bb0565b60015b611ff3573d808015611f71576040519150601f19603f3d011682016040523d82523d6000602084013e611f76565b606091505b508051611feb5760405162461bcd60e51b815260206004820152603260248201527f4552433732313a207472616e7366657220746f206e6f6e20455243373231526560448201527f63656976657220696d706c656d656e74657200000000000000000000000000006064820152608401610633565b805181602001fd5b6001600160e01b031916630a85bd0160e11b149050610570565b506001610570565b6120208383836122b7565b60d360009054906101000a90046001600160a01b03166001600160a01b03166326660bf46040518163ffffffff1660e01b815260040160206040518083038186803b15801561206e57600080fd5b505afa158015612082573d6000803e3d6000fd5b505050506040513d601f19601f820116820180604052508101906120a69190612b8e565b15611abe5760405162461bcd60e51b815260206004820152601f60248201527f5661756c743a20746f6b656e207472616e7366657220697320706175736564006044820152606401610633565b600054610100900460ff16611ad35760405162461bcd60e51b815260206004820152602b60248201527f496e697469616c697a61626c653a20636f6e7472616374206973206e6f74206960448201526a6e697469616c697a696e6760a81b6064820152608401610633565b600054610100900460ff166121c95760405162461bcd60e51b815260206004820152602b60248201527f496e697469616c697a61626c653a20636f6e7472616374206973206e6f74206960448201526a6e697469616c697a696e6760a81b6064820152608401610633565b610a7e33611afa565b6000612227826040518060400160405280602081526020017f5361666545524332303a206c6f772d6c6576656c2063616c6c206661696c6564815250856001600160a01b03166126959092919063ffffffff16565b805190915015611abe57808060200190518101906122459190612b8e565b611abe5760405162461bcd60e51b815260206004820152602a60248201527f5361666545524332303a204552433230206f7065726174696f6e20646964206e60448201527f6f742073756363656564000000000000000000000000000000000000000000006064820152608401610633565b6001600160a01b03831661237f576001600160a01b03821661231b5760405162461bcd60e51b815260206004820152601b60248201527f45524332303a206d696e7420746f207a65726f206164647265737300000000006044820152606401610633565b806099600082825461232d9190612e29565b90915550506001600160a01b0382166000818152609760209081526040808320805486019055518481527fddf252ad1be2c89b69c2b068fc378daa952ba7f163c4a11628f55a4df523b3ef9101611a14565b6001600160a01b0382166124d4576001600160a01b0383166123e35760405162461bcd60e51b815260206004820152601c60248201527f45524332303a206275726e2066726f6d207a65722061646472657373000000006044820152606401610633565b6001600160a01b038316600090815260976020526040902054818110156124725760405162461bcd60e51b815260206004820152602260248201527f45524332303a206275726e20616d6f756e7420657863656564732062616c616e60448201527f63650000000000000000000000000000000000000000000000000000000000006064820152608401610633565b6001600160a01b03841660008181526097602090815260408083208686039055609980548790039055518581529192917fddf252ad1be2c89b69c2b068fc378daa952ba7f163c4a11628f55a4df523b3ef91015b60405180910390a350505050565b6001600160a01b0383166125505760405162461bcd60e51b815260206004820152602160248201527f45524332303a207472616e736665722066726f6d207a65726f2061646472657360448201527f73000000000000000000000000000000000000000000000000000000000000006064820152608401610633565b6001600160a01b0382166125a65760405162461bcd60e51b815260206004820152601f60248201527f45524332303a207472616e7366657220746f207a65726f2061646472657373006044820152606401610633565b6001600160a01b038316600090815260976020526040902054818110156126355760405162461bcd60e51b815260206004820152602660248201527f45524332303a207472616e7366657220616d6f756e742065786365656473206260448201527f616c616e636500000000000000000000000000000000000000000000000000006064820152608401610633565b6001600160a01b0380851660008181526097602052604080822086860390559286168082529083902080548601905591517fddf252ad1be2c89b69c2b068fc378daa952ba7f163c4a11628f55a4df523b3ef906124c69086815260200190565b60606105708484600085856001600160a01b0385163b6126f75760405162461bcd60e51b815260206004820152601d60248201527f416464726573733a2063616c6c20746f206e6f6e2d636f6e74726163740000006044820152606401610633565b600080866001600160a01b031685876040516127139190612d02565b60006040518083038185875af1925050503d8060008114612750576040519150601f19603f3d011682016040523d82523d6000602084013e612755565b606091505b5091509150612765828286612770565b979650505050505050565b6060831561277f575081610597565b82511561278f5782518084602001fd5b8160405162461bcd60e51b81526004016106339190612db7565b8280546127b590612ec5565b90600052602060002090601f0160209004810192826127d7576000855561281d565b82601f106127f057805160ff191683800117855561281d565b8280016001018555821561281d579182015b8281111561281d578251825591602001919060010190612802565b5061282992915061282d565b5090565b5b80821115612829576000815560010161282e565b600067ffffffffffffffff83111561285c5761285c612f5d565b61286f601f8401601f1916602001612df8565b905082815283838301111561288357600080fd5b828260208301376000602084830101529392505050565b600082601f8301126128ab57600080fd5b61059783833560208501612842565b6000602082840312156128cc57600080fd5b813561059781612f73565b6000602082840312156128e957600080fd5b815161059781612f73565b6000806040838503121561290757600080fd5b823561291281612f73565b9150602083013561292281612f73565b809150509250929050565b60008060006060848603121561294257600080fd5b833561294d81612f73565b9250602084013561295d81612f73565b929592945050506040919091013590565b6000806000806080858703121561298457600080fd5b843561298f81612f73565b9350602085013561299f81612f73565b925060408501359150606085013567ffffffffffffffff8111156129c257600080fd5b8501601f810187136129d357600080fd5b6129e287823560208401612842565b91505092959194509250565b60008060408385031215612a0157600080fd5b8235612a0c81612f73565b946020939093013593505050565b600080600080600080600080610100898b031215612a3757600080fd5b8835612a4281612f73565b9750602089013596506040890135955060608901359450608089013567ffffffffffffffff80821115612a7457600080fd5b612a808c838d0161289a565b955060a08b0135915080821115612a9657600080fd5b50612aa38b828c0161289a565b93505060c0890135612ab481612f73565b915060e0890135612ac481612f73565b809150509295985092959890939650565b60006020808385031215612ae857600080fd5b823567ffffffffffffffff80821115612b0057600080fd5b818501915085601f830112612b1457600080fd5b813581811115612b2657612b26612f5d565b8060051b9150612b37848301612df8565b8181528481019084860184860187018a1015612b5257600080fd5b600095505b83861015612b815780359450612b6c85612f73565b84835260019590950194918601918601612b57565b5098975050505050505050565b600060208284031215612ba057600080fd5b8151801515811461059757600080fd5b600060208284031215612bc257600080fd5b81516001600160e01b03198116811461059757600080fd5b60008060408385031215612bed57600080fd5b823567ffffffffffffffff80821115612c0557600080fd5b612c118683870161289a565b93506020850135915080821115612c2757600080fd5b50612c348582860161289a565b9150509250929050565b600060208284031215612c5057600080fd5b5035919050565b600060208284031215612c6957600080fd5b5051919050565b60008060408385031215612c8357600080fd5b50508035926020909101359150565b600081518084526020808501945080840160005b83811015612ccb5781516001600160a01b031687529582019590820190600101612ca6565b509495945050505050565b60008151808452612cee816020860160208601612e99565b601f01601f19169290920160200192915050565b60008251612d14818460208701612e99565b9190910192915050565b60006001600160a01b03808716835280861660208401525083604083015260806060830152612d506080830184612cd6565b9695505050505050565b6020815260006105976020830184612c92565b604081526000612d806040830185612c92565b90508260208301529392505050565b6020810160038310612db157634e487b7160e01b600052602160045260246000fd5b91905290565b6020815260006105976020830184612cd6565b604081526000612ddd6040830185612cd6565b8281036020840152612def8185612cd6565b95945050505050565b604051601f8201601f1916810167ffffffffffffffff81118282101715612e2157612e21612f5d565b604052919050565b60008219821115612e3c57612e3c612f1b565b500190565b600082612e5e57634e487b7160e01b600052601260045260246000fd5b500490565b6000816000190483118215151615612e7d57612e7d612f1b565b500290565b600082821015612e9457612e94612f1b565b500390565b60005b83811015612eb4578181015183820152602001612e9c565b83811115611aad5750506000910152565b600181811c90821680612ed957607f821691505b60208210811415612efa57634e487b7160e01b600052602260045260246000fd5b50919050565b6000600019821415612f1457612f14612f1b565b5060010190565b634e487b7160e01b600052601160045260246000fd5b634e487b7160e01b600052602160045260246000fd5b634e487b7160e01b600052603260045260246000fd5b634e487b7160e01b600052604160045260246000fd5b6001600160a01b03811681146118c557600080fdfea26469706673582212202782dc3bc4bca88cd8bdda4f768070dd5ea41926212303805082db414bc550d264736f6c63430008070033608060405234801561001057600080fd5b506040516105cb3803806105cb83398101604081905261002f91610151565b61003833610047565b61004181610097565b50610181565b600080546001600160a01b038381166001600160a01b0319831681178455604051919092169283917f8be0079c531659141344cd1fd0a4f28419497f9722a3daafe3b4186f6b6457e09190a35050565b6100aa8161014260201b6102bd1760201c565b6101205760405162461bcd60e51b815260206004820152603360248201527f5570677261646561626c65426561636f6e3a20696d706c656d656e746174696f60448201527f6e206973206e6f74206120636f6e747261637400000000000000000000000000606482015260840160405180910390fd5b600180546001600160a01b0319166001600160a01b0392909216919091179055565b6001600160a01b03163b151590565b60006020828403121561016357600080fd5b81516001600160a01b038116811461017a57600080fd5b9392505050565b61043b806101906000396000f3fe608060405234801561001057600080fd5b50600436106100675760003560e01c8063715018a611610050578063715018a6146100aa5780638da5cb5b146100b2578063f2fde38b146100c357600080fd5b80633659cfe61461006c5780635c60da1b14610081575b600080fd5b61007f61007a3660046103d5565b6100d6565b005b6001546001600160a01b03165b6040516001600160a01b03909116815260200160405180910390f35b61007f610175565b6000546001600160a01b031661008e565b61007f6100d13660046103d5565b6101db565b6000546001600160a01b031633146101355760405162461bcd60e51b815260206004820181905260248201527f4f776e61626c653a2063616c6c6572206973206e6f7420746865206f776e657260448201526064015b60405180910390fd5b61013e816102cc565b6040516001600160a01b038216907fbc7cd75a20ee27fd9adebab32041f755214dbc6bffa90cc0225b39da2e5c2d3b90600090a250565b6000546001600160a01b031633146101cf5760405162461bcd60e51b815260206004820181905260248201527f4f776e61626c653a2063616c6c6572206973206e6f7420746865206f776e6572604482015260640161012c565b6101d96000610378565b565b6000546001600160a01b031633146102355760405162461bcd60e51b815260206004820181905260248201527f4f776e61626c653a2063616c6c6572206973206e6f7420746865206f776e6572604482015260640161012c565b6001600160a01b0381166102b15760405162461bcd60e51b815260206004820152602660248201527f4f776e61626c653a206e6577206f776e657220697320746865207a65726f206160448201527f6464726573730000000000000000000000000000000000000000000000000000606482015260840161012c565b6102ba81610378565b50565b6001600160a01b03163b151590565b6001600160a01b0381163b6103495760405162461bcd60e51b815260206004820152603360248201527f5570677261646561626c65426561636f6e3a20696d706c656d656e746174696f60448201527f6e206973206e6f74206120636f6e747261637400000000000000000000000000606482015260840161012c565b6001805473ffffffffffffffffffffffffffffffffffffffff19166001600160a01b0392909216919091179055565b600080546001600160a01b0383811673ffffffffffffffffffffffffffffffffffffffff19831681178455604051919092169283917f8be0079c531659141344cd1fd0a4f28419497f9722a3daafe3b4186f6b6457e09190a35050565b6000602082840312156103e757600080fd5b81356001600160a01b03811681146103fe57600080fd5b939250505056fea2646970667358221220fd948c1f7b0e9cbacdcf03f5ff4ee4028c3961be6dbd728131212d12fc2aca3264736f6c634300080700336080604052604051620009d4380380620009d483398101604081905261002491610487565b61004f60017fa3f0ad74e5423aebfd80d3ef4346578335a9a72aeaee59ff6cb3582b35133d51610596565b6000805160206200098d8339815191521461006c5761006c6105e7565b6100788282600061007f565b5050610613565b61008883610159565b6040516001600160a01b038416907f1cf3b03a6cf19fa2baba4df148e9dcabedea7f8a5c07840e207e5c089be95d3e90600090a26000825111806100c95750805b1561015457610152836001600160a01b0316635c60da1b6040518163ffffffff1660e01b815260040160206040518083038186803b15801561010a57600080fd5b505afa15801561011e573d6000803e3d6000fd5b505050506040513d601f19601f82011682018060405250810190610142919061046c565b836102fa60201b6100291760201c565b505b505050565b61016c8161032760201b6100551760201c565b6101cb5760405162461bcd60e51b815260206004820152602560248201527f455243313936373a206e657720626561636f6e206973206e6f74206120636f6e6044820152641d1c9858dd60da1b60648201526084015b60405180910390fd5b61024e816001600160a01b0316635c60da1b6040518163ffffffff1660e01b815260040160206040518083038186803b15801561020757600080fd5b505afa15801561021b573d6000803e3d6000fd5b505050506040513d601f19601f8201168201806040525081019061023f919061046c565b61032760201b6100551760201c565b6102b35760405162461bcd60e51b815260206004820152603060248201527f455243313936373a20626561636f6e20696d706c656d656e746174696f6e206960448201526f1cc81b9bdd08184818dbdb9d1c9858dd60821b60648201526084016101c2565b806102d96000805160206200098d83398151915260001b61033660201b6100641760201c565b80546001600160a01b0319166001600160a01b039290921691909117905550565b60606103208383604051806060016040528060278152602001620009ad60279139610339565b9392505050565b6001600160a01b03163b151590565b90565b60606001600160a01b0384163b6103a15760405162461bcd60e51b815260206004820152602660248201527f416464726573733a2064656c65676174652063616c6c20746f206e6f6e2d636f6044820152651b9d1c9858dd60d21b60648201526084016101c2565b600080856001600160a01b0316856040516103bc9190610547565b600060405180830381855af49150503d80600081146103f7576040519150601f19603f3d011682016040523d82523d6000602084013e6103fc565b606091505b50909250905061040d828286610417565b9695505050505050565b60608315610426575081610320565b8251156104365782518084602001fd5b8160405162461bcd60e51b81526004016101c29190610563565b80516001600160a01b038116811461046757600080fd5b919050565b60006020828403121561047e57600080fd5b61032082610450565b6000806040838503121561049a57600080fd5b6104a383610450565b60208401519092506001600160401b03808211156104c057600080fd5b818501915085601f8301126104d457600080fd5b8151818111156104e6576104e66105fd565b604051601f8201601f19908116603f0116810190838211818310171561050e5761050e6105fd565b8160405282815288602084870101111561052757600080fd5b6105388360208301602088016105bb565b80955050505050509250929050565b600082516105598184602087016105bb565b9190910192915050565b60208152600082518060208401526105828160408501602087016105bb565b601f01601f19169190910160400192915050565b6000828210156105b657634e487b7160e01b600052601160045260246000fd5b500390565b60005b838110156105d65781810151838201526020016105be565b838111156101525750506000910152565b634e487b7160e01b600052600160045260246000fd5b634e487b7160e01b600052604160045260246000fd5b61036a80620006236000396000f3fe60806040523661001357610011610017565b005b6100115b610027610022610067565b61010f565b565b606061004e838360405180606001604052806027815260200161030e60279139610133565b9392505050565b6001600160a01b03163b151590565b90565b600061009a7fa3f0ad74e5423aebfd80d3ef4346578335a9a72aeaee59ff6cb3582b35133d50546001600160a01b031690565b6001600160a01b0316635c60da1b6040518163ffffffff1660e01b815260040160206040518083038186803b1580156100d257600080fd5b505afa1580156100e6573d6000803e3d6000fd5b505050506040513d601f19601f8201168201806040525081019061010a9190610265565b905090565b3660008037600080366000845af43d6000803e80801561012e573d6000f35b3d6000fd5b60606001600160a01b0384163b6101b75760405162461bcd60e51b815260206004820152602660248201527f416464726573733a2064656c65676174652063616c6c20746f206e6f6e2d636f60448201527f6e7472616374000000000000000000000000000000000000000000000000000060648201526084015b60405180910390fd5b600080856001600160a01b0316856040516101d2919061028e565b600060405180830381855af49150503d806000811461020d576040519150601f19603f3d011682016040523d82523d6000602084013e610212565b606091505b509150915061022282828661022c565b9695505050505050565b6060831561023b57508161004e565b82511561024b5782518084602001fd5b8160405162461bcd60e51b81526004016101ae91906102aa565b60006020828403121561027757600080fd5b81516001600160a01b038116811461004e57600080fd5b600082516102a08184602087016102dd565b9190910192915050565b60208152600082518060208401526102c98160408501602087016102dd565b601f01601f19169190910160400192915050565b60005b838110156102f85781810151838201526020016102e0565b83811115610307576000848401525b5050505056fe416464726573733a206c6f772d6c6576656c2064656c65676174652063616c6c206661696c6564a2646970667358221220c94e9a8ad692436d2b6fc9bd3a871868f5db6752f899772fdef24a2ab161d9c264736f6c63430008070033a3f0ad74e5423aebfd80d3ef4346578335a9a72aeaee59ff6cb3582b35133d50416464726573733a206c6f772d6c6576656c2064656c65676174652063616c6c206661696c6564a2646970667358221220b4e345d608b2f3c13ec405d3845f6f5503141456b5ba34905a9d37eff065be8664736f6c63430008070033",
  "linkReferences": {},
  "deployedLinkReferences": {}
}