{
  "_format": "hh-sol-artifact-1",
  "contractName": "Ampersand",
  "sourceName": "contracts/Ampersand.sol",
  "abi": [
    {
      "anonymous": false,
      "inputs": [
        {
          "indexed": false,
          "internalType": "address",
          "name": "previousAdmin",
          "type": "address"
        },
        {
          "indexed": false,
          "internalType": "address",
          "name": "newAdmin",
          "type": "address"
        }
      ],
      "name": "AdminChanged",
      "type": "event"
    },
    {
      "anonymous": false,
      "inputs": [
        {
          "indexed": true,
          "internalType": "address",
          "name": "caller",
          "type": "address"
        },
        {
          "indexed": true,
          "internalType": "address",
          "name": "minter",
          "type": "address"
        },
        {
          "indexed": false,
          "internalType": "uint256",
          "name": "decreasedby",
          "type": "uint256"
        },
        {
          "indexed": false,
          "internalType": "uint256",
          "name": "newAllowance",
          "type": "uint256"
        }
      ],
      "name": "AllowanceDecreased",
      "type": "event"
    },
    {
      "anonymous": false,
      "inputs": [
        {
          "indexed": true,
          "internalType": "address",
          "name": "caller",
          "type": "address"
        },
        {
          "indexed": true,
          "internalType": "address",
          "name": "minter",
          "type": "address"
        },
        {
          "indexed": false,
          "internalType": "uint256",
          "name": "increasedby",
          "type": "uint256"
        },
        {
          "indexed": false,
          "internalType": "uint256",
          "name": "newAllowance",
          "type": "uint256"
        }
      ],
      "name": "AllowanceIncreased",
      "type": "event"
    },
    {
      "anonymous": false,
      "inputs": [
        {
          "indexed": true,
          "internalType": "address",
          "name": "owner",
          "type": "address"
        },
        {
          "indexed": true,
          "internalType": "address",
          "name": "spender",
          "type": "address"
        },
        {
          "indexed": false,
          "internalType": "uint256",
          "name": "value",
          "type": "uint256"
        }
      ],
      "name": "Approval",
      "type": "event"
    },
    {
      "anonymous": false,
      "inputs": [
        {
          "indexed": true,
          "internalType": "address",
          "name": "beacon",
          "type": "address"
        }
      ],
      "name": "BeaconUpgraded",
      "type": "event"
    },
    {
      "anonymous": false,
      "inputs": [
        {
          "indexed": false,
          "internalType": "address",
          "name": "executor",
          "type": "address"
        },
        {
          "indexed": false,
          "internalType": "address",
          "name": "from",
          "type": "address"
        },
        {
          "indexed": false,
          "internalType": "uint256",
          "name": "amount",
          "type": "uint256"
        }
      ],
      "name": "Burn",
      "type": "event"
    },
    {
      "anonymous": false,
      "inputs": [
        {
          "indexed": false,
          "internalType": "uint8",
          "name": "version",
          "type": "uint8"
        }
      ],
      "name": "Initialized",
      "type": "event"
    },
    {
      "anonymous": false,
      "inputs": [
        {
          "indexed": true,
          "internalType": "address",
          "name": "manager",
          "type": "address"
        },
        {
          "indexed": true,
          "internalType": "address",
          "name": "minter",
          "type": "address"
        },
        {
          "indexed": false,
          "internalType": "uint256",
          "name": "minterId",
          "type": "uint256"
        }
      ],
      "name": "ManagerAssigned",
      "type": "event"
    },
    {
      "anonymous": false,
      "inputs": [
        {
          "indexed": false,
          "internalType": "address",
          "name": "oldManager",
          "type": "address"
        },
        {
          "indexed": true,
          "internalType": "address",
          "name": "newManager",
          "type": "address"
        }
      ],
      "name": "ManagerChanged",
      "type": "event"
    },
    {
      "anonymous": false,
      "inputs": [
        {
          "indexed": true,
          "internalType": "address",
          "name": "executor",
          "type": "address"
        },
        {
          "indexed": false,
          "internalType": "address",
          "name": "to",
          "type": "address"
        },
        {
          "indexed": false,
          "internalType": "uint256",
          "name": "amount",
          "type": "uint256"
        }
      ],
      "name": "Mint",
      "type": "event"
    },
    {
      "anonymous": false,
      "inputs": [
        {
          "indexed": true,
          "internalType": "address",
          "name": "caller",
          "type": "address"
        },
        {
          "indexed": true,
          "internalType": "address",
          "name": "minter",
          "type": "address"
        },
        {
          "indexed": false,
          "internalType": "uint256",
          "name": "amount",
          "type": "uint256"
        }
      ],
      "name": "MintAllowance",
      "type": "event"
    },
    {
      "anonymous": false,
      "inputs": [
        {
          "indexed": false,
          "internalType": "address",
          "name": "caller",
          "type": "address"
        },
        {
          "indexed": false,
          "internalType": "address",
          "name": "minter",
          "type": "address"
        }
      ],
      "name": "MinterRemoved",
      "type": "event"
    },
    {
      "anonymous": false,
      "inputs": [
        {
          "indexed": true,
          "internalType": "address",
          "name": "previousOwner",
          "type": "address"
        },
        {
          "indexed": true,
          "internalType": "address",
          "name": "newOwner",
          "type": "address"
        }
      ],
      "name": "OwnershipTransferred",
      "type": "event"
    },
    {
      "anonymous": false,
      "inputs": [
        {
          "indexed": false,
          "internalType": "address",
          "name": "account",
          "type": "address"
        }
      ],
      "name": "Paused",
      "type": "event"
    },
    {
      "anonymous": false,
      "inputs": [
        {
          "indexed": true,
          "internalType": "address",
          "name": "from",
          "type": "address"
        },
        {
          "indexed": true,
          "internalType": "address",
          "name": "to",
          "type": "address"
        },
        {
          "indexed": false,
          "internalType": "uint256",
          "name": "value",
          "type": "uint256"
        }
      ],
      "name": "Transfer",
      "type": "event"
    },
    {
      "anonymous": false,
      "inputs": [
        {
          "indexed": false,
          "internalType": "address",
          "name": "account",
          "type": "address"
        }
      ],
      "name": "Unpaused",
      "type": "event"
    },
    {
      "anonymous": false,
      "inputs": [
        {
          "indexed": true,
          "internalType": "address",
          "name": "implementation",
          "type": "address"
        }
      ],
      "name": "Upgraded",
      "type": "event"
    },
    {
      "inputs": [
        {
          "internalType": "address",
          "name": "verifiedContract",
          "type": "address"
        }
      ],
      "name": "__Ampersand_init",
      "outputs": [],
      "stateMutability": "nonpayable",
      "type": "function"
    },
    {
      "inputs": [
        {
          "internalType": "address",
          "name": "manager",
          "type": "address"
        }
      ],
      "name": "allManagerMinters",
      "outputs": [
        {
          "internalType": "address[]",
          "name": "",
          "type": "address[]"
        }
      ],
      "stateMutability": "view",
      "type": "function"
    },
    {
      "inputs": [
        {
          "internalType": "address",
          "name": "owner",
          "type": "address"
        },
        {
          "internalType": "address",
          "name": "spender",
          "type": "address"
        }
      ],
      "name": "allowance",
      "outputs": [
        {
          "internalType": "uint256",
          "name": "",
          "type": "uint256"
        }
      ],
      "stateMutability": "view",
      "type": "function"
    },
    {
      "inputs": [
        {
          "internalType": "address",
          "name": "spender",
          "type": "address"
        },
        {
          "internalType": "uint256",
          "name": "amount",
          "type": "uint256"
        }
      ],
      "name": "approve",
      "outputs": [
        {
          "internalType": "bool",
          "name": "",
          "type": "bool"
        }
      ],
      "stateMutability": "nonpayable",
      "type": "function"
    },
    {
      "inputs": [
        {
          "internalType": "address",
          "name": "minter",
          "type": "address"
        },
        {
          "internalType": "address",
          "name": "manager",
          "type": "address"
        }
      ],
      "name": "assignManager",
      "outputs": [
        {
          "internalType": "bool",
          "name": "",
          "type": "bool"
        }
      ],
      "stateMutability": "nonpayable",
      "type": "function"
    },
    {
      "inputs": [
        {
          "internalType": "address",
          "name": "account",
          "type": "address"
        }
      ],
      "name": "balanceOf",
      "outputs": [
        {
          "internalType": "uint256",
          "name": "",
          "type": "uint256"
        }
      ],
      "stateMutability": "view",
      "type": "function"
    },
    {
      "inputs": [
        {
          "internalType": "address",
          "name": "from",
          "type": "address"
        },
        {
          "internalType": "uint256",
          "name": "amount",
          "type": "uint256"
        }
      ],
      "name": "burn",
      "outputs": [],
      "stateMutability": "nonpayable",
      "type": "function"
    },
    {
      "inputs": [
        {
          "internalType": "address",
          "name": "newManager",
          "type": "address"
        },
        {
          "internalType": "address",
          "name": "prevManager",
          "type": "address"
        },
        {
          "internalType": "address",
          "name": "minter",
          "type": "address"
        },
        {
          "internalType": "uint256",
          "name": "_index",
          "type": "uint256"
        }
      ],
      "name": "changeManager",
      "outputs": [],
      "stateMutability": "nonpayable",
      "type": "function"
    },
    {
      "inputs": [
        {
          "internalType": "address",
          "name": "minter",
          "type": "address"
        },
        {
          "internalType": "uint256",
          "name": "decrease",
          "type": "uint256"
        }
      ],
      "name": "decareseMinterAllowance",
      "outputs": [],
      "stateMutability": "nonpayable",
      "type": "function"
    },
    {
      "inputs": [],
      "name": "decimals",
      "outputs": [
        {
          "internalType": "uint8",
          "name": "",
          "type": "uint8"
        }
      ],
      "stateMutability": "view",
      "type": "function"
    },
    {
      "inputs": [
        {
          "internalType": "address",
          "name": "spender",
          "type": "address"
        },
        {
          "internalType": "uint256",
          "name": "subtractedValue",
          "type": "uint256"
        }
      ],
      "name": "decreaseAllowance",
      "outputs": [
        {
          "internalType": "bool",
          "name": "",
          "type": "bool"
        }
      ],
      "stateMutability": "nonpayable",
      "type": "function"
    },
    {
      "inputs": [
        {
          "internalType": "address",
          "name": "spender",
          "type": "address"
        },
        {
          "internalType": "uint256",
          "name": "addedValue",
          "type": "uint256"
        }
      ],
      "name": "increaseAllowance",
      "outputs": [
        {
          "internalType": "bool",
          "name": "",
          "type": "bool"
        }
      ],
      "stateMutability": "nonpayable",
      "type": "function"
    },
    {
      "inputs": [
        {
          "internalType": "address",
          "name": "minter",
          "type": "address"
        },
        {
          "internalType": "uint256",
          "name": "increase",
          "type": "uint256"
        }
      ],
      "name": "increaseMintAllowance",
      "outputs": [],
      "stateMutability": "nonpayable",
      "type": "function"
    },
    {
      "inputs": [
        {
          "internalType": "address",
          "name": "manager",
          "type": "address"
        },
        {
          "internalType": "address",
          "name": "minter",
          "type": "address"
        }
      ],
      "name": "isManager",
      "outputs": [
        {
          "internalType": "bool",
          "name": "",
          "type": "bool"
        }
      ],
      "stateMutability": "view",
      "type": "function"
    },
    {
      "inputs": [
        {
          "internalType": "address",
          "name": "minter",
          "type": "address"
        }
      ],
      "name": "isMinter",
      "outputs": [
        {
          "internalType": "bool",
          "name": "",
          "type": "bool"
        }
      ],
      "stateMutability": "view",
      "type": "function"
    },
    {
      "inputs": [],
      "name": "isPaused",
      "outputs": [
        {
          "internalType": "bool",
          "name": "",
          "type": "bool"
        }
      ],
      "stateMutability": "view",
      "type": "function"
    },
    {
      "inputs": [
        {
          "internalType": "address",
          "name": "manager",
          "type": "address"
        }
      ],
      "name": "managerMintersCount",
      "outputs": [
        {
          "internalType": "uint256",
          "name": "",
          "type": "uint256"
        }
      ],
      "stateMutability": "view",
      "type": "function"
    },
    {
      "inputs": [
        {
          "internalType": "address",
          "name": "safe",
          "type": "address"
        },
        {
          "internalType": "uint256",
          "name": "amount",
          "type": "uint256"
        }
      ],
      "name": "mint",
      "outputs": [],
      "stateMutability": "nonpayable",
      "type": "function"
    },
    {
      "inputs": [
        {
          "internalType": "address",
          "name": "manager",
          "type": "address"
        },
        {
          "internalType": "uint256",
          "name": "id",
          "type": "uint256"
        }
      ],
      "name": "minterAddress",
      "outputs": [
        {
          "internalType": "address",
          "name": "",
          "type": "address"
        }
      ],
      "stateMutability": "view",
      "type": "function"
    },
    {
      "inputs": [
        {
          "internalType": "address",
          "name": "minter",
          "type": "address"
        }
      ],
      "name": "minterAllowance",
      "outputs": [
        {
          "internalType": "uint256",
          "name": "",
          "type": "uint256"
        }
      ],
      "stateMutability": "view",
      "type": "function"
    },
    {
      "inputs": [],
      "name": "name",
      "outputs": [
        {
          "internalType": "string",
          "name": "",
          "type": "string"
        }
      ],
      "stateMutability": "view",
      "type": "function"
    },
    {
      "inputs": [],
      "name": "owner",
      "outputs": [
        {
          "internalType": "address",
          "name": "",
          "type": "address"
        }
      ],
      "stateMutability": "view",
      "type": "function"
    },
    {
      "inputs": [],
      "name": "pauseOps",
      "outputs": [],
      "stateMutability": "nonpayable",
      "type": "function"
    },
    {
      "inputs": [],
      "name": "proxiableUUID",
      "outputs": [
        {
          "internalType": "bytes32",
          "name": "",
          "type": "bytes32"
        }
      ],
      "stateMutability": "view",
      "type": "function"
    },
    {
      "inputs": [
        {
          "internalType": "address",
          "name": "minter",
          "type": "address"
        }
      ],
      "name": "removeMinter",
      "outputs": [
        {
          "internalType": "bool",
          "name": "",
          "type": "bool"
        }
      ],
      "stateMutability": "nonpayable",
      "type": "function"
    },
    {
      "inputs": [],
      "name": "renounceOwnership",
      "outputs": [],
      "stateMutability": "nonpayable",
      "type": "function"
    },
    {
      "inputs": [
        {
          "internalType": "address",
          "name": "minter",
          "type": "address"
        },
        {
          "internalType": "uint256",
          "name": "allowance",
          "type": "uint256"
        }
      ],
      "name": "setAllowance",
      "outputs": [],
      "stateMutability": "nonpayable",
      "type": "function"
    },
    {
      "inputs": [],
      "name": "symbol",
      "outputs": [
        {
          "internalType": "string",
          "name": "",
          "type": "string"
        }
      ],
      "stateMutability": "view",
      "type": "function"
    },
    {
      "inputs": [],
      "name": "totalSupply",
      "outputs": [
        {
          "internalType": "uint256",
          "name": "",
          "type": "uint256"
        }
      ],
      "stateMutability": "view",
      "type": "function"
    },
    {
      "inputs": [
        {
          "internalType": "address",
          "name": "to",
          "type": "address"
        },
        {
          "internalType": "uint256",
          "name": "amount",
          "type": "uint256"
        }
      ],
      "name": "transfer",
      "outputs": [
        {
          "internalType": "bool",
          "name": "",
          "type": "bool"
        }
      ],
      "stateMutability": "nonpayable",
      "type": "function"
    },
    {
      "inputs": [
        {
          "internalType": "address",
          "name": "from",
          "type": "address"
        },
        {
          "internalType": "address",
          "name": "to",
          "type": "address"
        },
        {
          "internalType": "uint256",
          "name": "amount",
          "type": "uint256"
        }
      ],
      "name": "transferFrom",
      "outputs": [
        {
          "internalType": "bool",
          "name": "",
          "type": "bool"
        }
      ],
      "stateMutability": "nonpayable",
      "type": "function"
    },
    {
      "inputs": [
        {
          "internalType": "address",
          "name": "newOwner",
          "type": "address"
        }
      ],
      "name": "transferOwnership",
      "outputs": [],
      "stateMutability": "nonpayable",
      "type": "function"
    },
    {
      "inputs": [],
      "name": "unpauseOps",
      "outputs": [],
      "stateMutability": "nonpayable",
      "type": "function"
    },
    {
      "inputs": [
        {
          "internalType": "address",
          "name": "newImplementation",
          "type": "address"
        }
      ],
      "name": "upgradeTo",
      "outputs": [],
      "stateMutability": "nonpayable",
      "type": "function"
    },
    {
      "inputs": [
        {
          "internalType": "address",
          "name": "newImplementation",
          "type": "address"
        },
        {
          "internalType": "bytes",
          "name": "data",
          "type": "bytes"
        }
      ],
      "name": "upgradeToAndCall",
      "outputs": [],
      "stateMutability": "payable",
      "type": "function"
    }
  ],
  "bytecode": "0x60a06040523060601b60805234801561001757600080fd5b5060805160601c6137f961005260003960008181610c7001528181610cf50152818161113d015281816111c201526112a801526137f96000f3fe6080604052600436106102345760003560e01c8063715018a611610138578063aa271e1a116100b0578063dd62ed3e1161007f578063e2c892ec11610064578063e2c892ec146106c3578063f2fde38b146106f0578063f37f6a341461071057600080fd5b8063dd62ed3e1461065d578063df6797ef146106a357600080fd5b8063aa271e1a146105e5578063b187bd261461061e578063c9889a9e14610633578063dc017c7f1461064857600080fd5b80638da5cb5b116101075780639dc29fac116100ec5780639dc29fac14610585578063a457c2d7146105a5578063a9059cbb146105c557600080fd5b80638da5cb5b1461055257806395d89b411461057057600080fd5b8063715018a6146104c6578063785a47f8146104db5780638a6db9c3146104fb5780638ad34d0f1461053257600080fd5b8063310ec4a7116101cb57806340c10f191161019a57806352d1902d1161017f57806352d1902d146104455780636d1deb9c1461045a57806370a082311461049057600080fd5b806340c10f19146104125780634f1ef2861461043257600080fd5b8063310ec4a714610396578063313ce567146103b65780633659cfe6146103d257806339509351146103f257600080fd5b806318160ddd1161020757806318160ddd146102ee57806323b872dd1461030d5780632ef0e1ca1461032d5780633092afd51461037657600080fd5b8063025d3b991461023957806306fdde031461025b578063095ea7b314610286578063119c11e6146102b6575b600080fd5b34801561024557600080fd5b506102596102543660046133fb565b610730565b005b34801561026757600080fd5b50610270610847565b60405161027d9190613660565b60405180910390f35b34801561029257600080fd5b506102a66102a1366004613592565b6108d9565b604051901515815260200161027d565b3480156102c257600080fd5b506102d66102d1366004613592565b6108f1565b6040516001600160a01b03909116815260200161027d565b3480156102fa57600080fd5b50606a545b60405190815260200161027d565b34801561031957600080fd5b506102a6610328366004613494565b610937565b34801561033957600080fd5b506102a6610348366004613416565b6001600160a01b03918216600090815260666020908152604080832093909416825291909152205460ff1690565b34801561038257600080fd5b506102a66103913660046133fb565b61095d565b3480156103a257600080fd5b506102596103b1366004613592565b610aeb565b3480156103c257600080fd5b506040516006815260200161027d565b3480156103de57600080fd5b506102596103ed3660046133fb565b610c65565b3480156103fe57600080fd5b506102a661040d366004613592565b610de1565b34801561041e57600080fd5b5061025961042d366004613592565b610e20565b6102596104403660046134d0565b611132565b34801561045157600080fd5b506102ff61129b565b34801561046657600080fd5b506102ff6104753660046133fb565b6001600160a01b031660009081526065602052604090205490565b34801561049c57600080fd5b506102ff6104ab3660046133fb565b6001600160a01b031660009081526068602052604090205490565b3480156104d257600080fd5b50610259611360565b3480156104e757600080fd5b506102596104f6366004613592565b6113c6565b34801561050757600080fd5b506102ff6105163660046133fb565b6001600160a01b03166000908152610162602052604090205490565b34801561053e57600080fd5b5061025961054d366004613592565b61156c565b34801561055e57600080fd5b506033546001600160a01b03166102d6565b34801561057c57600080fd5b5061027061178d565b34801561059157600080fd5b506102596105a0366004613592565b61179c565b3480156105b157600080fd5b506102a66105c0366004613592565b611896565b3480156105d157600080fd5b506102a66105e0366004613592565b61194b565b3480156105f157600080fd5b506102a66106003660046133fb565b6001600160a01b031660009081526067602052604090205460ff1690565b34801561062a57600080fd5b506102a6611959565b34801561063f57600080fd5b5061025961196c565b34801561065457600080fd5b506102596119ce565b34801561066957600080fd5b506102ff610678366004613416565b6001600160a01b03918216600090815260696020908152604080832093909416825291909152205490565b3480156106af57600080fd5b506102596106be366004613449565b611a30565b3480156106cf57600080fd5b506106e36106de3660046133fb565b611d6e565b60405161027d9190613613565b3480156106fc57600080fd5b5061025961070b3660046133fb565b611de4565b34801561071c57600080fd5b506102a661072b366004613416565b611ec3565b600061073c600161207e565b90508015610754576000805461ff0019166101001790555b6107c86040518060400160405280600981526020017f416d70657273616e6400000000000000000000000000000000000000000000008152506040518060400160405280600381526020017f414e4400000000000000000000000000000000000000000000000000000000008152506121b2565b6107d0612227565b6107d861229a565b6107e061230d565b61016380546001600160a01b0319166001600160a01b0384161790558015610843576000805461ff0019169055604051600181527f7f26b83ff96e1f2b6a682f133852f6798a09c465da95921460cefb3847402498906020015b60405180910390a15b5050565b6060606b8054610856906136ee565b80601f0160208091040260200160405190810160405280929190818152602001828054610882906136ee565b80156108cf5780601f106108a4576101008083540402835291602001916108cf565b820191906000526020600020905b8154815290600101906020018083116108b257829003601f168201915b5050505050905090565b6000336108e7818585612378565b5060019392505050565b6001600160a01b038216600090815260656020526040812080548390811061091b5761091b613770565b6000918252602090912001546001600160a01b03169392505050565b6000336109458582856123db565b610950858585612467565b60019150505b9392505050565b6033546000906001600160a01b031633146109bf5760405162461bcd60e51b815260206004820181905260248201527f4f776e61626c653a2063616c6c6572206973206e6f7420746865206f776e657260448201526064015b60405180910390fd5b609a5460ff1615610a055760405162461bcd60e51b815260206004820152601060248201526f14185d5cd8589b194e881c185d5cd95960821b60448201526064016109b6565b6001600160a01b03821660009081526067602052604090205460ff16610a6d5760405162461bcd60e51b815260206004820152601f60248201527f416d70657273616e643a206d696e74657220646f65736e6f742065786973740060448201526064016109b6565b6001600160a01b038216600081815260676020908152604091829020805460ff191690558151338152908101929092527f4b5ef9a786cf64a7d82ebcf2d5132667edc9faef4ac36260d9a9e52c526b6232910160405180910390a1506001600160a01b03811660009081526067602052604090205460ff165b919050565b3360008181526066602090815260408083206001600160a01b0387168452909152902054839060ff161515600114610b715760405162461bcd60e51b8152602060048201526024808201527f4d616e616765723a206d616e6167657220616e64206d696e746572206d69736d6044820152630c2e8c6d60e31b60648201526084016109b6565b609a5460ff1615610bb75760405162461bcd60e51b815260206004820152601060248201526f14185d5cd8589b194e881c185d5cd95960821b60448201526064016109b6565b60008311610c075760405162461bcd60e51b815260206004820152600e60248201527f7a65726f20616c6c6f77616e636500000000000000000000000000000000000060448201526064016109b6565b6001600160a01b03841660008181526101626020526040908190208590555133907f0604cca411aa14b55fed2ea24e65202c55fcbef329bd683d55a21abc26263c9f90610c579087815260200190565b60405180910390a350505050565b306001600160a01b037f0000000000000000000000000000000000000000000000000000000000000000161415610cf35760405162461bcd60e51b815260206004820152602c60248201527f46756e6374696f6e206d7573742062652063616c6c6564207468726f7567682060448201526b19195b1959d85d1958d85b1b60a21b60648201526084016109b6565b7f00000000000000000000000000000000000000000000000000000000000000006001600160a01b0316610d4e7f360894a13ba1a3210667c828492db98dca3e2076cc3735a920a3ca505d382bbc546001600160a01b031690565b6001600160a01b031614610db95760405162461bcd60e51b815260206004820152602c60248201527f46756e6374696f6e206d7573742062652063616c6c6564207468726f7567682060448201526b6163746976652070726f787960a01b60648201526084016109b6565b610dc281612472565b60408051600080825260208201909252610dde9183919061259f565b50565b3360008181526069602090815260408083206001600160a01b03871684529091528120549091906108e79082908690610e1b908790613693565b612378565b600260cc541415610e735760405162461bcd60e51b815260206004820152601f60248201527f5265656e7472616e637947756172643a207265656e7472616e742063616c6c0060448201526064016109b6565b600260cc556001600160a01b0382163b610ecf5760405162461bcd60e51b815260206004820152601460248201527f73616665206973206e6f7420636f6e747261637400000000000000000000000060448201526064016109b6565b6001600160a01b038216610f255760405162461bcd60e51b815260206004820152601460248201527f73616665206973207a65726f206164647265737300000000000000000000000060448201526064016109b6565b610163546040517fb9209e330000000000000000000000000000000000000000000000000000000081523360048201526001600160a01b039091169063b9209e339060240160206040518083038186803b158015610f8257600080fd5b505afa158015610f96573d6000803e3d6000fd5b505050506040513d601f19601f82011682018060405250810190610fba91906135bc565b6110065760405162461bcd60e51b815260206004820152601d60248201527f416d70657273616e643a20756e7665726966696564206163636f756e7400000060448201526064016109b6565b3360009081526067602052604090205460ff166110655760405162461bcd60e51b815260206004820152601e60248201527f416d70657273616e643a20756e617574686f72697a6564206d696e746572000060448201526064016109b6565b33600090815261016260205260409020548181146110c55760405162461bcd60e51b815260206004820152601f60248201527f416d70657273616e643a206d696e7420657861637420616c6c6f77616e63650060448201526064016109b6565b3360009081526101626020526040902082820390556110e4838361274e565b604080516001600160a01b03851681526020810184905233917fab8530f87dc9b59234c4623bf917212bb2536d647574c8e7e5da92c2ede0c9f8910160405180910390a25050600160cc5550565b306001600160a01b037f00000000000000000000000000000000000000000000000000000000000000001614156111c05760405162461bcd60e51b815260206004820152602c60248201527f46756e6374696f6e206d7573742062652063616c6c6564207468726f7567682060448201526b19195b1959d85d1958d85b1b60a21b60648201526084016109b6565b7f00000000000000000000000000000000000000000000000000000000000000006001600160a01b031661121b7f360894a13ba1a3210667c828492db98dca3e2076cc3735a920a3ca505d382bbc546001600160a01b031690565b6001600160a01b0316146112865760405162461bcd60e51b815260206004820152602c60248201527f46756e6374696f6e206d7573742062652063616c6c6564207468726f7567682060448201526b6163746976652070726f787960a01b60648201526084016109b6565b61128f82612472565b6108438282600161259f565b6000306001600160a01b037f0000000000000000000000000000000000000000000000000000000000000000161461133b5760405162461bcd60e51b815260206004820152603860248201527f555550535570677261646561626c653a206d757374206e6f742062652063616c60448201527f6c6564207468726f7567682064656c656761746563616c6c000000000000000060648201526084016109b6565b507f360894a13ba1a3210667c828492db98dca3e2076cc3735a920a3ca505d382bbc90565b6033546001600160a01b031633146113ba5760405162461bcd60e51b815260206004820181905260248201527f4f776e61626c653a2063616c6c6572206973206e6f7420746865206f776e657260448201526064016109b6565b6113c4600061275a565b565b3360008181526066602090815260408083206001600160a01b0387168452909152902054839060ff16151560011461144c5760405162461bcd60e51b8152602060048201526024808201527f4d616e616765723a206d616e6167657220616e64206d696e746572206d69736d6044820152630c2e8c6d60e31b60648201526084016109b6565b609a5460ff16156114925760405162461bcd60e51b815260206004820152601060248201526f14185d5cd8589b194e881c185d5cd95960821b60448201526064016109b6565b600083116114e25760405162461bcd60e51b815260206004820152601560248201527f6e657720616c6c6f77616e6365206973207a65726f000000000000000000000060448201526064016109b6565b6001600160a01b03841660009081526101626020526040812054906115078583613693565b6001600160a01b038716600081815261016260209081526040918290208490558151898152908101849052929350909133917f2e4c065f8b98751ee8f46f252f4dc025cd8a7e2678ff7aaf17a09e45dfb90f31910160405180910390a3505050505050565b3360008181526066602090815260408083206001600160a01b0387168452909152902054839060ff1615156001146115f25760405162461bcd60e51b8152602060048201526024808201527f4d616e616765723a206d616e6167657220616e64206d696e746572206d69736d6044820152630c2e8c6d60e31b60648201526084016109b6565b609a5460ff16156116385760405162461bcd60e51b815260206004820152601060248201526f14185d5cd8589b194e881c185d5cd95960821b60448201526064016109b6565b600083116116885760405162461bcd60e51b815260206004820152601160248201527f64656372656d656e74206973207a65726f00000000000000000000000000000060448201526064016109b6565b6001600160a01b038416600090815261016260205260409020548381106117185760006116b585836136ab565b6001600160a01b038716600081815261016260209081526040918290208490558151898152908101849052929350909133917f564d5b84666750783951d00ec83238c47421a3c9bdda4412fc24feb1b285dd37910160405180910390a350611786565b60405162461bcd60e51b815260206004820152602c60248201527f63757272656e7420616c6c6f77616e6365206c657373207468616e206465637260448201527f656173696e672076616c7565000000000000000000000000000000000000000060648201526084016109b6565b5050505050565b6060606c8054610856906136ee565b6033546001600160a01b031633146117f65760405162461bcd60e51b815260206004820181905260248201527f4f776e61626c653a2063616c6c6572206973206e6f7420746865206f776e657260448201526064016109b6565b600081116118465760405162461bcd60e51b815260206004820152600f60248201527f6e6f7468696e6720746f206275726e000000000000000000000000000000000060448201526064016109b6565b61185082826127ac565b604080513381526001600160a01b03841660208201529081018290527fbac40739b0d4ca32fa2d82fc91630465ba3eddd1598da6fca393b26fb63b94539060600161083a565b3360008181526069602090815260408083206001600160a01b0387168452909152812054909190838110156119335760405162461bcd60e51b815260206004820152602560248201527f45524332303a2064656372656173656420616c6c6f77616e63652062656c6f7760448201527f207a65726f00000000000000000000000000000000000000000000000000000060648201526084016109b6565b6119408286868403612378565b506001949350505050565b6000336108e7818585612467565b6000611967609a5460ff1690565b905090565b6033546001600160a01b031633146119c65760405162461bcd60e51b815260206004820181905260248201527f4f776e61626c653a2063616c6c6572206973206e6f7420746865206f776e657260448201526064016109b6565b6113c46127b8565b6033546001600160a01b03163314611a285760405162461bcd60e51b815260206004820181905260248201527f4f776e61626c653a2063616c6c6572206973206e6f7420746865206f776e657260448201526064016109b6565b6113c4612854565b6033546001600160a01b03163314611a8a5760405162461bcd60e51b815260206004820181905260248201527f4f776e61626c653a2063616c6c6572206973206e6f7420746865206f776e657260448201526064016109b6565b6001600160a01b03821660009081526067602052604090205460ff16611af25760405162461bcd60e51b815260206004820152601e60248201527f4d616e616765723a206d696e74657220646f6573206e6f74206578697374000060448201526064016109b6565b6001600160a01b0380841660009081526066602090815260408083209386168352929052205460ff161515600114611b6c5760405162461bcd60e51b815260206004820152601e60248201527f4d616e616765723a206e6f7420746865207269676874206d616e61676572000060448201526064016109b6565b611b75846128cf565b6001600160a01b0383166000908152606560205260409020548110611b9957611d68565b805b6001600160a01b038416600090815260656020526040902054611bc0906001906136ab565b811015611c72576001600160a01b0384166000908152606560205260409020611bea826001613693565b81548110611bfa57611bfa613770565b60009182526020808320909101546001600160a01b03878116845260659092526040909220805491909216919083908110611c3757611c37613770565b600091825260209091200180546001600160a01b0319166001600160a01b039290921691909117905580611c6a81613729565b915050611b9b565b506001600160a01b0383166000908152606560205260409020805480611c9a57611c9a61375a565b60008281526020808220600019908401810180546001600160a01b031990811690915593019093556001600160a01b0386811680835260668086526040808520898516808752908852818620805460ff19908116909155948c16808752606589528287208054600181810183559189528a892001805490991683179098558087529288528186209086528752938490208054909316909417909155905190815290917f605c2dbf762e5f7d60a546d42e7205dcb1b011ebc62a61736a57c9089d3a4350910160405180910390a25b50505050565b6001600160a01b038116600090815260656020908152604091829020805483518184028101840190945280845260609392830182828015611dd857602002820191906000526020600020905b81546001600160a01b03168152600190910190602001808311611dba575b50505050509050919050565b6033546001600160a01b03163314611e3e5760405162461bcd60e51b815260206004820181905260248201527f4f776e61626c653a2063616c6c6572206973206e6f7420746865206f776e657260448201526064016109b6565b6001600160a01b038116611eba5760405162461bcd60e51b815260206004820152602660248201527f4f776e61626c653a206e6577206f776e657220697320746865207a65726f206160448201527f646472657373000000000000000000000000000000000000000000000000000060648201526084016109b6565b610dde8161275a565b6033546000906001600160a01b03163314611f205760405162461bcd60e51b815260206004820181905260248201527f4f776e61626c653a2063616c6c6572206973206e6f7420746865206f776e657260448201526064016109b6565b6001600160a01b03831660009081526067602052604090205460ff1615611f895760405162461bcd60e51b815260206004820152601660248201527f4d616e616765723a206d696e746572206578697374730000000000000000000060448201526064016109b6565b611f928361292f565b611f9b826128cf565b6001600160a01b03828116600081815260656020818152604080842080546001808201835582875284872090910180546001600160a01b031916988c16988917905587865260678452828620805460ff199081168317909155878752606685528387208988528552838720805490911690911790559385905291815291549051818152909392917f899ecdc84d225eec6f263987d4fa83d318964ba036a4d1e2e7f1d5e5708c205a910160405180910390a350506001600160a01b0380821660009081526066602090815260408083209386168352929052205460ff1692915050565b60008054610100900460ff161561211b578160ff1660011480156120a15750303b155b6121135760405162461bcd60e51b815260206004820152602e60248201527f496e697469616c697a61626c653a20636f6e747261637420697320616c72656160448201527f647920696e697469616c697a656400000000000000000000000000000000000060648201526084016109b6565b506000919050565b60005460ff8084169116106121985760405162461bcd60e51b815260206004820152602e60248201527f496e697469616c697a61626c653a20636f6e747261637420697320616c72656160448201527f647920696e697469616c697a656400000000000000000000000000000000000060648201526084016109b6565b506000805460ff191660ff92909216919091179055600190565b600054610100900460ff1661221d5760405162461bcd60e51b815260206004820152602b60248201527f496e697469616c697a61626c653a20636f6e7472616374206973206e6f74206960448201526a6e697469616c697a696e6760a81b60648201526084016109b6565b6108438282612985565b600054610100900460ff166122925760405162461bcd60e51b815260206004820152602b60248201527f496e697469616c697a61626c653a20636f6e7472616374206973206e6f74206960448201526a6e697469616c697a696e6760a81b60648201526084016109b6565b6113c4612a17565b600054610100900460ff166123055760405162461bcd60e51b815260206004820152602b60248201527f496e697469616c697a61626c653a20636f6e7472616374206973206e6f74206960448201526a6e697469616c697a696e6760a81b60648201526084016109b6565b6113c4612a8a565b600054610100900460ff166113c45760405162461bcd60e51b815260206004820152602b60248201527f496e697469616c697a61626c653a20636f6e7472616374206973206e6f74206960448201526a6e697469616c697a696e6760a81b60648201526084016109b6565b612383838383612b01565b609a5460ff16156123d65760405162461bcd60e51b815260206004820152601060248201527f617070726f76616c73207061757365640000000000000000000000000000000060448201526064016109b6565b505050565b6001600160a01b038381166000908152606960209081526040808320938616835292905220546000198114611d68578181101561245a5760405162461bcd60e51b815260206004820152601d60248201527f45524332303a20696e73756666696369656e7420616c6c6f77616e636500000060448201526064016109b6565b611d688484848403612378565b6123d6838383612c5a565b6033546001600160a01b031633146124cc5760405162461bcd60e51b815260206004820181905260248201527f4f776e61626c653a2063616c6c6572206973206e6f7420746865206f776e657260448201526064016109b6565b6001600160a01b0381163b6125495760405162461bcd60e51b815260206004820152602560248201527f6e657720496d706c656d656e746174696f6e206d757374206265206120636f6e60448201527f747261637400000000000000000000000000000000000000000000000000000060648201526084016109b6565b6001600160a01b038116610dde5760405162461bcd60e51b815260206004820152601260248201527f7a65726f2061646472657373206572726f72000000000000000000000000000060448201526064016109b6565b7f4910fdfa16fed3260ed0e7147f7cc6da11a60208b5b9406d12a635614ffd91435460ff16156125d2576123d683612cb8565b826001600160a01b03166352d1902d6040518163ffffffff1660e01b815260040160206040518083038186803b15801561260b57600080fd5b505afa92505050801561263b575060408051601f3d908101601f19168201909252612638918101906135de565b60015b6126ad5760405162461bcd60e51b815260206004820152602e60248201527f45524331393637557067726164653a206e657720696d706c656d656e7461746960448201527f6f6e206973206e6f74205555505300000000000000000000000000000000000060648201526084016109b6565b7f360894a13ba1a3210667c828492db98dca3e2076cc3735a920a3ca505d382bbc81146127425760405162461bcd60e51b815260206004820152602960248201527f45524331393637557067726164653a20756e737570706f727465642070726f7860448201527f6961626c6555554944000000000000000000000000000000000000000000000060648201526084016109b6565b506123d6838383612d76565b61084360008383612c5a565b603380546001600160a01b038381166001600160a01b0319831681179093556040519116919082907f8be0079c531659141344cd1fd0a4f28419497f9722a3daafe3b4186f6b6457e090600090a35050565b61084382600083612c5a565b609a5460ff1661280a5760405162461bcd60e51b815260206004820152601460248201527f5061757361626c653a206e6f742070617573656400000000000000000000000060448201526064016109b6565b609a805460ff191690557f5db9ee0a495bf2e6ff9c91a7834c1ba4fdd244a5e8aa4e537bd38aeae4b073aa335b6040516001600160a01b03909116815260200160405180910390a1565b609a5460ff161561289a5760405162461bcd60e51b815260206004820152601060248201526f14185d5cd8589b194e881c185d5cd95960821b60448201526064016109b6565b609a805460ff191660011790557f62e78cea01bee320cd4e420270b5ea74000d11b0c9f74754ebdbfc544b05a2586128373390565b6001600160a01b038116610dde5760405162461bcd60e51b815260206004820152602160248201527f4d616e616765723a206e6f6e207a65726f206d616e61676572206164647265736044820152607360f81b60648201526084016109b6565b6001600160a01b038116610dde5760405162461bcd60e51b815260206004820152601f60248201527f4d616e616765723a206e6f6e207a65726f20657361746520616464726573730060448201526064016109b6565b600054610100900460ff166129f05760405162461bcd60e51b815260206004820152602b60248201527f496e697469616c697a61626c653a20636f6e7472616374206973206e6f74206960448201526a6e697469616c697a696e6760a81b60648201526084016109b6565b8151612a0390606b90602085019061334b565b5080516123d690606c90602084019061334b565b600054610100900460ff16612a825760405162461bcd60e51b815260206004820152602b60248201527f496e697469616c697a61626c653a20636f6e7472616374206973206e6f74206960448201526a6e697469616c697a696e6760a81b60648201526084016109b6565b6113c4612d9b565b600054610100900460ff16612af55760405162461bcd60e51b815260206004820152602b60248201527f496e697469616c697a61626c653a20636f6e7472616374206973206e6f74206960448201526a6e697469616c697a696e6760a81b60648201526084016109b6565b609a805460ff19169055565b6001600160a01b038316612b7c5760405162461bcd60e51b8152602060048201526024808201527f45524332303a20617070726f76652066726f6d20746865207a65726f2061646460448201527f726573730000000000000000000000000000000000000000000000000000000060648201526084016109b6565b6001600160a01b038216612bf85760405162461bcd60e51b815260206004820152602260248201527f45524332303a20617070726f766520746f20746865207a65726f20616464726560448201527f737300000000000000000000000000000000000000000000000000000000000060648201526084016109b6565b6001600160a01b0383811660008181526069602090815260408083209487168084529482529182902085905590518481527f8c5be1e5ebec7d5bd14f71427d1e84f3dd0314c0f7b2291e5b200ac8c7c3b92591015b60405180910390a3505050565b612c65838383612e0f565b609a5460ff16156123d65760405162461bcd60e51b815260206004820152601560248201527f746f6b656e207472616e7366657220706175736564000000000000000000000060448201526064016109b6565b6001600160a01b0381163b612d355760405162461bcd60e51b815260206004820152602d60248201527f455243313936373a206e657720696d706c656d656e746174696f6e206973206e60448201527f6f74206120636f6e74726163740000000000000000000000000000000000000060648201526084016109b6565b7f360894a13ba1a3210667c828492db98dca3e2076cc3735a920a3ca505d382bbc80546001600160a01b0319166001600160a01b0392909216919091179055565b612d7f836131c7565b600082511180612d8c5750805b156123d657611d688383613207565b600054610100900460ff16612e065760405162461bcd60e51b815260206004820152602b60248201527f496e697469616c697a61626c653a20636f6e7472616374206973206e6f74206960448201526a6e697469616c697a696e6760a81b60648201526084016109b6565b6113c43361275a565b6001600160a01b038316612ed7576001600160a01b038216612e735760405162461bcd60e51b815260206004820152601b60248201527f45524332303a206d696e7420746f207a65726f2061646472657373000000000060448201526064016109b6565b80606a6000828254612e859190613693565b90915550506001600160a01b0382166000818152606860209081526040808320805486019055518481527fddf252ad1be2c89b69c2b068fc378daa952ba7f163c4a11628f55a4df523b3ef9101612c4d565b6001600160a01b038216613022576001600160a01b038316612f3b5760405162461bcd60e51b815260206004820152601c60248201527f45524332303a206275726e2066726f6d207a657220616464726573730000000060448201526064016109b6565b6001600160a01b03831660009081526068602052604090205481811015612fca5760405162461bcd60e51b815260206004820152602260248201527f45524332303a206275726e20616d6f756e7420657863656564732062616c616e60448201527f636500000000000000000000000000000000000000000000000000000000000060648201526084016109b6565b6001600160a01b03841660008181526068602090815260408083208686039055606a80548790039055518581529192917fddf252ad1be2c89b69c2b068fc378daa952ba7f163c4a11628f55a4df523b3ef9101610c57565b6001600160a01b0383166130825760405162461bcd60e51b815260206004820152602160248201527f45524332303a207472616e736665722066726f6d207a65726f206164647265736044820152607360f81b60648201526084016109b6565b6001600160a01b0382166130d85760405162461bcd60e51b815260206004820152601f60248201527f45524332303a207472616e7366657220746f207a65726f20616464726573730060448201526064016109b6565b6001600160a01b038316600090815260686020526040902054818110156131675760405162461bcd60e51b815260206004820152602660248201527f45524332303a207472616e7366657220616d6f756e742065786365656473206260448201527f616c616e6365000000000000000000000000000000000000000000000000000060648201526084016109b6565b6001600160a01b0380851660008181526068602052604080822086860390559286168082529083902080548601905591517fddf252ad1be2c89b69c2b068fc378daa952ba7f163c4a11628f55a4df523b3ef90610c579086815260200190565b6131d081612cb8565b6040516001600160a01b038216907fbc7cd75a20ee27fd9adebab32041f755214dbc6bffa90cc0225b39da2e5c2d3b90600090a250565b60606001600160a01b0383163b6132865760405162461bcd60e51b815260206004820152602660248201527f416464726573733a2064656c65676174652063616c6c20746f206e6f6e2d636f60448201527f6e7472616374000000000000000000000000000000000000000000000000000060648201526084016109b6565b600080846001600160a01b0316846040516132a191906135f7565b600060405180830381855af49150503d80600081146132dc576040519150601f19603f3d011682016040523d82523d6000602084013e6132e1565b606091505b5091509150613309828260405180606001604052806027815260200161379d60279139613312565b95945050505050565b60608315613321575081610956565b8251156133315782518084602001fd5b8160405162461bcd60e51b81526004016109b69190613660565b828054613357906136ee565b90600052602060002090601f01602090048101928261337957600085556133bf565b82601f1061339257805160ff19168380011785556133bf565b828001600101855582156133bf579182015b828111156133bf5782518255916020019190600101906133a4565b506133cb9291506133cf565b5090565b5b808211156133cb57600081556001016133d0565b80356001600160a01b0381168114610ae657600080fd5b60006020828403121561340d57600080fd5b610956826133e4565b6000806040838503121561342957600080fd5b613432836133e4565b9150613440602084016133e4565b90509250929050565b6000806000806080858703121561345f57600080fd5b613468856133e4565b9350613476602086016133e4565b9250613484604086016133e4565b9396929550929360600135925050565b6000806000606084860312156134a957600080fd5b6134b2846133e4565b92506134c0602085016133e4565b9150604084013590509250925092565b600080604083850312156134e357600080fd5b6134ec836133e4565b9150602083013567ffffffffffffffff8082111561350957600080fd5b818501915085601f83011261351d57600080fd5b81358181111561352f5761352f613786565b604051601f8201601f19908116603f0116810190838211818310171561355757613557613786565b8160405282815288602084870101111561357057600080fd5b8260208601602083013760006020848301015280955050505050509250929050565b600080604083850312156135a557600080fd5b6135ae836133e4565b946020939093013593505050565b6000602082840312156135ce57600080fd5b8151801515811461095657600080fd5b6000602082840312156135f057600080fd5b5051919050565b600082516136098184602087016136c2565b9190910192915050565b6020808252825182820181905260009190848201906040850190845b818110156136545783516001600160a01b03168352928401929184019160010161362f565b50909695505050505050565b602081526000825180602084015261367f8160408501602087016136c2565b601f01601f19169190910160400192915050565b600082198211156136a6576136a6613744565b500190565b6000828210156136bd576136bd613744565b500390565b60005b838110156136dd5781810151838201526020016136c5565b83811115611d685750506000910152565b600181811c9082168061370257607f821691505b6020821081141561372357634e487b7160e01b600052602260045260246000fd5b50919050565b600060001982141561373d5761373d613744565b5060010190565b634e487b7160e01b600052601160045260246000fd5b634e487b7160e01b600052603160045260246000fd5b634e487b7160e01b600052603260045260246000fd5b634e487b7160e01b600052604160045260246000fdfe416464726573733a206c6f772d6c6576656c2064656c65676174652063616c6c206661696c6564a2646970667358221220252df5cc2e2a67543d23338f632fafc1ec64c304e009d35493a1cf13f765eb4a64736f6c63430008070033",
  "linkReferences": {},
  "deployedLinkReferences": {}
}