{
  "_format": "hh-sol-artifact-1",
  "contractName": "Ampersand",
  "sourceName": "contracts/Ampersand.sol",
  "abi": [
    {
      "anonymous": false,
      "inputs": [
        {
          "indexed": false,
          "internalType": "address",
          "name": "previousAdmin",
          "type": "address"
        },
        {
          "indexed": false,
          "internalType": "address",
          "name": "newAdmin",
          "type": "address"
        }
      ],
      "name": "AdminChanged",
      "type": "event"
    },
    {
      "anonymous": false,
      "inputs": [
        {
          "indexed": true,
          "internalType": "address",
          "name": "caller",
          "type": "address"
        },
        {
          "indexed": true,
          "internalType": "address",
          "name": "minter",
          "type": "address"
        },
        {
          "indexed": false,
          "internalType": "uint256",
          "name": "decreasedby",
          "type": "uint256"
        },
        {
          "indexed": false,
          "internalType": "uint256",
          "name": "newAllowance",
          "type": "uint256"
        }
      ],
      "name": "AllowanceDecreased",
      "type": "event"
    },
    {
      "anonymous": false,
      "inputs": [
        {
          "indexed": true,
          "internalType": "address",
          "name": "caller",
          "type": "address"
        },
        {
          "indexed": true,
          "internalType": "address",
          "name": "minter",
          "type": "address"
        },
        {
          "indexed": false,
          "internalType": "uint256",
          "name": "increasedby",
          "type": "uint256"
        },
        {
          "indexed": false,
          "internalType": "uint256",
          "name": "newAllowance",
          "type": "uint256"
        }
      ],
      "name": "AllowanceIncreased",
      "type": "event"
    },
    {
      "anonymous": false,
      "inputs": [
        {
          "indexed": true,
          "internalType": "address",
          "name": "owner",
          "type": "address"
        },
        {
          "indexed": true,
          "internalType": "address",
          "name": "spender",
          "type": "address"
        },
        {
          "indexed": false,
          "internalType": "uint256",
          "name": "value",
          "type": "uint256"
        }
      ],
      "name": "Approval",
      "type": "event"
    },
    {
      "anonymous": false,
      "inputs": [
        {
          "indexed": true,
          "internalType": "address",
          "name": "beacon",
          "type": "address"
        }
      ],
      "name": "BeaconUpgraded",
      "type": "event"
    },
    {
      "anonymous": false,
      "inputs": [
        {
          "indexed": false,
          "internalType": "address",
          "name": "executor",
          "type": "address"
        },
        {
          "indexed": false,
          "internalType": "address",
          "name": "from",
          "type": "address"
        },
        {
          "indexed": false,
          "internalType": "uint256",
          "name": "amount",
          "type": "uint256"
        }
      ],
      "name": "Burn",
      "type": "event"
    },
    {
      "anonymous": false,
      "inputs": [
        {
          "indexed": false,
          "internalType": "uint8",
          "name": "version",
          "type": "uint8"
        }
      ],
      "name": "Initialized",
      "type": "event"
    },
    {
      "anonymous": false,
      "inputs": [
        {
          "indexed": true,
          "internalType": "address",
          "name": "manager",
          "type": "address"
        },
        {
          "indexed": true,
          "internalType": "address",
          "name": "minter",
          "type": "address"
        },
        {
          "indexed": false,
          "internalType": "uint256",
          "name": "minterId",
          "type": "uint256"
        }
      ],
      "name": "ManagerAssigned",
      "type": "event"
    },
    {
      "anonymous": false,
      "inputs": [
        {
          "indexed": false,
          "internalType": "address",
          "name": "oldManager",
          "type": "address"
        },
        {
          "indexed": true,
          "internalType": "address",
          "name": "newManager",
          "type": "address"
        }
      ],
      "name": "ManagerChanged",
      "type": "event"
    },
    {
      "anonymous": false,
      "inputs": [
        {
          "indexed": true,
          "internalType": "address",
          "name": "executor",
          "type": "address"
        },
        {
          "indexed": false,
          "internalType": "address",
          "name": "to",
          "type": "address"
        },
        {
          "indexed": false,
          "internalType": "uint256",
          "name": "amount",
          "type": "uint256"
        }
      ],
      "name": "Mint",
      "type": "event"
    },
    {
      "anonymous": false,
      "inputs": [
        {
          "indexed": true,
          "internalType": "address",
          "name": "caller",
          "type": "address"
        },
        {
          "indexed": true,
          "internalType": "address",
          "name": "minter",
          "type": "address"
        },
        {
          "indexed": false,
          "internalType": "uint256",
          "name": "amount",
          "type": "uint256"
        }
      ],
      "name": "MintAllowance",
      "type": "event"
    },
    {
      "anonymous": false,
      "inputs": [
        {
          "indexed": false,
          "internalType": "address",
          "name": "caller",
          "type": "address"
        },
        {
          "indexed": false,
          "internalType": "address",
          "name": "minter",
          "type": "address"
        }
      ],
      "name": "MinterRemoved",
      "type": "event"
    },
    {
      "anonymous": false,
      "inputs": [
        {
          "indexed": true,
          "internalType": "address",
          "name": "previousOwner",
          "type": "address"
        },
        {
          "indexed": true,
          "internalType": "address",
          "name": "newOwner",
          "type": "address"
        }
      ],
      "name": "OwnershipTransferred",
      "type": "event"
    },
    {
      "anonymous": false,
      "inputs": [
        {
          "indexed": false,
          "internalType": "address",
          "name": "account",
          "type": "address"
        }
      ],
      "name": "Paused",
      "type": "event"
    },
    {
      "anonymous": false,
      "inputs": [
        {
          "indexed": true,
          "internalType": "address",
          "name": "from",
          "type": "address"
        },
        {
          "indexed": true,
          "internalType": "address",
          "name": "to",
          "type": "address"
        },
        {
          "indexed": false,
          "internalType": "uint256",
          "name": "value",
          "type": "uint256"
        }
      ],
      "name": "Transfer",
      "type": "event"
    },
    {
      "anonymous": false,
      "inputs": [
        {
          "indexed": false,
          "internalType": "address",
          "name": "account",
          "type": "address"
        }
      ],
      "name": "Unpaused",
      "type": "event"
    },
    {
      "anonymous": false,
      "inputs": [
        {
          "indexed": true,
          "internalType": "address",
          "name": "implementation",
          "type": "address"
        }
      ],
      "name": "Upgraded",
      "type": "event"
    },
    {
      "inputs": [],
      "name": "__Ampersand_init",
      "outputs": [],
      "stateMutability": "nonpayable",
      "type": "function"
    },
    {
      "inputs": [
        {
          "internalType": "address",
          "name": "manager",
          "type": "address"
        }
      ],
      "name": "allManagerMinters",
      "outputs": [
        {
          "internalType": "address[]",
          "name": "",
          "type": "address[]"
        }
      ],
      "stateMutability": "view",
      "type": "function"
    },
    {
      "inputs": [
        {
          "internalType": "address",
          "name": "owner",
          "type": "address"
        },
        {
          "internalType": "address",
          "name": "spender",
          "type": "address"
        }
      ],
      "name": "allowance",
      "outputs": [
        {
          "internalType": "uint256",
          "name": "",
          "type": "uint256"
        }
      ],
      "stateMutability": "view",
      "type": "function"
    },
    {
      "inputs": [
        {
          "internalType": "address",
          "name": "spender",
          "type": "address"
        },
        {
          "internalType": "uint256",
          "name": "amount",
          "type": "uint256"
        }
      ],
      "name": "approve",
      "outputs": [
        {
          "internalType": "bool",
          "name": "",
          "type": "bool"
        }
      ],
      "stateMutability": "nonpayable",
      "type": "function"
    },
    {
      "inputs": [
        {
          "internalType": "address",
          "name": "minter",
          "type": "address"
        },
        {
          "internalType": "address",
          "name": "manager",
          "type": "address"
        }
      ],
      "name": "assignManager",
      "outputs": [
        {
          "internalType": "bool",
          "name": "",
          "type": "bool"
        }
      ],
      "stateMutability": "nonpayable",
      "type": "function"
    },
    {
      "inputs": [
        {
          "internalType": "address",
          "name": "account",
          "type": "address"
        }
      ],
      "name": "balanceOf",
      "outputs": [
        {
          "internalType": "uint256",
          "name": "",
          "type": "uint256"
        }
      ],
      "stateMutability": "view",
      "type": "function"
    },
    {
      "inputs": [
        {
          "internalType": "address",
          "name": "from",
          "type": "address"
        },
        {
          "internalType": "uint256",
          "name": "amount",
          "type": "uint256"
        }
      ],
      "name": "burn",
      "outputs": [],
      "stateMutability": "nonpayable",
      "type": "function"
    },
    {
      "inputs": [
        {
          "internalType": "address",
          "name": "newManager",
          "type": "address"
        },
        {
          "internalType": "address",
          "name": "prevManager",
          "type": "address"
        },
        {
          "internalType": "address",
          "name": "minter",
          "type": "address"
        },
        {
          "internalType": "uint256",
          "name": "_index",
          "type": "uint256"
        }
      ],
      "name": "changeManager",
      "outputs": [],
      "stateMutability": "nonpayable",
      "type": "function"
    },
    {
      "inputs": [
        {
          "internalType": "address",
          "name": "minter",
          "type": "address"
        },
        {
          "internalType": "uint256",
          "name": "decrease",
          "type": "uint256"
        }
      ],
      "name": "decareseMinterAllowance",
      "outputs": [],
      "stateMutability": "nonpayable",
      "type": "function"
    },
    {
      "inputs": [],
      "name": "decimals",
      "outputs": [
        {
          "internalType": "uint8",
          "name": "",
          "type": "uint8"
        }
      ],
      "stateMutability": "view",
      "type": "function"
    },
    {
      "inputs": [
        {
          "internalType": "address",
          "name": "spender",
          "type": "address"
        },
        {
          "internalType": "uint256",
          "name": "subtractedValue",
          "type": "uint256"
        }
      ],
      "name": "decreaseAllowance",
      "outputs": [
        {
          "internalType": "bool",
          "name": "",
          "type": "bool"
        }
      ],
      "stateMutability": "nonpayable",
      "type": "function"
    },
    {
      "inputs": [
        {
          "internalType": "address",
          "name": "spender",
          "type": "address"
        },
        {
          "internalType": "uint256",
          "name": "addedValue",
          "type": "uint256"
        }
      ],
      "name": "increaseAllowance",
      "outputs": [
        {
          "internalType": "bool",
          "name": "",
          "type": "bool"
        }
      ],
      "stateMutability": "nonpayable",
      "type": "function"
    },
    {
      "inputs": [
        {
          "internalType": "address",
          "name": "minter",
          "type": "address"
        },
        {
          "internalType": "uint256",
          "name": "increase",
          "type": "uint256"
        }
      ],
      "name": "increaseMintAllowance",
      "outputs": [],
      "stateMutability": "nonpayable",
      "type": "function"
    },
    {
      "inputs": [
        {
          "internalType": "address",
          "name": "manager",
          "type": "address"
        },
        {
          "internalType": "address",
          "name": "minter",
          "type": "address"
        }
      ],
      "name": "isManager",
      "outputs": [
        {
          "internalType": "bool",
          "name": "",
          "type": "bool"
        }
      ],
      "stateMutability": "view",
      "type": "function"
    },
    {
      "inputs": [
        {
          "internalType": "address",
          "name": "minter",
          "type": "address"
        }
      ],
      "name": "isMinter",
      "outputs": [
        {
          "internalType": "bool",
          "name": "",
          "type": "bool"
        }
      ],
      "stateMutability": "view",
      "type": "function"
    },
    {
      "inputs": [],
      "name": "isPaused",
      "outputs": [
        {
          "internalType": "bool",
          "name": "",
          "type": "bool"
        }
      ],
      "stateMutability": "view",
      "type": "function"
    },
    {
      "inputs": [
        {
          "internalType": "address",
          "name": "manager",
          "type": "address"
        }
      ],
      "name": "managerMintersCount",
      "outputs": [
        {
          "internalType": "uint256",
          "name": "",
          "type": "uint256"
        }
      ],
      "stateMutability": "view",
      "type": "function"
    },
    {
      "inputs": [
        {
          "internalType": "address",
          "name": "safe",
          "type": "address"
        },
        {
          "internalType": "uint256",
          "name": "amount",
          "type": "uint256"
        }
      ],
      "name": "mint",
      "outputs": [],
      "stateMutability": "nonpayable",
      "type": "function"
    },
    {
      "inputs": [
        {
          "internalType": "address",
          "name": "manager",
          "type": "address"
        },
        {
          "internalType": "uint256",
          "name": "id",
          "type": "uint256"
        }
      ],
      "name": "minterAddress",
      "outputs": [
        {
          "internalType": "address",
          "name": "",
          "type": "address"
        }
      ],
      "stateMutability": "view",
      "type": "function"
    },
    {
      "inputs": [
        {
          "internalType": "address",
          "name": "minter",
          "type": "address"
        }
      ],
      "name": "minterAllowance",
      "outputs": [
        {
          "internalType": "uint256",
          "name": "",
          "type": "uint256"
        }
      ],
      "stateMutability": "view",
      "type": "function"
    },
    {
      "inputs": [],
      "name": "name",
      "outputs": [
        {
          "internalType": "string",
          "name": "",
          "type": "string"
        }
      ],
      "stateMutability": "view",
      "type": "function"
    },
    {
      "inputs": [],
      "name": "owner",
      "outputs": [
        {
          "internalType": "address",
          "name": "",
          "type": "address"
        }
      ],
      "stateMutability": "view",
      "type": "function"
    },
    {
      "inputs": [],
      "name": "pauseOps",
      "outputs": [],
      "stateMutability": "nonpayable",
      "type": "function"
    },
    {
      "inputs": [],
      "name": "proxiableUUID",
      "outputs": [
        {
          "internalType": "bytes32",
          "name": "",
          "type": "bytes32"
        }
      ],
      "stateMutability": "view",
      "type": "function"
    },
    {
      "inputs": [
        {
          "internalType": "address",
          "name": "minter",
          "type": "address"
        }
      ],
      "name": "removeMinter",
      "outputs": [
        {
          "internalType": "bool",
          "name": "",
          "type": "bool"
        }
      ],
      "stateMutability": "nonpayable",
      "type": "function"
    },
    {
      "inputs": [],
      "name": "renounceOwnership",
      "outputs": [],
      "stateMutability": "nonpayable",
      "type": "function"
    },
    {
      "inputs": [
        {
          "internalType": "address",
          "name": "minter",
          "type": "address"
        },
        {
          "internalType": "uint256",
          "name": "allowance",
          "type": "uint256"
        }
      ],
      "name": "setAllowance",
      "outputs": [],
      "stateMutability": "nonpayable",
      "type": "function"
    },
    {
      "inputs": [],
      "name": "symbol",
      "outputs": [
        {
          "internalType": "string",
          "name": "",
          "type": "string"
        }
      ],
      "stateMutability": "view",
      "type": "function"
    },
    {
      "inputs": [],
      "name": "totalSupply",
      "outputs": [
        {
          "internalType": "uint256",
          "name": "",
          "type": "uint256"
        }
      ],
      "stateMutability": "view",
      "type": "function"
    },
    {
      "inputs": [
        {
          "internalType": "address",
          "name": "to",
          "type": "address"
        },
        {
          "internalType": "uint256",
          "name": "amount",
          "type": "uint256"
        }
      ],
      "name": "transfer",
      "outputs": [
        {
          "internalType": "bool",
          "name": "",
          "type": "bool"
        }
      ],
      "stateMutability": "nonpayable",
      "type": "function"
    },
    {
      "inputs": [
        {
          "internalType": "address",
          "name": "from",
          "type": "address"
        },
        {
          "internalType": "address",
          "name": "to",
          "type": "address"
        },
        {
          "internalType": "uint256",
          "name": "amount",
          "type": "uint256"
        }
      ],
      "name": "transferFrom",
      "outputs": [
        {
          "internalType": "bool",
          "name": "",
          "type": "bool"
        }
      ],
      "stateMutability": "nonpayable",
      "type": "function"
    },
    {
      "inputs": [
        {
          "internalType": "address",
          "name": "newOwner",
          "type": "address"
        }
      ],
      "name": "transferOwnership",
      "outputs": [],
      "stateMutability": "nonpayable",
      "type": "function"
    },
    {
      "inputs": [],
      "name": "unpauseOps",
      "outputs": [],
      "stateMutability": "nonpayable",
      "type": "function"
    },
    {
      "inputs": [
        {
          "internalType": "address",
          "name": "newImplementation",
          "type": "address"
        }
      ],
      "name": "upgradeTo",
      "outputs": [],
      "stateMutability": "nonpayable",
      "type": "function"
    },
    {
      "inputs": [
        {
          "internalType": "address",
          "name": "newImplementation",
          "type": "address"
        },
        {
          "internalType": "bytes",
          "name": "data",
          "type": "bytes"
        }
      ],
      "name": "upgradeToAndCall",
      "outputs": [],
      "stateMutability": "payable",
      "type": "function"
    }
  ],
  "bytecode": "0x60a06040523060601b60805234801561001757600080fd5b5060805160601c612e9f61005260003960008181610ab001528181610af001528181610dc401528181610e040152610e970152612e9f6000f3fe6080604052600436106102045760003560e01c8063715018a611610118578063aa271e1a116100a0578063dd62ed3e1161006f578063dd62ed3e146105e0578063df6797ef14610600578063e2c892ec14610620578063f2fde38b1461064d578063f37f6a341461066d57600080fd5b8063aa271e1a14610581578063b187bd26146105a1578063c9889a9e146105b6578063dc017c7f146105cb57600080fd5b80638da5cb5b116100e75780638da5cb5b146104ee57806395d89b411461050c5780639dc29fac14610521578063a457c2d714610541578063a9059cbb1461056157600080fd5b8063715018a614610462578063785a47f8146104775780638a6db9c3146104975780638ad34d0f146104ce57600080fd5b8063310ec4a71161019b57806340c10f191161016a57806340c10f19146103ae5780634f1ef286146103ce57806352d1902d146103e15780636d1deb9c146103f657806370a082311461042c57600080fd5b8063310ec4a714610332578063313ce567146103525780633659cfe61461036e578063395093511461038e57600080fd5b8063235a3a20116101d7578063235a3a20146102bb57806323b872dd146102d25780632ef0e1ca146102f25780633092afd51461031257600080fd5b806306fdde0314610209578063095ea7b314610234578063119c11e61461026457806318160ddd1461029c575b600080fd5b34801561021557600080fd5b5061021e61068d565b60405161022b9190612b12565b60405180910390f35b34801561024057600080fd5b5061025461024f366004612a66565b61071f565b604051901515815260200161022b565b34801561027057600080fd5b5061028461027f366004612a66565b610737565b6040516001600160a01b03909116815260200161022b565b3480156102a857600080fd5b50606a545b60405190815260200161022b565b3480156102c757600080fd5b506102d061077d565b005b3480156102de57600080fd5b506102546102ed366004612968565b610848565b3480156102fe57600080fd5b5061025461030d3660046128ea565b61086e565b34801561031e57600080fd5b5061025461032d3660046128cf565b61089c565b34801561033e57600080fd5b506102d061034d366004612a66565b6109b6565b34801561035e57600080fd5b506040516006815260200161022b565b34801561037a57600080fd5b506102d06103893660046128cf565b610aa5565b34801561039a57600080fd5b506102546103a9366004612a66565b610b82565b3480156103ba57600080fd5b506102d06103c9366004612a66565b610ba4565b6102d06103dc3660046129a4565b610db9565b3480156103ed57600080fd5b506102ad610e8a565b34801561040257600080fd5b506102ad6104113660046128cf565b6001600160a01b031660009081526065602052604090205490565b34801561043857600080fd5b506102ad6104473660046128cf565b6001600160a01b031660009081526068602052604090205490565b34801561046e57600080fd5b506102d0610f3d565b34801561048357600080fd5b506102d0610492366004612a66565b610f73565b3480156104a357600080fd5b506102ad6104b23660046128cf565b6001600160a01b03166000908152610162602052604090205490565b3480156104da57600080fd5b506102d06104e9366004612a66565b611095565b3480156104fa57600080fd5b506033546001600160a01b0316610284565b34801561051857600080fd5b5061021e61121d565b34801561052d57600080fd5b506102d061053c366004612a66565b61122c565b34801561054d57600080fd5b5061025461055c366004612a66565b6112ef565b34801561056d57600080fd5b5061025461057c366004612a66565b611375565b34801561058d57600080fd5b5061025461059c3660046128cf565b611383565b3480156105ad57600080fd5b506102546113a1565b3480156105c257600080fd5b506102d06113b4565b3480156105d757600080fd5b506102d06113e6565b3480156105ec57600080fd5b506102ad6105fb3660046128ea565b611418565b34801561060c57600080fd5b506102d061061b36600461291d565b611443565b34801561062c57600080fd5b5061064061063b3660046128cf565b61171f565b60405161022b9190612ac5565b34801561065957600080fd5b506102d06106683660046128cf565b611795565b34801561067957600080fd5b506102546106883660046128ea565b61182d565b6060606b805461069c90612d74565b80601f01602080910402602001604051908101604052809291908181526020018280546106c890612d74565b80156107155780601f106106ea57610100808354040283529160200191610715565b820191906000526020600020905b8154815290600101906020018083116106f857829003601f168201915b5050505050905090565b60003361072d81858561199e565b5060019392505050565b6001600160a01b038216600090815260656020526040812080548390811061076157610761612df6565b6000918252602090912001546001600160a01b03169392505050565b600061078960016119f4565b905080156107a1576000805461ff0019166101001790555b6107e760405180604001604052806009815260200168105b5c195c9cd85b9960ba1b8152506040518060400160405280600381526020016210539160ea1b815250611a7c565b6107ef611aad565b6107f7611adc565b6107ff611b0b565b8015610845576000805461ff0019169055604051600181527f7f26b83ff96e1f2b6a682f133852f6798a09c465da95921460cefb38474024989060200160405180910390a15b50565b600033610856858285611b32565b610861858585611ba6565b60019150505b9392505050565b6001600160a01b03918216600090815260666020908152604080832093909416825291909152205460ff1690565b6033546000906001600160a01b031633146108d25760405162461bcd60e51b81526004016108c990612c55565b60405180910390fd5b609a5460ff16156108f55760405162461bcd60e51b81526004016108c990612bdd565b6108fe82611383565b61094a5760405162461bcd60e51b815260206004820152601f60248201527f416d70657273616e643a206d696e74657220646f65736e6f742065786973740060448201526064016108c9565b6001600160a01b038216600081815260676020908152604091829020805460ff191690558151338152908101929092527f4b5ef9a786cf64a7d82ebcf2d5132667edc9faef4ac36260d9a9e52c526b6232910160405180910390a16109ae82611383565b90505b919050565b33826109c2828261086e565b15156001146109e35760405162461bcd60e51b81526004016108c990612c8a565b609a5460ff1615610a065760405162461bcd60e51b81526004016108c990612bdd565b60008311610a475760405162461bcd60e51b815260206004820152600e60248201526d7a65726f20616c6c6f77616e636560901b60448201526064016108c9565b6001600160a01b03841660008181526101626020526040908190208590555133907f0604cca411aa14b55fed2ea24e65202c55fcbef329bd683d55a21abc26263c9f90610a979087815260200190565b60405180910390a350505050565b306001600160a01b037f0000000000000000000000000000000000000000000000000000000000000000161415610aee5760405162461bcd60e51b81526004016108c990612b45565b7f00000000000000000000000000000000000000000000000000000000000000006001600160a01b0316610b37600080516020612e23833981519152546001600160a01b031690565b6001600160a01b031614610b5d5760405162461bcd60e51b81526004016108c990612b91565b610b6681611bb1565b6040805160008082526020820190925261084591839190611c8b565b60003361072d818585610b958383611418565b610b9f9190612d19565b61199e565b600260cc541415610bf75760405162461bcd60e51b815260206004820152601f60248201527f5265656e7472616e637947756172643a207265656e7472616e742063616c6c0060448201526064016108c9565b600260cc556001600160a01b0382163b610c4a5760405162461bcd60e51b81526020600482015260146024820152731cd85999481a5cc81b9bdd0818dbdb9d1c9858dd60621b60448201526064016108c9565b6001600160a01b038216610c975760405162461bcd60e51b815260206004820152601460248201527373616665206973207a65726f206164647265737360601b60448201526064016108c9565b610ca033611383565b610cec5760405162461bcd60e51b815260206004820152601e60248201527f416d70657273616e643a20756e617574686f72697a6564206d696e746572000060448201526064016108c9565b3360009081526101626020526040902054818114610d4c5760405162461bcd60e51b815260206004820152601f60248201527f416d70657273616e643a206d696e7420657861637420616c6c6f77616e63650060448201526064016108c9565b336000908152610162602052604090208282039055610d6b8383611e05565b604080516001600160a01b03851681526020810184905233917fab8530f87dc9b59234c4623bf917212bb2536d647574c8e7e5da92c2ede0c9f8910160405180910390a25050600160cc5550565b306001600160a01b037f0000000000000000000000000000000000000000000000000000000000000000161415610e025760405162461bcd60e51b81526004016108c990612b45565b7f00000000000000000000000000000000000000000000000000000000000000006001600160a01b0316610e4b600080516020612e23833981519152546001600160a01b031690565b6001600160a01b031614610e715760405162461bcd60e51b81526004016108c990612b91565b610e7a82611bb1565b610e8682826001611c8b565b5050565b6000306001600160a01b037f00000000000000000000000000000000000000000000000000000000000000001614610f2a5760405162461bcd60e51b815260206004820152603860248201527f555550535570677261646561626c653a206d757374206e6f742062652063616c60448201527f6c6564207468726f7567682064656c656761746563616c6c000000000000000060648201526084016108c9565b50600080516020612e2383398151915290565b6033546001600160a01b03163314610f675760405162461bcd60e51b81526004016108c990612c55565b610f716000611e11565b565b3382610f7f828261086e565b1515600114610fa05760405162461bcd60e51b81526004016108c990612c8a565b609a5460ff1615610fc35760405162461bcd60e51b81526004016108c990612bdd565b6000831161100b5760405162461bcd60e51b81526020600482015260156024820152746e657720616c6c6f77616e6365206973207a65726f60581b60448201526064016108c9565b6001600160a01b03841660009081526101626020526040812054906110308583612d19565b6001600160a01b038716600081815261016260209081526040918290208490558151898152908101849052929350909133917f2e4c065f8b98751ee8f46f252f4dc025cd8a7e2678ff7aaf17a09e45dfb90f31910160405180910390a3505050505050565b33826110a1828261086e565b15156001146110c25760405162461bcd60e51b81526004016108c990612c8a565b609a5460ff16156110e55760405162461bcd60e51b81526004016108c990612bdd565b600083116111295760405162461bcd60e51b815260206004820152601160248201527064656372656d656e74206973207a65726f60781b60448201526064016108c9565b6001600160a01b038416600090815261016260205260409020548381106111b95760006111568583612d31565b6001600160a01b038716600081815261016260209081526040918290208490558151898152908101849052929350909133917f564d5b84666750783951d00ec83238c47421a3c9bdda4412fc24feb1b285dd37910160405180910390a350611216565b60405162461bcd60e51b815260206004820152602c60248201527f63757272656e7420616c6c6f77616e6365206c657373207468616e206465637260448201526b656173696e672076616c756560a01b60648201526084016108c9565b5050505050565b6060606c805461069c90612d74565b6033546001600160a01b031633146112565760405162461bcd60e51b81526004016108c990612c55565b600081116112985760405162461bcd60e51b815260206004820152600f60248201526e3737ba3434b733903a3790313ab93760891b60448201526064016108c9565b6112a28282611e63565b604080513381526001600160a01b03841660208201529081018290527fbac40739b0d4ca32fa2d82fc91630465ba3eddd1598da6fca393b26fb63b94539060600160405180910390a15050565b600033816112fd8286611418565b90508381101561135d5760405162461bcd60e51b815260206004820152602560248201527f45524332303a2064656372656173656420616c6c6f77616e63652062656c6f77604482015264207a65726f60d81b60648201526084016108c9565b61136a828686840361199e565b506001949350505050565b60003361072d818585611ba6565b6001600160a01b031660009081526067602052604090205460ff1690565b60006113af609a5460ff1690565b905090565b6033546001600160a01b031633146113de5760405162461bcd60e51b81526004016108c990612c55565b610f71611e6f565b6033546001600160a01b031633146114105760405162461bcd60e51b81526004016108c990612c55565b610f71611f02565b6001600160a01b03918216600090815260696020908152604080832093909416825291909152205490565b6033546001600160a01b0316331461146d5760405162461bcd60e51b81526004016108c990612c55565b61147682611383565b6114c25760405162461bcd60e51b815260206004820152601e60248201527f4d616e616765723a206d696e74657220646f6573206e6f74206578697374000060448201526064016108c9565b6114cc838361086e565b151560011461151d5760405162461bcd60e51b815260206004820152601e60248201527f4d616e616765723a206e6f7420746865207269676874206d616e61676572000060448201526064016108c9565b61152684611f5a565b6001600160a01b038316600090815260656020526040902054811061154a57611719565b805b6001600160a01b03841660009081526065602052604090205461157190600190612d31565b811015611623576001600160a01b038416600090815260656020526040902061159b826001612d19565b815481106115ab576115ab612df6565b60009182526020808320909101546001600160a01b038781168452606590925260409092208054919092169190839081106115e8576115e8612df6565b600091825260209091200180546001600160a01b0319166001600160a01b03929092169190911790558061161b81612daf565b91505061154c565b506001600160a01b038316600090815260656020526040902080548061164b5761164b612de0565b60008281526020808220600019908401810180546001600160a01b031990811690915593019093556001600160a01b0386811680835260668086526040808520898516808752908852818620805460ff19908116909155948c16808752606589528287208054600181810183559189528a892001805490991683179098558087529288528186209086528752938490208054909316909417909155905190815290917f605c2dbf762e5f7d60a546d42e7205dcb1b011ebc62a61736a57c9089d3a4350910160405180910390a25b50505050565b6001600160a01b03811660009081526065602090815260409182902080548351818402810184019094528084526060939283018282801561178957602002820191906000526020600020905b81546001600160a01b0316815260019091019060200180831161176b575b50505050509050919050565b6033546001600160a01b031633146117bf5760405162461bcd60e51b81526004016108c990612c55565b6001600160a01b0381166118245760405162461bcd60e51b815260206004820152602660248201527f4f776e61626c653a206e6577206f776e657220697320746865207a65726f206160448201526564647265737360d01b60648201526084016108c9565b61084581611e11565b6033546000906001600160a01b0316331461185a5760405162461bcd60e51b81526004016108c990612c55565b61186383611383565b156118a95760405162461bcd60e51b81526020600482015260166024820152754d616e616765723a206d696e7465722065786973747360501b60448201526064016108c9565b6118b283611fba565b6118bb82611f5a565b6001600160a01b03828116600081815260656020818152604080842080546001808201835582875284872090910180546001600160a01b031916988c16988917905587865260678452828620805460ff199081168317909155878752606685528387208988528552838720805490911690911790559385905291815291549051818152909392917f899ecdc84d225eec6f263987d4fa83d318964ba036a4d1e2e7f1d5e5708c205a910160405180910390a350506001600160a01b0380821660009081526066602090815260408083209386168352929052205460ff1692915050565b6119a9838383612010565b609a5460ff16156119ef5760405162461bcd60e51b815260206004820152601060248201526f185c1c1c9bdd985b1cc81c185d5cd95960821b60448201526064016108c9565b505050565b60008054610100900460ff1615611a3b578160ff166001148015611a175750303b155b611a335760405162461bcd60e51b81526004016108c990612c07565b506000919050565b60005460ff808416911610611a625760405162461bcd60e51b81526004016108c990612c07565b506000805460ff191660ff92909216919091179055600190565b600054610100900460ff16611aa35760405162461bcd60e51b81526004016108c990612cce565b610e868282612135565b600054610100900460ff16611ad45760405162461bcd60e51b81526004016108c990612cce565b610f71612183565b600054610100900460ff16611b035760405162461bcd60e51b81526004016108c990612cce565b610f716121b2565b600054610100900460ff16610f715760405162461bcd60e51b81526004016108c990612cce565b6000611b3e8484611418565b905060001981146117195781811015611b995760405162461bcd60e51b815260206004820152601d60248201527f45524332303a20696e73756666696369656e7420616c6c6f77616e636500000060448201526064016108c9565b611719848484840361199e565b6119ef8383836121e5565b6033546001600160a01b03163314611bdb5760405162461bcd60e51b81526004016108c990612c55565b6001600160a01b0381163b611c405760405162461bcd60e51b815260206004820152602560248201527f6e657720496d706c656d656e746174696f6e206d757374206265206120636f6e6044820152641d1c9858dd60da1b60648201526084016108c9565b6001600160a01b0381166108455760405162461bcd60e51b81526020600482015260126024820152713d32b9379030b2323932b9b99032b93937b960711b60448201526064016108c9565b7f4910fdfa16fed3260ed0e7147f7cc6da11a60208b5b9406d12a635614ffd91435460ff1615611cbe576119ef8361223b565b826001600160a01b03166352d1902d6040518163ffffffff1660e01b815260040160206040518083038186803b158015611cf757600080fd5b505afa925050508015611d27575060408051601f3d908101601f19168201909252611d2491810190612a90565b60015b611d8a5760405162461bcd60e51b815260206004820152602e60248201527f45524331393637557067726164653a206e657720696d706c656d656e7461746960448201526d6f6e206973206e6f74205555505360901b60648201526084016108c9565b600080516020612e238339815191528114611df95760405162461bcd60e51b815260206004820152602960248201527f45524331393637557067726164653a20756e737570706f727465642070726f786044820152681a58589b195555525160ba1b60648201526084016108c9565b506119ef8383836122d7565b610e86600083836121e5565b603380546001600160a01b038381166001600160a01b0319831681179093556040519116919082907f8be0079c531659141344cd1fd0a4f28419497f9722a3daafe3b4186f6b6457e090600090a35050565b610e86826000836121e5565b609a5460ff16611eb85760405162461bcd60e51b815260206004820152601460248201527314185d5cd8589b194e881b9bdd081c185d5cd95960621b60448201526064016108c9565b609a805460ff191690557f5db9ee0a495bf2e6ff9c91a7834c1ba4fdd244a5e8aa4e537bd38aeae4b073aa335b6040516001600160a01b03909116815260200160405180910390a1565b609a5460ff1615611f255760405162461bcd60e51b81526004016108c990612bdd565b609a805460ff191660011790557f62e78cea01bee320cd4e420270b5ea74000d11b0c9f74754ebdbfc544b05a258611ee53390565b6001600160a01b0381166108455760405162461bcd60e51b815260206004820152602160248201527f4d616e616765723a206e6f6e207a65726f206d616e61676572206164647265736044820152607360f81b60648201526084016108c9565b6001600160a01b0381166108455760405162461bcd60e51b815260206004820152601f60248201527f4d616e616765723a206e6f6e207a65726f20657361746520616464726573730060448201526064016108c9565b6001600160a01b0383166120725760405162461bcd60e51b8152602060048201526024808201527f45524332303a20617070726f76652066726f6d20746865207a65726f206164646044820152637265737360e01b60648201526084016108c9565b6001600160a01b0382166120d35760405162461bcd60e51b815260206004820152602260248201527f45524332303a20617070726f766520746f20746865207a65726f206164647265604482015261737360f01b60648201526084016108c9565b6001600160a01b0383811660008181526069602090815260408083209487168084529482529182902085905590518481527f8c5be1e5ebec7d5bd14f71427d1e84f3dd0314c0f7b2291e5b200ac8c7c3b92591015b60405180910390a3505050565b600054610100900460ff1661215c5760405162461bcd60e51b81526004016108c990612cce565b815161216f90606b90602085019061281f565b5080516119ef90606c90602084019061281f565b600054610100900460ff166121aa5760405162461bcd60e51b81526004016108c990612cce565b610f716122fc565b600054610100900460ff166121d95760405162461bcd60e51b81526004016108c990612cce565b609a805460ff19169055565b6121f083838361232c565b609a5460ff16156119ef5760405162461bcd60e51b81526020600482015260156024820152741d1bdad95b881d1c985b9cd9995c881c185d5cd959605a1b60448201526064016108c9565b6001600160a01b0381163b6122a85760405162461bcd60e51b815260206004820152602d60248201527f455243313936373a206e657720696d706c656d656e746174696f6e206973206e60448201526c1bdd08184818dbdb9d1c9858dd609a1b60648201526084016108c9565b600080516020612e2383398151915280546001600160a01b0319166001600160a01b0392909216919091179055565b6122e0836126b2565b6000825111806122ed5750805b156119ef5761171983836126f2565b600054610100900460ff166123235760405162461bcd60e51b81526004016108c990612cce565b610f7133611e11565b6001600160a01b0383166123f4576001600160a01b0382166123905760405162461bcd60e51b815260206004820152601b60248201527f45524332303a206d696e7420746f207a65726f2061646472657373000000000060448201526064016108c9565b80606a60008282546123a29190612d19565b90915550506001600160a01b0382166000818152606860209081526040808320805486019055518481527fddf252ad1be2c89b69c2b068fc378daa952ba7f163c4a11628f55a4df523b3ef9101612128565b6001600160a01b038216612524576001600160a01b0383166124585760405162461bcd60e51b815260206004820152601c60248201527f45524332303a206275726e2066726f6d207a657220616464726573730000000060448201526064016108c9565b6001600160a01b038316600090815260686020526040902054818110156124cc5760405162461bcd60e51b815260206004820152602260248201527f45524332303a206275726e20616d6f756e7420657863656564732062616c616e604482015261636560f01b60648201526084016108c9565b6001600160a01b03841660008181526068602090815260408083208686039055606a80548790039055518581529192917fddf252ad1be2c89b69c2b068fc378daa952ba7f163c4a11628f55a4df523b3ef9101610a97565b6001600160a01b0383166125845760405162461bcd60e51b815260206004820152602160248201527f45524332303a207472616e736665722066726f6d207a65726f206164647265736044820152607360f81b60648201526084016108c9565b6001600160a01b0382166125da5760405162461bcd60e51b815260206004820152601f60248201527f45524332303a207472616e7366657220746f207a65726f20616464726573730060448201526064016108c9565b6001600160a01b038316600090815260686020526040902054818110156126525760405162461bcd60e51b815260206004820152602660248201527f45524332303a207472616e7366657220616d6f756e7420657863656564732062604482015265616c616e636560d01b60648201526084016108c9565b6001600160a01b0380851660008181526068602052604080822086860390559286168082529083902080548601905591517fddf252ad1be2c89b69c2b068fc378daa952ba7f163c4a11628f55a4df523b3ef90610a979086815260200190565b6126bb8161223b565b6040516001600160a01b038216907fbc7cd75a20ee27fd9adebab32041f755214dbc6bffa90cc0225b39da2e5c2d3b90600090a250565b60606001600160a01b0383163b61275a5760405162461bcd60e51b815260206004820152602660248201527f416464726573733a2064656c65676174652063616c6c20746f206e6f6e2d636f6044820152651b9d1c9858dd60d21b60648201526084016108c9565b600080846001600160a01b0316846040516127759190612aa9565b600060405180830381855af49150503d80600081146127b0576040519150601f19603f3d011682016040523d82523d6000602084013e6127b5565b606091505b50915091506127dd8282604051806060016040528060278152602001612e43602791396127e6565b95945050505050565b606083156127f5575081610867565b8251156128055782518084602001fd5b8160405162461bcd60e51b81526004016108c99190612b12565b82805461282b90612d74565b90600052602060002090601f01602090048101928261284d5760008555612893565b82601f1061286657805160ff1916838001178555612893565b82800160010185558215612893579182015b82811115612893578251825591602001919060010190612878565b5061289f9291506128a3565b5090565b5b8082111561289f57600081556001016128a4565b80356001600160a01b03811681146109b157600080fd5b6000602082840312156128e157600080fd5b610867826128b8565b600080604083850312156128fd57600080fd5b612906836128b8565b9150612914602084016128b8565b90509250929050565b6000806000806080858703121561293357600080fd5b61293c856128b8565b935061294a602086016128b8565b9250612958604086016128b8565b9396929550929360600135925050565b60008060006060848603121561297d57600080fd5b612986846128b8565b9250612994602085016128b8565b9150604084013590509250925092565b600080604083850312156129b757600080fd5b6129c0836128b8565b9150602083013567ffffffffffffffff808211156129dd57600080fd5b818501915085601f8301126129f157600080fd5b813581811115612a0357612a03612e0c565b604051601f8201601f19908116603f01168101908382118183101715612a2b57612a2b612e0c565b81604052828152886020848701011115612a4457600080fd5b8260208601602083013760006020848301015280955050505050509250929050565b60008060408385031215612a7957600080fd5b612a82836128b8565b946020939093013593505050565b600060208284031215612aa257600080fd5b5051919050565b60008251612abb818460208701612d48565b9190910192915050565b6020808252825182820181905260009190848201906040850190845b81811015612b065783516001600160a01b031683529284019291840191600101612ae1565b50909695505050505050565b6020815260008251806020840152612b31816040850160208701612d48565b601f01601f19169190910160400192915050565b6020808252602c908201527f46756e6374696f6e206d7573742062652063616c6c6564207468726f7567682060408201526b19195b1959d85d1958d85b1b60a21b606082015260800190565b6020808252602c908201527f46756e6374696f6e206d7573742062652063616c6c6564207468726f7567682060408201526b6163746976652070726f787960a01b606082015260800190565b60208082526010908201526f14185d5cd8589b194e881c185d5cd95960821b604082015260600190565b6020808252602e908201527f496e697469616c697a61626c653a20636f6e747261637420697320616c72656160408201526d191e481a5b9a5d1a585b1a5e995960921b606082015260800190565b6020808252818101527f4f776e61626c653a2063616c6c6572206973206e6f7420746865206f776e6572604082015260600190565b60208082526024908201527f4d616e616765723a206d616e6167657220616e64206d696e746572206d69736d6040820152630c2e8c6d60e31b606082015260800190565b6020808252602b908201527f496e697469616c697a61626c653a20636f6e7472616374206973206e6f74206960408201526a6e697469616c697a696e6760a81b606082015260800190565b60008219821115612d2c57612d2c612dca565b500190565b600082821015612d4357612d43612dca565b500390565b60005b83811015612d63578181015183820152602001612d4b565b838111156117195750506000910152565b600181811c90821680612d8857607f821691505b60208210811415612da957634e487b7160e01b600052602260045260246000fd5b50919050565b6000600019821415612dc357612dc3612dca565b5060010190565b634e487b7160e01b600052601160045260246000fd5b634e487b7160e01b600052603160045260246000fd5b634e487b7160e01b600052603260045260246000fd5b634e487b7160e01b600052604160045260246000fdfe360894a13ba1a3210667c828492db98dca3e2076cc3735a920a3ca505d382bbc416464726573733a206c6f772d6c6576656c2064656c65676174652063616c6c206661696c6564a264697066735822122066fdc08bdc497c677a990057f21eff277778cdfb531278382893f3b58478c41e64736f6c63430008070033",
  "linkReferences": {},
  "deployedLinkReferences": {}
}