{
  "_format": "hh-sol-artifact-1",
  "contractName": "VCTokens",
  "sourceName": "contracts/VCTokens.sol",
  "abi": [
    {
      "anonymous": false,
      "inputs": [
        {
          "indexed": false,
          "internalType": "address",
          "name": "previousAdmin",
          "type": "address"
        },
        {
          "indexed": false,
          "internalType": "address",
          "name": "newAdmin",
          "type": "address"
        }
      ],
      "name": "AdminChanged",
      "type": "event"
    },
    {
      "anonymous": false,
      "inputs": [
        {
          "indexed": true,
          "internalType": "address",
          "name": "account",
          "type": "address"
        },
        {
          "indexed": true,
          "internalType": "address",
          "name": "operator",
          "type": "address"
        },
        {
          "indexed": false,
          "internalType": "bool",
          "name": "approved",
          "type": "bool"
        }
      ],
      "name": "ApprovalForAll",
      "type": "event"
    },
    {
      "anonymous": false,
      "inputs": [
        {
          "indexed": true,
          "internalType": "address",
          "name": "beacon",
          "type": "address"
        }
      ],
      "name": "BeaconUpgraded",
      "type": "event"
    },
    {
      "anonymous": false,
      "inputs": [
        {
          "indexed": false,
          "internalType": "address",
          "name": "operator",
          "type": "address"
        },
        {
          "indexed": false,
          "internalType": "address",
          "name": "from",
          "type": "address"
        },
        {
          "indexed": false,
          "internalType": "address",
          "name": "to",
          "type": "address"
        },
        {
          "indexed": false,
          "internalType": "uint256",
          "name": "id",
          "type": "uint256"
        }
      ],
      "name": "FailedTransfer",
      "type": "event"
    },
    {
      "anonymous": false,
      "inputs": [
        {
          "indexed": false,
          "internalType": "uint8",
          "name": "version",
          "type": "uint8"
        }
      ],
      "name": "Initialized",
      "type": "event"
    },
    {
      "anonymous": false,
      "inputs": [
        {
          "indexed": true,
          "internalType": "bytes32",
          "name": "role",
          "type": "bytes32"
        },
        {
          "indexed": true,
          "internalType": "bytes32",
          "name": "previousAdminRole",
          "type": "bytes32"
        },
        {
          "indexed": true,
          "internalType": "bytes32",
          "name": "newAdminRole",
          "type": "bytes32"
        }
      ],
      "name": "RoleAdminChanged",
      "type": "event"
    },
    {
      "anonymous": false,
      "inputs": [
        {
          "indexed": true,
          "internalType": "bytes32",
          "name": "role",
          "type": "bytes32"
        },
        {
          "indexed": true,
          "internalType": "address",
          "name": "account",
          "type": "address"
        },
        {
          "indexed": true,
          "internalType": "address",
          "name": "sender",
          "type": "address"
        }
      ],
      "name": "RoleGranted",
      "type": "event"
    },
    {
      "anonymous": false,
      "inputs": [
        {
          "indexed": true,
          "internalType": "bytes32",
          "name": "role",
          "type": "bytes32"
        },
        {
          "indexed": true,
          "internalType": "address",
          "name": "account",
          "type": "address"
        },
        {
          "indexed": true,
          "internalType": "address",
          "name": "sender",
          "type": "address"
        }
      ],
      "name": "RoleRevoked",
      "type": "event"
    },
    {
      "anonymous": false,
      "inputs": [
        {
          "indexed": true,
          "internalType": "address",
          "name": "operator",
          "type": "address"
        },
        {
          "indexed": true,
          "internalType": "address",
          "name": "from",
          "type": "address"
        },
        {
          "indexed": true,
          "internalType": "address",
          "name": "to",
          "type": "address"
        },
        {
          "indexed": false,
          "internalType": "uint256",
          "name": "id",
          "type": "uint256"
        },
        {
          "indexed": false,
          "internalType": "uint256",
          "name": "value",
          "type": "uint256"
        }
      ],
      "name": "Transfer",
      "type": "event"
    },
    {
      "anonymous": false,
      "inputs": [
        {
          "indexed": false,
          "internalType": "string",
          "name": "value",
          "type": "string"
        },
        {
          "indexed": true,
          "internalType": "uint256",
          "name": "id",
          "type": "uint256"
        }
      ],
      "name": "URI",
      "type": "event"
    },
    {
      "anonymous": false,
      "inputs": [
        {
          "indexed": true,
          "internalType": "address",
          "name": "implementation",
          "type": "address"
        }
      ],
      "name": "Upgraded",
      "type": "event"
    },
    {
      "inputs": [],
      "name": "ADMIN_ROLE",
      "outputs": [
        {
          "internalType": "bytes32",
          "name": "",
          "type": "bytes32"
        }
      ],
      "stateMutability": "view",
      "type": "function"
    },
    {
      "inputs": [],
      "name": "BUSINESS",
      "outputs": [
        {
          "internalType": "uint256",
          "name": "",
          "type": "uint256"
        }
      ],
      "stateMutability": "view",
      "type": "function"
    },
    {
      "inputs": [],
      "name": "DEFAULT_ADMIN_ROLE",
      "outputs": [
        {
          "internalType": "bytes32",
          "name": "",
          "type": "bytes32"
        }
      ],
      "stateMutability": "view",
      "type": "function"
    },
    {
      "inputs": [],
      "name": "INT_ACCREDITED_INVESTOR",
      "outputs": [
        {
          "internalType": "uint256",
          "name": "",
          "type": "uint256"
        }
      ],
      "stateMutability": "view",
      "type": "function"
    },
    {
      "inputs": [],
      "name": "INT_PERSON",
      "outputs": [
        {
          "internalType": "uint256",
          "name": "",
          "type": "uint256"
        }
      ],
      "stateMutability": "view",
      "type": "function"
    },
    {
      "inputs": [],
      "name": "MINTER_ROLE",
      "outputs": [
        {
          "internalType": "bytes32",
          "name": "",
          "type": "bytes32"
        }
      ],
      "stateMutability": "view",
      "type": "function"
    },
    {
      "inputs": [],
      "name": "US_ACCREDITED_INVESTOR",
      "outputs": [
        {
          "internalType": "uint256",
          "name": "",
          "type": "uint256"
        }
      ],
      "stateMutability": "view",
      "type": "function"
    },
    {
      "inputs": [],
      "name": "US_PERSON",
      "outputs": [
        {
          "internalType": "uint256",
          "name": "",
          "type": "uint256"
        }
      ],
      "stateMutability": "view",
      "type": "function"
    },
    {
      "inputs": [],
      "name": "__VCToken_init",
      "outputs": [],
      "stateMutability": "nonpayable",
      "type": "function"
    },
    {
      "inputs": [
        {
          "internalType": "address",
          "name": "account",
          "type": "address"
        },
        {
          "internalType": "uint256",
          "name": "id",
          "type": "uint256"
        }
      ],
      "name": "balanceOf",
      "outputs": [
        {
          "internalType": "uint256",
          "name": "",
          "type": "uint256"
        }
      ],
      "stateMutability": "view",
      "type": "function"
    },
    {
      "inputs": [
        {
          "internalType": "address",
          "name": "from",
          "type": "address"
        },
        {
          "internalType": "uint256",
          "name": "id",
          "type": "uint256"
        }
      ],
      "name": "burn",
      "outputs": [],
      "stateMutability": "nonpayable",
      "type": "function"
    },
    {
      "inputs": [
        {
          "internalType": "uint256",
          "name": "clientId",
          "type": "uint256"
        }
      ],
      "name": "getClientAddress",
      "outputs": [
        {
          "internalType": "address",
          "name": "",
          "type": "address"
        }
      ],
      "stateMutability": "view",
      "type": "function"
    },
    {
      "inputs": [
        {
          "internalType": "address",
          "name": "account",
          "type": "address"
        }
      ],
      "name": "getNonce",
      "outputs": [
        {
          "internalType": "uint256",
          "name": "",
          "type": "uint256"
        }
      ],
      "stateMutability": "view",
      "type": "function"
    },
    {
      "inputs": [
        {
          "internalType": "bytes32",
          "name": "role",
          "type": "bytes32"
        }
      ],
      "name": "getRoleAdmin",
      "outputs": [
        {
          "internalType": "bytes32",
          "name": "",
          "type": "bytes32"
        }
      ],
      "stateMutability": "view",
      "type": "function"
    },
    {
      "inputs": [
        {
          "internalType": "bytes32",
          "name": "role",
          "type": "bytes32"
        },
        {
          "internalType": "address",
          "name": "account",
          "type": "address"
        }
      ],
      "name": "grantRole",
      "outputs": [],
      "stateMutability": "nonpayable",
      "type": "function"
    },
    {
      "inputs": [
        {
          "internalType": "bytes32",
          "name": "role",
          "type": "bytes32"
        },
        {
          "internalType": "address",
          "name": "account",
          "type": "address"
        }
      ],
      "name": "hasRole",
      "outputs": [
        {
          "internalType": "bool",
          "name": "",
          "type": "bool"
        }
      ],
      "stateMutability": "view",
      "type": "function"
    },
    {
      "inputs": [
        {
          "internalType": "address",
          "name": "account",
          "type": "address"
        },
        {
          "internalType": "address",
          "name": "operator",
          "type": "address"
        }
      ],
      "name": "isApprovedForAll",
      "outputs": [
        {
          "internalType": "bool",
          "name": "",
          "type": "bool"
        }
      ],
      "stateMutability": "view",
      "type": "function"
    },
    {
      "inputs": [
        {
          "internalType": "address",
          "name": "account",
          "type": "address"
        },
        {
          "internalType": "uint256",
          "name": "id",
          "type": "uint256"
        }
      ],
      "name": "mint",
      "outputs": [],
      "stateMutability": "nonpayable",
      "type": "function"
    },
    {
      "inputs": [
        {
          "internalType": "uint256",
          "name": "id",
          "type": "uint256"
        }
      ],
      "name": "minted",
      "outputs": [
        {
          "internalType": "bool",
          "name": "",
          "type": "bool"
        }
      ],
      "stateMutability": "view",
      "type": "function"
    },
    {
      "inputs": [],
      "name": "name",
      "outputs": [
        {
          "internalType": "string",
          "name": "",
          "type": "string"
        }
      ],
      "stateMutability": "pure",
      "type": "function"
    },
    {
      "inputs": [],
      "name": "proxiableUUID",
      "outputs": [
        {
          "internalType": "bytes32",
          "name": "",
          "type": "bytes32"
        }
      ],
      "stateMutability": "view",
      "type": "function"
    },
    {
      "inputs": [
        {
          "internalType": "bytes32",
          "name": "role",
          "type": "bytes32"
        },
        {
          "internalType": "address",
          "name": "account",
          "type": "address"
        }
      ],
      "name": "renounceRole",
      "outputs": [],
      "stateMutability": "nonpayable",
      "type": "function"
    },
    {
      "inputs": [
        {
          "internalType": "bytes32",
          "name": "role",
          "type": "bytes32"
        },
        {
          "internalType": "address",
          "name": "account",
          "type": "address"
        }
      ],
      "name": "revokeRole",
      "outputs": [],
      "stateMutability": "nonpayable",
      "type": "function"
    },
    {
      "inputs": [
        {
          "internalType": "address",
          "name": "from",
          "type": "address"
        },
        {
          "internalType": "address",
          "name": "to",
          "type": "address"
        },
        {
          "internalType": "uint256",
          "name": "id",
          "type": "uint256"
        },
        {
          "internalType": "uint256",
          "name": "amount",
          "type": "uint256"
        },
        {
          "internalType": "bytes",
          "name": "data",
          "type": "bytes"
        }
      ],
      "name": "safeTransferFrom",
      "outputs": [],
      "stateMutability": "nonpayable",
      "type": "function"
    },
    {
      "inputs": [
        {
          "internalType": "address",
          "name": "operator",
          "type": "address"
        },
        {
          "internalType": "bool",
          "name": "approved",
          "type": "bool"
        }
      ],
      "name": "setApprovalForAll",
      "outputs": [],
      "stateMutability": "nonpayable",
      "type": "function"
    },
    {
      "inputs": [
        {
          "internalType": "address",
          "name": "signer",
          "type": "address"
        }
      ],
      "name": "setMinter",
      "outputs": [
        {
          "internalType": "uint256",
          "name": "",
          "type": "uint256"
        }
      ],
      "stateMutability": "nonpayable",
      "type": "function"
    },
    {
      "inputs": [
        {
          "internalType": "bytes4",
          "name": "interfaceId",
          "type": "bytes4"
        }
      ],
      "name": "supportsInterface",
      "outputs": [
        {
          "internalType": "bool",
          "name": "",
          "type": "bool"
        }
      ],
      "stateMutability": "view",
      "type": "function"
    },
    {
      "inputs": [],
      "name": "symbol",
      "outputs": [
        {
          "internalType": "string",
          "name": "",
          "type": "string"
        }
      ],
      "stateMutability": "pure",
      "type": "function"
    },
    {
      "inputs": [
        {
          "internalType": "uint256",
          "name": "id",
          "type": "uint256"
        }
      ],
      "name": "totalSupply",
      "outputs": [
        {
          "internalType": "uint256",
          "name": "",
          "type": "uint256"
        }
      ],
      "stateMutability": "view",
      "type": "function"
    },
    {
      "inputs": [
        {
          "internalType": "address",
          "name": "from",
          "type": "address"
        },
        {
          "internalType": "address",
          "name": "to",
          "type": "address"
        },
        {
          "internalType": "uint256",
          "name": "id",
          "type": "uint256"
        }
      ],
      "name": "transfer",
      "outputs": [],
      "stateMutability": "nonpayable",
      "type": "function"
    },
    {
      "inputs": [
        {
          "internalType": "address",
          "name": "newImplementation",
          "type": "address"
        }
      ],
      "name": "upgradeTo",
      "outputs": [],
      "stateMutability": "nonpayable",
      "type": "function"
    },
    {
      "inputs": [
        {
          "internalType": "address",
          "name": "newImplementation",
          "type": "address"
        },
        {
          "internalType": "bytes",
          "name": "data",
          "type": "bytes"
        }
      ],
      "name": "upgradeToAndCall",
      "outputs": [],
      "stateMutability": "payable",
      "type": "function"
    },
    {
      "inputs": [
        {
          "internalType": "uint256",
          "name": "",
          "type": "uint256"
        }
      ],
      "name": "uri",
      "outputs": [
        {
          "internalType": "string",
          "name": "",
          "type": "string"
        }
      ],
      "stateMutability": "view",
      "type": "function"
    }
  ],
  "bytecode": "0x60a06040523060601b60805234801561001757600080fd5b5060805160601c6125d8610052600039600081816108550152818161089501528181610969015281816109a90152610a3801526125d86000f3fe6080604052600436106101ed5760003560e01c806395d89b411161010d578063d5391393116100a0578063e985e9c51161006f578063e985e9c5146105f0578063ec34d3141461063a578063f242432a1461064f578063fca3b5aa1461066f578063ff26d4381461068f57600080fd5b8063d539139314610584578063d547741f146105a6578063dc1a1880146105c6578063e36c8450146105db57600080fd5b8063bd85b039116100dc578063bd85b0391461050c578063beabacc81461053a578063c0b86b3c1461055a578063cc10b4261461056f57600080fd5b806395d89b411461048b5780639dc29fac146104b7578063a217fddf146104d7578063a22cb465146104ec57600080fd5b80633659cfe61161018557806352d1902d1161015457806352d1902d1461040457806375b238fc146104195780637dc0bf3f1461043b57806391d148541461046b57600080fd5b80633659cfe61461036257806340c10f19146103825780634f1ef286146103a25780634f4beaac146103b557600080fd5b8063248a9ca3116101c1578063248a9ca3146102d05780632d0335ab146103005780632f2ff15d1461032057806336568abe1461034257600080fd5b8062fdd58e146101f257806301ffc9a71461022557806306fdde03146102555780630e89341c1461028e575b600080fd5b3480156101fe57600080fd5b5061021261020d3660046120ac565b6106a4565b6040519081526020015b60405180910390f35b34801561023157600080fd5b5061024561024036600461212b565b61073d565b604051901515815260200161021c565b34801561026157600080fd5b506040805180820190915260078152662b21aa37b5b2b760c91b60208201525b60405161021c9190612267565b34801561029a57600080fd5b506102816102a93660046120d6565b5060408051808201909152600c81526b7777772e736168652e636f6d60a01b602082015290565b3480156102dc57600080fd5b506102126102eb3660046120d6565b60009081526065602052604090206001015490565b34801561030c57600080fd5b5061021261031b366004611f26565b610783565b34801561032c57600080fd5b5061034061033b366004612108565b6107a2565b005b34801561034e57600080fd5b5061034061035d366004612108565b6107cc565b34801561036e57600080fd5b5061034061037d366004611f26565b61084a565b34801561038e57600080fd5b5061034061039d3660046120ac565b61092a565b6103406103b036600461205e565b61095e565b3480156103c157600080fd5b506103ec6103d03660046120d6565b600090815261010360205260409020546001600160a01b031690565b6040516001600160a01b03909116815260200161021c565b34801561041057600080fd5b50610212610a2b565b34801561042557600080fd5b5061021260008051602061258383398151915281565b34801561044757600080fd5b506102456104563660046120d6565b60009081526101046020526040902054151590565b34801561047757600080fd5b50610245610486366004612108565b610adf565b34801561049757600080fd5b506040805180820190915260038152621590d560ea1b6020820152610281565b3480156104c357600080fd5b506103406104d23660046120ac565b610b0a565b3480156104e357600080fd5b50610212600081565b3480156104f857600080fd5b50610340610507366004612022565b610b2e565b34801561051857600080fd5b506102126105273660046120d6565b6000908152610104602052604090205490565b34801561054657600080fd5b50610340610555366004611f74565b610b39565b34801561056657600080fd5b50610212600581565b34801561057b57600080fd5b50610340610b56565b34801561059057600080fd5b5061021260008051602061256383398151915281565b3480156105b257600080fd5b506103406105c1366004612108565b610c18565b3480156105d257600080fd5b50610212600381565b3480156105e757600080fd5b50610212600181565b3480156105fc57600080fd5b5061024561060b366004611f41565b6001600160a01b0391821660009081526101066020908152604080832093909416825291909152205460ff1690565b34801561064657600080fd5b50610212600281565b34801561065b57600080fd5b5061034061066a366004611fb0565b610c3d565b34801561067b57600080fd5b5061021261068a366004611f26565b610cd0565b34801561069b57600080fd5b50610212600481565b60006001600160a01b0383166107145760405162461bcd60e51b815260206004820152602a60248201527f5643546f6b656e3a2061646472657373207a65726f206973206e6f742061207660448201526930b634b21037bbb732b960b11b60648201526084015b60405180910390fd5b506000908152610105602090815260408083206001600160a01b03949094168352929052205490565b60006001600160e01b0319821663125d5d2d60e11b148061076e57506001600160e01b0319821663da8def7360e01b145b8061077d575061077d82610d9f565b92915050565b6001600160a01b0381166000908152610102602052604081205461077d565b6000828152606560205260409020600101546107bd81610dd4565b6107c78383610dde565b505050565b6001600160a01b038116331461083c5760405162461bcd60e51b815260206004820152602f60248201527f416363657373436f6e74726f6c3a2063616e206f6e6c792072656e6f756e636560448201526e103937b632b9903337b91039b2b63360891b606482015260840161070b565b6108468282610e64565b5050565b306001600160a01b037f00000000000000000000000000000000000000000000000000000000000000001614156108935760405162461bcd60e51b815260040161070b9061227a565b7f00000000000000000000000000000000000000000000000000000000000000006001600160a01b03166108dc60008051602061251c833981519152546001600160a01b031690565b6001600160a01b0316146109025760405162461bcd60e51b815260040161070b906122c6565b61090b81610ecb565b6040805160008082526020820190925261092791839190610fa3565b50565b60008051602061256383398151915261094281610dd4565b6107c7838360016040518060200160405280600081525061111d565b306001600160a01b037f00000000000000000000000000000000000000000000000000000000000000001614156109a75760405162461bcd60e51b815260040161070b9061227a565b7f00000000000000000000000000000000000000000000000000000000000000006001600160a01b03166109f060008051602061251c833981519152546001600160a01b031690565b6001600160a01b031614610a165760405162461bcd60e51b815260040161070b906122c6565b610a1f82610ecb565b61084682826001610fa3565b6000306001600160a01b037f00000000000000000000000000000000000000000000000000000000000000001614610acb5760405162461bcd60e51b815260206004820152603860248201527f555550535570677261646561626c653a206d757374206e6f742062652063616c60448201527f6c6564207468726f7567682064656c656761746563616c6c0000000000000000606482015260840161070b565b5060008051602061251c8339815191525b90565b60009182526065602090815260408084206001600160a01b0393909316845291905290205460ff1690565b600080516020612563833981519152610b2281610dd4565b6107c783836001611197565b610846338383611212565b6107c78383836001604051806020016040528060008152506112f4565b6000610b626001611319565b90508015610b7a576000805461ff0019166101001790555b610b826113a6565b610b8a6113a6565b610b926113a6565b610bb8600080516020612563833981519152600080516020612583833981519152611413565b610bd06000805160206125838339815191523361145e565b8015610927576000805461ff0019169055604051600181527f7f26b83ff96e1f2b6a682f133852f6798a09c465da95921460cefb38474024989060200160405180910390a150565b600082815260656020526040902060010154610c3381610dd4565b6107c78383610e64565b6001600160a01b038516331480610c595750610c59853361060b565b610cbc5760405162461bcd60e51b815260206004820152602e60248201527f5643546f6b656e3a2063616c6c6572206973206e6f7420746f6b656e206f776e60448201526d195c881bdc88185c1c1c9bdd995960921b606482015260840161070b565b610cc985858585856112f4565b5050505050565b6000600080516020612583833981519152610cea81610dd4565b6001600160a01b038316610d385760405162461bcd60e51b81526020600482015260156024820152746e6f6e207a65726f2061646472657373206f6e6c7960581b604482015260640161070b565b610d4660fb80546001019055565b6000610d5160fb5490565b60008181526101036020526040902080546001600160a01b0319166001600160a01b03871617905542610101559050610d9860008051602061256383398151915285610dde565b9392505050565b60006001600160e01b03198216637965db0b60e01b148061077d57506301ffc9a760e01b6001600160e01b031983161461077d565b6109278133611468565b610de88282610adf565b6108465760008281526065602090815260408083206001600160a01b03851684529091529020805460ff19166001179055610e203390565b6001600160a01b0316816001600160a01b0316837f2f8788117e7eff1d82e926ec794901d17c78024a50270940304540a733656f0d60405160405180910390a45050565b610e6e8282610adf565b156108465760008281526065602090815260408083206001600160a01b0385168085529252808320805460ff1916905551339285917ff6391f5c32d9c69d2a47ea670b442974b53935d1edc7fd64eb21e047a839171b9190a45050565b600080516020612583833981519152610ee381610dd4565b6001600160a01b0382163b610f4d5760405162461bcd60e51b815260206004820152602a60248201527f4e46543a206e657720496d706c656d656e746174696f6e206d75737420626520604482015269184818dbdb9d1c9858dd60b21b606482015260840161070b565b6001600160a01b0382166108465760405162461bcd60e51b815260206004820152601860248201527f4e46543a2073657420746f207a65726f20616464726573730000000000000000604482015260640161070b565b7f4910fdfa16fed3260ed0e7147f7cc6da11a60208b5b9406d12a635614ffd91435460ff1615610fd6576107c7836114cc565b826001600160a01b03166352d1902d6040518163ffffffff1660e01b815260040160206040518083038186803b15801561100f57600080fd5b505afa92505050801561103f575060408051601f3d908101601f1916820190925261103c918101906120ef565b60015b6110a25760405162461bcd60e51b815260206004820152602e60248201527f45524331393637557067726164653a206e657720696d706c656d656e7461746960448201526d6f6e206973206e6f74205555505360901b606482015260840161070b565b60008051602061251c83398151915281146111115760405162461bcd60e51b815260206004820152602960248201527f45524331393637557067726164653a20756e737570706f727465642070726f786044820152681a58589b195555525160ba1b606482015260840161070b565b506107c7838383611568565b60058311156111785760405162461bcd60e51b815260206004820152602160248201527f5643546f6b656e3a2072657175657374656420696420756e617661696c61626c6044820152606560f81b606482015260840161070b565b336111888160008787878761158d565b610cc9816000878787876119dd565b600082815261010460205260409020546111e95760405162461bcd60e51b81526020600482015260136024820152721590d51bdad95b8e881b9bdd081b5a5b9d1959606a1b604482015260640161070b565b600033905061120c8185600086866040518060200160405280600081525061158d565b50505050565b816001600160a01b0316836001600160a01b031614156112865760405162461bcd60e51b815260206004820152602960248201527f5643546f6b656e3a2073657474696e6720617070726f76616c20737461747573604482015268103337b91039b2b63360b91b606482015260840161070b565b6001600160a01b0383811660008181526101066020908152604080832094871680845294825291829020805460ff191686151590811790915591519182527f17307eab39ab6107e8899845ad3d59bd9653f200f220920489ca2b5937696c31910160405180910390a3505050565b3361130381878787878761158d565b6113118187878787876119dd565b505050505050565b60008054610100900460ff1615611360578160ff16600114801561133c5750303b155b6113585760405162461bcd60e51b815260040161070b90612312565b506000919050565b60005460ff8084169116106113875760405162461bcd60e51b815260040161070b90612312565b506000805460ff191660ff92909216919091179055600190565b919050565b600054610100900460ff166114115760405162461bcd60e51b815260206004820152602b60248201527f496e697469616c697a61626c653a20636f6e7472616374206973206e6f74206960448201526a6e697469616c697a696e6760a81b606482015260840161070b565b565b600082815260656020526040808220600101805490849055905190918391839186917fbd79b86ffe0ab8e8776151514217cd7cacd52c909f66475c3af44e129f0b00ff9190a4505050565b6108468282610dde565b6114728282610adf565b6108465761148a816001600160a01b03166014611b92565b611495836020611b92565b6040516020016114a69291906121ad565b60408051601f198184030181529082905262461bcd60e51b825261070b91600401612267565b6001600160a01b0381163b6115395760405162461bcd60e51b815260206004820152602d60248201527f455243313936373a206e657720696d706c656d656e746174696f6e206973206e60448201526c1bdd08184818dbdb9d1c9858dd609a1b606482015260840161070b565b60008051602061251c83398151915280546001600160a01b0319166001600160a01b0392909216919091179055565b61157183611d2e565b60008251118061157e5750805b156107c75761120c8383611d6e565b6001600160a01b0385161580156115ac57506001600160a01b03841615155b1561165a576000838152610105602090815260408083206001600160a01b0388168452909152812080548492906115e4908490612360565b90915550506000838152610104602052604081208054849290611608908490612360565b909155505060408051848152602081018490526001600160a01b0380871692600092918a16917f1b3d7edb2e9c0b0e7c525b20aaaef0f5940d2ed71663c7d39266ecafac728859910160405180910390a45b6001600160a01b0385161580159061167957506001600160a01b038416155b156117f65760008381526101046020526040902054828110156116f05760405162461bcd60e51b815260206004820152602960248201527f5643546f6b656e3a206275726e20616d6f756e74206578636565647320746f74604482015268616c20737570706c7960b81b606482015260840161070b565b6116fa8382612397565b6000858152610104602090815260408083209390935561010581528282206001600160a01b038a16835290522054838110156117845760405162461bcd60e51b8152602060048201526024808201527f5643546f6b656e3a206275726e20616d6f756e7420657863656564732062616c604482015263616e636560e01b606482015260840161070b565b61178e8482612397565b6000868152610105602090815260408083206001600160a01b038c81168086529184528285209590955581518a815292830189905292938c16917f1b3d7edb2e9c0b0e7c525b20aaaef0f5940d2ed71663c7d39266ecafac728859910160405180910390a450505b6001600160a01b0385161580159061181657506001600160a01b03841615155b1561131157826001141561194a576000838152610105602090815260408083206001600160a01b0389168452909152902054828110156118a95760405162461bcd60e51b815260206004820152602860248201527f5643546f6b656e3a207472616e7366657220616d6f756e7420657863656564736044820152672062616c616e636560c01b606482015260840161070b565b6118b38382612397565b6000858152610105602090815260408083206001600160a01b038b811685529252808320939093558716815290812080548592906118f2908490612360565b909155505060408051858152602081018590526001600160a01b038088169289821692918b16917f1b3d7edb2e9c0b0e7c525b20aaaef0f5940d2ed71663c7d39266ecafac728859910160405180910390a450611311565b604080516001600160a01b03888116825287811660208301528616818301526060810185905290517f736fc97885d39c64c223b149d0a1e217c3b6f1580cdb6d91be94d41b8d6439799181900360800190a160405162461bcd60e51b815260206004820152601660248201527537b7363c90313ab9b4b732b9b9903a3930b739b332b960511b604482015260640161070b565b6001600160a01b0384163b156113115760405163f23a6e6160e01b81526001600160a01b0385169063f23a6e6190611a219089908990889088908890600401612222565b602060405180830381600087803b158015611a3b57600080fd5b505af1925050508015611a6b575060408051601f3d908101601f19168201909252611a6891810190612148565b60015b611b1857611a77612460565b806308c379a01415611ab15750611a8c61247b565b80611a975750611ab3565b8060405162461bcd60e51b815260040161070b9190612267565b505b60405162461bcd60e51b815260206004820152603460248201527f455243313135353a207472616e7366657220746f206e6f6e2d455243313135356044820152732932b1b2b4bb32b91034b6b83632b6b2b73a32b960611b606482015260840161070b565b6001600160e01b0319811663f23a6e6160e01b14611b895760405162461bcd60e51b815260206004820152602860248201527f455243313135353a204552433131353552656365697665722072656a656374656044820152676420746f6b656e7360c01b606482015260840161070b565b50505050505050565b60606000611ba1836002612378565b611bac906002612360565b67ffffffffffffffff811115611bc457611bc461244a565b6040519080825280601f01601f191660200182016040528015611bee576020820181803683370190505b509050600360fc1b81600081518110611c0957611c09612434565b60200101906001600160f81b031916908160001a905350600f60fb1b81600181518110611c3857611c38612434565b60200101906001600160f81b031916908160001a9053506000611c5c846002612378565b611c67906001612360565b90505b6001811115611cdf576f181899199a1a9b1b9c1cb0b131b232b360811b85600f1660108110611c9b57611c9b612434565b1a60f81b828281518110611cb157611cb1612434565b60200101906001600160f81b031916908160001a90535060049490941c93611cd8816123da565b9050611c6a565b508315610d985760405162461bcd60e51b815260206004820181905260248201527f537472696e67733a20686578206c656e67746820696e73756666696369656e74604482015260640161070b565b611d37816114cc565b6040516001600160a01b038216907fbc7cd75a20ee27fd9adebab32041f755214dbc6bffa90cc0225b39da2e5c2d3b90600090a250565b60606001600160a01b0383163b611dd65760405162461bcd60e51b815260206004820152602660248201527f416464726573733a2064656c65676174652063616c6c20746f206e6f6e2d636f6044820152651b9d1c9858dd60d21b606482015260840161070b565b600080846001600160a01b031684604051611df19190612191565b600060405180830381855af49150503d8060008114611e2c576040519150601f19603f3d011682016040523d82523d6000602084013e611e31565b606091505b5091509150611e59828260405180606001604052806027815260200161253c60279139611e62565b95945050505050565b60608315611e71575081610d98565b825115611e815782518084602001fd5b8160405162461bcd60e51b815260040161070b9190612267565b80356001600160a01b03811681146113a157600080fd5b600082601f830112611ec357600080fd5b813567ffffffffffffffff811115611edd57611edd61244a565b604051611ef4601f8301601f1916602001826123f1565b818152846020838601011115611f0957600080fd5b816020850160208301376000918101602001919091529392505050565b600060208284031215611f3857600080fd5b610d9882611e9b565b60008060408385031215611f5457600080fd5b611f5d83611e9b565b9150611f6b60208401611e9b565b90509250929050565b600080600060608486031215611f8957600080fd5b611f9284611e9b565b9250611fa060208501611e9b565b9150604084013590509250925092565b600080600080600060a08688031215611fc857600080fd5b611fd186611e9b565b9450611fdf60208701611e9b565b93506040860135925060608601359150608086013567ffffffffffffffff81111561200957600080fd5b61201588828901611eb2565b9150509295509295909350565b6000806040838503121561203557600080fd5b61203e83611e9b565b91506020830135801515811461205357600080fd5b809150509250929050565b6000806040838503121561207157600080fd5b61207a83611e9b565b9150602083013567ffffffffffffffff81111561209657600080fd5b6120a285828601611eb2565b9150509250929050565b600080604083850312156120bf57600080fd5b6120c883611e9b565b946020939093013593505050565b6000602082840312156120e857600080fd5b5035919050565b60006020828403121561210157600080fd5b5051919050565b6000806040838503121561211b57600080fd5b82359150611f6b60208401611e9b565b60006020828403121561213d57600080fd5b8135610d9881612505565b60006020828403121561215a57600080fd5b8151610d9881612505565b6000815180845261217d8160208601602086016123ae565b601f01601f19169290920160200192915050565b600082516121a38184602087016123ae565b9190910192915050565b7f416363657373436f6e74726f6c3a206163636f756e74200000000000000000008152600083516121e58160178501602088016123ae565b7001034b99036b4b9b9b4b733903937b6329607d1b60179184019182015283516122168160288401602088016123ae565b01602801949350505050565b6001600160a01b03868116825285166020820152604081018490526060810183905260a06080820181905260009061225c90830184612165565b979650505050505050565b602081526000610d986020830184612165565b6020808252602c908201527f46756e6374696f6e206d7573742062652063616c6c6564207468726f7567682060408201526b19195b1959d85d1958d85b1b60a21b606082015260800190565b6020808252602c908201527f46756e6374696f6e206d7573742062652063616c6c6564207468726f7567682060408201526b6163746976652070726f787960a01b606082015260800190565b6020808252602e908201527f496e697469616c697a61626c653a20636f6e747261637420697320616c72656160408201526d191e481a5b9a5d1a585b1a5e995960921b606082015260800190565b600082198211156123735761237361241e565b500190565b60008160001904831182151516156123925761239261241e565b500290565b6000828210156123a9576123a961241e565b500390565b60005b838110156123c95781810151838201526020016123b1565b8381111561120c5750506000910152565b6000816123e9576123e961241e565b506000190190565b601f8201601f1916810167ffffffffffffffff811182821017156124175761241761244a565b6040525050565b634e487b7160e01b600052601160045260246000fd5b634e487b7160e01b600052603260045260246000fd5b634e487b7160e01b600052604160045260246000fd5b600060033d1115610adc5760046000803e5060005160e01c90565b600060443d10156124895790565b6040516003193d81016004833e81513d67ffffffffffffffff81602484011181841117156124b957505050505090565b82850191508151818111156124d15750505050505090565b843d87010160208285010111156124eb5750505050505090565b6124fa602082860101876123f1565b509095945050505050565b6001600160e01b03198116811461092757600080fdfe360894a13ba1a3210667c828492db98dca3e2076cc3735a920a3ca505d382bbc416464726573733a206c6f772d6c6576656c2064656c65676174652063616c6c206661696c65649f2df0fed2c77648de5860a4cc508cd0818c85b8b8a1ab4ceeef8d981c8956a6a49807205ce4d355092ef5a8a18f56e8913cf4a201fbe287825b095693c21775a26469706673582212205a7112ec9545ec53f4b91182ed345cb4a50e5a262ead91975ea59f34c030fd9f64736f6c63430008070033",
  "linkReferences": {},
  "deployedLinkReferences": {}
}