{
  "_format": "hh-sol-artifact-1",
  "contractName": "EstatesFactory",
  "sourceName": "contracts/EstatesFactory.sol",
  "abi": [
    {
      "anonymous": false,
      "inputs": [
        {
          "indexed": true,
          "internalType": "address",
          "name": "deployer",
          "type": "address"
        },
        {
          "indexed": false,
          "internalType": "address",
          "name": "estateBeacon",
          "type": "address"
        }
      ],
      "name": "FactoryInit",
      "type": "event"
    },
    {
      "anonymous": false,
      "inputs": [
        {
          "indexed": false,
          "internalType": "uint8",
          "name": "version",
          "type": "uint8"
        }
      ],
      "name": "Initialized",
      "type": "event"
    },
    {
      "anonymous": false,
      "inputs": [
        {
          "indexed": true,
          "internalType": "address",
          "name": "previousOwner",
          "type": "address"
        },
        {
          "indexed": true,
          "internalType": "address",
          "name": "newOwner",
          "type": "address"
        }
      ],
      "name": "OwnershipTransferred",
      "type": "event"
    },
    {
      "anonymous": false,
      "inputs": [
        {
          "indexed": false,
          "internalType": "address",
          "name": "account",
          "type": "address"
        }
      ],
      "name": "Paused",
      "type": "event"
    },
    {
      "anonymous": false,
      "inputs": [
        {
          "indexed": false,
          "internalType": "uint256",
          "name": "proxyId",
          "type": "uint256"
        },
        {
          "indexed": false,
          "internalType": "address",
          "name": "proxyAddress",
          "type": "address"
        },
        {
          "indexed": true,
          "internalType": "address",
          "name": "estateOwner",
          "type": "address"
        },
        {
          "indexed": true,
          "internalType": "address",
          "name": "estateManager",
          "type": "address"
        }
      ],
      "name": "ProxyDeployed",
      "type": "event"
    },
    {
      "anonymous": false,
      "inputs": [
        {
          "indexed": false,
          "internalType": "address",
          "name": "account",
          "type": "address"
        }
      ],
      "name": "Unpaused",
      "type": "event"
    },
    {
      "inputs": [],
      "name": "__EstatesFactory_init",
      "outputs": [],
      "stateMutability": "nonpayable",
      "type": "function"
    },
    {
      "inputs": [],
      "name": "allProxies",
      "outputs": [
        {
          "internalType": "address[]",
          "name": "",
          "type": "address[]"
        }
      ],
      "stateMutability": "view",
      "type": "function"
    },
    {
      "inputs": [],
      "name": "emergencyPause",
      "outputs": [],
      "stateMutability": "nonpayable",
      "type": "function"
    },
    {
      "inputs": [],
      "name": "emergencyUnpause",
      "outputs": [],
      "stateMutability": "nonpayable",
      "type": "function"
    },
    {
      "inputs": [],
      "name": "getEstateBeacon",
      "outputs": [
        {
          "internalType": "address",
          "name": "",
          "type": "address"
        }
      ],
      "stateMutability": "view",
      "type": "function"
    },
    {
      "inputs": [],
      "name": "owner",
      "outputs": [
        {
          "internalType": "address",
          "name": "",
          "type": "address"
        }
      ],
      "stateMutability": "view",
      "type": "function"
    },
    {
      "inputs": [],
      "name": "paused",
      "outputs": [
        {
          "internalType": "bool",
          "name": "",
          "type": "bool"
        }
      ],
      "stateMutability": "view",
      "type": "function"
    },
    {
      "inputs": [],
      "name": "proxiesCount",
      "outputs": [
        {
          "internalType": "uint256",
          "name": "",
          "type": "uint256"
        }
      ],
      "stateMutability": "view",
      "type": "function"
    },
    {
      "inputs": [
        {
          "internalType": "address",
          "name": "manager",
          "type": "address"
        }
      ],
      "name": "proxiesManager",
      "outputs": [
        {
          "internalType": "address[]",
          "name": "",
          "type": "address[]"
        }
      ],
      "stateMutability": "view",
      "type": "function"
    },
    {
      "inputs": [
        {
          "internalType": "uint256",
          "name": "num",
          "type": "uint256"
        }
      ],
      "name": "proxyAddrById",
      "outputs": [
        {
          "internalType": "address",
          "name": "",
          "type": "address"
        }
      ],
      "stateMutability": "view",
      "type": "function"
    },
    {
      "inputs": [
        {
          "internalType": "address",
          "name": "owner",
          "type": "address"
        }
      ],
      "name": "proxyByEstateOwner",
      "outputs": [
        {
          "internalType": "address[]",
          "name": "",
          "type": "address[]"
        }
      ],
      "stateMutability": "view",
      "type": "function"
    },
    {
      "inputs": [],
      "name": "renounceOwnership",
      "outputs": [],
      "stateMutability": "nonpayable",
      "type": "function"
    },
    {
      "inputs": [
        {
          "internalType": "address",
          "name": "estateManager",
          "type": "address"
        },
        {
          "internalType": "address",
          "name": "estateOwner",
          "type": "address"
        }
      ],
      "name": "tokenizeEstate",
      "outputs": [
        {
          "internalType": "address",
          "name": "",
          "type": "address"
        }
      ],
      "stateMutability": "nonpayable",
      "type": "function"
    },
    {
      "inputs": [
        {
          "internalType": "address",
          "name": "newOwner",
          "type": "address"
        }
      ],
      "name": "transferOwnership",
      "outputs": [],
      "stateMutability": "nonpayable",
      "type": "function"
    }
  ],
  "bytecode": "0x608060405234801561001057600080fd5b50613eef806100206000396000f3fe60806040523480156200001157600080fd5b5060043610620000fd5760003560e01c8063781952181162000097578063dbb65cf7116200006e578063dbb65cf714620001d8578063ec0764f814620001ea578063f2fde38b1462000201578063facdef11146200021857600080fd5b80637819521814620001895780638da5cb5b14620001af5780639cd71b9714620001c157600080fd5b806356c07bdd11620000d857806356c07bdd14620001475780635ab76d3b146200015e5780635c975abb1462000168578063715018a6146200017f57600080fd5b80633dad125f14620001025780634a4e3bd5146200013157806351858e27146200013d575b600080fd5b620001196200011336600462000ad5565b62000222565b60405162000128919062000bb4565b60405180910390f35b6200013b6200029a565b005b6200013b620002dc565b620001196200015836600462000ad5565b62000313565b6200013b62000389565b60655460ff16604051901515815260200162000128565b6200013b62000526565b6097546001600160a01b03165b6040516001600160a01b03909116815260200162000128565b6033546001600160a01b031662000196565b62000196620001d236600462000afa565b6200055f565b609b5460405190815260200162000128565b62000196620001fb36600462000b32565b62000763565b6200013b6200021236600462000ad5565b62000796565b6200011962000835565b6001600160a01b0381166000908152609a60209081526040918290208054835181840281018401909452808452606093928301828280156200028e57602002820191906000526020600020905b81546001600160a01b031681526001909101906020018083116200026f575b50505050509050919050565b6033546001600160a01b03163314620002d05760405162461bcd60e51b8152600401620002c79062000c51565b60405180910390fd5b620002da62000899565b565b6033546001600160a01b03163314620003095760405162461bcd60e51b8152600401620002c79062000c51565b620002da6200092e565b6001600160a01b0381166000908152609c60209081526040918290208054835181840281018401909452808452606093928301828280156200028e576020028201919060005260206000209081546001600160a01b031681526001909101906020018083116200026f5750505050509050919050565b6000620003976001620009ac565b90508015620003b0576000805461ff0019166101001790555b6000604051620003c09062000a93565b604051809103906000f080158015620003dd573d6000803e3d6000fd5b50604051620003ec9062000aa1565b6001600160a01b039091168152602001604051809103906000f08015801562000419573d6000803e3d6000fd5b5090506001600160a01b03811663f2fde38b336040516001600160e01b031960e084901b1681526001600160a01b039091166004820152602401600060405180830381600087803b1580156200046e57600080fd5b505af115801562000483573d6000803e3d6000fd5b5050609780546001600160a01b0385166001600160a01b0319909116811790915560408051918252513393507fcb03dfd8c0374fe2246b0a7d3ed8a07dbbef2c07c428612c20563f297546115e92509081900360200190a250801562000523576000805461ff0019169055604051600181527f7f26b83ff96e1f2b6a682f133852f6798a09c465da95921460cefb38474024989060200160405180910390a15b50565b6033546001600160a01b03163314620005535760405162461bcd60e51b8152600401620002c79062000c51565b620002da600062000a41565b60006200056e60655460ff1690565b15620005b05760405162461bcd60e51b815260206004820152601060248201526f14185d5cd8589b194e881c185d5cd95960821b6044820152606401620002c7565b6097546040516001600160a01b038581166024830152848116604483015260009216906353c8250760e11b9060640160408051601f198184030181529181526020820180516001600160e01b03166001600160e01b03199094169390931790925290516200061e9062000aaf565b6200062b92919062000b4c565b604051809103906000f08015801562000648573d6000803e3d6000fd5b50609980546001600160a01b038681166001600160a01b0319928316811784556098805486841690851681178255609b805460018181019092557fbba9db4cdbea0a37c207bbb83e20f828cd4441c49891101dc94fd20dc8efc3498101805488169093179092558b85166000818152609a6020908152604080832087548154808801835591855283852090910180548c16918b16919091179055995488168252609c8152898220865481549586018255908352918190209093018054909816908716179096559154865182815294169184019190915294955091927fc3fa539a2bdd801698d1dabed814fa952b1f3ffb3944fc99140fb23a30529aec910160405180910390a350506098546001600160a01b03169392505050565b6000609b82815481106200077b576200077b62000c86565b6000918252602090912001546001600160a01b031692915050565b6033546001600160a01b03163314620007c35760405162461bcd60e51b8152600401620002c79062000c51565b6001600160a01b0381166200082a5760405162461bcd60e51b815260206004820152602660248201527f4f776e61626c653a206e6577206f776e657220697320746865207a65726f206160448201526564647265737360d01b6064820152608401620002c7565b620005238162000a41565b6060609b8054806020026020016040519081016040528092919081815260200182805480156200088f57602002820191906000526020600020905b81546001600160a01b0316815260019091019060200180831162000870575b5050505050905090565b60655460ff16620008e45760405162461bcd60e51b815260206004820152601460248201527314185d5cd8589b194e881b9bdd081c185d5cd95960621b6044820152606401620002c7565b6065805460ff191690557f5db9ee0a495bf2e6ff9c91a7834c1ba4fdd244a5e8aa4e537bd38aeae4b073aa335b6040516001600160a01b03909116815260200160405180910390a1565b60655460ff1615620009765760405162461bcd60e51b815260206004820152601060248201526f14185d5cd8589b194e881c185d5cd95960821b6044820152606401620002c7565b6065805460ff191660011790557f62e78cea01bee320cd4e420270b5ea74000d11b0c9f74754ebdbfc544b05a258620009113390565b60008054610100900460ff1615620009f8578160ff166001148015620009d15750303b155b620009f05760405162461bcd60e51b8152600401620002c79062000c03565b506000919050565b60005460ff80841691161062000a225760405162461bcd60e51b8152600401620002c79062000c03565b506000805460ff191660ff92909216919091179055600190565b919050565b603380546001600160a01b038381166001600160a01b0319831681179093556040519116919082907f8be0079c531659141344cd1fd0a4f28419497f9722a3daafe3b4186f6b6457e090600090a35050565b61233d8062000c9d83390190565b6105298062002fda83390190565b6109b7806200350383390190565b80356001600160a01b038116811462000a3c57600080fd5b60006020828403121562000ae857600080fd5b62000af38262000abd565b9392505050565b6000806040838503121562000b0e57600080fd5b62000b198362000abd565b915062000b296020840162000abd565b90509250929050565b60006020828403121562000b4557600080fd5b5035919050565b60018060a01b038316815260006020604081840152835180604085015260005b8181101562000b8a5785810183015185820160600152820162000b6c565b8181111562000b9d576000606083870101525b50601f01601f191692909201606001949350505050565b6020808252825182820181905260009190848201906040850190845b8181101562000bf75783516001600160a01b03168352928401929184019160010162000bd0565b50909695505050505050565b6020808252602e908201527f496e697469616c697a61626c653a20636f6e747261637420697320616c72656160408201526d191e481a5b9a5d1a585b1a5e995960921b606082015260800190565b6020808252818101527f4f776e61626c653a2063616c6c6572206973206e6f7420746865206f776e6572604082015260600190565b634e487b7160e01b600052603260045260246000fdfe608060405234801561001057600080fd5b5061231d806100206000396000f3fe608060405234801561001057600080fd5b50600436106101425760003560e01c80636ccf524d116100b8578063b88d4fde1161007c578063b88d4fde146102ee578063bad4259014610301578063c87b56dd14610314578063ceb346d514610327578063d43cb3ab14610349578063e985e9c51461035c57600080fd5b80636ccf524d1461026c57806370a08231146102a2578063a22cb465146102b5578063a2cf7e1b146102c8578063a7904a0e146102db57600080fd5b806342842e0e1161010a57806342842e0e146101d457806342966c68146101e757806354fd4d50146101fa5780636352211e146102255780636914db60146102385780636b23a5cc1461025957600080fd5b806301ffc9a714610147578063081812fc1461016f578063095ea7b31461019a57806318160ddd146101af57806323b872dd146101c1575b600080fd5b61015a610155366004611d82565b610398565b60405190151581526020015b60405180910390f35b61018261017d366004611ea1565b610405565b6040516001600160a01b039091168152602001610166565b6101ad6101a8366004611d58565b61042c565b005b6098545b604051908152602001610166565b6101ad6101cf366004611c64565b61052b565b6101ad6101e2366004611c64565b61055c565b6101ad6101f5366004611ea1565b610577565b604080518082019091526006815265056312e302e360d41b60208201525b6040516101669190612034565b610182610233366004611ea1565b610628565b61024b610246366004611ea1565b61068d565b604051610166929190612071565b6101b3610267366004611dbc565b6107e3565b6101b361027a366004611ea1565b600090815260a0602090815260408083206099546001600160a01b0316845290915290205490565b6101b36102b0366004611c16565b610b08565b6101ad6102c3366004611d1c565b610b8b565b6101ad6102d6366004611ef6565b610b9a565b6101ad6102e9366004611c31565b610be2565b6101ad6102fc366004611ca0565b610d33565b6101ad61030f366004611ed3565b610d6b565b610218610322366004611ea1565b610da7565b61033a610335366004611ea1565b610eb4565b6040516101669392919061209f565b6101ad610357366004611f3d565b611014565b61015a61036a366004611c31565b6001600160a01b039182166000908152609e6020908152604080832093909416825291909152205460ff1690565b60006001600160e01b031982166380ac58cd60e01b14806103c957506001600160e01b03198216630dc8c98d60e11b145b806103e457506001600160e01b03198216630a85bd0160e11b145b806103ff57506301ffc9a760e01b6001600160e01b03198316145b92915050565b6000610410826110a4565b506000908152609d60205260409020546001600160a01b031690565b600061043782610628565b9050806001600160a01b0316836001600160a01b031614156104a05760405162461bcd60e51b815260206004820181905260248201527f457374617465733a20746f2063616e206e6f7420626520746865206f776e657260448201526064015b60405180910390fd5b336001600160a01b03821614806104bc57506104bc813361036a565b61051c5760405162461bcd60e51b815260206004820152602b60248201527f457374617465733a2063616c6c65722073686f756c64206265206f776e65722060448201526a1bdc88185c1c1c9bdd995960aa1b6064820152608401610497565b610526838361110b565b505050565b6105353382611179565b6105515760405162461bcd60e51b8152600401610497906120d5565b61052683838361125b565b61052683838360405180602001604052806000815250610d33565b600081815260a0602090815260408083206099546001600160a01b031684529091528120818155906105ac6001830182611a8f565b6105ba600283016000611a8f565b60038201600090556004820160006105d29190611a8f565b6105e0600583016000611a8f565b50506105eb8161145c565b6040805182815233602082015281517ff4caa5ebd5fa9cd0a7b2db4cb109add72289e69639c067fba9d319931d16061d929181900390910190a150565b6000818152609a60205260408120546001600160a01b0316806103ff5760405162461bcd60e51b815260206004820152601860248201527f4552433732313a20696e76616c696420746f6b656e20494400000000000000006044820152606401610497565b600081815260a0602090815260408083206099546001600160a01b03168452909152902060048101805460609283929160059091019082906106ce9061226a565b80601f01602080910402602001604051908101604052809291908181526020018280546106fa9061226a565b80156107475780601f1061071c57610100808354040283529160200191610747565b820191906000526020600020905b81548152906001019060200180831161072a57829003601f168201915b5050505050915080805461075a9061226a565b80601f01602080910402602001604051908101604052809291908181526020018280546107869061226a565b80156107d35780601f106107a8576101008083540402835291602001916107d3565b820191906000526020600020905b8154815290600101906020018083116107b657829003601f168201915b5050505050905091509150915091565b6000600260655414156108085760405162461bcd60e51b815260040161049790612204565b60026065556099546001600160a01b0316331461085c5760405162461bcd60e51b815260206004820152601260248201527122b9ba30ba32b99d103737ba1037bbb732b960711b6044820152606401610497565b6000858152609f602052604090205460ff16156108bb5760405162461bcd60e51b815260206004820152601c60248201527f457374617465733a206475706c696361746520746178206964206e6f000000006044820152606401610497565b6000858152609f6020908152604091829020805460ff19166001179055609754825163dbb65cf760e01b815292516001600160a01b039091169263dbb65cf7926004808301939192829003018186803b15801561091757600080fd5b505afa15801561092b573d6000803e3d6000fd5b505050506040513d601f19601f8201168201806040525081019061094f9190611eba565b609881905561095f90309061152d565b61096b60985487611547565b609854600090815260a0602090815260408083206099546001600160a01b03168452825290912089516109a6926004909201918b0190611ac9565b50609854600090815260a0602090815260408083206099546001600160a01b03168452825290912088516109e2926005909201918a0190611ac9565b50609854600090815260a0602090815260408083206099546001600160a01b0316845282529091208551610a1e92600190920191870190611ac9565b50609854600090815260a0602090815260408083206099546001600160a01b0316845282529091208451610a5a92600290920191860190611ac9565b5060988054600090815260a060208181526040808420609980546001600160a01b039081168752918452828620600301899055955485529282528084209454909216835292835290208951610ab7926004909201918b0190611ac9565b50609854600090815260a0602090815260408083206099546001600160a01b0316845282529091208851610af3926005909201918a0190611ac9565b50506098546001606555979650505050505050565b60006001600160a01b038216610b6f5760405162461bcd60e51b815260206004820152602660248201527f457374617465733a206f776e65722063616e206e6f742062652061646472657360448201526573207a65726f60d01b6064820152608401610497565b506001600160a01b03166000908152609b602052604090205490565b610b963383836115ca565b5050565b610ba48282611547565b817fd3804647d8ed05e254cca17c9a140f2a93f199e1d931e79de2f6930778b83d718233604051610bd6929190612047565b60405180910390a25050565b6000610bee6001611699565b90508015610c06576000805461ff0019166101001790555b60026065541415610c295760405162461bcd60e51b815260040161049790612204565b6002606555610c36611726565b609780546001600160a01b03191633908117909155610c975760405162461bcd60e51b815260206004820152601f60248201527f4573746174653a20466163746f72792069732061646472657373207a65726f006044820152606401610497565b609980546001600160a01b0319166001600160a01b0384811691821790925560405190918516907fccfee02cf37303f2b6d1631c2b6cda454c28cac0c144967c2d1ae4ba11ccb0be90600090a360016065558015610526576000805461ff0019169055604051600181527f7f26b83ff96e1f2b6a682f133852f6798a09c465da95921460cefb38474024989060200160405180910390a1505050565b610d3d3383611179565b610d595760405162461bcd60e51b8152600401610497906120d5565b610d6584848484611757565b50505050565b60026065541415610d8e5760405162461bcd60e51b815260040161049790612204565b6002606555610d9e30828461125b565b50506001606555565b6060610db2826110a4565b6000828152609a60205260409020546001600160a01b0316610e165760405162461bcd60e51b815260206004820152601a60248201527f457374617465733a20746f6b656e20646f6e6f742065786973740000000000006044820152606401610497565b6000828152609c602052604090208054610e2f9061226a565b80601f0160208091040260200160405190810160405280929190818152602001828054610e5b9061226a565b8015610ea85780601f10610e7d57610100808354040283529160200191610ea8565b820191906000526020600020905b815481529060010190602001808311610e8b57829003601f168201915b50505050509050919050565b600081815260a0602090815260408083206099546001600160a01b0316845290915281206003810154600182018054606094859490936002909101918390610efb9061226a565b80601f0160208091040260200160405190810160405280929190818152602001828054610f279061226a565b8015610f745780601f10610f4957610100808354040283529160200191610f74565b820191906000526020600020905b815481529060010190602001808311610f5757829003601f168201915b50505050509250818054610f879061226a565b80601f0160208091040260200160405190810160405280929190818152602001828054610fb39061226a565b80156110005780601f10610fd557610100808354040283529160200191611000565b820191906000526020600020905b815481529060010190602001808311610fe357829003601f168201915b505050505091509250925092509193909250565b600083815260a0602090815260408083206099546001600160a01b0316845282529091208351909161104d916004840191860190611ac9565b5081516110639060058301906020850190611ac9565b50837f601d4b2f0f06545c0f60d4f70e3bc5d78db246f7b66aaeb1ea23a56aa854c6708484604051611096929190612071565b60405180910390a250505050565b6000818152609a60205260409020546001600160a01b03166111085760405162461bcd60e51b815260206004820152601960248201527f457374617465733a206d696e7420746f6b656e206669727374000000000000006044820152606401610497565b50565b6000818152609d6020526040902080546001600160a01b0319166001600160a01b038416908117909155819061114082610628565b6001600160a01b03167f8c5be1e5ebec7d5bd14f71427d1e84f3dd0314c0f7b2291e5b200ac8c7c3b92560405160405180910390a45050565b6000818152609a60205260408120546001600160a01b03166111dd5760405162461bcd60e51b815260206004820152601d60248201527f457374617465733a20746f6b656e20646f6573206e6f742065786973740000006044820152606401610497565b60006111e883610628565b9050806001600160a01b0316846001600160a01b0316148061122f57506001600160a01b038082166000908152609e602090815260408083209388168352929052205460ff165b806112535750836001600160a01b031661124884610405565b6001600160a01b0316145b949350505050565b826001600160a01b031661126e82610628565b6001600160a01b0316146112d35760405162461bcd60e51b815260206004820152602660248201527f457374617465733a207472616e736665722066726f6d20696e636f72726563746044820152651037bbb732b960d11b6064820152608401610497565b6001600160a01b0382166113375760405162461bcd60e51b815260206004820152602560248201527f457374617465733a207472616e7366657220746f20746865207a65726f206164604482015264647265737360d81b6064820152608401610497565b816001600160a01b0316836001600160a01b031614156113995760405162461bcd60e51b815260206004820152601960248201527f457374617465733a207472616e7366657220746f2073656c66000000000000006044820152606401610497565b6113a460008261110b565b6001600160a01b0383166000908152609b602052604081208054600192906113cd908490612253565b90915550506001600160a01b0382166000908152609b602052604081208054600192906113fb90849061223b565b90915550506000818152609a602052604080822080546001600160a01b0319166001600160a01b0386811691821790925591518493918716917fddf252ad1be2c89b69c2b068fc378daa952ba7f163c4a11628f55a4df523b3ef91a4505050565b600061146782610628565b905061147460008361110b565b6001600160a01b0381166000908152609b6020526040812080546001929061149d908490612253565b90915550506000828152609a6020908152604080832080546001600160a01b0319169055609c909152902080546114d39061226a565b1590506114f1576000828152609c602052604081206114f191611a8f565b60405182906000906001600160a01b038416907fddf252ad1be2c89b69c2b068fc378daa952ba7f163c4a11628f55a4df523b3ef908390a45050565b610b9682826040518060200160405280600081525061178a565b6000828152609a60205260409020546001600160a01b03166115ab5760405162461bcd60e51b815260206004820152601a60248201527f457374617465733a20746f6b656e20646f6e6f742065786973740000000000006044820152606401610497565b6000828152609c60209081526040909120825161052692840190611ac9565b816001600160a01b0316836001600160a01b0316141561162c5760405162461bcd60e51b815260206004820152601a60248201527f457374617465733a20617070726f766520746f2063616c6c65720000000000006044820152606401610497565b6001600160a01b038381166000818152609e6020908152604080832094871680845294825291829020805460ff191686151590811790915591519182527f17307eab39ab6107e8899845ad3d59bd9653f200f220920489ca2b5937696c31910160405180910390a3505050565b60008054610100900460ff16156116e0578160ff1660011480156116bc5750303b155b6116d85760405162461bcd60e51b815260040161049790612118565b506000919050565b60005460ff8084169116106117075760405162461bcd60e51b815260040161049790612118565b506000805460ff191660ff92909216919091179055600190565b919050565b600054610100900460ff1661174d5760405162461bcd60e51b815260040161049790612166565b6117556117bd565b565b61176284848461125b565b61176e848484846117eb565b610d655760405162461bcd60e51b8152600401610497906121b1565b6117948383611943565b6117a160008484846117eb565b6105265760405162461bcd60e51b8152600401610497906121b1565b600054610100900460ff166117e45760405162461bcd60e51b815260040161049790612166565b6001606555565b60006001600160a01b0384163b1561193857604051630a85bd0160e11b81526001600160a01b0385169063150b7a029061182f903390899088908890600401611ff7565b602060405180830381600087803b15801561184957600080fd5b505af1925050508015611879575060408051601f3d908101601f1916820190925261187691810190611d9f565b60015b61191e573d8080156118a7576040519150601f19603f3d011682016040523d82523d6000602084013e6118ac565b606091505b5080516119165760405162461bcd60e51b815260206004820152603260248201527f4552433732313a207472616e7366657220746f206e6f6e20455243373231526560448201527131b2b4bb32b91034b6b83632b6b2b73a32b960711b6064820152608401610497565b805181602001fd5b6001600160e01b031916630a85bd0160e11b149050611253565b506001949350505050565b6001600160a01b0382166119a35760405162461bcd60e51b815260206004820152602160248201527f457374617465733a206d696e7420746f20746865207a65726f206164647265736044820152607360f81b6064820152608401610497565b6000818152609a60205260409020546001600160a01b031615611a085760405162461bcd60e51b815260206004820152601d60248201527f457374617465733a20746f6b656e20616c7265616479206d696e7465640000006044820152606401610497565b6001600160a01b0382166000908152609b60205260408120805460019290611a3190849061223b565b90915550506000818152609a602052604080822080546001600160a01b0319166001600160a01b03861690811790915590518392907fddf252ad1be2c89b69c2b068fc378daa952ba7f163c4a11628f55a4df523b3ef908290a45050565b508054611a9b9061226a565b6000825580601f10611aab575050565b601f0160209004906000526020600020908101906111089190611b4d565b828054611ad59061226a565b90600052602060002090601f016020900481019282611af75760008555611b3d565b82601f10611b1057805160ff1916838001178555611b3d565b82800160010185558215611b3d579182015b82811115611b3d578251825591602001919060010190611b22565b50611b49929150611b4d565b5090565b5b80821115611b495760008155600101611b4e565b600067ffffffffffffffff80841115611b7d57611b7d6122bb565b604051601f8501601f19908116603f01168101908282118183101715611ba557611ba56122bb565b81604052809350858152868686011115611bbe57600080fd5b858560208301376000602087830101525050509392505050565b80356001600160a01b038116811461172157600080fd5b600082601f830112611c0057600080fd5b611c0f83833560208501611b62565b9392505050565b600060208284031215611c2857600080fd5b611c0f82611bd8565b60008060408385031215611c4457600080fd5b611c4d83611bd8565b9150611c5b60208401611bd8565b90509250929050565b600080600060608486031215611c7957600080fd5b611c8284611bd8565b9250611c9060208501611bd8565b9150604084013590509250925092565b60008060008060808587031215611cb657600080fd5b611cbf85611bd8565b9350611ccd60208601611bd8565b925060408501359150606085013567ffffffffffffffff811115611cf057600080fd5b8501601f81018713611d0157600080fd5b611d1087823560208401611b62565b91505092959194509250565b60008060408385031215611d2f57600080fd5b611d3883611bd8565b915060208301358015158114611d4d57600080fd5b809150509250929050565b60008060408385031215611d6b57600080fd5b611d7483611bd8565b946020939093013593505050565b600060208284031215611d9457600080fd5b8135611c0f816122d1565b600060208284031215611db157600080fd5b8151611c0f816122d1565b600080600080600080600060e0888a031215611dd757600080fd5b873567ffffffffffffffff80821115611def57600080fd5b611dfb8b838c01611bef565b985060208a0135915080821115611e1157600080fd5b611e1d8b838c01611bef565b975060408a0135915080821115611e3357600080fd5b611e3f8b838c01611bef565b965060608a0135955060808a0135915080821115611e5c57600080fd5b611e688b838c01611bef565b945060a08a0135915080821115611e7e57600080fd5b50611e8b8a828b01611bef565b92505060c0880135905092959891949750929550565b600060208284031215611eb357600080fd5b5035919050565b600060208284031215611ecc57600080fd5b5051919050565b60008060408385031215611ee657600080fd5b82359150611c5b60208401611bd8565b60008060408385031215611f0957600080fd5b82359150602083013567ffffffffffffffff811115611f2757600080fd5b611f3385828601611bef565b9150509250929050565b600080600060608486031215611f5257600080fd5b83359250602084013567ffffffffffffffff80821115611f7157600080fd5b611f7d87838801611bef565b93506040860135915080821115611f9357600080fd5b50611fa086828701611bef565b9150509250925092565b6000815180845260005b81811015611fd057602081850181015186830182015201611fb4565b81811115611fe2576000602083870101525b50601f01601f19169290920160200192915050565b6001600160a01b038581168252841660208201526040810183905260806060820181905260009061202a90830184611faa565b9695505050505050565b602081526000611c0f6020830184611faa565b60408152600061205a6040830185611faa565b905060018060a01b03831660208301529392505050565b6040815260006120846040830185611faa565b82810360208401526120968185611faa565b95945050505050565b6060815260006120b26060830186611faa565b82810360208401526120c48186611faa565b915050826040830152949350505050565b60208082526023908201527f457374617465733a206e656974686572206f776e6572206e6f7220617070726f6040820152621d995960ea1b606082015260800190565b6020808252602e908201527f496e697469616c697a61626c653a20636f6e747261637420697320616c72656160408201526d191e481a5b9a5d1a585b1a5e995960921b606082015260800190565b6020808252602b908201527f496e697469616c697a61626c653a20636f6e7472616374206973206e6f74206960408201526a6e697469616c697a696e6760a81b606082015260800190565b60208082526033908201527f457374617465733a207472616e7366657220746f206e6f6e204552433732315260408201527232b1b2b4bb32b91034b6b83632b6b2b73a32b960691b606082015260800190565b6020808252601f908201527f5265656e7472616e637947756172643a207265656e7472616e742063616c6c00604082015260600190565b6000821982111561224e5761224e6122a5565b500190565b600082821015612265576122656122a5565b500390565b600181811c9082168061227e57607f821691505b6020821081141561229f57634e487b7160e01b600052602260045260246000fd5b50919050565b634e487b7160e01b600052601160045260246000fd5b634e487b7160e01b600052604160045260246000fd5b6001600160e01b03198116811461110857600080fdfea26469706673582212202c5e9e3737c796ace295925648330bacdf3a5e33ff3550394e9df464c4e16d3664736f6c63430008070033608060405234801561001057600080fd5b5060405161052938038061052983398101604081905261002f91610151565b61003833610047565b61004181610097565b50610181565b600080546001600160a01b038381166001600160a01b0319831681178455604051919092169283917f8be0079c531659141344cd1fd0a4f28419497f9722a3daafe3b4186f6b6457e09190a35050565b6100aa8161014260201b61020a1760201c565b6101205760405162461bcd60e51b815260206004820152603360248201527f5570677261646561626c65426561636f6e3a20696d706c656d656e746174696f60448201527f6e206973206e6f74206120636f6e747261637400000000000000000000000000606482015260840160405180910390fd5b600180546001600160a01b0319166001600160a01b0392909216919091179055565b6001600160a01b03163b151590565b60006020828403121561016357600080fd5b81516001600160a01b038116811461017a57600080fd5b9392505050565b610399806101906000396000f3fe608060405234801561001057600080fd5b50600436106100575760003560e01c80633659cfe61461005c5780635c60da1b14610071578063715018a61461009a5780638da5cb5b146100a2578063f2fde38b146100b3575b600080fd5b61006f61006a3660046102fe565b6100c6565b005b6001546001600160a01b03165b6040516001600160a01b03909116815260200160405180910390f35b61006f610139565b6000546001600160a01b031661007e565b61006f6100c13660046102fe565b61016f565b6000546001600160a01b031633146100f95760405162461bcd60e51b81526004016100f09061032e565b60405180910390fd5b61010281610219565b6040516001600160a01b038216907fbc7cd75a20ee27fd9adebab32041f755214dbc6bffa90cc0225b39da2e5c2d3b90600090a250565b6000546001600160a01b031633146101635760405162461bcd60e51b81526004016100f09061032e565b61016d60006102ae565b565b6000546001600160a01b031633146101995760405162461bcd60e51b81526004016100f09061032e565b6001600160a01b0381166101fe5760405162461bcd60e51b815260206004820152602660248201527f4f776e61626c653a206e6577206f776e657220697320746865207a65726f206160448201526564647265737360d01b60648201526084016100f0565b610207816102ae565b50565b6001600160a01b03163b151590565b6001600160a01b0381163b61028c5760405162461bcd60e51b815260206004820152603360248201527f5570677261646561626c65426561636f6e3a20696d706c656d656e746174696f6044820152721b881a5cc81b9bdd08184818dbdb9d1c9858dd606a1b60648201526084016100f0565b600180546001600160a01b0319166001600160a01b0392909216919091179055565b600080546001600160a01b038381166001600160a01b0319831681178455604051919092169283917f8be0079c531659141344cd1fd0a4f28419497f9722a3daafe3b4186f6b6457e09190a35050565b60006020828403121561031057600080fd5b81356001600160a01b038116811461032757600080fd5b9392505050565b6020808252818101527f4f776e61626c653a2063616c6c6572206973206e6f7420746865206f776e657260408201526060019056fea2646970667358221220349562106901890fb20f5802519fde1a75570c09274d70a1ed5b9ee86b90f42264736f6c6343000807003360806040526040516109b73803806109b783398101604081905261002291610482565b61004d60017fa3f0ad74e5423aebfd80d3ef4346578335a9a72aeaee59ff6cb3582b35133d51610591565b60008051602061097083398151915214610069576100696105e2565b6100758282600061007c565b505061060e565b61008583610156565b6040516001600160a01b038416907f1cf3b03a6cf19fa2baba4df148e9dcabedea7f8a5c07840e207e5c089be95d3e90600090a26000825111806100c65750805b156101515761014f836001600160a01b0316635c60da1b6040518163ffffffff1660e01b815260040160206040518083038186803b15801561010757600080fd5b505afa15801561011b573d6000803e3d6000fd5b505050506040513d601f19601f8201168201806040525081019061013f9190610467565b836102f660201b6100291760201c565b505b505050565b6101698161032260201b6100551760201c565b6101c85760405162461bcd60e51b815260206004820152602560248201527f455243313936373a206e657720626561636f6e206973206e6f74206120636f6e6044820152641d1c9858dd60da1b60648201526084015b60405180910390fd5b61024b816001600160a01b0316635c60da1b6040518163ffffffff1660e01b815260040160206040518083038186803b15801561020457600080fd5b505afa158015610218573d6000803e3d6000fd5b505050506040513d601f19601f8201168201806040525081019061023c9190610467565b61032260201b6100551760201c565b6102b05760405162461bcd60e51b815260206004820152603060248201527f455243313936373a20626561636f6e20696d706c656d656e746174696f6e206960448201526f1cc81b9bdd08184818dbdb9d1c9858dd60821b60648201526084016101bf565b806102d560008051602061097083398151915260001b61033160201b6100641760201c565b80546001600160a01b0319166001600160a01b039290921691909117905550565b606061031b838360405180606001604052806027815260200161099060279139610334565b9392505050565b6001600160a01b03163b151590565b90565b60606001600160a01b0384163b61039c5760405162461bcd60e51b815260206004820152602660248201527f416464726573733a2064656c65676174652063616c6c20746f206e6f6e2d636f6044820152651b9d1c9858dd60d21b60648201526084016101bf565b600080856001600160a01b0316856040516103b79190610542565b600060405180830381855af49150503d80600081146103f2576040519150601f19603f3d011682016040523d82523d6000602084013e6103f7565b606091505b509092509050610408828286610412565b9695505050505050565b6060831561042157508161031b565b8251156104315782518084602001fd5b8160405162461bcd60e51b81526004016101bf919061055e565b80516001600160a01b038116811461046257600080fd5b919050565b60006020828403121561047957600080fd5b61031b8261044b565b6000806040838503121561049557600080fd5b61049e8361044b565b60208401519092506001600160401b03808211156104bb57600080fd5b818501915085601f8301126104cf57600080fd5b8151818111156104e1576104e16105f8565b604051601f8201601f19908116603f01168101908382118183101715610509576105096105f8565b8160405282815288602084870101111561052257600080fd5b6105338360208301602088016105b6565b80955050505050509250929050565b600082516105548184602087016105b6565b9190910192915050565b602081526000825180602084015261057d8160408501602087016105b6565b601f01601f19169190910160400192915050565b6000828210156105b157634e487b7160e01b600052601160045260246000fd5b500390565b60005b838110156105d15781810151838201526020016105b9565b8381111561014f5750506000910152565b634e487b7160e01b600052600160045260246000fd5b634e487b7160e01b600052604160045260246000fd5b6103538061061d6000396000f3fe60806040523661001357610011610017565b005b6100115b610027610022610067565b61010f565b565b606061004e83836040518060600160405280602781526020016102f760279139610133565b9392505050565b6001600160a01b03163b151590565b90565b600061009a7fa3f0ad74e5423aebfd80d3ef4346578335a9a72aeaee59ff6cb3582b35133d50546001600160a01b031690565b6001600160a01b0316635c60da1b6040518163ffffffff1660e01b815260040160206040518083038186803b1580156100d257600080fd5b505afa1580156100e6573d6000803e3d6000fd5b505050506040513d601f19601f8201168201806040525081019061010a919061024e565b905090565b3660008037600080366000845af43d6000803e80801561012e573d6000f35b3d6000fd5b60606001600160a01b0384163b6101a05760405162461bcd60e51b815260206004820152602660248201527f416464726573733a2064656c65676174652063616c6c20746f206e6f6e2d636f6044820152651b9d1c9858dd60d21b60648201526084015b60405180910390fd5b600080856001600160a01b0316856040516101bb9190610277565b600060405180830381855af49150503d80600081146101f6576040519150601f19603f3d011682016040523d82523d6000602084013e6101fb565b606091505b509150915061020b828286610215565b9695505050505050565b6060831561022457508161004e565b8251156102345782518084602001fd5b8160405162461bcd60e51b81526004016101979190610293565b60006020828403121561026057600080fd5b81516001600160a01b038116811461004e57600080fd5b600082516102898184602087016102c6565b9190910192915050565b60208152600082518060208401526102b28160408501602087016102c6565b601f01601f19169190910160400192915050565b60005b838110156102e15781810151838201526020016102c9565b838111156102f0576000848401525b5050505056fe416464726573733a206c6f772d6c6576656c2064656c65676174652063616c6c206661696c6564a2646970667358221220b29a6c9d48635286e5de8602e66aa54ff893111c6c5ca71785c46b7e06803d0664736f6c63430008070033a3f0ad74e5423aebfd80d3ef4346578335a9a72aeaee59ff6cb3582b35133d50416464726573733a206c6f772d6c6576656c2064656c65676174652063616c6c206661696c6564a2646970667358221220dd1eab27d76694b7b7fe65326eed9c2ef6a467dc103394d662184e2f8d4d82dd64736f6c63430008070033",
  "linkReferences": {},
  "deployedLinkReferences": {}
}