{
  "_format": "hh-sol-artifact-1",
  "contractName": "Estate",
  "sourceName": "contracts/Estate.sol",
  "abi": [
    {
      "anonymous": false,
      "inputs": [
        {
          "indexed": true,
          "internalType": "address",
          "name": "owner",
          "type": "address"
        },
        {
          "indexed": true,
          "internalType": "address",
          "name": "approved",
          "type": "address"
        },
        {
          "indexed": true,
          "internalType": "uint256",
          "name": "tokenId",
          "type": "uint256"
        }
      ],
      "name": "Approval",
      "type": "event"
    },
    {
      "anonymous": false,
      "inputs": [
        {
          "indexed": true,
          "internalType": "address",
          "name": "owner",
          "type": "address"
        },
        {
          "indexed": true,
          "internalType": "address",
          "name": "operator",
          "type": "address"
        },
        {
          "indexed": false,
          "internalType": "bool",
          "name": "approved",
          "type": "bool"
        }
      ],
      "name": "ApprovalForAll",
      "type": "event"
    },
    {
      "anonymous": false,
      "inputs": [
        {
          "indexed": false,
          "internalType": "uint8",
          "name": "version",
          "type": "uint8"
        }
      ],
      "name": "Initialized",
      "type": "event"
    },
    {
      "anonymous": false,
      "inputs": [
        {
          "indexed": true,
          "internalType": "uint256",
          "name": "tokenId",
          "type": "uint256"
        },
        {
          "indexed": false,
          "internalType": "string",
          "name": "newName",
          "type": "string"
        },
        {
          "indexed": false,
          "internalType": "string",
          "name": "newSymbol",
          "type": "string"
        }
      ],
      "name": "MetadataChanged",
      "type": "event"
    },
    {
      "anonymous": false,
      "inputs": [
        {
          "indexed": true,
          "internalType": "address",
          "name": "previousOwner",
          "type": "address"
        },
        {
          "indexed": true,
          "internalType": "address",
          "name": "newOwner",
          "type": "address"
        }
      ],
      "name": "OwnershipTransferred",
      "type": "event"
    },
    {
      "anonymous": false,
      "inputs": [
        {
          "indexed": true,
          "internalType": "uint256",
          "name": "tokenId",
          "type": "uint256"
        },
        {
          "indexed": false,
          "internalType": "string",
          "name": "newURI",
          "type": "string"
        },
        {
          "indexed": false,
          "internalType": "address",
          "name": "caller",
          "type": "address"
        }
      ],
      "name": "TokenURIModified",
      "type": "event"
    },
    {
      "anonymous": false,
      "inputs": [
        {
          "indexed": true,
          "internalType": "address",
          "name": "from",
          "type": "address"
        },
        {
          "indexed": true,
          "internalType": "address",
          "name": "to",
          "type": "address"
        },
        {
          "indexed": true,
          "internalType": "uint256",
          "name": "tokenId",
          "type": "uint256"
        }
      ],
      "name": "Transfer",
      "type": "event"
    },
    {
      "inputs": [
        {
          "internalType": "address",
          "name": "safeAddress",
          "type": "address"
        },
        {
          "internalType": "address",
          "name": "owner",
          "type": "address"
        },
        {
          "internalType": "uint256",
          "name": "taxId",
          "type": "uint256"
        }
      ],
      "name": "__Estate_init",
      "outputs": [],
      "stateMutability": "payable",
      "type": "function"
    },
    {
      "inputs": [
        {
          "internalType": "address",
          "name": "to",
          "type": "address"
        },
        {
          "internalType": "uint256",
          "name": "tokenId",
          "type": "uint256"
        }
      ],
      "name": "approve",
      "outputs": [],
      "stateMutability": "nonpayable",
      "type": "function"
    },
    {
      "inputs": [
        {
          "internalType": "address",
          "name": "owner",
          "type": "address"
        }
      ],
      "name": "balanceOf",
      "outputs": [
        {
          "internalType": "uint256",
          "name": "",
          "type": "uint256"
        }
      ],
      "stateMutability": "view",
      "type": "function"
    },
    {
      "inputs": [
        {
          "internalType": "uint256",
          "name": "tokenId",
          "type": "uint256"
        }
      ],
      "name": "burn",
      "outputs": [],
      "stateMutability": "nonpayable",
      "type": "function"
    },
    {
      "inputs": [
        {
          "internalType": "uint256",
          "name": "tokenId",
          "type": "uint256"
        }
      ],
      "name": "estateLocation",
      "outputs": [
        {
          "internalType": "string",
          "name": "",
          "type": "string"
        },
        {
          "internalType": "string",
          "name": "",
          "type": "string"
        },
        {
          "internalType": "uint256",
          "name": "",
          "type": "uint256"
        }
      ],
      "stateMutability": "view",
      "type": "function"
    },
    {
      "inputs": [
        {
          "internalType": "uint256",
          "name": "tokenId",
          "type": "uint256"
        }
      ],
      "name": "getApproved",
      "outputs": [
        {
          "internalType": "address",
          "name": "",
          "type": "address"
        }
      ],
      "stateMutability": "view",
      "type": "function"
    },
    {
      "inputs": [
        {
          "internalType": "address",
          "name": "owner",
          "type": "address"
        },
        {
          "internalType": "address",
          "name": "operator",
          "type": "address"
        }
      ],
      "name": "isApprovedForAll",
      "outputs": [
        {
          "internalType": "bool",
          "name": "",
          "type": "bool"
        }
      ],
      "stateMutability": "view",
      "type": "function"
    },
    {
      "inputs": [],
      "name": "isPaused",
      "outputs": [
        {
          "internalType": "bool",
          "name": "",
          "type": "bool"
        }
      ],
      "stateMutability": "view",
      "type": "function"
    },
    {
      "inputs": [
        {
          "internalType": "string",
          "name": "state",
          "type": "string"
        },
        {
          "internalType": "string",
          "name": "city",
          "type": "string"
        },
        {
          "internalType": "uint256",
          "name": "zipcode",
          "type": "uint256"
        },
        {
          "internalType": "string",
          "name": "tokenName",
          "type": "string"
        },
        {
          "internalType": "string",
          "name": "tokenSymbol",
          "type": "string"
        },
        {
          "internalType": "string",
          "name": "tokenURI",
          "type": "string"
        }
      ],
      "name": "mintEstateToken",
      "outputs": [
        {
          "internalType": "uint256",
          "name": "",
          "type": "uint256"
        }
      ],
      "stateMutability": "nonpayable",
      "type": "function"
    },
    {
      "inputs": [
        {
          "internalType": "uint256",
          "name": "tokenId",
          "type": "uint256"
        },
        {
          "internalType": "string",
          "name": "_name",
          "type": "string"
        },
        {
          "internalType": "string",
          "name": "_symbol",
          "type": "string"
        }
      ],
      "name": "modifyTokenMetadata",
      "outputs": [],
      "stateMutability": "nonpayable",
      "type": "function"
    },
    {
      "inputs": [
        {
          "internalType": "uint256",
          "name": "tokenId",
          "type": "uint256"
        },
        {
          "internalType": "string",
          "name": "uri",
          "type": "string"
        }
      ],
      "name": "modifyTokenURI",
      "outputs": [],
      "stateMutability": "nonpayable",
      "type": "function"
    },
    {
      "inputs": [
        {
          "internalType": "uint256",
          "name": "tokenId",
          "type": "uint256"
        }
      ],
      "name": "name",
      "outputs": [
        {
          "internalType": "string",
          "name": "",
          "type": "string"
        }
      ],
      "stateMutability": "view",
      "type": "function"
    },
    {
      "inputs": [],
      "name": "owner",
      "outputs": [
        {
          "internalType": "address",
          "name": "",
          "type": "address"
        }
      ],
      "stateMutability": "view",
      "type": "function"
    },
    {
      "inputs": [
        {
          "internalType": "uint256",
          "name": "tokenId",
          "type": "uint256"
        }
      ],
      "name": "ownerOf",
      "outputs": [
        {
          "internalType": "address",
          "name": "",
          "type": "address"
        }
      ],
      "stateMutability": "view",
      "type": "function"
    },
    {
      "inputs": [],
      "name": "renounceOwnership",
      "outputs": [],
      "stateMutability": "nonpayable",
      "type": "function"
    },
    {
      "inputs": [
        {
          "internalType": "address",
          "name": "from",
          "type": "address"
        },
        {
          "internalType": "address",
          "name": "to",
          "type": "address"
        },
        {
          "internalType": "uint256",
          "name": "tokenId",
          "type": "uint256"
        }
      ],
      "name": "safeTransferFrom",
      "outputs": [],
      "stateMutability": "nonpayable",
      "type": "function"
    },
    {
      "inputs": [
        {
          "internalType": "address",
          "name": "from",
          "type": "address"
        },
        {
          "internalType": "address",
          "name": "to",
          "type": "address"
        },
        {
          "internalType": "uint256",
          "name": "tokenId",
          "type": "uint256"
        },
        {
          "internalType": "bytes",
          "name": "_data",
          "type": "bytes"
        }
      ],
      "name": "safeTransferFrom",
      "outputs": [],
      "stateMutability": "nonpayable",
      "type": "function"
    },
    {
      "inputs": [
        {
          "internalType": "address",
          "name": "operator",
          "type": "address"
        },
        {
          "internalType": "bool",
          "name": "approved",
          "type": "bool"
        }
      ],
      "name": "setApprovalForAll",
      "outputs": [],
      "stateMutability": "nonpayable",
      "type": "function"
    },
    {
      "inputs": [
        {
          "internalType": "bytes4",
          "name": "interfaceId",
          "type": "bytes4"
        }
      ],
      "name": "supportsInterface",
      "outputs": [
        {
          "internalType": "bool",
          "name": "",
          "type": "bool"
        }
      ],
      "stateMutability": "view",
      "type": "function"
    },
    {
      "inputs": [
        {
          "internalType": "uint256",
          "name": "tokenId",
          "type": "uint256"
        }
      ],
      "name": "symbol",
      "outputs": [
        {
          "internalType": "string",
          "name": "",
          "type": "string"
        }
      ],
      "stateMutability": "view",
      "type": "function"
    },
    {
      "inputs": [
        {
          "internalType": "address",
          "name": "to",
          "type": "address"
        },
        {
          "internalType": "uint256",
          "name": "tokenId",
          "type": "uint256"
        }
      ],
      "name": "tokenTransfer",
      "outputs": [],
      "stateMutability": "nonpayable",
      "type": "function"
    },
    {
      "inputs": [
        {
          "internalType": "uint256",
          "name": "tokenId",
          "type": "uint256"
        }
      ],
      "name": "tokenUri",
      "outputs": [
        {
          "internalType": "string",
          "name": "",
          "type": "string"
        }
      ],
      "stateMutability": "view",
      "type": "function"
    },
    {
      "inputs": [],
      "name": "totalSupply",
      "outputs": [
        {
          "internalType": "uint256",
          "name": "",
          "type": "uint256"
        }
      ],
      "stateMutability": "view",
      "type": "function"
    },
    {
      "inputs": [
        {
          "internalType": "address",
          "name": "from",
          "type": "address"
        },
        {
          "internalType": "address",
          "name": "to",
          "type": "address"
        },
        {
          "internalType": "uint256",
          "name": "tokenId",
          "type": "uint256"
        }
      ],
      "name": "transferFrom",
      "outputs": [],
      "stateMutability": "nonpayable",
      "type": "function"
    },
    {
      "inputs": [
        {
          "internalType": "address",
          "name": "newOwner",
          "type": "address"
        }
      ],
      "name": "transferOwnership",
      "outputs": [],
      "stateMutability": "nonpayable",
      "type": "function"
    },
    {
      "inputs": [],
      "name": "version",
      "outputs": [
        {
          "internalType": "string",
          "name": "",
          "type": "string"
        }
      ],
      "stateMutability": "pure",
      "type": "function"
    }
  ],
  "bytecode": "0x608060405260ce805460ff1916905534801561001a57600080fd5b506125ec8061002a6000396000f3fe6080604052600436106101805760003560e01c806368cdafe6116100d1578063a7a1c5451161008a578063b88d4fde11610064578063b88d4fde1461046e578063ceb346d51461048e578063e985e9c5146104bd578063f2fde38b1461050657600080fd5b8063a7a1c54514610426578063b187bd2614610446578063b5b160e11461045b57600080fd5b806368cdafe61461037357806370a0823114610393578063715018a6146103b35780638da5cb5b146103c8578063a22cb465146103e6578063a2cf7e1b1461040657600080fd5b806323b872dd1161013e57806342966c681161011857806342966c68146102e45780634e41a1fb1461030457806354fd4d50146103245780636352211e1461035357600080fd5b806323b872dd146102845780633d867e80146102a457806342842e0e146102c457600080fd5b8062ad800c1461018557806301ffc9a7146101bb578063081812fc146101eb578063095ea7b3146102235780631675f4551461024557806318160ddd14610265575b600080fd5b34801561019157600080fd5b506101a56101a0366004612197565b610526565b6040516101b29190612307565b60405180910390f35b3480156101c757600080fd5b506101db6101d6366004612083565b610616565b60405190151581526020016101b2565b3480156101f757600080fd5b5061020b610206366004612197565b610683565b6040516001600160a01b0390911681526020016101b2565b34801561022f57600080fd5b5061024361023e36600461203c565b6106aa565b005b34801561025157600080fd5b506101a5610260366004612197565b6107ab565b34801561027157600080fd5b5060ca545b6040519081526020016101b2565b34801561029057600080fd5b5061024361029f366004611f4d565b6107f4565b3480156102b057600080fd5b506102436102bf366004612210565b610825565b3480156102d057600080fd5b506102436102df366004611f4d565b61091c565b3480156102f057600080fd5b506102436102ff366004612197565b610937565b34801561031057600080fd5b506101a561031f366004612197565b610978565b34801561033057600080fd5b50604080518082019091526006815265056312e302e360d41b60208201526101a5565b34801561035f57600080fd5b5061020b61036e366004612197565b6109da565b34801561037f57600080fd5b5061024361038e36600461203c565b610a3f565b34801561039f57600080fd5b506102766103ae366004611eff565b610a84565b3480156103bf57600080fd5b50610243610b06565b3480156103d457600080fd5b506033546001600160a01b031661020b565b3480156103f257600080fd5b50610243610401366004612005565b610b3c565b34801561041257600080fd5b506102436104213660046121c9565b610b47565b34801561043257600080fd5b506102766104413660046120bd565b610bf6565b34801561045257600080fd5b506101db610e74565b610243610469366004611f4d565b610ef6565b34801561047a57600080fd5b50610243610489366004611f89565b611061565b34801561049a57600080fd5b506104ae6104a9366004612197565b611093565b6040516101b293929190612372565b3480156104c957600080fd5b506101db6104d8366004611f1a565b6001600160a01b03918216600090815260d36020908152604080832093909416825291909152205460ff1690565b34801561051257600080fd5b50610243610521366004611eff565b6111f1565b60606105318261128c565b61053a826112e1565b61055f5760405162461bcd60e51b8152600401610556906124bf565b60405180910390fd5b600082815260d46020908152604080832060cc546001600160a01b031684529091529020600301805461059190612541565b80601f01602080910402602001604051908101604052809291908181526020018280546105bd90612541565b801561060a5780601f106105df5761010080835404028352916020019161060a565b820191906000526020600020905b8154815290600101906020018083116105ed57829003601f168201915b50505050509050919050565b60006001600160e01b03198216630aeb42fb60e01b148061064757506001600160e01b03198216630a85bd0160e11b145b8061066257506001600160e01b03198216639f49009b60e01b145b8061067d57506301ffc9a760e01b6001600160e01b03198316145b92915050565b600061068e8261128c565b50600090815260d260205260409020546001600160a01b031690565b6106b26112fe565b60006106bd826109da565b9050806001600160a01b0316836001600160a01b031614156107215760405162461bcd60e51b815260206004820152601f60248201527f4573746174653a20746f2063616e206e6f7420626520746865206f776e6572006044820152606401610556565b336001600160a01b038216148061073d575061073d81336104d8565b61079c5760405162461bcd60e51b815260206004820152602a60248201527f4573746174653a2063616c6c65722073686f756c64206265206f776e6572206f6044820152691c88185c1c1c9bdd995960b21b6064820152608401610556565b6107a683836113d1565b505050565b60606107b68261128c565b6107bf826112e1565b6107db5760405162461bcd60e51b8152600401610556906124bf565b600082815260d160205260409020805461059190612541565b6107fe3382611447565b61081a5760405162461bcd60e51b8152600401610556906123fa565b6107a683838361151c565b61082d6112fe565b60c9546001600160a01b0316336001600160a01b03161461088c5760405162461bcd60e51b8152602060048201526019602482015278115cdd185d194e881d5b985d5d1a1bdc9a5e99590818d85b1b603a1b6044820152606401610556565b600083815260d46020908152604080832060cc546001600160a01b031684528252909120835190916108c5916003840191860190611d7c565b5081516108db9060048301906020850190611d7c565b50837f601d4b2f0f06545c0f60d4f70e3bc5d78db246f7b66aaeb1ea23a56aa854c670848460405161090e929190612344565b60405180910390a250505050565b6107a683838360405180602001604052806000815250611061565b6033546001600160a01b031633146109615760405162461bcd60e51b81526004016105569061248a565b61096a81611527565b60cc546001600160a01b0316ff5b60606109838261128c565b61098c826112e1565b6109a85760405162461bcd60e51b8152600401610556906124bf565b600082815260d46020908152604080832060cc546001600160a01b031684529091529020600401805461059190612541565b600081815260cf60205260408120546001600160a01b03168061067d5760405162461bcd60e51b815260206004820152601860248201527f4573746174653a20696e76616c696420746f6b656e20494400000000000000006044820152606401610556565b6033546001600160a01b03163314610a695760405162461bcd60e51b81526004016105569061248a565b60cb54610a80906001600160a01b0316838361151c565b5050565b60006001600160a01b038216610aea5760405162461bcd60e51b815260206004820152602560248201527f4573746174653a206f776e65722063616e206e6f742062652061646472657373604482015264207a65726f60d81b6064820152608401610556565b506001600160a01b0316600090815260d0602052604090205490565b6033546001600160a01b03163314610b305760405162461bcd60e51b81526004016105569061248a565b610b3a600061153b565b565b610a8033838361158d565b610b4f6112fe565b60c9546001600160a01b0316336001600160a01b031614610bae5760405162461bcd60e51b8152602060048201526019602482015278115cdd185d194e881d5b985d5d1a1bdc9a5e99590818d85b1b603a1b6044820152606401610556565b610bb88282611664565b817fd3804647d8ed05e254cca17c9a140f2a93f199e1d931e79de2f6930778b83d718233604051610bea92919061231a565b60405180910390a25050565b6033546000906001600160a01b03163314610c235760405162461bcd60e51b81526004016105569061248a565b60026097541415610c765760405162461bcd60e51b815260206004820152601f60248201527f5265656e7472616e637947756172643a207265656e7472616e742063616c6c006044820152606401610556565b600260975560ce5460ff1615610cce5760405162461bcd60e51b815260206004820152601b60248201527f4573746174653a2065737461746520746f6b656e206d696e74656400000000006044820152606401610556565b60c960009054906101000a90046001600160a01b03166001600160a01b031663dbb65cf76040518163ffffffff1660e01b815260040160206040518083038186803b158015610d1c57600080fd5b505afa158015610d30573d6000803e3d6000fd5b505050506040513d601f19601f82011682018060405250810190610d5491906121b0565b60ca81905560cb54610d71916001600160a01b03909116906116a8565b610d7d60ca5483611664565b60ce805460ff191660011790556040805160c0810182528881526020808201899052818301889052606082018790526080820186905260a0820185905260ca54600090815260d482528381203382528252929092208151805192939192610de79284920190611d7c565b506020828101518051610e009260018501920190611d7c565b506040820151600282015560608201518051610e26916003840191602090910190611d7c565b5060808201518051610e42916004840191602090910190611d7c565b5060a08201518051610e5e916005840191602090910190611d7c565b505060ca54600160975598975050505050505050565b60c954604080516358c3de9360e11b815290516000926001600160a01b03169163b187bd26916004808301926020929190829003018186803b158015610eb957600080fd5b505afa158015610ecd573d6000803e3d6000fd5b505050506040513d601f19601f82011682018060405250810190610ef19190612066565b905090565b6000610f0260016116c2565b90508015610f1a576000805461ff0019166101001790555b60026097541415610f6d5760405162461bcd60e51b815260206004820152601f60248201527f5265656e7472616e637947756172643a207265656e7472616e742063616c6c006044820152606401610556565b6002609755610f7a61174f565b610f8261177e565b60cb80546001600160a01b03199081166001600160a01b038781169190911790925560cd84905560cc805482169286169290921790915560c98054339216821790556110105760405162461bcd60e51b815260206004820152601f60248201527f4573746174653a20466163746f72792069732061646472657373207a65726f006044820152606401610556565b6001609755801561105b576000805461ff0019169055604051600181527f7f26b83ff96e1f2b6a682f133852f6798a09c465da95921460cefb38474024989060200160405180910390a15b50505050565b61106b3383611447565b6110875760405162461bcd60e51b8152600401610556906123fa565b61105b848484846117ad565b600081815260d46020908152604080832060cc546001600160a01b0316845290915281206002810154815460609384939092909160018301919083906110d890612541565b80601f016020809104026020016040519081016040528092919081815260200182805461110490612541565b80156111515780601f1061112657610100808354040283529160200191611151565b820191906000526020600020905b81548152906001019060200180831161113457829003601f168201915b5050505050925081805461116490612541565b80601f016020809104026020016040519081016040528092919081815260200182805461119090612541565b80156111dd5780601f106111b2576101008083540402835291602001916111dd565b820191906000526020600020905b8154815290600101906020018083116111c057829003601f168201915b505050505091509250925092509193909250565b6033546001600160a01b0316331461121b5760405162461bcd60e51b81526004016105569061248a565b6001600160a01b0381166112805760405162461bcd60e51b815260206004820152602660248201527f4f776e61626c653a206e6577206f776e657220697320746865207a65726f206160448201526564647265737360d01b6064820152608401610556565b6112898161153b565b50565b611295816112e1565b6112895760405162461bcd60e51b815260206004820152601860248201527f4573746174653a206d696e7420746f6b656e20666972737400000000000000006044820152606401610556565b600090815260cf60205260409020546001600160a01b0316151590565b60c960009054906101000a90046001600160a01b03166001600160a01b031663b187bd266040518163ffffffff1660e01b815260040160206040518083038186803b15801561134c57600080fd5b505afa158015611360573d6000803e3d6000fd5b505050506040513d601f19601f820116820180604052508101906113849190612066565b15610b3a5760405162461bcd60e51b815260206004820152601960248201527f4573746174653a206f7065726174696f6e7320706175736564000000000000006044820152606401610556565b6113d96112fe565b600081815260d26020526040902080546001600160a01b0319166001600160a01b038416908117909155819061140e826109da565b6001600160a01b03167f8c5be1e5ebec7d5bd14f71427d1e84f3dd0314c0f7b2291e5b200ac8c7c3b92560405160405180910390a45050565b6000611452826112e1565b61149e5760405162461bcd60e51b815260206004820152601c60248201527f4573746174653a20746f6b656e20646f6573206e6f74206578697374000000006044820152606401610556565b60006114a9836109da565b9050806001600160a01b0316846001600160a01b031614806114f057506001600160a01b03808216600090815260d3602090815260408083209388168352929052205460ff165b806115145750836001600160a01b031661150984610683565b6001600160a01b0316145b949350505050565b6107a68383836117e0565b611289611533826109da565b6000836117e0565b603380546001600160a01b038381166001600160a01b0319831681179093556040519116919082907f8be0079c531659141344cd1fd0a4f28419497f9722a3daafe3b4186f6b6457e090600090a35050565b6115956112fe565b816001600160a01b0316836001600160a01b031614156115f75760405162461bcd60e51b815260206004820152601960248201527f4573746174653a20617070726f766520746f2063616c6c6572000000000000006044820152606401610556565b6001600160a01b03838116600081815260d36020908152604080832094871680845294825291829020805460ff191686151590811790915591519182527f17307eab39ab6107e8899845ad3d59bd9653f200f220920489ca2b5937696c31910160405180910390a3505050565b61166d826112e1565b6116895760405162461bcd60e51b8152600401610556906124bf565b600082815260d16020908152604090912082516107a692840190611d7c565b610a80828260405180602001604052806000815250611b87565b60008054610100900460ff1615611709578160ff1660011480156116e55750303b155b6117015760405162461bcd60e51b81526004016105569061243c565b506000919050565b60005460ff8084169116106117305760405162461bcd60e51b81526004016105569061243c565b506000805460ff191660ff92909216919091179055600190565b919050565b600054610100900460ff166117765760405162461bcd60e51b8152600401610556906124f6565b610b3a611bba565b600054610100900460ff166117a55760405162461bcd60e51b8152600401610556906124f6565b610b3a611bea565b6117b884848461151c565b6117c484848484611c18565b61105b5760405162461bcd60e51b8152600401610556906123a8565b6117e86112fe565b6001600160a01b03831615801561180757506001600160a01b03821615155b156118ce57611815816112e1565b156118625760405162461bcd60e51b815260206004820152601c60248201527f4573746174653a20746f6b656e20616c7265616479206d696e746564000000006044820152606401610556565b6001600160a01b038216600081815260d0602090815260408083208054600101905584835260cf90915280822080546001600160a01b0319168417905551839291907fddf252ad1be2c89b69c2b068fc378daa952ba7f163c4a11628f55a4df523b3ef908290a4505050565b6001600160a01b038316158015906118ed57506001600160a01b038216155b156119bd5760006118fd826109da565b600083815260d26020908152604080832080546001600160a01b03199081169091556001600160a01b038516845260d08352818420805460001901905586845260cf83528184208054909116905560d1909152902080549192509061196190612541565b15905061197f57600082815260d16020526040812061197f91611e00565b60405182906000906001600160a01b038416907fddf252ad1be2c89b69c2b068fc378daa952ba7f163c4a11628f55a4df523b3ef908390a450505050565b816001600160a01b0316836001600160a01b031614611b3f57826001600160a01b03166119e9826109da565b6001600160a01b031614611a4d5760405162461bcd60e51b815260206004820152602560248201527f4573746174653a207472616e736665722066726f6d20696e636f72726563742060448201526437bbb732b960d91b6064820152608401610556565b6001600160a01b038216611aaf5760405162461bcd60e51b8152602060048201526024808201527f4573746174653a207472616e7366657220746f20746865207a65726f206164646044820152637265737360e01b6064820152608401610556565b600081815260d26020908152604080832080546001600160a01b03199081169091556001600160a01b0387811680865260d0855283862080546000190190559087168086528386208054600101905586865260cf90945282852080549092168417909155905184937fddf252ad1be2c89b69c2b068fc378daa952ba7f163c4a11628f55a4df523b3ef91a4505050565b60405162461bcd60e51b815260206004820152601760248201527f4573746174653a207472616e73666572206661696c65640000000000000000006044820152606401610556565b611b918383611d70565b611b9e6000848484611c18565b6107a65760405162461bcd60e51b8152600401610556906123a8565b600054610100900460ff16611be15760405162461bcd60e51b8152600401610556906124f6565b610b3a3361153b565b600054610100900460ff16611c115760405162461bcd60e51b8152600401610556906124f6565b6001609755565b60006001600160a01b0384163b15611d6557604051630a85bd0160e11b81526001600160a01b0385169063150b7a0290611c5c9033908990889088906004016122ca565b602060405180830381600087803b158015611c7657600080fd5b505af1925050508015611ca6575060408051601f3d908101601f19168201909252611ca3918101906120a0565b60015b611d4b573d808015611cd4576040519150601f19603f3d011682016040523d82523d6000602084013e611cd9565b606091505b508051611d435760405162461bcd60e51b815260206004820152603260248201527f4552433732313a207472616e7366657220746f206e6f6e20455243373231526560448201527131b2b4bb32b91034b6b83632b6b2b73a32b960711b6064820152608401610556565b805181602001fd5b6001600160e01b031916630a85bd0160e11b149050611514565b506001949350505050565b610a80600083836117e0565b828054611d8890612541565b90600052602060002090601f016020900481019282611daa5760008555611df0565b82601f10611dc357805160ff1916838001178555611df0565b82800160010185558215611df0579182015b82811115611df0578251825591602001919060010190611dd5565b50611dfc929150611e36565b5090565b508054611e0c90612541565b6000825580601f10611e1c575050565b601f01602090049060005260206000209081019061128991905b5b80821115611dfc5760008155600101611e37565b600067ffffffffffffffff80841115611e6657611e6661257c565b604051601f8501601f19908116603f01168101908282118183101715611e8e57611e8e61257c565b81604052809350858152868686011115611ea757600080fd5b858560208301376000602087830101525050509392505050565b80356001600160a01b038116811461174a57600080fd5b600082601f830112611ee957600080fd5b611ef883833560208501611e4b565b9392505050565b600060208284031215611f1157600080fd5b611ef882611ec1565b60008060408385031215611f2d57600080fd5b611f3683611ec1565b9150611f4460208401611ec1565b90509250929050565b600080600060608486031215611f6257600080fd5b611f6b84611ec1565b9250611f7960208501611ec1565b9150604084013590509250925092565b60008060008060808587031215611f9f57600080fd5b611fa885611ec1565b9350611fb660208601611ec1565b925060408501359150606085013567ffffffffffffffff811115611fd957600080fd5b8501601f81018713611fea57600080fd5b611ff987823560208401611e4b565b91505092959194509250565b6000806040838503121561201857600080fd5b61202183611ec1565b9150602083013561203181612592565b809150509250929050565b6000806040838503121561204f57600080fd5b61205883611ec1565b946020939093013593505050565b60006020828403121561207857600080fd5b8151611ef881612592565b60006020828403121561209557600080fd5b8135611ef8816125a0565b6000602082840312156120b257600080fd5b8151611ef8816125a0565b60008060008060008060c087890312156120d657600080fd5b863567ffffffffffffffff808211156120ee57600080fd5b6120fa8a838b01611ed8565b9750602089013591508082111561211057600080fd5b61211c8a838b01611ed8565b965060408901359550606089013591508082111561213957600080fd5b6121458a838b01611ed8565b9450608089013591508082111561215b57600080fd5b6121678a838b01611ed8565b935060a089013591508082111561217d57600080fd5b5061218a89828a01611ed8565b9150509295509295509295565b6000602082840312156121a957600080fd5b5035919050565b6000602082840312156121c257600080fd5b5051919050565b600080604083850312156121dc57600080fd5b82359150602083013567ffffffffffffffff8111156121fa57600080fd5b61220685828601611ed8565b9150509250929050565b60008060006060848603121561222557600080fd5b83359250602084013567ffffffffffffffff8082111561224457600080fd5b61225087838801611ed8565b9350604086013591508082111561226657600080fd5b5061227386828701611ed8565b9150509250925092565b6000815180845260005b818110156122a357602081850181015186830182015201612287565b818111156122b5576000602083870101525b50601f01601f19169290920160200192915050565b6001600160a01b03858116825284166020820152604081018390526080606082018190526000906122fd9083018461227d565b9695505050505050565b602081526000611ef8602083018461227d565b60408152600061232d604083018561227d565b905060018060a01b03831660208301529392505050565b604081526000612357604083018561227d565b8281036020840152612369818561227d565b95945050505050565b606081526000612385606083018661227d565b8281036020840152612397818661227d565b915050826040830152949350505050565b60208082526032908201527f4573746174653a207472616e7366657220746f206e6f6e20455243373231526560408201527131b2b4bb32b91034b6b83632b6b2b73a32b960711b606082015260800190565b60208082526022908201527f4573746174653a206e656974686572206f776e6572206e6f7220617070726f76604082015261195960f21b606082015260800190565b6020808252602e908201527f496e697469616c697a61626c653a20636f6e747261637420697320616c72656160408201526d191e481a5b9a5d1a585b1a5e995960921b606082015260800190565b6020808252818101527f4f776e61626c653a2063616c6c6572206973206e6f7420746865206f776e6572604082015260600190565b60208082526019908201527f4573746174653a20746f6b656e20646f6e6f7420657869737400000000000000604082015260600190565b6020808252602b908201527f496e697469616c697a61626c653a20636f6e7472616374206973206e6f74206960408201526a6e697469616c697a696e6760a81b606082015260800190565b600181811c9082168061255557607f821691505b6020821081141561257657634e487b7160e01b600052602260045260246000fd5b50919050565b634e487b7160e01b600052604160045260246000fd5b801515811461128957600080fd5b6001600160e01b03198116811461128957600080fdfea26469706673582212204056727e5b1224761858f3775ff2758f5995a0dd37fac7b39e6ceb80464a580c64736f6c63430008070033",
  "linkReferences": {},
  "deployedLinkReferences": {}
}