{
  "_format": "hh-sol-artifact-1",
  "contractName": "Estate",
  "sourceName": "contracts/Estate.sol",
  "abi": [
    {
      "anonymous": false,
      "inputs": [
        {
          "indexed": true,
          "internalType": "address",
          "name": "owner",
          "type": "address"
        },
        {
          "indexed": true,
          "internalType": "address",
          "name": "approved",
          "type": "address"
        },
        {
          "indexed": true,
          "internalType": "uint256",
          "name": "tokenId",
          "type": "uint256"
        }
      ],
      "name": "Approval",
      "type": "event"
    },
    {
      "anonymous": false,
      "inputs": [
        {
          "indexed": true,
          "internalType": "address",
          "name": "owner",
          "type": "address"
        },
        {
          "indexed": true,
          "internalType": "address",
          "name": "operator",
          "type": "address"
        },
        {
          "indexed": false,
          "internalType": "bool",
          "name": "approved",
          "type": "bool"
        }
      ],
      "name": "ApprovalForAll",
      "type": "event"
    },
    {
      "anonymous": false,
      "inputs": [
        {
          "indexed": false,
          "internalType": "uint8",
          "name": "version",
          "type": "uint8"
        }
      ],
      "name": "Initialized",
      "type": "event"
    },
    {
      "anonymous": false,
      "inputs": [
        {
          "indexed": true,
          "internalType": "uint256",
          "name": "tokenId",
          "type": "uint256"
        },
        {
          "indexed": false,
          "internalType": "string",
          "name": "newName",
          "type": "string"
        },
        {
          "indexed": false,
          "internalType": "string",
          "name": "newSymbol",
          "type": "string"
        }
      ],
      "name": "MetadataChanged",
      "type": "event"
    },
    {
      "anonymous": false,
      "inputs": [
        {
          "indexed": true,
          "internalType": "address",
          "name": "previousOwner",
          "type": "address"
        },
        {
          "indexed": true,
          "internalType": "address",
          "name": "newOwner",
          "type": "address"
        }
      ],
      "name": "OwnershipTransferred",
      "type": "event"
    },
    {
      "anonymous": false,
      "inputs": [
        {
          "indexed": true,
          "internalType": "uint256",
          "name": "tokenId",
          "type": "uint256"
        },
        {
          "indexed": false,
          "internalType": "string",
          "name": "newURI",
          "type": "string"
        },
        {
          "indexed": false,
          "internalType": "address",
          "name": "caller",
          "type": "address"
        }
      ],
      "name": "TokenURIModified",
      "type": "event"
    },
    {
      "anonymous": false,
      "inputs": [
        {
          "indexed": true,
          "internalType": "address",
          "name": "from",
          "type": "address"
        },
        {
          "indexed": true,
          "internalType": "address",
          "name": "to",
          "type": "address"
        },
        {
          "indexed": true,
          "internalType": "uint256",
          "name": "tokenId",
          "type": "uint256"
        }
      ],
      "name": "Transfer",
      "type": "event"
    },
    {
      "inputs": [
        {
          "internalType": "address",
          "name": "safeAddress",
          "type": "address"
        },
        {
          "internalType": "address",
          "name": "owner",
          "type": "address"
        },
        {
          "internalType": "uint256",
          "name": "taxId",
          "type": "uint256"
        }
      ],
      "name": "__Estate_init",
      "outputs": [],
      "stateMutability": "payable",
      "type": "function"
    },
    {
      "inputs": [
        {
          "internalType": "address",
          "name": "to",
          "type": "address"
        },
        {
          "internalType": "uint256",
          "name": "tokenId",
          "type": "uint256"
        }
      ],
      "name": "approve",
      "outputs": [],
      "stateMutability": "nonpayable",
      "type": "function"
    },
    {
      "inputs": [
        {
          "internalType": "address",
          "name": "owner",
          "type": "address"
        }
      ],
      "name": "balanceOf",
      "outputs": [
        {
          "internalType": "uint256",
          "name": "",
          "type": "uint256"
        }
      ],
      "stateMutability": "view",
      "type": "function"
    },
    {
      "inputs": [
        {
          "internalType": "uint256",
          "name": "tokenId",
          "type": "uint256"
        }
      ],
      "name": "burn",
      "outputs": [],
      "stateMutability": "nonpayable",
      "type": "function"
    },
    {
      "inputs": [
        {
          "internalType": "uint256",
          "name": "tokenId",
          "type": "uint256"
        }
      ],
      "name": "estateLocation",
      "outputs": [
        {
          "internalType": "string",
          "name": "",
          "type": "string"
        },
        {
          "internalType": "string",
          "name": "",
          "type": "string"
        },
        {
          "internalType": "uint256",
          "name": "",
          "type": "uint256"
        }
      ],
      "stateMutability": "view",
      "type": "function"
    },
    {
      "inputs": [
        {
          "internalType": "uint256",
          "name": "tokenId",
          "type": "uint256"
        }
      ],
      "name": "getApproved",
      "outputs": [
        {
          "internalType": "address",
          "name": "",
          "type": "address"
        }
      ],
      "stateMutability": "view",
      "type": "function"
    },
    {
      "inputs": [
        {
          "internalType": "address",
          "name": "owner",
          "type": "address"
        },
        {
          "internalType": "address",
          "name": "operator",
          "type": "address"
        }
      ],
      "name": "isApprovedForAll",
      "outputs": [
        {
          "internalType": "bool",
          "name": "",
          "type": "bool"
        }
      ],
      "stateMutability": "view",
      "type": "function"
    },
    {
      "inputs": [],
      "name": "isPaused",
      "outputs": [
        {
          "internalType": "bool",
          "name": "",
          "type": "bool"
        }
      ],
      "stateMutability": "view",
      "type": "function"
    },
    {
      "inputs": [
        {
          "internalType": "string",
          "name": "state",
          "type": "string"
        },
        {
          "internalType": "string",
          "name": "city",
          "type": "string"
        },
        {
          "internalType": "uint256",
          "name": "zipcode",
          "type": "uint256"
        },
        {
          "internalType": "string",
          "name": "tokenName",
          "type": "string"
        },
        {
          "internalType": "string",
          "name": "tokenSymbol",
          "type": "string"
        },
        {
          "internalType": "string",
          "name": "tokenURI",
          "type": "string"
        }
      ],
      "name": "mintEstateToken",
      "outputs": [
        {
          "internalType": "uint256",
          "name": "",
          "type": "uint256"
        }
      ],
      "stateMutability": "nonpayable",
      "type": "function"
    },
    {
      "inputs": [
        {
          "internalType": "uint256",
          "name": "tokenId",
          "type": "uint256"
        },
        {
          "internalType": "string",
          "name": "_name",
          "type": "string"
        },
        {
          "internalType": "string",
          "name": "_symbol",
          "type": "string"
        }
      ],
      "name": "modifyTokenMetadata",
      "outputs": [],
      "stateMutability": "nonpayable",
      "type": "function"
    },
    {
      "inputs": [
        {
          "internalType": "uint256",
          "name": "tokenId",
          "type": "uint256"
        },
        {
          "internalType": "string",
          "name": "uri",
          "type": "string"
        }
      ],
      "name": "modifyTokenURI",
      "outputs": [],
      "stateMutability": "nonpayable",
      "type": "function"
    },
    {
      "inputs": [
        {
          "internalType": "uint256",
          "name": "tokenId",
          "type": "uint256"
        }
      ],
      "name": "name",
      "outputs": [
        {
          "internalType": "string",
          "name": "",
          "type": "string"
        }
      ],
      "stateMutability": "view",
      "type": "function"
    },
    {
      "inputs": [],
      "name": "owner",
      "outputs": [
        {
          "internalType": "address",
          "name": "",
          "type": "address"
        }
      ],
      "stateMutability": "view",
      "type": "function"
    },
    {
      "inputs": [
        {
          "internalType": "uint256",
          "name": "tokenId",
          "type": "uint256"
        }
      ],
      "name": "ownerOf",
      "outputs": [
        {
          "internalType": "address",
          "name": "",
          "type": "address"
        }
      ],
      "stateMutability": "view",
      "type": "function"
    },
    {
      "inputs": [],
      "name": "renounceOwnership",
      "outputs": [],
      "stateMutability": "nonpayable",
      "type": "function"
    },
    {
      "inputs": [
        {
          "internalType": "address",
          "name": "from",
          "type": "address"
        },
        {
          "internalType": "address",
          "name": "to",
          "type": "address"
        },
        {
          "internalType": "uint256",
          "name": "tokenId",
          "type": "uint256"
        }
      ],
      "name": "safeTransferFrom",
      "outputs": [],
      "stateMutability": "nonpayable",
      "type": "function"
    },
    {
      "inputs": [
        {
          "internalType": "address",
          "name": "from",
          "type": "address"
        },
        {
          "internalType": "address",
          "name": "to",
          "type": "address"
        },
        {
          "internalType": "uint256",
          "name": "tokenId",
          "type": "uint256"
        },
        {
          "internalType": "bytes",
          "name": "_data",
          "type": "bytes"
        }
      ],
      "name": "safeTransferFrom",
      "outputs": [],
      "stateMutability": "nonpayable",
      "type": "function"
    },
    {
      "inputs": [
        {
          "internalType": "address",
          "name": "operator",
          "type": "address"
        },
        {
          "internalType": "bool",
          "name": "approved",
          "type": "bool"
        }
      ],
      "name": "setApprovalForAll",
      "outputs": [],
      "stateMutability": "nonpayable",
      "type": "function"
    },
    {
      "inputs": [
        {
          "internalType": "bytes4",
          "name": "interfaceId",
          "type": "bytes4"
        }
      ],
      "name": "supportsInterface",
      "outputs": [
        {
          "internalType": "bool",
          "name": "",
          "type": "bool"
        }
      ],
      "stateMutability": "view",
      "type": "function"
    },
    {
      "inputs": [
        {
          "internalType": "uint256",
          "name": "tokenId",
          "type": "uint256"
        }
      ],
      "name": "symbol",
      "outputs": [
        {
          "internalType": "string",
          "name": "",
          "type": "string"
        }
      ],
      "stateMutability": "view",
      "type": "function"
    },
    {
      "inputs": [
        {
          "internalType": "address",
          "name": "to",
          "type": "address"
        },
        {
          "internalType": "uint256",
          "name": "tokenId",
          "type": "uint256"
        }
      ],
      "name": "tokenTransfer",
      "outputs": [],
      "stateMutability": "nonpayable",
      "type": "function"
    },
    {
      "inputs": [
        {
          "internalType": "uint256",
          "name": "tokenId",
          "type": "uint256"
        }
      ],
      "name": "tokenUri",
      "outputs": [
        {
          "internalType": "string",
          "name": "",
          "type": "string"
        }
      ],
      "stateMutability": "view",
      "type": "function"
    },
    {
      "inputs": [],
      "name": "totalSupply",
      "outputs": [
        {
          "internalType": "uint256",
          "name": "",
          "type": "uint256"
        }
      ],
      "stateMutability": "view",
      "type": "function"
    },
    {
      "inputs": [
        {
          "internalType": "address",
          "name": "from",
          "type": "address"
        },
        {
          "internalType": "address",
          "name": "to",
          "type": "address"
        },
        {
          "internalType": "uint256",
          "name": "tokenId",
          "type": "uint256"
        }
      ],
      "name": "transferFrom",
      "outputs": [],
      "stateMutability": "nonpayable",
      "type": "function"
    },
    {
      "inputs": [
        {
          "internalType": "address",
          "name": "newOwner",
          "type": "address"
        }
      ],
      "name": "transferOwnership",
      "outputs": [],
      "stateMutability": "nonpayable",
      "type": "function"
    },
    {
      "inputs": [],
      "name": "version",
      "outputs": [
        {
          "internalType": "string",
          "name": "",
          "type": "string"
        }
      ],
      "stateMutability": "pure",
      "type": "function"
    }
  ],
  "bytecode": "0x608060405260ce805460ff1916905534801561001a57600080fd5b50612a278061002a6000396000f3fe6080604052600436106101a05760003560e01c806368cdafe6116100e1578063a7a1c5451161008a578063b88d4fde11610064578063b88d4fde146104a5578063ceb346d5146104c5578063e985e9c5146104f4578063f2fde38b1461053d57600080fd5b8063a7a1c5451461045d578063b187bd261461047d578063b5b160e11461049257600080fd5b80638da5cb5b116100bb5780638da5cb5b146103ff578063a22cb4651461041d578063a2cf7e1b1461043d57600080fd5b806368cdafe6146103aa57806370a08231146103ca578063715018a6146103ea57600080fd5b806323b872dd1161014e57806342966c681161012857806342966c68146103045780634e41a1fb1461032457806354fd4d50146103445780636352211e1461038a57600080fd5b806323b872dd146102a45780633d867e80146102c457806342842e0e146102e457600080fd5b8063095ea7b31161017f578063095ea7b3146102435780631675f4551461026557806318160ddd1461028557600080fd5b8062ad800c146101a557806301ffc9a7146101db578063081812fc1461020b575b600080fd5b3480156101b157600080fd5b506101c56101c036600461276b565b61055d565b6040516101d291906128da565b60405180910390f35b3480156101e757600080fd5b506101fb6101f6366004612657565b610688565b60405190151581526020016101d2565b34801561021757600080fd5b5061022b61022636600461276b565b610740565b6040516001600160a01b0390911681526020016101d2565b34801561024f57600080fd5b5061026361025e366004612610565b610767565b005b34801561027157600080fd5b506101c561028036600461276b565b61087b565b34801561029157600080fd5b5060ca545b6040519081526020016101d2565b3480156102b057600080fd5b506102636102bf366004612521565b610903565b3480156102d057600080fd5b506102636102df3660046127e4565b61096f565b3480156102f057600080fd5b506102636102ff366004612521565b610a6a565b34801561031057600080fd5b5061026361031f36600461276b565b610a85565b34801561033057600080fd5b506101c561033f36600461276b565b610af6565b34801561035057600080fd5b5060408051808201909152600681527f56312e302e30000000000000000000000000000000000000000000000000000060208201526101c5565b34801561039657600080fd5b5061022b6103a536600461276b565b610b97565b3480156103b657600080fd5b506102636103c5366004612610565b610bfc565b3480156103d657600080fd5b506102966103e53660046124d3565b610c71565b3480156103f657600080fd5b50610263610d0b565b34801561040b57600080fd5b506033546001600160a01b031661022b565b34801561042957600080fd5b506102636104383660046125d9565b610d71565b34801561044957600080fd5b5061026361045836600461279d565b610d7c565b34801561046957600080fd5b50610296610478366004612691565b610e2f565b34801561048957600080fd5b506101fb6110dd565b6102636104a0366004612521565b611178565b3480156104b157600080fd5b506102636104c036600461255d565b6112e3565b3480156104d157600080fd5b506104e56104e036600461276b565b611350565b6040516101d293929190612946565b34801561050057600080fd5b506101fb61050f3660046124ee565b6001600160a01b03918216600090815260d36020908152604080832093909416825291909152205460ff1690565b34801561054957600080fd5b506102636105583660046124d3565b6114ae565b606061056882611590565b600082815260cf60205260409020546001600160a01b03166105d15760405162461bcd60e51b815260206004820152601960248201527f4573746174653a20746f6b656e20646f6e6f742065786973740000000000000060448201526064015b60405180910390fd5b600082815260d46020908152604080832060cc546001600160a01b03168452909152902060030180546106039061297c565b80601f016020809104026020016040519081016040528092919081815260200182805461062f9061297c565b801561067c5780601f106106515761010080835404028352916020019161067c565b820191906000526020600020905b81548152906001019060200180831161065f57829003601f168201915b50505050509050919050565b60006001600160e01b031982167f0aeb42fb0000000000000000000000000000000000000000000000000000000014806106d257506001600160e01b03198216630a85bd0160e11b145b8061070657506001600160e01b031982167f9f49009b00000000000000000000000000000000000000000000000000000000145b8061073a57507f01ffc9a7000000000000000000000000000000000000000000000000000000006001600160e01b03198316145b92915050565b600061074b82611590565b50600090815260d260205260409020546001600160a01b031690565b61076f6115f4565b600061077a82610b97565b9050806001600160a01b0316836001600160a01b031614156107de5760405162461bcd60e51b815260206004820152601f60248201527f4573746174653a20746f2063616e206e6f7420626520746865206f776e65720060448201526064016105c8565b336001600160a01b03821614806107fa57506107fa813361050f565b61086c5760405162461bcd60e51b815260206004820152602a60248201527f4573746174653a2063616c6c65722073686f756c64206265206f776e6572206f60448201527f7220617070726f7665640000000000000000000000000000000000000000000060648201526084016105c8565b61087683836116c7565b505050565b606061088682611590565b600082815260cf60205260409020546001600160a01b03166108ea5760405162461bcd60e51b815260206004820152601960248201527f4573746174653a20746f6b656e20646f6e6f742065786973740000000000000060448201526064016105c8565b600082815260d16020526040902080546106039061297c565b61090d338261173d565b6109645760405162461bcd60e51b815260206004820152602260248201527f4573746174653a206e656974686572206f776e6572206e6f7220617070726f76604482015261195960f21b60648201526084016105c8565b61087683838361181f565b6109776115f4565b60c9546001600160a01b0316336001600160a01b0316146109da5760405162461bcd60e51b815260206004820152601960248201527f4573746174653a20756e617574686f72697a65642063616c6c0000000000000060448201526064016105c8565b600083815260d46020908152604080832060cc546001600160a01b03168452825290912083519091610a13916003840191860190612350565b508151610a299060048301906020850190612350565b50837f601d4b2f0f06545c0f60d4f70e3bc5d78db246f7b66aaeb1ea23a56aa854c6708484604051610a5c929190612918565b60405180910390a250505050565b610876838383604051806020016040528060008152506112e3565b6033546001600160a01b03163314610adf5760405162461bcd60e51b815260206004820181905260248201527f4f776e61626c653a2063616c6c6572206973206e6f7420746865206f776e657260448201526064016105c8565b610ae88161182a565b60cc546001600160a01b0316ff5b6060610b0182611590565b600082815260cf60205260409020546001600160a01b0316610b655760405162461bcd60e51b815260206004820152601960248201527f4573746174653a20746f6b656e20646f6e6f742065786973740000000000000060448201526064016105c8565b600082815260d46020908152604080832060cc546001600160a01b03168452909152902060040180546106039061297c565b600081815260cf60205260408120546001600160a01b03168061073a5760405162461bcd60e51b815260206004820152601860248201527f4573746174653a20696e76616c696420746f6b656e204944000000000000000060448201526064016105c8565b6033546001600160a01b03163314610c565760405162461bcd60e51b815260206004820181905260248201527f4f776e61626c653a2063616c6c6572206973206e6f7420746865206f776e657260448201526064016105c8565b60cb54610c6d906001600160a01b0316838361181f565b5050565b60006001600160a01b038216610cef5760405162461bcd60e51b815260206004820152602560248201527f4573746174653a206f776e65722063616e206e6f74206265206164647265737360448201527f207a65726f00000000000000000000000000000000000000000000000000000060648201526084016105c8565b506001600160a01b0316600090815260d0602052604090205490565b6033546001600160a01b03163314610d655760405162461bcd60e51b815260206004820181905260248201527f4f776e61626c653a2063616c6c6572206973206e6f7420746865206f776e657260448201526064016105c8565b610d6f600061183e565b565b610c6d338383611890565b610d846115f4565b60c9546001600160a01b0316336001600160a01b031614610de75760405162461bcd60e51b815260206004820152601960248201527f4573746174653a20756e617574686f72697a65642063616c6c0000000000000060448201526064016105c8565b610df18282611967565b817fd3804647d8ed05e254cca17c9a140f2a93f199e1d931e79de2f6930778b83d718233604051610e239291906128ed565b60405180910390a25050565b6033546000906001600160a01b03163314610e8c5760405162461bcd60e51b815260206004820181905260248201527f4f776e61626c653a2063616c6c6572206973206e6f7420746865206f776e657260448201526064016105c8565b60026097541415610edf5760405162461bcd60e51b815260206004820152601f60248201527f5265656e7472616e637947756172643a207265656e7472616e742063616c6c0060448201526064016105c8565b600260975560ce5460ff1615610f375760405162461bcd60e51b815260206004820152601b60248201527f4573746174653a2065737461746520746f6b656e206d696e746564000000000060448201526064016105c8565b60c960009054906101000a90046001600160a01b03166001600160a01b031663dbb65cf76040518163ffffffff1660e01b815260040160206040518083038186803b158015610f8557600080fd5b505afa158015610f99573d6000803e3d6000fd5b505050506040513d601f19601f82011682018060405250810190610fbd9190612784565b60ca81905560cb54610fda916001600160a01b03909116906119ea565b610fe660ca5483611967565b60ce805460ff191660011790556040805160c0810182528881526020808201899052818301889052606082018790526080820186905260a0820185905260ca54600090815260d4825283812033825282529290922081518051929391926110509284920190612350565b5060208281015180516110699260018501920190612350565b50604082015160028201556060820151805161108f916003840191602090910190612350565b50608082015180516110ab916004840191602090910190612350565b5060a082015180516110c7916005840191602090910190612350565b505060ca54600160975598975050505050505050565b60c954604080517fb187bd2600000000000000000000000000000000000000000000000000000000815290516000926001600160a01b03169163b187bd26916004808301926020929190829003018186803b15801561113b57600080fd5b505afa15801561114f573d6000803e3d6000fd5b505050506040513d601f19601f82011682018060405250810190611173919061263a565b905090565b60006111846001611a04565b9050801561119c576000805461ff0019166101001790555b600260975414156111ef5760405162461bcd60e51b815260206004820152601f60248201527f5265656e7472616e637947756172643a207265656e7472616e742063616c6c0060448201526064016105c8565b60026097556111fc611b3d565b611204611bb0565b60cb80546001600160a01b03199081166001600160a01b038781169190911790925560cd84905560cc805482169286169290921790915560c98054339216821790556112925760405162461bcd60e51b815260206004820152601f60248201527f4573746174653a20466163746f72792069732061646472657373207a65726f0060448201526064016105c8565b600160975580156112dd576000805461ff0019169055604051600181527f7f26b83ff96e1f2b6a682f133852f6798a09c465da95921460cefb38474024989060200160405180910390a15b50505050565b6112ed338361173d565b6113445760405162461bcd60e51b815260206004820152602260248201527f4573746174653a206e656974686572206f776e6572206e6f7220617070726f76604482015261195960f21b60648201526084016105c8565b6112dd84848484611c23565b600081815260d46020908152604080832060cc546001600160a01b0316845290915281206002810154815460609384939092909160018301919083906113959061297c565b80601f01602080910402602001604051908101604052809291908181526020018280546113c19061297c565b801561140e5780601f106113e35761010080835404028352916020019161140e565b820191906000526020600020905b8154815290600101906020018083116113f157829003601f168201915b505050505092508180546114219061297c565b80601f016020809104026020016040519081016040528092919081815260200182805461144d9061297c565b801561149a5780601f1061146f5761010080835404028352916020019161149a565b820191906000526020600020905b81548152906001019060200180831161147d57829003601f168201915b505050505091509250925092509193909250565b6033546001600160a01b031633146115085760405162461bcd60e51b815260206004820181905260248201527f4f776e61626c653a2063616c6c6572206973206e6f7420746865206f776e657260448201526064016105c8565b6001600160a01b0381166115845760405162461bcd60e51b815260206004820152602660248201527f4f776e61626c653a206e6577206f776e657220697320746865207a65726f206160448201527f646472657373000000000000000000000000000000000000000000000000000060648201526084016105c8565b61158d8161183e565b50565b600081815260cf60205260409020546001600160a01b031661158d5760405162461bcd60e51b815260206004820152601860248201527f4573746174653a206d696e7420746f6b656e206669727374000000000000000060448201526064016105c8565b60c960009054906101000a90046001600160a01b03166001600160a01b031663b187bd266040518163ffffffff1660e01b815260040160206040518083038186803b15801561164257600080fd5b505afa158015611656573d6000803e3d6000fd5b505050506040513d601f19601f8201168201806040525081019061167a919061263a565b15610d6f5760405162461bcd60e51b815260206004820152601960248201527f4573746174653a206f7065726174696f6e73207061757365640000000000000060448201526064016105c8565b6116cf6115f4565b600081815260d26020526040902080546001600160a01b0319166001600160a01b038416908117909155819061170482610b97565b6001600160a01b03167f8c5be1e5ebec7d5bd14f71427d1e84f3dd0314c0f7b2291e5b200ac8c7c3b92560405160405180910390a45050565b600081815260cf60205260408120546001600160a01b03166117a15760405162461bcd60e51b815260206004820152601c60248201527f4573746174653a20746f6b656e20646f6573206e6f742065786973740000000060448201526064016105c8565b60006117ac83610b97565b9050806001600160a01b0316846001600160a01b031614806117f357506001600160a01b03808216600090815260d3602090815260408083209388168352929052205460ff165b806118175750836001600160a01b031661180c84610740565b6001600160a01b0316145b949350505050565b610876838383611ca1565b61158d61183682610b97565b600083611ca1565b603380546001600160a01b038381166001600160a01b0319831681179093556040519116919082907f8be0079c531659141344cd1fd0a4f28419497f9722a3daafe3b4186f6b6457e090600090a35050565b6118986115f4565b816001600160a01b0316836001600160a01b031614156118fa5760405162461bcd60e51b815260206004820152601960248201527f4573746174653a20617070726f766520746f2063616c6c65720000000000000060448201526064016105c8565b6001600160a01b03838116600081815260d36020908152604080832094871680845294825291829020805460ff191686151590811790915591519182527f17307eab39ab6107e8899845ad3d59bd9653f200f220920489ca2b5937696c31910160405180910390a3505050565b600082815260cf60205260409020546001600160a01b03166119cb5760405162461bcd60e51b815260206004820152601960248201527f4573746174653a20746f6b656e20646f6e6f742065786973740000000000000060448201526064016105c8565b600082815260d160209081526040909120825161087692840190612350565b610c6d828260405180602001604052806000815250612088565b60008054610100900460ff1615611aa1578160ff166001148015611a275750303b155b611a995760405162461bcd60e51b815260206004820152602e60248201527f496e697469616c697a61626c653a20636f6e747261637420697320616c72656160448201527f647920696e697469616c697a656400000000000000000000000000000000000060648201526084016105c8565b506000919050565b60005460ff808416911610611b1e5760405162461bcd60e51b815260206004820152602e60248201527f496e697469616c697a61626c653a20636f6e747261637420697320616c72656160448201527f647920696e697469616c697a656400000000000000000000000000000000000060648201526084016105c8565b506000805460ff191660ff92909216919091179055600190565b919050565b600054610100900460ff16611ba85760405162461bcd60e51b815260206004820152602b60248201527f496e697469616c697a61626c653a20636f6e7472616374206973206e6f74206960448201526a6e697469616c697a696e6760a81b60648201526084016105c8565b610d6f612106565b600054610100900460ff16611c1b5760405162461bcd60e51b815260206004820152602b60248201527f496e697469616c697a61626c653a20636f6e7472616374206973206e6f74206960448201526a6e697469616c697a696e6760a81b60648201526084016105c8565b610d6f61217a565b611c2e84848461181f565b611c3a848484846121ec565b6112dd5760405162461bcd60e51b815260206004820152603260248201527f4573746174653a207472616e7366657220746f206e6f6e20455243373231526560448201527131b2b4bb32b91034b6b83632b6b2b73a32b960711b60648201526084016105c8565b611ca96115f4565b6001600160a01b038316158015611cc857506001600160a01b03821615155b15611d9e57600081815260cf60205260409020546001600160a01b031615611d325760405162461bcd60e51b815260206004820152601c60248201527f4573746174653a20746f6b656e20616c7265616479206d696e7465640000000060448201526064016105c8565b6001600160a01b038216600081815260d0602090815260408083208054600101905584835260cf90915280822080546001600160a01b0319168417905551839291907fddf252ad1be2c89b69c2b068fc378daa952ba7f163c4a11628f55a4df523b3ef908290a4505050565b6001600160a01b03831615801590611dbd57506001600160a01b038216155b15611e8d576000611dcd82610b97565b600083815260d26020908152604080832080546001600160a01b03199081169091556001600160a01b038516845260d08352818420805460001901905586845260cf83528184208054909116905560d19091529020805491925090611e319061297c565b159050611e4f57600082815260d160205260408120611e4f916123d4565b60405182906000906001600160a01b038416907fddf252ad1be2c89b69c2b068fc378daa952ba7f163c4a11628f55a4df523b3ef908390a450505050565b816001600160a01b0316836001600160a01b03161461204057826001600160a01b0316611eb982610b97565b6001600160a01b031614611f355760405162461bcd60e51b815260206004820152602560248201527f4573746174653a207472616e736665722066726f6d20696e636f72726563742060448201527f6f776e657200000000000000000000000000000000000000000000000000000060648201526084016105c8565b6001600160a01b038216611fb05760405162461bcd60e51b8152602060048201526024808201527f4573746174653a207472616e7366657220746f20746865207a65726f2061646460448201527f726573730000000000000000000000000000000000000000000000000000000060648201526084016105c8565b600081815260d26020908152604080832080546001600160a01b03199081169091556001600160a01b0387811680865260d0855283862080546000190190559087168086528386208054600101905586865260cf90945282852080549092168417909155905184937fddf252ad1be2c89b69c2b068fc378daa952ba7f163c4a11628f55a4df523b3ef91a4505050565b60405162461bcd60e51b815260206004820152601760248201527f4573746174653a207472616e73666572206661696c656400000000000000000060448201526064016105c8565b6120928383612344565b61209f60008484846121ec565b6108765760405162461bcd60e51b815260206004820152603260248201527f4573746174653a207472616e7366657220746f206e6f6e20455243373231526560448201527131b2b4bb32b91034b6b83632b6b2b73a32b960711b60648201526084016105c8565b600054610100900460ff166121715760405162461bcd60e51b815260206004820152602b60248201527f496e697469616c697a61626c653a20636f6e7472616374206973206e6f74206960448201526a6e697469616c697a696e6760a81b60648201526084016105c8565b610d6f3361183e565b600054610100900460ff166121e55760405162461bcd60e51b815260206004820152602b60248201527f496e697469616c697a61626c653a20636f6e7472616374206973206e6f74206960448201526a6e697469616c697a696e6760a81b60648201526084016105c8565b6001609755565b60006001600160a01b0384163b1561233957604051630a85bd0160e11b81526001600160a01b0385169063150b7a029061223090339089908890889060040161289e565b602060405180830381600087803b15801561224a57600080fd5b505af192505050801561227a575060408051601f3d908101601f1916820190925261227791810190612674565b60015b61231f573d8080156122a8576040519150601f19603f3d011682016040523d82523d6000602084013e6122ad565b606091505b5080516123175760405162461bcd60e51b815260206004820152603260248201527f4552433732313a207472616e7366657220746f206e6f6e20455243373231526560448201527131b2b4bb32b91034b6b83632b6b2b73a32b960711b60648201526084016105c8565b805181602001fd5b6001600160e01b031916630a85bd0160e11b149050611817565b506001949350505050565b610c6d60008383611ca1565b82805461235c9061297c565b90600052602060002090601f01602090048101928261237e57600085556123c4565b82601f1061239757805160ff19168380011785556123c4565b828001600101855582156123c4579182015b828111156123c45782518255916020019190600101906123a9565b506123d092915061240a565b5090565b5080546123e09061297c565b6000825580601f106123f0575050565b601f01602090049060005260206000209081019061158d91905b5b808211156123d0576000815560010161240b565b600067ffffffffffffffff8084111561243a5761243a6129b7565b604051601f8501601f19908116603f01168101908282118183101715612462576124626129b7565b8160405280935085815286868601111561247b57600080fd5b858560208301376000602087830101525050509392505050565b80356001600160a01b0381168114611b3857600080fd5b600082601f8301126124bd57600080fd5b6124cc8383356020850161241f565b9392505050565b6000602082840312156124e557600080fd5b6124cc82612495565b6000806040838503121561250157600080fd5b61250a83612495565b915061251860208401612495565b90509250929050565b60008060006060848603121561253657600080fd5b61253f84612495565b925061254d60208501612495565b9150604084013590509250925092565b6000806000806080858703121561257357600080fd5b61257c85612495565b935061258a60208601612495565b925060408501359150606085013567ffffffffffffffff8111156125ad57600080fd5b8501601f810187136125be57600080fd5b6125cd8782356020840161241f565b91505092959194509250565b600080604083850312156125ec57600080fd5b6125f583612495565b91506020830135612605816129cd565b809150509250929050565b6000806040838503121561262357600080fd5b61262c83612495565b946020939093013593505050565b60006020828403121561264c57600080fd5b81516124cc816129cd565b60006020828403121561266957600080fd5b81356124cc816129db565b60006020828403121561268657600080fd5b81516124cc816129db565b60008060008060008060c087890312156126aa57600080fd5b863567ffffffffffffffff808211156126c257600080fd5b6126ce8a838b016124ac565b975060208901359150808211156126e457600080fd5b6126f08a838b016124ac565b965060408901359550606089013591508082111561270d57600080fd5b6127198a838b016124ac565b9450608089013591508082111561272f57600080fd5b61273b8a838b016124ac565b935060a089013591508082111561275157600080fd5b5061275e89828a016124ac565b9150509295509295509295565b60006020828403121561277d57600080fd5b5035919050565b60006020828403121561279657600080fd5b5051919050565b600080604083850312156127b057600080fd5b82359150602083013567ffffffffffffffff8111156127ce57600080fd5b6127da858286016124ac565b9150509250929050565b6000806000606084860312156127f957600080fd5b83359250602084013567ffffffffffffffff8082111561281857600080fd5b612824878388016124ac565b9350604086013591508082111561283a57600080fd5b50612847868287016124ac565b9150509250925092565b6000815180845260005b818110156128775760208185018101518683018201520161285b565b81811115612889576000602083870101525b50601f01601f19169290920160200192915050565b60006001600160a01b038087168352808616602084015250836040830152608060608301526128d06080830184612851565b9695505050505050565b6020815260006124cc6020830184612851565b6040815260006129006040830185612851565b90506001600160a01b03831660208301529392505050565b60408152600061292b6040830185612851565b828103602084015261293d8185612851565b95945050505050565b6060815260006129596060830186612851565b828103602084015261296b8186612851565b915050826040830152949350505050565b600181811c9082168061299057607f821691505b602082108114156129b157634e487b7160e01b600052602260045260246000fd5b50919050565b634e487b7160e01b600052604160045260246000fd5b801515811461158d57600080fd5b6001600160e01b03198116811461158d57600080fdfea264697066735822122089fb8791449c747dfbde6397d068fa2fb22c32f2749a0ac68fc6d44820c14ec964736f6c63430008070033",
  "linkReferences": {},
  "deployedLinkReferences": {}
}