{
  "_format": "hh-sol-artifact-1",
  "contractName": "ERC1155HolderModified",
  "sourceName": "contracts/token/ERC1155HolderModified.sol",
  "abi": [
    {
      "anonymous": false,
      "inputs": [
        {
          "indexed": false,
          "internalType": "uint8",
          "name": "version",
          "type": "uint8"
        }
      ],
      "name": "Initialized",
      "type": "event"
    },
    {
      "inputs": [
        {
          "internalType": "address",
          "name": "",
          "type": "address"
        },
        {
          "internalType": "address",
          "name": "",
          "type": "address"
        },
        {
          "internalType": "uint256",
          "name": "",
          "type": "uint256"
        },
        {
          "internalType": "uint256",
          "name": "",
          "type": "uint256"
        },
        {
          "internalType": "bytes",
          "name": "",
          "type": "bytes"
        }
      ],
      "name": "onERC1155Received",
      "outputs": [
        {
          "internalType": "bytes4",
          "name": "",
          "type": "bytes4"
        }
      ],
      "stateMutability": "nonpayable",
      "type": "function"
    },
    {
      "inputs": [
        {
          "internalType": "bytes4",
          "name": "interfaceId",
          "type": "bytes4"
        }
      ],
      "name": "supportsInterface",
      "outputs": [
        {
          "internalType": "bool",
          "name": "",
          "type": "bool"
        }
      ],
      "stateMutability": "view",
      "type": "function"
    }
  ],
  "bytecode": "0x608060405234801561001057600080fd5b50610290806100206000396000f3fe608060405234801561001057600080fd5b50600436106100365760003560e01c806301ffc9a71461003b578063f23a6e6114610063575b600080fd5b61004e6100493660046101fa565b61009b565b60405190151581526020015b60405180910390f35b610082610071366004610114565b63f23a6e6160e01b95945050505050565b6040516001600160e01b0319909116815260200161005a565b60006001600160e01b0319821663f23a6e6160e01b14806100e557507f01ffc9a7000000000000000000000000000000000000000000000000000000006001600160e01b03198316145b92915050565b803573ffffffffffffffffffffffffffffffffffffffff8116811461010f57600080fd5b919050565b600080600080600060a0868803121561012c57600080fd5b610135866100eb565b9450610143602087016100eb565b93506040860135925060608601359150608086013567ffffffffffffffff8082111561016e57600080fd5b818801915088601f83011261018257600080fd5b8135818111156101945761019461022b565b604051601f8201601f19908116603f011681019083821181831017156101bc576101bc61022b565b816040528281528b60208487010111156101d557600080fd5b8260208601602083013760006020848301015280955050505050509295509295909350565b60006020828403121561020c57600080fd5b81356001600160e01b03198116811461022457600080fd5b9392505050565b7f4e487b7100000000000000000000000000000000000000000000000000000000600052604160045260246000fdfea2646970667358221220ba094fde30c4bc0e748ee26acf8dfe3c9704c6421a700e9336979f07668817c664736f6c63430008070033",
  "linkReferences": {},
  "deployedLinkReferences": {}
}