{
  "_format": "hh-sol-artifact-1",
  "contractName": "ERC1155HolderModified",
  "sourceName": "contracts/token/ERC1155HolderModified.sol",
  "abi": [
    {
      "anonymous": false,
      "inputs": [
        {
          "indexed": false,
          "internalType": "uint8",
          "name": "version",
          "type": "uint8"
        }
      ],
      "name": "Initialized",
      "type": "event"
    },
    {
      "inputs": [
        {
          "internalType": "address",
          "name": "",
          "type": "address"
        },
        {
          "internalType": "address",
          "name": "",
          "type": "address"
        },
        {
          "internalType": "uint256",
          "name": "",
          "type": "uint256"
        },
        {
          "internalType": "uint256",
          "name": "",
          "type": "uint256"
        },
        {
          "internalType": "bytes",
          "name": "",
          "type": "bytes"
        }
      ],
      "name": "onERC1155Received",
      "outputs": [
        {
          "internalType": "bytes4",
          "name": "",
          "type": "bytes4"
        }
      ],
      "stateMutability": "nonpayable",
      "type": "function"
    },
    {
      "inputs": [
        {
          "internalType": "bytes4",
          "name": "interfaceId",
          "type": "bytes4"
        }
      ],
      "name": "supportsInterface",
      "outputs": [
        {
          "internalType": "bool",
          "name": "",
          "type": "bool"
        }
      ],
      "stateMutability": "view",
      "type": "function"
    }
  ],
  "bytecode": "0x608060405234801561001057600080fd5b50610251806100206000396000f3fe608060405234801561001057600080fd5b50600436106100365760003560e01c806301ffc9a71461003b578063f23a6e6114610063575b600080fd5b61004e6100493660046101d4565b61009b565b60405190151581526020015b60405180910390f35b6100826100713660046100ee565b63f23a6e6160e01b95945050505050565b6040516001600160e01b0319909116815260200161005a565b60006001600160e01b0319821663f23a6e6160e01b14806100cc57506301ffc9a760e01b6001600160e01b03198316145b92915050565b80356001600160a01b03811681146100e957600080fd5b919050565b600080600080600060a0868803121561010657600080fd5b61010f866100d2565b945061011d602087016100d2565b93506040860135925060608601359150608086013567ffffffffffffffff8082111561014857600080fd5b818801915088601f83011261015c57600080fd5b81358181111561016e5761016e610205565b604051601f8201601f19908116603f0116810190838211818310171561019657610196610205565b816040528281528b60208487010111156101af57600080fd5b8260208601602083013760006020848301015280955050505050509295509295909350565b6000602082840312156101e657600080fd5b81356001600160e01b0319811681146101fe57600080fd5b9392505050565b634e487b7160e01b600052604160045260246000fdfea26469706673582212202bb49b4bb5f5d4e00d28dea6af3031cf3cc800f7a3b25fb8dd57c514cd34beb764736f6c63430008070033",
  "linkReferences": {},
  "deployedLinkReferences": {}
}